{
  "_format": "hh-sol-artifact-1",
  "contractName": "FunctionsConsumer",
  "sourceName": "src/backend/contracts/FunctionsConsumer.sol",
  "abi": [
    {
      "inputs": [
        {
          "internalType": "address",
          "name": "oracle",
          "type": "address"
        }
      ],
      "stateMutability": "nonpayable",
      "type": "constructor"
    },
    {
      "inputs": [],
      "name": "EmptyArgs",
      "type": "error"
    },
    {
      "inputs": [],
      "name": "EmptySecrets",
      "type": "error"
    },
    {
      "inputs": [],
      "name": "EmptySource",
      "type": "error"
    },
    {
      "inputs": [],
      "name": "NoInlineSecrets",
      "type": "error"
    },
    {
      "inputs": [],
      "name": "RequestIsAlreadyPending",
      "type": "error"
    },
    {
      "inputs": [],
      "name": "RequestIsNotPending",
      "type": "error"
    },
    {
      "inputs": [],
      "name": "SenderIsNotRegistry",
      "type": "error"
    },
    {
      "anonymous": false,
      "inputs": [
        {
          "indexed": true,
          "internalType": "bytes32",
          "name": "requestId",
          "type": "bytes32"
        },
        {
          "indexed": false,
          "internalType": "bytes",
          "name": "result",
          "type": "bytes"
        },
        {
          "indexed": false,
          "internalType": "bytes",
          "name": "err",
          "type": "bytes"
        }
      ],
      "name": "OCRResponse",
      "type": "event"
    },
    {
      "anonymous": false,
      "inputs": [
        {
          "indexed": true,
          "internalType": "address",
          "name": "from",
          "type": "address"
        },
        {
          "indexed": true,
          "internalType": "address",
          "name": "to",
          "type": "address"
        }
      ],
      "name": "OwnershipTransferRequested",
      "type": "event"
    },
    {
      "anonymous": false,
      "inputs": [
        {
          "indexed": true,
          "internalType": "address",
          "name": "from",
          "type": "address"
        },
        {
          "indexed": true,
          "internalType": "address",
          "name": "to",
          "type": "address"
        }
      ],
      "name": "OwnershipTransferred",
      "type": "event"
    },
    {
      "anonymous": false,
      "inputs": [
        {
          "indexed": true,
          "internalType": "bytes32",
          "name": "id",
          "type": "bytes32"
        }
      ],
      "name": "RequestFulfilled",
      "type": "event"
    },
    {
      "anonymous": false,
      "inputs": [
        {
          "indexed": true,
          "internalType": "bytes32",
          "name": "id",
          "type": "bytes32"
        }
      ],
      "name": "RequestSent",
      "type": "event"
    },
    {
      "inputs": [],
      "name": "acceptOwnership",
      "outputs": [],
      "stateMutability": "nonpayable",
      "type": "function"
    },
    {
      "inputs": [
        {
          "internalType": "address",
          "name": "oracleAddress",
          "type": "address"
        },
        {
          "internalType": "bytes32",
          "name": "requestId",
          "type": "bytes32"
        }
      ],
      "name": "addSimulatedRequestId",
      "outputs": [],
      "stateMutability": "nonpayable",
      "type": "function"
    },
    {
      "inputs": [
        {
          "components": [
            {
              "internalType": "enum Functions.Location",
              "name": "codeLocation",
              "type": "uint8"
            },
            {
              "internalType": "enum Functions.Location",
              "name": "secretsLocation",
              "type": "uint8"
            },
            {
              "internalType": "enum Functions.CodeLanguage",
              "name": "language",
              "type": "uint8"
            },
            {
              "internalType": "string",
              "name": "source",
              "type": "string"
            },
            {
              "internalType": "bytes",
              "name": "secrets",
              "type": "bytes"
            },
            {
              "internalType": "string[]",
              "name": "args",
              "type": "string[]"
            }
          ],
          "internalType": "struct Functions.Request",
          "name": "req",
          "type": "tuple"
        },
        {
          "internalType": "uint64",
          "name": "subscriptionId",
          "type": "uint64"
        },
        {
          "internalType": "uint32",
          "name": "gasLimit",
          "type": "uint32"
        },
        {
          "internalType": "uint256",
          "name": "gasPrice",
          "type": "uint256"
        }
      ],
      "name": "estimateCost",
      "outputs": [
        {
          "internalType": "uint96",
          "name": "",
          "type": "uint96"
        }
      ],
      "stateMutability": "view",
      "type": "function"
    },
    {
      "inputs": [
        {
          "internalType": "string",
          "name": "source",
          "type": "string"
        },
        {
          "internalType": "bytes",
          "name": "secrets",
          "type": "bytes"
        },
        {
          "internalType": "string[]",
          "name": "args",
          "type": "string[]"
        },
        {
          "internalType": "uint64",
          "name": "subscriptionId",
          "type": "uint64"
        },
        {
          "internalType": "uint32",
          "name": "gasLimit",
          "type": "uint32"
        }
      ],
      "name": "executeRequest",
      "outputs": [
        {
          "internalType": "bytes32",
          "name": "",
          "type": "bytes32"
        }
      ],
      "stateMutability": "nonpayable",
      "type": "function"
    },
    {
      "inputs": [],
      "name": "getDONPublicKey",
      "outputs": [
        {
          "internalType": "bytes",
          "name": "",
          "type": "bytes"
        }
      ],
      "stateMutability": "view",
      "type": "function"
    },
    {
      "inputs": [
        {
          "internalType": "bytes32",
          "name": "requestId",
          "type": "bytes32"
        },
        {
          "internalType": "bytes",
          "name": "response",
          "type": "bytes"
        },
        {
          "internalType": "bytes",
          "name": "err",
          "type": "bytes"
        }
      ],
      "name": "handleOracleFulfillment",
      "outputs": [],
      "stateMutability": "nonpayable",
      "type": "function"
    },
    {
      "inputs": [],
      "name": "latestError",
      "outputs": [
        {
          "internalType": "bytes",
          "name": "",
          "type": "bytes"
        }
      ],
      "stateMutability": "view",
      "type": "function"
    },
    {
      "inputs": [],
      "name": "latestRequestId",
      "outputs": [
        {
          "internalType": "bytes32",
          "name": "",
          "type": "bytes32"
        }
      ],
      "stateMutability": "view",
      "type": "function"
    },
    {
      "inputs": [],
      "name": "latestResponse",
      "outputs": [
        {
          "internalType": "bytes",
          "name": "",
          "type": "bytes"
        }
      ],
      "stateMutability": "view",
      "type": "function"
    },
    {
      "inputs": [],
      "name": "owner",
      "outputs": [
        {
          "internalType": "address",
          "name": "",
          "type": "address"
        }
      ],
      "stateMutability": "view",
      "type": "function"
    },
    {
      "inputs": [
        {
          "internalType": "address",
          "name": "to",
          "type": "address"
        }
      ],
      "name": "transferOwnership",
      "outputs": [],
      "stateMutability": "nonpayable",
      "type": "function"
    },
    {
      "inputs": [
        {
          "internalType": "address",
          "name": "oracle",
          "type": "address"
        }
      ],
      "name": "updateOracleAddress",
      "outputs": [],
      "stateMutability": "nonpayable",
      "type": "function"
    }
  ],
  "bytecode": "0x608060405234801562000010575f80fd5b5060405162001d1738038062001d17833981016040819052620000339162000195565b5f80546001600160a01b0319166001600160a01b038316178155339081906001600160a01b038216620000ad5760405162461bcd60e51b815260206004820152601860248201527f43616e6e6f7420736574206f776e657220746f207a65726f000000000000000060448201526064015b60405180910390fd5b600280546001600160a01b0319166001600160a01b0384811691909117909155811615620000e057620000e081620000ea565b50505050620001c4565b336001600160a01b03821603620001445760405162461bcd60e51b815260206004820152601760248201527f43616e6e6f74207472616e7366657220746f2073656c660000000000000000006044820152606401620000a4565b600380546001600160a01b0319166001600160a01b03838116918217909255600254604051919216907fed8889f560326eb138920d842192f0eb3dd22b4f139c87a2c57538e05bae1278905f90a350565b5f60208284031215620001a6575f80fd5b81516001600160a01b0381168114620001bd575f80fd5b9392505050565b611b4580620001d25f395ff3fe608060405234801561000f575f80fd5b50600436106100cf575f3560e01c8063bef3a2f01161007d578063f2fde38b11610058578063f2fde38b1461019a578063f7023bb6146101ad578063fffeb84e146101c0575f80fd5b8063bef3a2f01461014d578063d328a91e14610162578063d4b391751461016a575f80fd5b806330bda99d116100ad57806330bda99d1461011757806379ba50971461012a5780638da5cb5b14610132575f80fd5b80630ca76175146100d35780631aa46f59146100e85780632771458914610104575b5f80fd5b6100e66100e1366004611290565b6101c8565b005b6100f160045481565b6040519081526020015b60405180910390f35b6100f161011236600461136c565b61026c565b6100e6610125366004611460565b610372565b6100e6610388565b6002546040516001600160a01b0390911681526020016100fb565b610155610441565b6040516100fb91906114d7565b6101556104cd565b61017d6101783660046115a5565b610558565b6040516bffffffffffffffffffffffff90911681526020016100fb565b6100e66101a83660046116af565b6105dc565b6100e66101bb3660046116af565b6105f0565b610155610615565b5f8381526001602052604090205483906001600160a01b03163314610219576040517fa0c5ec6300000000000000000000000000000000000000000000000000000000815260040160405180910390fd5b5f8181526001602052604080822080546001600160a01b03191690555182917f85e1543bf2f84fe80c6badbce3648c8539ad1df4d2b3d822938ca0538be727e691a2610266848484610622565b50505050565b5f61027561067b565b6102ac6040805160c08101909152805f81526020015f81526020015f81526020016060815260200160608152602001606081525090565b6102f15f808c8c8080601f0160208091040260200160405190810160405280939291908181526020018383808284375f92019190915250879594939250506106d79050565b86156103385761033888888080601f0160208091040260200160405190810160405280939291908181526020018383808284375f92019190915250859392505061076d9050565b84156103525761035261034b86886116ca565b82906107b6565b5f61035e8286866107f8565b60048190559b9a5050505050505050505050565b61037a61067b565b6103848282610944565b5050565b6003546001600160a01b031633146103e75760405162461bcd60e51b815260206004820152601660248201527f4d7573742062652070726f706f736564206f776e65720000000000000000000060448201526064015b60405180910390fd5b600280546001600160a01b0319808216339081179093556003805490911690556040516001600160a01b03909116919082907f8be0079c531659141344cd1fd0a4f28419497f9722a3daafe3b4186f6b6457e0905f90a350565b6005805461044e906116d6565b80601f016020809104026020016040519081016040528092919081815260200182805461047a906116d6565b80156104c55780601f1061049c576101008083540402835291602001916104c5565b820191905f5260205f20905b8154815290600101906020018083116104a857829003601f168201915b505050505081565b5f8054604080517fd328a91e00000000000000000000000000000000000000000000000000000000815290516060936001600160a01b039093169263d328a91e92600480820193918290030181865afa15801561052c573d5f803e3d5ffd5b505050506040513d5f823e601f3d908101601f19168201604052610553919081019061170e565b905090565b5f80546001600160a01b031663d227d24585610573886109c2565b86866040518563ffffffff1660e01b81526004016105949493929190611777565b602060405180830381865afa1580156105af573d5f803e3d5ffd5b505050506040513d601f19601f820116820180604052508101906105d391906117b2565b95945050505050565b6105e461067b565b6105ed81610c89565b50565b6105f861067b565b5f80546001600160a01b0319166001600160a01b03831617905550565b6006805461044e906116d6565b600561062e838261182a565b50600661063b828261182a565b50827f7bab0ec163b5c132c72b8146ac4d6e067e82ed58f8b131150aa71c9258911562838360405161066e9291906118e6565b60405180910390a2505050565b6002546001600160a01b031633146106d55760405162461bcd60e51b815260206004820152601660248201527f4f6e6c792063616c6c61626c65206279206f776e65720000000000000000000060448201526064016103de565b565b80515f03610711576040517f22ce3edd00000000000000000000000000000000000000000000000000000000815260040160405180910390fd5b838360018111156107245761072461190a565b908160018111156107375761073761190a565b9052506040840182801561074d5761074d61190a565b9081801561075d5761075d61190a565b9052506060909301929092525050565b80515f036107a7576040517fe889636f00000000000000000000000000000000000000000000000000000000815260040160405180910390fd5b60016020830152608090910152565b80515f036107f0576040517ffe936cb700000000000000000000000000000000000000000000000000000000815260040160405180910390fd5b60a090910152565b5f805481906001600160a01b03166328242b0485610815886109c2565b866040518463ffffffff1660e01b81526004016108349392919061191e565b6020604051808303815f875af1158015610850573d5f803e3d5ffd5b505050506040513d601f19601f820116820180604052508101906108749190611956565b90505f8054906101000a90046001600160a01b03166001600160a01b0316635ab1bd536040518163ffffffff1660e01b8152600401602060405180830381865afa1580156108c4573d5f803e3d5ffd5b505050506040513d601f19601f820116820180604052508101906108e8919061196d565b5f8281526001602052604080822080546001600160a01b0319166001600160a01b039490941693909317909255905182917f1131472297a800fee664d1d89cfa8f7676ff07189ecc53f80bbb5f4969099db891a2949350505050565b5f8181526001602052604090205481906001600160a01b031615610994576040517f8b457ad200000000000000000000000000000000000000000000000000000000815260040160405180910390fd5b505f90815260016020526040902080546001600160a01b0319166001600160a01b0392909216919091179055565b60606109cc611176565b80516109da90610100610d32565b50610a1a816040518060400160405280600c81526020017f636f64654c6f636174696f6e0000000000000000000000000000000000000000815250610da9565b610a3881845f01516001811115610a3357610a3361190a565b610dc7565b610a77816040518060400160405280600881526020017f6c616e6775616765000000000000000000000000000000000000000000000000815250610da9565b610a908184604001515f811115610a3357610a3361190a565b610acf816040518060400160405280600681526020017f736f757263650000000000000000000000000000000000000000000000000000815250610da9565b610add818460600151610da9565b60a08301515115610b8257610b27816040518060400160405280600481526020017f6172677300000000000000000000000000000000000000000000000000000000815250610da9565b610b3081610e00565b5f5b8360a0015151811015610b7857610b66828560a001518381518110610b5957610b59611988565b6020026020010151610da9565b80610b70816119b0565b915050610b32565b50610b8281610e24565b60808301515115610c81575f83602001516001811115610ba457610ba461190a565b03610bdb576040517fa80d31f700000000000000000000000000000000000000000000000000000000815260040160405180910390fd5b610c1a816040518060400160405280600f81526020017f736563726574734c6f636174696f6e0000000000000000000000000000000000815250610da9565b610c348184602001516001811115610a3357610a3361190a565b610c73816040518060400160405280600781526020017f7365637265747300000000000000000000000000000000000000000000000000815250610da9565b610c81818460800151610e42565b515192915050565b336001600160a01b03821603610ce15760405162461bcd60e51b815260206004820152601760248201527f43616e6e6f74207472616e7366657220746f2073656c6600000000000000000060448201526064016103de565b600380546001600160a01b0319166001600160a01b03838116918217909255600254604051919216907fed8889f560326eb138920d842192f0eb3dd22b4f139c87a2c57538e05bae1278905f90a350565b60408051808201909152606081525f6020820152610d516020836119c8565b15610d7957610d616020836119c8565b610d6c9060206119e7565b610d7690836119fa565b91505b60208084018390526040518085525f8152908184010181811015610d9b575f80fd5b604052508290505b92915050565b610db68260038351610e4b565b8151610dc29082610f6c565b505050565b8151610dd49060c2610f93565b506103848282604051602001610dec91815260200190565b604051602081830303815290604052610e42565b610e0b816004610ffa565b600181602001818151610e1e91906119fa565b90525050565b610e2f816007610ffa565b600181602001818151610e1e91906119e7565b610db682600283515b60178167ffffffffffffffff1611610e725782516102669060e0600585901b168317610f93565b60ff8167ffffffffffffffff1611610eb4578251610e9b906018611fe0600586901b1617610f93565b5082516102669067ffffffffffffffff83166001611011565b61ffff8167ffffffffffffffff1611610ef7578251610ede906019611fe0600586901b1617610f93565b5082516102669067ffffffffffffffff83166002611011565b63ffffffff8167ffffffffffffffff1611610f3c578251610f2390601a611fe0600586901b1617610f93565b5082516102669067ffffffffffffffff83166004611011565b8251610f5390601b611fe0600586901b1617610f93565b5082516102669067ffffffffffffffff83166008611011565b60408051808201909152606081525f6020820152610f8c83838451611093565b9392505050565b60408051808201909152606081525f60208201528251515f610fb68260016119fa565b905084602001518210610fd757610fd785610fd2836002611a0d565b61115f565b8451602083820101858153508051821115610ff0578181525b5093949350505050565b8151610dc290601f611fe0600585901b1617610f93565b60408051808201909152606081525f60208201528351515f61103382856119fa565b905085602001518111156110505761105086610fd2836002611a0d565b5f600161105f86610100611b04565b61106991906119e7565b90508651828101878319825116178152508051831115611087578281525b50959695505050505050565b60408051808201909152606081525f602082015282518211156110b4575f80fd5b8351515f6110c284836119fa565b905085602001518111156110df576110df86610fd2836002611a0d565b85518051838201602001915f91808511156110f8578482525b505050602086015b6020861061113857805182526111176020836119fa565b91506111246020826119fa565b90506111316020876119e7565b9550611100565b5181515f1960208890036101000a0190811690199190911617905250849150509392505050565b815161116b8383610d32565b506102668382610f6c565b604051806040016040528061119d6040518060400160405280606081526020015f81525090565b81526020015f81525090565b634e487b7160e01b5f52604160045260245ffd5b60405160c0810167ffffffffffffffff811182821017156111e0576111e06111a9565b60405290565b604051601f8201601f1916810167ffffffffffffffff8111828210171561120f5761120f6111a9565b604052919050565b5f67ffffffffffffffff821115611230576112306111a9565b50601f01601f191660200190565b5f82601f83011261124d575f80fd5b813561126061125b82611217565b6111e6565b818152846020838601011115611274575f80fd5b816020850160208301375f918101602001919091529392505050565b5f805f606084860312156112a2575f80fd5b83359250602084013567ffffffffffffffff808211156112c0575f80fd5b6112cc8783880161123e565b935060408601359150808211156112e1575f80fd5b506112ee8682870161123e565b9150509250925092565b5f8083601f840112611308575f80fd5b50813567ffffffffffffffff81111561131f575f80fd5b602083019150836020828501011115611336575f80fd5b9250929050565b803567ffffffffffffffff81168114611354575f80fd5b919050565b803563ffffffff81168114611354575f80fd5b5f805f805f805f8060a0898b031215611383575f80fd5b883567ffffffffffffffff8082111561139a575f80fd5b6113a68c838d016112f8565b909a50985060208b01359150808211156113be575f80fd5b6113ca8c838d016112f8565b909850965060408b01359150808211156113e2575f80fd5b818b0191508b601f8301126113f5575f80fd5b813581811115611403575f80fd5b8c60208260051b8501011115611417575f80fd5b60208301965080955050505061142f60608a0161133d565b915061143d60808a01611359565b90509295985092959890939650565b6001600160a01b03811681146105ed575f80fd5b5f8060408385031215611471575f80fd5b823561147c8161144c565b946020939093013593505050565b5f5b838110156114a457818101518382015260200161148c565b50505f910152565b5f81518084526114c381602086016020860161148a565b601f01601f19169290920160200192915050565b602081525f610f8c60208301846114ac565b803560028110611354575f80fd5b803560018110611354575f80fd5b5f67ffffffffffffffff8084111561151f5761151f6111a9565b8360051b60206115308183016111e6565b86815293509084019080840187831115611548575f80fd5b855b8381101561157b57803585811115611561575f8081fd5b61156d8a828a0161123e565b83525090820190820161154a565b50505050509392505050565b5f82601f830112611596575f80fd5b610f8c83833560208501611505565b5f805f80608085870312156115b8575f80fd5b843567ffffffffffffffff808211156115cf575f80fd5b9086019060c082890312156115e2575f80fd5b6115ea6111bd565b6115f3836114e9565b8152611601602084016114e9565b6020820152611612604084016114f7565b6040820152606083013582811115611628575f80fd5b6116348a82860161123e565b60608301525060808301358281111561164b575f80fd5b6116578a82860161123e565b60808301525060a08301358281111561166e575f80fd5b61167a8a828601611587565b60a08301525095506116919150506020860161133d565b925061169f60408601611359565b9396929550929360600135925050565b5f602082840312156116bf575f80fd5b8135610f8c8161144c565b5f610f8c368484611505565b600181811c908216806116ea57607f821691505b60208210810361170857634e487b7160e01b5f52602260045260245ffd5b50919050565b5f6020828403121561171e575f80fd5b815167ffffffffffffffff811115611734575f80fd5b8201601f81018413611744575f80fd5b805161175261125b82611217565b818152856020838501011115611766575f80fd5b6105d382602083016020860161148a565b67ffffffffffffffff85168152608060208201525f61179960808301866114ac565b63ffffffff949094166040830152506060015292915050565b5f602082840312156117c2575f80fd5b81516bffffffffffffffffffffffff81168114610f8c575f80fd5b601f821115610dc2575f81815260208120601f850160051c810160208610156118035750805b601f850160051c820191505b818110156118225782815560010161180f565b505050505050565b815167ffffffffffffffff811115611844576118446111a9565b6118588161185284546116d6565b846117dd565b602080601f83116001811461188b575f84156118745750858301515b5f19600386901b1c1916600185901b178555611822565b5f85815260208120601f198616915b828110156118b95788860151825594840194600190910190840161189a565b50858210156118d657878501515f19600388901b60f8161c191681555b5050505050600190811b01905550565b604081525f6118f860408301856114ac565b82810360208401526105d381856114ac565b634e487b7160e01b5f52602160045260245ffd5b67ffffffffffffffff84168152606060208201525f61194060608301856114ac565b905063ffffffff83166040830152949350505050565b5f60208284031215611966575f80fd5b5051919050565b5f6020828403121561197d575f80fd5b8151610f8c8161144c565b634e487b7160e01b5f52603260045260245ffd5b634e487b7160e01b5f52601160045260245ffd5b5f600182016119c1576119c161199c565b5060010190565b5f826119e257634e487b7160e01b5f52601260045260245ffd5b500690565b81810381811115610da357610da361199c565b80820180821115610da357610da361199c565b8082028115828204841417610da357610da361199c565b600181815b80851115611a5e57815f1904821115611a4457611a4461199c565b80851615611a5157918102915b93841c9390800290611a29565b509250929050565b5f82611a7457506001610da3565b81611a8057505f610da3565b8160018114611a965760028114611aa057611abc565b6001915050610da3565b60ff841115611ab157611ab161199c565b50506001821b610da3565b5060208310610133831016604e8410600b8410161715611adf575081810a610da3565b611ae98383611a24565b805f1904821115611afc57611afc61199c565b029392505050565b5f610f8c8383611a6656fea264697066735822122064d9a05ea31c8aab54e324b81b5a77273c754e3d6f1e967b145777a5687b7af864736f6c63430008140033",
  "linkReferences": {},
  "deployedLinkReferences": {}
}