{
  "_format": "hh-sol-artifact-1",
  "contractName": "GovernanceToken",
  "sourceName": "src/backend/contracts/XGovernanceToken.sol",
  "abi": [
    {
      "inputs": [],
      "stateMutability": "nonpayable",
      "type": "constructor"
    },
    {
      "inputs": [],
      "name": "InvalidShortString",
      "type": "error"
    },
    {
      "inputs": [
        {
          "internalType": "string",
          "name": "str",
          "type": "string"
        }
      ],
      "name": "StringTooLong",
      "type": "error"
    },
    {
      "anonymous": false,
      "inputs": [
        {
          "indexed": true,
          "internalType": "address",
          "name": "owner",
          "type": "address"
        },
        {
          "indexed": true,
          "internalType": "address",
          "name": "approved",
          "type": "address"
        },
        {
          "indexed": true,
          "internalType": "uint256",
          "name": "tokenId",
          "type": "uint256"
        }
      ],
      "name": "Approval",
      "type": "event"
    },
    {
      "anonymous": false,
      "inputs": [
        {
          "indexed": true,
          "internalType": "address",
          "name": "owner",
          "type": "address"
        },
        {
          "indexed": true,
          "internalType": "address",
          "name": "operator",
          "type": "address"
        },
        {
          "indexed": false,
          "internalType": "bool",
          "name": "approved",
          "type": "bool"
        }
      ],
      "name": "ApprovalForAll",
      "type": "event"
    },
    {
      "anonymous": false,
      "inputs": [
        {
          "indexed": true,
          "internalType": "address",
          "name": "delegator",
          "type": "address"
        },
        {
          "indexed": true,
          "internalType": "address",
          "name": "fromDelegate",
          "type": "address"
        },
        {
          "indexed": true,
          "internalType": "address",
          "name": "toDelegate",
          "type": "address"
        }
      ],
      "name": "DelegateChanged",
      "type": "event"
    },
    {
      "anonymous": false,
      "inputs": [
        {
          "indexed": true,
          "internalType": "address",
          "name": "delegate",
          "type": "address"
        },
        {
          "indexed": false,
          "internalType": "uint256",
          "name": "previousBalance",
          "type": "uint256"
        },
        {
          "indexed": false,
          "internalType": "uint256",
          "name": "newBalance",
          "type": "uint256"
        }
      ],
      "name": "DelegateVotesChanged",
      "type": "event"
    },
    {
      "anonymous": false,
      "inputs": [],
      "name": "EIP712DomainChanged",
      "type": "event"
    },
    {
      "anonymous": false,
      "inputs": [
        {
          "indexed": true,
          "internalType": "address",
          "name": "previousOwner",
          "type": "address"
        },
        {
          "indexed": true,
          "internalType": "address",
          "name": "newOwner",
          "type": "address"
        }
      ],
      "name": "OwnershipTransferred",
      "type": "event"
    },
    {
      "anonymous": false,
      "inputs": [
        {
          "indexed": true,
          "internalType": "address",
          "name": "from",
          "type": "address"
        },
        {
          "indexed": true,
          "internalType": "address",
          "name": "to",
          "type": "address"
        },
        {
          "indexed": true,
          "internalType": "uint256",
          "name": "tokenId",
          "type": "uint256"
        }
      ],
      "name": "Transfer",
      "type": "event"
    },
    {
      "inputs": [],
      "name": "CLOCK_MODE",
      "outputs": [
        {
          "internalType": "string",
          "name": "",
          "type": "string"
        }
      ],
      "stateMutability": "view",
      "type": "function"
    },
    {
      "inputs": [],
      "name": "DOMAIN_SEPARATOR",
      "outputs": [
        {
          "internalType": "bytes32",
          "name": "",
          "type": "bytes32"
        }
      ],
      "stateMutability": "view",
      "type": "function"
    },
    {
      "inputs": [
        {
          "internalType": "address",
          "name": "to",
          "type": "address"
        },
        {
          "internalType": "uint256",
          "name": "tokenId",
          "type": "uint256"
        }
      ],
      "name": "approve",
      "outputs": [],
      "stateMutability": "nonpayable",
      "type": "function"
    },
    {
      "inputs": [
        {
          "internalType": "address",
          "name": "owner",
          "type": "address"
        }
      ],
      "name": "balanceOf",
      "outputs": [
        {
          "internalType": "uint256",
          "name": "",
          "type": "uint256"
        }
      ],
      "stateMutability": "view",
      "type": "function"
    },
    {
      "inputs": [],
      "name": "clock",
      "outputs": [
        {
          "internalType": "uint48",
          "name": "",
          "type": "uint48"
        }
      ],
      "stateMutability": "view",
      "type": "function"
    },
    {
      "inputs": [
        {
          "internalType": "address",
          "name": "delegatee",
          "type": "address"
        }
      ],
      "name": "delegate",
      "outputs": [],
      "stateMutability": "nonpayable",
      "type": "function"
    },
    {
      "inputs": [
        {
          "internalType": "address",
          "name": "delegatee",
          "type": "address"
        },
        {
          "internalType": "uint256",
          "name": "nonce",
          "type": "uint256"
        },
        {
          "internalType": "uint256",
          "name": "expiry",
          "type": "uint256"
        },
        {
          "internalType": "uint8",
          "name": "v",
          "type": "uint8"
        },
        {
          "internalType": "bytes32",
          "name": "r",
          "type": "bytes32"
        },
        {
          "internalType": "bytes32",
          "name": "s",
          "type": "bytes32"
        }
      ],
      "name": "delegateBySig",
      "outputs": [],
      "stateMutability": "nonpayable",
      "type": "function"
    },
    {
      "inputs": [
        {
          "internalType": "address",
          "name": "account",
          "type": "address"
        }
      ],
      "name": "delegates",
      "outputs": [
        {
          "internalType": "address",
          "name": "",
          "type": "address"
        }
      ],
      "stateMutability": "view",
      "type": "function"
    },
    {
      "inputs": [],
      "name": "eip712Domain",
      "outputs": [
        {
          "internalType": "bytes1",
          "name": "fields",
          "type": "bytes1"
        },
        {
          "internalType": "string",
          "name": "name",
          "type": "string"
        },
        {
          "internalType": "string",
          "name": "version",
          "type": "string"
        },
        {
          "internalType": "uint256",
          "name": "chainId",
          "type": "uint256"
        },
        {
          "internalType": "address",
          "name": "verifyingContract",
          "type": "address"
        },
        {
          "internalType": "bytes32",
          "name": "salt",
          "type": "bytes32"
        },
        {
          "internalType": "uint256[]",
          "name": "extensions",
          "type": "uint256[]"
        }
      ],
      "stateMutability": "view",
      "type": "function"
    },
    {
      "inputs": [
        {
          "internalType": "uint256",
          "name": "tokenId",
          "type": "uint256"
        }
      ],
      "name": "getApproved",
      "outputs": [
        {
          "internalType": "address",
          "name": "",
          "type": "address"
        }
      ],
      "stateMutability": "view",
      "type": "function"
    },
    {
      "inputs": [
        {
          "internalType": "uint256",
          "name": "timepoint",
          "type": "uint256"
        }
      ],
      "name": "getPastTotalSupply",
      "outputs": [
        {
          "internalType": "uint256",
          "name": "",
          "type": "uint256"
        }
      ],
      "stateMutability": "view",
      "type": "function"
    },
    {
      "inputs": [
        {
          "internalType": "address",
          "name": "account",
          "type": "address"
        },
        {
          "internalType": "uint256",
          "name": "timepoint",
          "type": "uint256"
        }
      ],
      "name": "getPastVotes",
      "outputs": [
        {
          "internalType": "uint256",
          "name": "",
          "type": "uint256"
        }
      ],
      "stateMutability": "view",
      "type": "function"
    },
    {
      "inputs": [
        {
          "internalType": "address",
          "name": "account",
          "type": "address"
        }
      ],
      "name": "getVotes",
      "outputs": [
        {
          "internalType": "uint256",
          "name": "",
          "type": "uint256"
        }
      ],
      "stateMutability": "view",
      "type": "function"
    },
    {
      "inputs": [
        {
          "internalType": "address",
          "name": "owner",
          "type": "address"
        },
        {
          "internalType": "address",
          "name": "operator",
          "type": "address"
        }
      ],
      "name": "isApprovedForAll",
      "outputs": [
        {
          "internalType": "bool",
          "name": "",
          "type": "bool"
        }
      ],
      "stateMutability": "view",
      "type": "function"
    },
    {
      "inputs": [],
      "name": "name",
      "outputs": [
        {
          "internalType": "string",
          "name": "",
          "type": "string"
        }
      ],
      "stateMutability": "view",
      "type": "function"
    },
    {
      "inputs": [
        {
          "internalType": "address",
          "name": "owner",
          "type": "address"
        }
      ],
      "name": "nonces",
      "outputs": [
        {
          "internalType": "uint256",
          "name": "",
          "type": "uint256"
        }
      ],
      "stateMutability": "view",
      "type": "function"
    },
    {
      "inputs": [],
      "name": "owner",
      "outputs": [
        {
          "internalType": "address",
          "name": "",
          "type": "address"
        }
      ],
      "stateMutability": "view",
      "type": "function"
    },
    {
      "inputs": [
        {
          "internalType": "uint256",
          "name": "tokenId",
          "type": "uint256"
        }
      ],
      "name": "ownerOf",
      "outputs": [
        {
          "internalType": "address",
          "name": "",
          "type": "address"
        }
      ],
      "stateMutability": "view",
      "type": "function"
    },
    {
      "inputs": [],
      "name": "renounceOwnership",
      "outputs": [],
      "stateMutability": "nonpayable",
      "type": "function"
    },
    {
      "inputs": [
        {
          "internalType": "address",
          "name": "to",
          "type": "address"
        }
      ],
      "name": "safeMint",
      "outputs": [],
      "stateMutability": "nonpayable",
      "type": "function"
    },
    {
      "inputs": [
        {
          "internalType": "address",
          "name": "from",
          "type": "address"
        },
        {
          "internalType": "address",
          "name": "to",
          "type": "address"
        },
        {
          "internalType": "uint256",
          "name": "tokenId",
          "type": "uint256"
        }
      ],
      "name": "safeTransferFrom",
      "outputs": [],
      "stateMutability": "nonpayable",
      "type": "function"
    },
    {
      "inputs": [
        {
          "internalType": "address",
          "name": "from",
          "type": "address"
        },
        {
          "internalType": "address",
          "name": "to",
          "type": "address"
        },
        {
          "internalType": "uint256",
          "name": "tokenId",
          "type": "uint256"
        },
        {
          "internalType": "bytes",
          "name": "data",
          "type": "bytes"
        }
      ],
      "name": "safeTransferFrom",
      "outputs": [],
      "stateMutability": "nonpayable",
      "type": "function"
    },
    {
      "inputs": [
        {
          "internalType": "address",
          "name": "operator",
          "type": "address"
        },
        {
          "internalType": "bool",
          "name": "approved",
          "type": "bool"
        }
      ],
      "name": "setApprovalForAll",
      "outputs": [],
      "stateMutability": "nonpayable",
      "type": "function"
    },
    {
      "inputs": [
        {
          "internalType": "address",
          "name": "_userRegistry",
          "type": "address"
        }
      ],
      "name": "setUserRegistry",
      "outputs": [],
      "stateMutability": "nonpayable",
      "type": "function"
    },
    {
      "inputs": [
        {
          "internalType": "address",
          "name": "_variables",
          "type": "address"
        }
      ],
      "name": "setVariables",
      "outputs": [],
      "stateMutability": "nonpayable",
      "type": "function"
    },
    {
      "inputs": [],
      "name": "supply",
      "outputs": [
        {
          "internalType": "uint256",
          "name": "",
          "type": "uint256"
        }
      ],
      "stateMutability": "view",
      "type": "function"
    },
    {
      "inputs": [
        {
          "internalType": "bytes4",
          "name": "interfaceId",
          "type": "bytes4"
        }
      ],
      "name": "supportsInterface",
      "outputs": [
        {
          "internalType": "bool",
          "name": "",
          "type": "bool"
        }
      ],
      "stateMutability": "view",
      "type": "function"
    },
    {
      "inputs": [],
      "name": "symbol",
      "outputs": [
        {
          "internalType": "string",
          "name": "",
          "type": "string"
        }
      ],
      "stateMutability": "view",
      "type": "function"
    },
    {
      "inputs": [
        {
          "internalType": "uint256",
          "name": "tokenId",
          "type": "uint256"
        }
      ],
      "name": "tokenURI",
      "outputs": [
        {
          "internalType": "string",
          "name": "",
          "type": "string"
        }
      ],
      "stateMutability": "view",
      "type": "function"
    },
    {
      "inputs": [
        {
          "internalType": "address",
          "name": "from",
          "type": "address"
        },
        {
          "internalType": "address",
          "name": "to",
          "type": "address"
        },
        {
          "internalType": "uint256",
          "name": "tokenId",
          "type": "uint256"
        }
      ],
      "name": "transferFrom",
      "outputs": [],
      "stateMutability": "nonpayable",
      "type": "function"
    },
    {
      "inputs": [
        {
          "internalType": "address",
          "name": "newOwner",
          "type": "address"
        }
      ],
      "name": "transferOwnership",
      "outputs": [],
      "stateMutability": "nonpayable",
      "type": "function"
    }
  ],
  "bytecode": "0x61016060405234801562000011575f80fd5b50604080518082018252600b8082526a21b0b934b733a837bbb2b960a91b60208084018290528451808601865260018152603160f81b81830152855180870187529384528382019290925284518086019095526002855261043560f41b9085015291925f620000818382620002e4565b506001620000908282620002e4565b505050620000ad620000a76200016c60201b60201c565b62000170565b620000ba826007620001c1565b61012052620000cb816008620001c1565b61014052815160208084019190912060e052815190820120610100524660a0526200015860e05161010051604080517f8b73c3c69bb8fe3d512ecc4cf759cc79239f7b179b0ffacaa9a75d522b39400f60208201529081019290925260608201524660808201523060a08201525f9060c00160405160208183030381529060405280519060200120905090565b60805250503060c0526001600d556200041d565b3390565b600680546001600160a01b038381166001600160a01b0319831681179093556040519116919082907f8be0079c531659141344cd1fd0a4f28419497f9722a3daafe3b4186f6b6457e0905f90a35050565b5f602083511015620001e057620001d883620001f9565b9050620001f3565b81620001ed8482620002e4565b5060ff90505b92915050565b5f80829050601f815111156200022f578260405163305a27a960e01b8152600401620002269190620003ac565b60405180910390fd5b80516200023c82620003f9565b179392505050565b634e487b7160e01b5f52604160045260245ffd5b600181811c908216806200026d57607f821691505b6020821081036200028c57634e487b7160e01b5f52602260045260245ffd5b50919050565b601f821115620002df575f81815260208120601f850160051c81016020861015620002ba5750805b601f850160051c820191505b81811015620002db57828155600101620002c6565b5050505b505050565b81516001600160401b0381111562000300576200030062000244565b620003188162000311845462000258565b8462000292565b602080601f8311600181146200034e575f8415620003365750858301515b5f19600386901b1c1916600185901b178555620002db565b5f85815260208120601f198616915b828110156200037e578886015182559484019460019091019084016200035d565b50858210156200039c57878501515f19600388901b60f8161c191681555b5050505050600190811b01905550565b5f6020808352835180828501525f5b81811015620003d957858101830151858201604001528201620003bb565b505f604082860101526040601f19601f8301168501019250505092915050565b805160208083015191908110156200028c575f1960209190910360031b1b16919050565b60805160a05160c05160e0516101005161012051610140516130166200046f5f395f610c8b01525f610c6001525f61150301525f6114db01525f61143601525f61146001525f61148a01526130165ff3fe608060405234801561000f575f80fd5b50600436106101dc575f3560e01c806370a08231116101095780639ab24eb01161009e578063c3cda5201161006e578063c3cda52014610413578063c87b56dd14610426578063e985e9c514610439578063f2fde38b14610474575f80fd5b80639ab24eb0146103c7578063a22cb465146103da578063b0d5451b146103ed578063b88d4fde14610400575f80fd5b80638da5cb5b116100d95780638da5cb5b1461037c5780638e539e8c1461038d57806391ddadf4146103a057806395d89b41146103bf575f80fd5b806370a0823114610333578063715018a6146103465780637ecebe001461034e57806384b0196e14610361575f80fd5b80633644e5151161017f5780634bf5d7e91161014f5780634bf5d7e9146102da578063587cde1e146102e25780635c19a95c1461030d5780636352211e14610320575f80fd5b80633644e515146102995780633a46b1a8146102a157806340d097c3146102b457806342842e0e146102c7575f80fd5b8063081812fc116101ba578063081812fc14610233578063095ea7b31461025e57806323b872dd146102735780632c9eb8c914610286575f80fd5b806301ffc9a7146101e0578063047fc9aa1461020857806306fdde031461021e575b5f80fd5b6101f36101ee3660046128c5565b610487565b60405190151581526020015b60405180910390f35b610210610523565b6040519081526020016101ff565b610226610532565b6040516101ff919061292d565b61024661024136600461293f565b6105c1565b6040516001600160a01b0390911681526020016101ff565b61027161026c366004612971565b6105e6565b005b610271610281366004612999565b61071b565b6102716102943660046129d2565b610792565b6102106107bc565b6102106102af366004612971565b6107c5565b6102716102c23660046129d2565b61085d565b6102716102d5366004612999565b610a66565b610226610a80565b6102466102f03660046129d2565b6001600160a01b039081165f908152600960205260409020541690565b61027161031b3660046129d2565b610b18565b61024661032e36600461293f565b610b27565b6102106103413660046129d2565b610b8b565b610271610c23565b61021061035c3660046129d2565b610c36565b610369610c53565b6040516101ff97969594939291906129eb565b6006546001600160a01b0316610246565b61021061039b36600461293f565b610cf6565b6103a8610d78565b60405165ffffffffffff90911681526020016101ff565b610226610d82565b6102106103d53660046129d2565b610d91565b6102716103e8366004612aa8565b610db1565b6102716103fb3660046129d2565b610dbc565b61027161040e366004612b73565b610de6565b610271610421366004612c17565b610e64565b61022661043436600461293f565b610f90565b6101f3610447366004612c72565b6001600160a01b039182165f90815260056020908152604080832093909416825291909152205460ff1690565b6102716104823660046129d2565b610ff4565b5f6001600160e01b031982167f80ac58cd0000000000000000000000000000000000000000000000000000000014806104e957506001600160e01b031982167f5b5e139f00000000000000000000000000000000000000000000000000000000145b8061051d57507f01ffc9a7000000000000000000000000000000000000000000000000000000006001600160e01b03198316145b92915050565b5f61052d600d5490565b905090565b60605f805461054090612ca3565b80601f016020809104026020016040519081016040528092919081815260200182805461056c90612ca3565b80156105b75780601f1061058e576101008083540402835291602001916105b7565b820191905f5260205f20905b81548152906001019060200180831161059a57829003601f168201915b5050505050905090565b5f6105cb82611084565b505f908152600460205260409020546001600160a01b031690565b5f6105f082610b27565b9050806001600160a01b0316836001600160a01b03160361067e5760405162461bcd60e51b815260206004820152602160248201527f4552433732313a20617070726f76616c20746f2063757272656e74206f776e6560448201527f720000000000000000000000000000000000000000000000000000000000000060648201526084015b60405180910390fd5b336001600160a01b038216148061069a575061069a8133610447565b61070c5760405162461bcd60e51b815260206004820152603d60248201527f4552433732313a20617070726f76652063616c6c6572206973206e6f7420746f60448201527f6b656e206f776e6572206f7220617070726f76656420666f7220616c6c0000006064820152608401610675565b61071683836110e7565b505050565b6107253382611154565b6107875760405162461bcd60e51b815260206004820152602d60248201527f4552433732313a2063616c6c6572206973206e6f7420746f6b656e206f776e6560448201526c1c881bdc88185c1c1c9bdd9959609a1b6064820152608401610675565b6107168383836111d1565b61079a6113d0565b600f80546001600160a01b0319166001600160a01b0392909216919091179055565b5f61052d61142a565b5f6107ce610d78565b65ffffffffffff1682106108245760405162461bcd60e51b815260206004820152601460248201527f566f7465733a20667574757265206c6f6f6b75700000000000000000000000006044820152606401610675565b61084d61083083611553565b6001600160a01b0385165f908152600a60205260409020906115d2565b6001600160e01b03169392505050565b600f54604080517fe7f89236000000000000000000000000000000000000000000000000000000008152905183926001600160a01b03169163e7f892369160048083019260209291908290030181865afa1580156108bd573d5f803e3d5ffd5b505050506040513d601f19601f820116820180604052508101906108e19190612cd5565b600e546040517fcc3d967b0000000000000000000000000000000000000000000000000000000081526001600160a01b0384811660048301529091169063cc3d967b906024015f60405180830381865afa158015610941573d5f803e3d5ffd5b505050506040513d5f823e601f3d908101601f191682016040526109689190810190612d39565b6040015110156109ba5760405162461bcd60e51b815260206004820152601660248201527f5265616368206c6576656c20313020746f206d696e74000000000000000000006044820152606401610675565b5f6109c4600d5490565b90506109d4600d80546001019055565b6109de8382611681565b6109e783610b18565b600e546040517fc7c82d1c0000000000000000000000000000000000000000000000000000000081526001600160a01b038581166004830152602482018490529091169063c7c82d1c906044015f604051808303815f87803b158015610a4b575f80fd5b505af1158015610a5d573d5f803e3d5ffd5b50505050505050565b61071683838360405180602001604052805f815250610de6565b606043610a8b610d78565b65ffffffffffff1614610ae05760405162461bcd60e51b815260206004820152601860248201527f566f7465733a2062726f6b656e20636c6f636b206d6f646500000000000000006044820152606401610675565b5060408051808201909152601d81527f6d6f64653d626c6f636b6e756d6265722666726f6d3d64656661756c74000000602082015290565b33610b23818361169a565b5050565b5f818152600260205260408120546001600160a01b03168061051d5760405162461bcd60e51b815260206004820152601860248201527f4552433732313a20696e76616c696420746f6b656e20494400000000000000006044820152606401610675565b5f6001600160a01b038216610c085760405162461bcd60e51b815260206004820152602960248201527f4552433732313a2061646472657373207a65726f206973206e6f74206120766160448201527f6c6964206f776e657200000000000000000000000000000000000000000000006064820152608401610675565b506001600160a01b03165f9081526003602052604090205490565b610c2b6113d0565b610c345f61170b565b565b6001600160a01b0381165f908152600c602052604081205461051d565b5f60608082808083610c867f0000000000000000000000000000000000000000000000000000000000000000600761175c565b610cb17f0000000000000000000000000000000000000000000000000000000000000000600861175c565b604080515f808252602082019092527f0f000000000000000000000000000000000000000000000000000000000000009b939a50919850469750309650945092509050565b5f610cff610d78565b65ffffffffffff168210610d555760405162461bcd60e51b815260206004820152601460248201527f566f7465733a20667574757265206c6f6f6b75700000000000000000000000006044820152606401610675565b610d69610d6183611553565b600b906115d2565b6001600160e01b031692915050565b5f61052d43611805565b60606001805461054090612ca3565b6001600160a01b0381165f908152600a60205260408120610d6990611882565b610b233383836118ba565b610dc46113d0565b600e80546001600160a01b0319166001600160a01b0392909216919091179055565b610df03383611154565b610e525760405162461bcd60e51b815260206004820152602d60248201527f4552433732313a2063616c6c6572206973206e6f7420746f6b656e206f776e6560448201526c1c881bdc88185c1c1c9bdd9959609a1b6064820152608401610675565b610e5e84848484611987565b50505050565b83421115610eb45760405162461bcd60e51b815260206004820152601860248201527f566f7465733a207369676e6174757265206578706972656400000000000000006044820152606401610675565b604080517fe48329057bfd03d55e49b547132e39cffd9c1820ad7b9d4c5307691425d15adf60208201526001600160a01b0388169181019190915260608101869052608081018590525f90610f2d90610f259060a00160405160208183030381529060405280519060200120611a05565b858585611a4c565b9050610f3881611a72565b8614610f865760405162461bcd60e51b815260206004820152601460248201527f566f7465733a20696e76616c6964206e6f6e63650000000000000000000000006044820152606401610675565b610a5d818861169a565b6060610f9b82611084565b5f610fa4611a99565b90505f815111610fc25760405180602001604052805f815250610fed565b80610fcc84611ab9565b604051602001610fdd929190612e3f565b6040516020818303038152906040525b9392505050565b610ffc6113d0565b6001600160a01b0381166110785760405162461bcd60e51b815260206004820152602660248201527f4f776e61626c653a206e6577206f776e657220697320746865207a65726f206160448201527f64647265737300000000000000000000000000000000000000000000000000006064820152608401610675565b6110818161170b565b50565b5f818152600260205260409020546001600160a01b03166110815760405162461bcd60e51b815260206004820152601860248201527f4552433732313a20696e76616c696420746f6b656e20494400000000000000006044820152606401610675565b5f81815260046020526040902080546001600160a01b0319166001600160a01b038416908117909155819061111b82610b27565b6001600160a01b03167f8c5be1e5ebec7d5bd14f71427d1e84f3dd0314c0f7b2291e5b200ac8c7c3b92560405160405180910390a45050565b5f8061115f83610b27565b9050806001600160a01b0316846001600160a01b031614806111a557506001600160a01b038082165f9081526005602090815260408083209388168352929052205460ff165b806111c95750836001600160a01b03166111be846105c1565b6001600160a01b0316145b949350505050565b826001600160a01b03166111e482610b27565b6001600160a01b0316146112485760405162461bcd60e51b815260206004820152602560248201527f4552433732313a207472616e736665722066726f6d20696e636f72726563742060448201526437bbb732b960d91b6064820152608401610675565b6001600160a01b0382166112c35760405162461bcd60e51b8152602060048201526024808201527f4552433732313a207472616e7366657220746f20746865207a65726f2061646460448201527f72657373000000000000000000000000000000000000000000000000000000006064820152608401610675565b826001600160a01b03166112d682610b27565b6001600160a01b03161461133a5760405162461bcd60e51b815260206004820152602560248201527f4552433732313a207472616e736665722066726f6d20696e636f72726563742060448201526437bbb732b960d91b6064820152608401610675565b5f81815260046020908152604080832080546001600160a01b03199081169091556001600160a01b038781168086526003855283862080545f1901905590871680865283862080546001019055868652600290945282852080549092168417909155905184937fddf252ad1be2c89b69c2b068fc378daa952ba7f163c4a11628f55a4df523b3ef91a46107168383836001611b56565b6006546001600160a01b03163314610c345760405162461bcd60e51b815260206004820181905260248201527f4f776e61626c653a2063616c6c6572206973206e6f7420746865206f776e65726044820152606401610675565b5f306001600160a01b037f00000000000000000000000000000000000000000000000000000000000000001614801561148257507f000000000000000000000000000000000000000000000000000000000000000046145b156114ac57507f000000000000000000000000000000000000000000000000000000000000000090565b61052d604080517f8b73c3c69bb8fe3d512ecc4cf759cc79239f7b179b0ffacaa9a75d522b39400f60208201527f0000000000000000000000000000000000000000000000000000000000000000918101919091527f000000000000000000000000000000000000000000000000000000000000000060608201524660808201523060a08201525f9060c00160405160208183030381529060405280519060200120905090565b5f63ffffffff8211156115ce5760405162461bcd60e51b815260206004820152602660248201527f53616665436173743a2076616c756520646f65736e27742066697420696e203360448201527f32206269747300000000000000000000000000000000000000000000000000006064820152608401610675565b5090565b81545f908181600581111561162c575f6115eb84611b62565b6115f59085612e81565b5f8881526020902090915081015463ffffffff908116908716101561161c5780915061162a565b611627816001612e94565b92505b505b5f61163987878585611c46565b905080156116745761165d87611650600184612e81565b5f91825260209091200190565b5464010000000090046001600160e01b0316611676565b5f5b979650505050505050565b610b23828260405180602001604052805f815250611ca1565b6001600160a01b038281165f8181526009602052604080822080548686166001600160a01b0319821681179092559151919094169392849290917f3134e8a2e6d97e929a7e54011ea5485d7d196dd5f0ba4d4ef95803e8e3fc257f9190a4610716818361170686611d1e565b611d28565b600680546001600160a01b038381166001600160a01b0319831681179093556040519116919082907f8be0079c531659141344cd1fd0a4f28419497f9722a3daafe3b4186f6b6457e0905f90a35050565b606060ff83146117765761176f83611e91565b905061051d565b81805461178290612ca3565b80601f01602080910402602001604051908101604052809291908181526020018280546117ae90612ca3565b80156117f95780601f106117d0576101008083540402835291602001916117f9565b820191905f5260205f20905b8154815290600101906020018083116117dc57829003601f168201915b5050505050905061051d565b5f65ffffffffffff8211156115ce5760405162461bcd60e51b815260206004820152602660248201527f53616665436173743a2076616c756520646f65736e27742066697420696e203460448201527f38206269747300000000000000000000000000000000000000000000000000006064820152608401610675565b80545f9080156118b25761189b83611650600184612e81565b5464010000000090046001600160e01b0316610fed565b5f9392505050565b816001600160a01b0316836001600160a01b03160361191b5760405162461bcd60e51b815260206004820152601960248201527f4552433732313a20617070726f766520746f2063616c6c6572000000000000006044820152606401610675565b6001600160a01b038381165f81815260056020908152604080832094871680845294825291829020805460ff191686151590811790915591519182527f17307eab39ab6107e8899845ad3d59bd9653f200f220920489ca2b5937696c31910160405180910390a3505050565b6119928484846111d1565b61199e84848484611ece565b610e5e5760405162461bcd60e51b815260206004820152603260248201527f4552433732313a207472616e7366657220746f206e6f6e20455243373231526560448201527131b2b4bb32b91034b6b83632b6b2b73a32b960711b6064820152608401610675565b5f61051d611a1161142a565b836040517f19010000000000000000000000000000000000000000000000000000000000008152600281019290925260228201526042902090565b5f805f611a5b87878787612013565b91509150611a68816120d0565b5095945050505050565b6001600160a01b0381165f908152600c602052604090208054600181018255905b50919050565b6060604051806080016040528060558152602001612f8c60559139905090565b60605f611ac583612234565b60010190505f8167ffffffffffffffff811115611ae457611ae4612add565b6040519080825280601f01601f191660200182016040528015611b0e576020820181803683370190505b5090508181016020015b5f19017f3031323334353637383961626364656600000000000000000000000000000000600a86061a8153600a8504945084611b1857509392505050565b610e5e84848484612315565b5f815f03611b7157505f919050565b5f6001611b7d84612325565b901c6001901b90506001818481611b9657611b96612ea7565b048201901c90506001818481611bae57611bae612ea7565b048201901c90506001818481611bc657611bc6612ea7565b048201901c90506001818481611bde57611bde612ea7565b048201901c90506001818481611bf657611bf6612ea7565b048201901c90506001818481611c0e57611c0e612ea7565b048201901c90506001818481611c2657611c26612ea7565b048201901c9050610fed81828581611c4057611c40612ea7565b046123b8565b5f5b81831015611c99575f611c5b84846123cd565b5f8781526020902090915063ffffffff86169082015463ffffffff161115611c8557809250611c93565b611c90816001612e94565b93505b50611c48565b509392505050565b611cab83836123e7565b611cb75f848484611ece565b6107165760405162461bcd60e51b815260206004820152603260248201527f4552433732313a207472616e7366657220746f206e6f6e20455243373231526560448201527131b2b4bb32b91034b6b83632b6b2b73a32b960711b6064820152608401610675565b5f61051d82610b8b565b816001600160a01b0316836001600160a01b031614158015611d4957505f81115b15610716576001600160a01b03831615611df0576001600160a01b0383165f908152600a602052604081208190611d8b90612578611d8686612583565b612601565b6001600160e01b031691506001600160e01b03169150846001600160a01b03167fdec2bacdd2f05b59de34da9b523dff8be42e5e38e818c82fdb0bae774387a7248383604051611de5929190918252602082015260400190565b60405180910390a250505b6001600160a01b03821615610716576001600160a01b0382165f908152600a602052604081208190611e2890612649611d8686612583565b6001600160e01b031691506001600160e01b03169150836001600160a01b03167fdec2bacdd2f05b59de34da9b523dff8be42e5e38e818c82fdb0bae774387a7248383604051611e82929190918252602082015260400190565b60405180910390a25050505050565b60605f611e9d83612654565b6040805160208082528183019092529192505f91906020820181803683375050509182525060208101929092525090565b5f6001600160a01b0384163b1561200b57604051630a85bd0160e11b81526001600160a01b0385169063150b7a0290611f11903390899088908890600401612ebb565b6020604051808303815f875af1925050508015611f4b575060408051601f3d908101601f19168201909252611f4891810190612ef6565b60015b611ff1573d808015611f78576040519150601f19603f3d011682016040523d82523d5f602084013e611f7d565b606091505b5080515f03611fe95760405162461bcd60e51b815260206004820152603260248201527f4552433732313a207472616e7366657220746f206e6f6e20455243373231526560448201527131b2b4bb32b91034b6b83632b6b2b73a32b960711b6064820152608401610675565b805181602001fd5b6001600160e01b031916630a85bd0160e11b1490506111c9565b5060016111c9565b5f807f7fffffffffffffffffffffffffffffff5d576e7357a4501ddfe92f46681b20a083111561204857505f905060036120c7565b604080515f8082526020820180845289905260ff881692820192909252606081018690526080810185905260019060a0016020604051602081039080840390855afa158015612099573d5f803e3d5ffd5b5050604051601f1901519150506001600160a01b0381166120c1575f600192509250506120c7565b91505f90505b94509492505050565b5f8160048111156120e3576120e3612f11565b036120eb5750565b60018160048111156120ff576120ff612f11565b0361214c5760405162461bcd60e51b815260206004820152601860248201527f45434453413a20696e76616c6964207369676e617475726500000000000000006044820152606401610675565b600281600481111561216057612160612f11565b036121ad5760405162461bcd60e51b815260206004820152601f60248201527f45434453413a20696e76616c6964207369676e6174757265206c656e677468006044820152606401610675565b60038160048111156121c1576121c1612f11565b036110815760405162461bcd60e51b815260206004820152602260248201527f45434453413a20696e76616c6964207369676e6174757265202773272076616c60448201527f75650000000000000000000000000000000000000000000000000000000000006064820152608401610675565b5f807a184f03e93ff9f4daa797ed6e38ed64bf6a1f010000000000000000831061227c577a184f03e93ff9f4daa797ed6e38ed64bf6a1f010000000000000000830492506040015b6d04ee2d6d415b85acef810000000083106122a8576d04ee2d6d415b85acef8100000000830492506020015b662386f26fc1000083106122c657662386f26fc10000830492506010015b6305f5e10083106122de576305f5e100830492506008015b61271083106122f257612710830492506004015b60648310612304576064830492506002015b600a831061051d5760010192915050565b612320848483612694565b610e5e565b5f80608083901c1561233957608092831c92015b604083901c1561234b57604092831c92015b602083901c1561235d57602092831c92015b601083901c1561236f57601092831c92015b600883901c1561238157600892831c92015b600483901c1561239357600492831c92015b600283901c156123a557600292831c92015b600183901c1561051d5760010192915050565b5f8183106123c65781610fed565b5090919050565b5f6123db6002848418612f25565b610fed90848416612e94565b6001600160a01b03821661243d5760405162461bcd60e51b815260206004820181905260248201527f4552433732313a206d696e7420746f20746865207a65726f20616464726573736044820152606401610675565b5f818152600260205260409020546001600160a01b0316156124a15760405162461bcd60e51b815260206004820152601c60248201527f4552433732313a20746f6b656e20616c7265616479206d696e746564000000006044820152606401610675565b5f818152600260205260409020546001600160a01b0316156125055760405162461bcd60e51b815260206004820152601c60248201527f4552433732313a20746f6b656e20616c7265616479206d696e746564000000006044820152606401610675565b6001600160a01b0382165f81815260036020908152604080832080546001019055848352600290915280822080546001600160a01b0319168417905551839291907fddf252ad1be2c89b69c2b068fc378daa952ba7f163c4a11628f55a4df523b3ef908290a4610b235f83836001611b56565b5f610fed8284612f44565b5f6001600160e01b038211156115ce5760405162461bcd60e51b815260206004820152602760248201527f53616665436173743a2076616c756520646f65736e27742066697420696e203260448201527f32342062697473000000000000000000000000000000000000000000000000006064820152608401610675565b5f8061263c61261e612611610d78565b65ffffffffffff16611553565b61263461262a88611882565b868863ffffffff16565b879190612709565b915091505b935093915050565b5f610fed8284612f6b565b5f60ff8216601f81111561051d576040517fb3512b0c00000000000000000000000000000000000000000000000000000000815260040160405180910390fd5b6001600160a01b0383166126b6576126b3600b612649611d8684612583565b50505b6001600160a01b0382166126d8576126d5600b612578611d8684612583565b50505b6001600160a01b038381165f9081526009602052604080822054858416835291205461071692918216911683611d28565b5f8061263c85858582545f9081908015612857575f61272d87611650600185612e81565b60408051808201909152905463ffffffff8082168084526401000000009092046001600160e01b0316602084015291925090871610156127af5760405162461bcd60e51b815260206004820152601b60248201527f436865636b706f696e743a2064656372656173696e67206b65797300000000006044820152606401610675565b805163ffffffff8088169116036127f857846127d088611650600186612e81565b80546001600160e01b03929092166401000000000263ffffffff909216919091179055612847565b6040805180820190915263ffffffff80881682526001600160e01b0380881660208085019182528b54600181018d555f8d81529190912094519151909216640100000000029216919091179101555b6020015192508391506126419050565b50506040805180820190915263ffffffff80851682526001600160e01b0380851660208085019182528854600181018a555f8a815291822095519251909316640100000000029190931617920191909155905081612641565b6001600160e01b031981168114611081575f80fd5b5f602082840312156128d5575f80fd5b8135610fed816128b0565b5f5b838110156128fa5781810151838201526020016128e2565b50505f910152565b5f81518084526129198160208601602086016128e0565b601f01601f19169290920160200192915050565b602081525f610fed6020830184612902565b5f6020828403121561294f575f80fd5b5035919050565b80356001600160a01b038116811461296c575f80fd5b919050565b5f8060408385031215612982575f80fd5b61298b83612956565b946020939093013593505050565b5f805f606084860312156129ab575f80fd5b6129b484612956565b92506129c260208501612956565b9150604084013590509250925092565b5f602082840312156129e2575f80fd5b610fed82612956565b7fff00000000000000000000000000000000000000000000000000000000000000881681525f602060e081840152612a2660e084018a612902565b8381036040850152612a38818a612902565b606085018990526001600160a01b038816608086015260a0850187905284810360c086015285518082528387019250908301905f5b81811015612a8957835183529284019291840191600101612a6d565b50909c9b505050505050505050505050565b8015158114611081575f80fd5b5f8060408385031215612ab9575f80fd5b612ac283612956565b91506020830135612ad281612a9b565b809150509250929050565b634e487b7160e01b5f52604160045260245ffd5b604051610180810167ffffffffffffffff81118282101715612b1557612b15612add565b60405290565b604051601f8201601f1916810167ffffffffffffffff81118282101715612b4457612b44612add565b604052919050565b5f67ffffffffffffffff821115612b6557612b65612add565b50601f01601f191660200190565b5f805f8060808587031215612b86575f80fd5b612b8f85612956565b9350612b9d60208601612956565b925060408501359150606085013567ffffffffffffffff811115612bbf575f80fd5b8501601f81018713612bcf575f80fd5b8035612be2612bdd82612b4c565b612b1b565b818152886020838501011115612bf6575f80fd5b816020840160208301375f6020838301015280935050505092959194509250565b5f805f805f8060c08789031215612c2c575f80fd5b612c3587612956565b95506020870135945060408701359350606087013560ff81168114612c58575f80fd5b9598949750929560808101359460a0909101359350915050565b5f8060408385031215612c83575f80fd5b612c8c83612956565b9150612c9a60208401612956565b90509250929050565b600181811c90821680612cb757607f821691505b602082108103611a9357634e487b7160e01b5f52602260045260245ffd5b5f60208284031215612ce5575f80fd5b5051919050565b5f82601f830112612cfb575f80fd5b8151612d09612bdd82612b4c565b818152846020838601011115612d1d575f80fd5b6111c98260208301602087016128e0565b805161296c81612a9b565b5f60208284031215612d49575f80fd5b815167ffffffffffffffff80821115612d60575f80fd5b908301906101808286031215612d74575f80fd5b612d7c612af1565b825182811115612d8a575f80fd5b612d9687828601612cec565b825250602083015182811115612daa575f80fd5b612db687828601612cec565b60208301525060408301516040820152612dd260608401612d2e565b60608201526080838101519082015260a0808401519082015260c0808401519082015260e080840151908201526101008084015190820152610120808401519082015261014080840151908201526101609150612e30828401612d2e565b91810191909152949350505050565b5f8351612e508184602088016128e0565b835190830190612e648183602088016128e0565b01949350505050565b634e487b7160e01b5f52601160045260245ffd5b8181038181111561051d5761051d612e6d565b8082018082111561051d5761051d612e6d565b634e487b7160e01b5f52601260045260245ffd5b5f6001600160a01b03808716835280861660208401525083604083015260806060830152612eec6080830184612902565b9695505050505050565b5f60208284031215612f06575f80fd5b8151610fed816128b0565b634e487b7160e01b5f52602160045260245ffd5b5f82612f3f57634e487b7160e01b5f52601260045260245ffd5b500490565b6001600160e01b03828116828216039080821115612f6457612f64612e6d565b5092915050565b6001600160e01b03818116838216019080821115612f6457612f64612e6d56fe68747470733a2f2f636172696e67636f696e2e696e667572612d697066732e696f2f697066732f516d57726f534e47664c35523742663467483772514c69346b674d6138485032516e66616e483874714274544457a264697066735822122061923e5baa44bccf5550008855c271eb9d91432cabc461784775b6affb313c3864736f6c63430008140033",
  "linkReferences": {},
  "deployedLinkReferences": {}
}