{
  "_format": "hh-sol-artifact-1",
  "contractName": "FunctionsOracle",
  "sourceName": "src/backend/contracts/dev/functions/FunctionsOracle.sol",
  "abi": [
    {
      "inputs": [],
      "name": "AlreadySet",
      "type": "error"
    },
    {
      "inputs": [],
      "name": "CannotSelfTransfer",
      "type": "error"
    },
    {
      "inputs": [],
      "name": "EmptyBillingRegistry",
      "type": "error"
    },
    {
      "inputs": [],
      "name": "EmptyPublicKey",
      "type": "error"
    },
    {
      "inputs": [],
      "name": "EmptyRequestData",
      "type": "error"
    },
    {
      "inputs": [],
      "name": "EmptySendersList",
      "type": "error"
    },
    {
      "inputs": [],
      "name": "InconsistentReportData",
      "type": "error"
    },
    {
      "inputs": [],
      "name": "NotAllowedToSetSenders",
      "type": "error"
    },
    {
      "inputs": [],
      "name": "NotProposedOwner",
      "type": "error"
    },
    {
      "inputs": [],
      "name": "OnlyCallableByOwner",
      "type": "error"
    },
    {
      "inputs": [],
      "name": "OwnerMustBeSet",
      "type": "error"
    },
    {
      "inputs": [],
      "name": "ReportInvalid",
      "type": "error"
    },
    {
      "inputs": [],
      "name": "UnauthorizedPublicKeyChange",
      "type": "error"
    },
    {
      "inputs": [],
      "name": "UnauthorizedSender",
      "type": "error"
    },
    {
      "anonymous": false,
      "inputs": [
        {
          "indexed": false,
          "internalType": "address",
          "name": "account",
          "type": "address"
        }
      ],
      "name": "AuthorizedSendersActive",
      "type": "event"
    },
    {
      "anonymous": false,
      "inputs": [
        {
          "indexed": false,
          "internalType": "address[]",
          "name": "senders",
          "type": "address[]"
        },
        {
          "indexed": false,
          "internalType": "address",
          "name": "changedBy",
          "type": "address"
        }
      ],
      "name": "AuthorizedSendersChanged",
      "type": "event"
    },
    {
      "anonymous": false,
      "inputs": [
        {
          "indexed": false,
          "internalType": "address",
          "name": "account",
          "type": "address"
        }
      ],
      "name": "AuthorizedSendersDeactive",
      "type": "event"
    },
    {
      "anonymous": false,
      "inputs": [
        {
          "indexed": false,
          "internalType": "uint32",
          "name": "previousConfigBlockNumber",
          "type": "uint32"
        },
        {
          "indexed": false,
          "internalType": "bytes32",
          "name": "configDigest",
          "type": "bytes32"
        },
        {
          "indexed": false,
          "internalType": "uint64",
          "name": "configCount",
          "type": "uint64"
        },
        {
          "indexed": false,
          "internalType": "address[]",
          "name": "signers",
          "type": "address[]"
        },
        {
          "indexed": false,
          "internalType": "address[]",
          "name": "transmitters",
          "type": "address[]"
        },
        {
          "indexed": false,
          "internalType": "uint8",
          "name": "f",
          "type": "uint8"
        },
        {
          "indexed": false,
          "internalType": "bytes",
          "name": "onchainConfig",
          "type": "bytes"
        },
        {
          "indexed": false,
          "internalType": "uint64",
          "name": "offchainConfigVersion",
          "type": "uint64"
        },
        {
          "indexed": false,
          "internalType": "bytes",
          "name": "offchainConfig",
          "type": "bytes"
        }
      ],
      "name": "ConfigSet",
      "type": "event"
    },
    {
      "anonymous": false,
      "inputs": [
        {
          "indexed": false,
          "internalType": "uint8",
          "name": "version",
          "type": "uint8"
        }
      ],
      "name": "Initialized",
      "type": "event"
    },
    {
      "anonymous": false,
      "inputs": [
        {
          "indexed": true,
          "internalType": "bytes32",
          "name": "requestId",
          "type": "bytes32"
        }
      ],
      "name": "InvalidRequestID",
      "type": "event"
    },
    {
      "anonymous": false,
      "inputs": [
        {
          "indexed": true,
          "internalType": "bytes32",
          "name": "requestId",
          "type": "bytes32"
        },
        {
          "indexed": false,
          "internalType": "address",
          "name": "requestingContract",
          "type": "address"
        },
        {
          "indexed": false,
          "internalType": "address",
          "name": "requestInitiator",
          "type": "address"
        },
        {
          "indexed": false,
          "internalType": "uint64",
          "name": "subscriptionId",
          "type": "uint64"
        },
        {
          "indexed": false,
          "internalType": "address",
          "name": "subscriptionOwner",
          "type": "address"
        },
        {
          "indexed": false,
          "internalType": "bytes",
          "name": "data",
          "type": "bytes"
        }
      ],
      "name": "OracleRequest",
      "type": "event"
    },
    {
      "anonymous": false,
      "inputs": [
        {
          "indexed": true,
          "internalType": "bytes32",
          "name": "requestId",
          "type": "bytes32"
        }
      ],
      "name": "OracleResponse",
      "type": "event"
    },
    {
      "anonymous": false,
      "inputs": [
        {
          "indexed": true,
          "internalType": "address",
          "name": "from",
          "type": "address"
        },
        {
          "indexed": true,
          "internalType": "address",
          "name": "to",
          "type": "address"
        }
      ],
      "name": "OwnershipTransferRequested",
      "type": "event"
    },
    {
      "anonymous": false,
      "inputs": [
        {
          "indexed": true,
          "internalType": "address",
          "name": "from",
          "type": "address"
        },
        {
          "indexed": true,
          "internalType": "address",
          "name": "to",
          "type": "address"
        }
      ],
      "name": "OwnershipTransferred",
      "type": "event"
    },
    {
      "anonymous": false,
      "inputs": [
        {
          "indexed": false,
          "internalType": "bytes32",
          "name": "configDigest",
          "type": "bytes32"
        },
        {
          "indexed": false,
          "internalType": "uint32",
          "name": "epoch",
          "type": "uint32"
        }
      ],
      "name": "Transmitted",
      "type": "event"
    },
    {
      "anonymous": false,
      "inputs": [
        {
          "indexed": true,
          "internalType": "bytes32",
          "name": "requestId",
          "type": "bytes32"
        },
        {
          "indexed": false,
          "internalType": "string",
          "name": "reason",
          "type": "string"
        }
      ],
      "name": "UserCallbackError",
      "type": "event"
    },
    {
      "anonymous": false,
      "inputs": [
        {
          "indexed": true,
          "internalType": "bytes32",
          "name": "requestId",
          "type": "bytes32"
        },
        {
          "indexed": false,
          "internalType": "bytes",
          "name": "lowLevelData",
          "type": "bytes"
        }
      ],
      "name": "UserCallbackRawError",
      "type": "event"
    },
    {
      "inputs": [],
      "name": "acceptOwnership",
      "outputs": [],
      "stateMutability": "nonpayable",
      "type": "function"
    },
    {
      "inputs": [],
      "name": "activateAuthorizedReceiver",
      "outputs": [],
      "stateMutability": "nonpayable",
      "type": "function"
    },
    {
      "inputs": [
        {
          "internalType": "address[]",
          "name": "senders",
          "type": "address[]"
        }
      ],
      "name": "addAuthorizedSenders",
      "outputs": [],
      "stateMutability": "nonpayable",
      "type": "function"
    },
    {
      "inputs": [],
      "name": "authorizedReceiverActive",
      "outputs": [
        {
          "internalType": "bool",
          "name": "",
          "type": "bool"
        }
      ],
      "stateMutability": "view",
      "type": "function"
    },
    {
      "inputs": [],
      "name": "deactivateAuthorizedReceiver",
      "outputs": [],
      "stateMutability": "nonpayable",
      "type": "function"
    },
    {
      "inputs": [
        {
          "internalType": "address",
          "name": "node",
          "type": "address"
        }
      ],
      "name": "deleteNodePublicKey",
      "outputs": [],
      "stateMutability": "nonpayable",
      "type": "function"
    },
    {
      "inputs": [
        {
          "internalType": "uint64",
          "name": "subscriptionId",
          "type": "uint64"
        },
        {
          "internalType": "bytes",
          "name": "data",
          "type": "bytes"
        },
        {
          "internalType": "uint32",
          "name": "gasLimit",
          "type": "uint32"
        },
        {
          "internalType": "uint256",
          "name": "gasPrice",
          "type": "uint256"
        }
      ],
      "name": "estimateCost",
      "outputs": [
        {
          "internalType": "uint96",
          "name": "",
          "type": "uint96"
        }
      ],
      "stateMutability": "view",
      "type": "function"
    },
    {
      "inputs": [],
      "name": "getAllNodePublicKeys",
      "outputs": [
        {
          "internalType": "address[]",
          "name": "",
          "type": "address[]"
        },
        {
          "internalType": "bytes[]",
          "name": "",
          "type": "bytes[]"
        }
      ],
      "stateMutability": "view",
      "type": "function"
    },
    {
      "inputs": [],
      "name": "getAuthorizedSenders",
      "outputs": [
        {
          "internalType": "address[]",
          "name": "",
          "type": "address[]"
        }
      ],
      "stateMutability": "view",
      "type": "function"
    },
    {
      "inputs": [],
      "name": "getDONPublicKey",
      "outputs": [
        {
          "internalType": "bytes",
          "name": "",
          "type": "bytes"
        }
      ],
      "stateMutability": "view",
      "type": "function"
    },
    {
      "inputs": [],
      "name": "getRegistry",
      "outputs": [
        {
          "internalType": "address",
          "name": "",
          "type": "address"
        }
      ],
      "stateMutability": "view",
      "type": "function"
    },
    {
      "inputs": [
        {
          "internalType": "bytes",
          "name": "",
          "type": "bytes"
        },
        {
          "components": [
            {
              "internalType": "uint64",
              "name": "subscriptionId",
              "type": "uint64"
            },
            {
              "internalType": "address",
              "name": "client",
              "type": "address"
            },
            {
              "internalType": "uint32",
              "name": "gasLimit",
              "type": "uint32"
            },
            {
              "internalType": "uint256",
              "name": "gasPrice",
              "type": "uint256"
            }
          ],
          "internalType": "struct FunctionsBillingRegistryInterface.RequestBilling",
          "name": "",
          "type": "tuple"
        }
      ],
      "name": "getRequiredFee",
      "outputs": [
        {
          "internalType": "uint96",
          "name": "",
          "type": "uint96"
        }
      ],
      "stateMutability": "pure",
      "type": "function"
    },
    {
      "inputs": [],
      "name": "initialize",
      "outputs": [],
      "stateMutability": "nonpayable",
      "type": "function"
    },
    {
      "inputs": [
        {
          "internalType": "address",
          "name": "sender",
          "type": "address"
        }
      ],
      "name": "isAuthorizedSender",
      "outputs": [
        {
          "internalType": "bool",
          "name": "",
          "type": "bool"
        }
      ],
      "stateMutability": "view",
      "type": "function"
    },
    {
      "inputs": [],
      "name": "latestConfigDetails",
      "outputs": [
        {
          "internalType": "uint32",
          "name": "configCount",
          "type": "uint32"
        },
        {
          "internalType": "uint32",
          "name": "blockNumber",
          "type": "uint32"
        },
        {
          "internalType": "bytes32",
          "name": "configDigest",
          "type": "bytes32"
        }
      ],
      "stateMutability": "view",
      "type": "function"
    },
    {
      "inputs": [],
      "name": "latestConfigDigestAndEpoch",
      "outputs": [
        {
          "internalType": "bool",
          "name": "scanLogs",
          "type": "bool"
        },
        {
          "internalType": "bytes32",
          "name": "configDigest",
          "type": "bytes32"
        },
        {
          "internalType": "uint32",
          "name": "epoch",
          "type": "uint32"
        }
      ],
      "stateMutability": "view",
      "type": "function"
    },
    {
      "inputs": [],
      "name": "owner",
      "outputs": [
        {
          "internalType": "address",
          "name": "",
          "type": "address"
        }
      ],
      "stateMutability": "view",
      "type": "function"
    },
    {
      "inputs": [
        {
          "internalType": "address[]",
          "name": "senders",
          "type": "address[]"
        }
      ],
      "name": "removeAuthorizedSenders",
      "outputs": [],
      "stateMutability": "nonpayable",
      "type": "function"
    },
    {
      "inputs": [
        {
          "internalType": "uint64",
          "name": "subscriptionId",
          "type": "uint64"
        },
        {
          "internalType": "bytes",
          "name": "data",
          "type": "bytes"
        },
        {
          "internalType": "uint32",
          "name": "gasLimit",
          "type": "uint32"
        }
      ],
      "name": "sendRequest",
      "outputs": [
        {
          "internalType": "bytes32",
          "name": "",
          "type": "bytes32"
        }
      ],
      "stateMutability": "nonpayable",
      "type": "function"
    },
    {
      "inputs": [
        {
          "internalType": "address[]",
          "name": "_signers",
          "type": "address[]"
        },
        {
          "internalType": "address[]",
          "name": "_transmitters",
          "type": "address[]"
        },
        {
          "internalType": "uint8",
          "name": "_f",
          "type": "uint8"
        },
        {
          "internalType": "bytes",
          "name": "_onchainConfig",
          "type": "bytes"
        },
        {
          "internalType": "uint64",
          "name": "_offchainConfigVersion",
          "type": "uint64"
        },
        {
          "internalType": "bytes",
          "name": "_offchainConfig",
          "type": "bytes"
        }
      ],
      "name": "setConfig",
      "outputs": [],
      "stateMutability": "nonpayable",
      "type": "function"
    },
    {
      "inputs": [
        {
          "internalType": "bytes",
          "name": "donPublicKey",
          "type": "bytes"
        }
      ],
      "name": "setDONPublicKey",
      "outputs": [],
      "stateMutability": "nonpayable",
      "type": "function"
    },
    {
      "inputs": [
        {
          "internalType": "address",
          "name": "node",
          "type": "address"
        },
        {
          "internalType": "bytes",
          "name": "publicKey",
          "type": "bytes"
        }
      ],
      "name": "setNodePublicKey",
      "outputs": [],
      "stateMutability": "nonpayable",
      "type": "function"
    },
    {
      "inputs": [
        {
          "internalType": "address",
          "name": "registryAddress",
          "type": "address"
        }
      ],
      "name": "setRegistry",
      "outputs": [],
      "stateMutability": "nonpayable",
      "type": "function"
    },
    {
      "inputs": [
        {
          "internalType": "address",
          "name": "to",
          "type": "address"
        }
      ],
      "name": "transferOwnership",
      "outputs": [],
      "stateMutability": "nonpayable",
      "type": "function"
    },
    {
      "inputs": [
        {
          "internalType": "bytes32[3]",
          "name": "reportContext",
          "type": "bytes32[3]"
        },
        {
          "internalType": "bytes",
          "name": "report",
          "type": "bytes"
        },
        {
          "internalType": "bytes32[]",
          "name": "rs",
          "type": "bytes32[]"
        },
        {
          "internalType": "bytes32[]",
          "name": "ss",
          "type": "bytes32[]"
        },
        {
          "internalType": "bytes32",
          "name": "rawVs",
          "type": "bytes32"
        }
      ],
      "name": "transmit",
      "outputs": [],
      "stateMutability": "nonpayable",
      "type": "function"
    },
    {
      "inputs": [],
      "name": "transmitters",
      "outputs": [
        {
          "internalType": "address[]",
          "name": "",
          "type": "address[]"
        }
      ],
      "stateMutability": "view",
      "type": "function"
    },
    {
      "inputs": [],
      "name": "typeAndVersion",
      "outputs": [
        {
          "internalType": "string",
          "name": "",
          "type": "string"
        }
      ],
      "stateMutability": "pure",
      "type": "function"
    }
  ],
  "bytecode": "0x608060405234801561000f575f80fd5b506138148061001d5f395ff3fe608060405234801561000f575f80fd5b50600436106101b0575f3560e01c80638129fc1c116100f3578063b1dc65a411610093578063e3d0e7121161006e578063e3d0e712146103d3578063f1e14a21146103e6578063f2fde38b146103fc578063fa00763a1461040f575f80fd5b8063b1dc65a414610388578063d227d2451461039b578063d328a91e146103cb575f80fd5b80638da5cb5b116100ce5780638da5cb5b1461033857806391bb64eb1461034e578063a91ee0dc14610356578063afcb95d714610369575f80fd5b80638129fc1c146102f8578063814118341461030057806381ff704814610308575f80fd5b80634b4fa0c11161015e5780635ab1bd53116101395780635ab1bd53146102a557806379ba5097146102ca5780637f15e166146102d257806380756031146102e5575f80fd5b80634b4fa0c1146102655780634dcef4041461027c578063533989871461028f575f80fd5b80632408afaa1161018e5780632408afaa1461021c57806326ceabac1461023157806328242b0414610244575f80fd5b806303e1bf23146101b4578063110254c8146101c9578063181f5a77146101d1575b5f80fd5b6101c76101c2366004612952565b610422565b005b6101c7610502565b60408051808201909152601581527f46756e6374696f6e734f7261636c6520302e302e30000000000000000000000060208201525b60405161021391906129d4565b60405180910390f35b610224610599565b6040516102139190612a28565b6101c761023f366004612a4e565b6105aa565b610257610252366004612ad6565b610622565b604051908152602001610213565b60085460ff165b6040519015158152602001610213565b6101c761028a366004612952565b610826565b6102976108c6565b604051610213929190612b37565b600c546001600160a01b03165b6040516001600160a01b039091168152602001610213565b6101c7610a87565b6101c76102e0366004612ba7565b610b3e565b6101c76102f3366004612bda565b610b92565b6101c7610c1f565b610224610d49565b6004546002546040805163ffffffff80851682526401000000009094049093166020840152820152606001610213565b5f546201000090046001600160a01b03166102b2565b6101c7610da9565b6101c7610364366004612a4e565b610e36565b60408051600181525f6020820181905291810191909152606001610213565b6101c7610396366004612c2b565b610e87565b6103ae6103a9366004612cd9565b611470565b6040516bffffffffffffffffffffffff9091168152602001610213565b610206611613565b6101c76103e1366004612e96565b61169a565b6103ae6103f4366004612f5b565b5f9392505050565b6101c761040a366004612a4e565b611dd6565b61026c61041d366004612a4e565b611de7565b5f546201000090046001600160a01b031633146104525760405163ad77f06160e01b815260040160405180910390fd5b5f819003610473576040516375158c3b60e01b815260040160405180910390fd5b5f5b818110156104c2576104af83838381811061049257610492613013565b90506020020160208101906104a79190612a4e565b600990611e11565b50806104ba8161303b565b915050610475565b507ff263cfb3e4298332e776194610cf9fdc09ccb3ada8b9aa39764d882e11fbf0a08282336040516104f693929190613053565b60405180910390a15050565b5f546201000090046001600160a01b031633146105325760405163ad77f06160e01b815260040160405180910390fd5b60085460ff16156105565760405163a741a04560e01b815260040160405180910390fd5b6008805460ff191660011790556040513381527fae51766a982895b0c444fc99fc1a560762b464d709e6c78376c85617f7eeb5ce906020015b60405180910390a1565b60606105a56009611e2c565b905090565b5f546201000090046001600160a01b03166001600160a01b0316336001600160a01b031614806105e25750336001600160a01b038216145b6105ff5760405163ed6dd19b60e01b815260040160405180910390fd5b6001600160a01b0381165f908152600d6020526040812061061f9161289c565b50565b600c545f906001600160a01b031661064d57604051632717f8c960e21b815260040160405180910390fd5b610655611e38565b5f83900361068e576040517ec1cfc000000000000000000000000000000000000000000000000000000000815260040160405180910390fd5b600c546040805160808101825267ffffffffffffffff8816815233602082015263ffffffff8516818301523a606082015290517fa9d03c050000000000000000000000000000000000000000000000000000000081525f926001600160a01b03169163a9d03c05916107079189918991906004016130da565b6020604051808303815f875af1158015610723573d5f803e3d5ffd5b505050506040513d601f19601f820116820180604052508101906107479190613135565b600c546040517fb2a489ff00000000000000000000000000000000000000000000000000000000815267ffffffffffffffff8916600482015291925082917fa1ec73989d79578cd6f67d4f593ac3e0a4d1020e5c0164db52108d7ff785406c91339132918b916001600160a01b039091169063b2a489ff90602401602060405180830381865afa1580156107dd573d5f803e3d5ffd5b505050506040513d601f19601f82011682018060405250810190610801919061314c565b8a8a60405161081596959493929190613167565b60405180910390a295945050505050565b5f546201000090046001600160a01b031633146108565760405163ad77f06160e01b815260040160405180910390fd5b5f819003610877576040516375158c3b60e01b815260040160405180910390fd5b5f5b818110156104c2576108b383838381811061089657610896613013565b90506020020160208101906108ab9190612a4e565b600990611e79565b50806108be8161303b565b915050610879565b6060805f306001600160a01b031663814118346040518163ffffffff1660e01b81526004015f60405180830381865afa158015610905573d5f803e3d5ffd5b505050506040513d5f823e601f3d908101601f1916820160405261092c91908101906131b7565b90505f815167ffffffffffffffff81111561094957610949612d41565b60405190808252806020026020018201604052801561097c57816020015b60608152602001906001900390816109675790505b5090505f5b8251811015610a7d57600d5f84838151811061099f5761099f613013565b60200260200101516001600160a01b03166001600160a01b031681526020019081526020015f2080546109d19061324c565b80601f01602080910402602001604051908101604052809291908181526020018280546109fd9061324c565b8015610a485780601f10610a1f57610100808354040283529160200191610a48565b820191905f5260205f20905b815481529060010190602001808311610a2b57829003601f168201915b5050505050828281518110610a5f57610a5f613013565b60200260200101819052508080610a759061303b565b915050610981565b5090939092509050565b6001546001600160a01b03163314610acb576040517f0f22ca5f00000000000000000000000000000000000000000000000000000000815260040160405180910390fd5b5f8054336201000081810275ffffffffffffffffffffffffffffffffffffffff0000198416178455600180546001600160a01b03191690556040516001600160a01b03919093041692909183917f8be0079c531659141344cd1fd0a4f28419497f9722a3daafe3b4186f6b6457e091a350565b610b46611e8d565b5f819003610b80576040517f4f42be3d00000000000000000000000000000000000000000000000000000000815260040160405180910390fd5b600b610b8d8284836132d1565b505050565b5f546201000090046001600160a01b03166001600160a01b0316336001600160a01b03161480610bda5750610bc633611ed6565b8015610bda5750336001600160a01b038416145b610bf75760405163ed6dd19b60e01b815260040160405180910390fd5b6001600160a01b0383165f908152600d60205260409020610c198284836132d1565b50505050565b5f54610100900460ff1615808015610c3d57505f54600160ff909116105b80610c565750303b158015610c5657505f5460ff166001145b610ccd5760405162461bcd60e51b815260206004820152602e60248201527f496e697469616c697a61626c653a20636f6e747261637420697320616c72656160448201527f647920696e697469616c697a656400000000000000000000000000000000000060648201526084015b60405180910390fd5b5f805460ff191660011790558015610cee575f805461ff0019166101001790555b610cf86001611f9e565b610d02600161204b565b801561061f575f805461ff0019169055604051600181527f7f26b83ff96e1f2b6a682f133852f6798a09c465da95921460cefb38474024989060200160405180910390a150565b60606007805480602002602001604051908101604052809291908181526020018280548015610d9f57602002820191905f5260205f20905b81546001600160a01b03168152600190910190602001808311610d81575b5050505050905090565b5f546201000090046001600160a01b03163314610dd95760405163ad77f06160e01b815260040160405180910390fd5b60085460ff16610dfc5760405163a741a04560e01b815260040160405180910390fd5b6008805460ff191690556040513381527fea3828816a323b8d7ff49d755efd105e7719166d6c76fad97a28eee5eccc3d9a9060200161058f565b610e3e611e8d565b6001600160a01b038116610e6557604051632717f8c960e21b815260040160405180910390fd5b600c80546001600160a01b0319166001600160a01b0392909216919091179055565b5f5a604080516020601f8b018190048102820181019092528981529192508a3591818c013591610edb91849163ffffffff851691908e908e90819084018382808284375f920191909152506120c892505050565b610ef85760405163017c6c6560e31b815260040160405180910390fd5b6040805183815262ffffff600884901c1660208201527fb04e63db38c49950639fa09d29872f21f5d49d614f3a969d8adf3d4b52e41a62910160405180910390a16040805160608101825260025480825260035460ff80821660208501526101009091041692820192909252908314610fb35760405162461bcd60e51b815260206004820152601560248201527f636f6e666967446967657374206d69736d6174636800000000000000000000006044820152606401610cc4565b610fc18b8b8b8b8b8b6120d1565b6001545f90600160a01b900460ff161561100a57600282602001518360400151610feb919061338d565b610ff591906133ba565b61100090600161338d565b60ff169050611020565b602082015161101a90600161338d565b60ff1690505b88811461106f5760405162461bcd60e51b815260206004820152601a60248201527f77726f6e67206e756d626572206f66207369676e6174757265730000000000006044820152606401610cc4565b8887146110be5760405162461bcd60e51b815260206004820152601e60248201527f7369676e617475726573206f7574206f6620726567697374726174696f6e00006044820152606401610cc4565b335f9081526005602090815260408083208151808301909252805460ff80821684529293919291840191610100909104166002811115611100576111006133db565b6002811115611111576111116133db565b905250905060028160200151600281111561112e5761112e6133db565b14801561116657506007815f015160ff168154811061114f5761114f613013565b5f918252602090912001546001600160a01b031633145b6111b25760405162461bcd60e51b815260206004820152601860248201527f756e617574686f72697a6564207472616e736d697474657200000000000000006044820152606401610cc4565b50505050506111bf6128d3565b5f808a8a6040516111d19291906133ef565b6040519081900381206111e8918e906020016133fe565b60408051601f1981840301815282825280516020918201208383019092525f8084529083015291505f5b89811015611452575f60018489846020811061123057611230613013565b61123d91901a601b61338d565b8e8e8681811061124f5761124f613013565b905060200201358d8d8781811061126857611268613013565b905060200201356040515f81526020016040526040516112a4949392919093845260ff9290921660208401526040830152606082015260800190565b6020604051602081039080840390855afa1580156112c4573d5f803e3d5ffd5b505060408051601f198101516001600160a01b0381165f9081526005602090815290849020838501909452835460ff80821685529296509294508401916101009004166002811115611318576113186133db565b6002811115611329576113296133db565b9052509250600183602001516002811115611346576113466133db565b146113935760405162461bcd60e51b815260206004820152601e60248201527f61646472657373206e6f7420617574686f72697a656420746f207369676e00006044820152606401610cc4565b82515f90879060ff16601f81106113ac576113ac613013565b60200201516001600160a01b0316146114075760405162461bcd60e51b815260206004820152601460248201527f6e6f6e2d756e69717565207369676e61747572650000000000000000000000006044820152606401610cc4565b8086845f015160ff16601f811061142057611420613013565b6001600160a01b03909216602092909202015261143e60018661338d565b9450508061144b9061303b565b9050611212565b505050611463833383858e8e61216c565b5050505050505050505050565b600c545f906001600160a01b031661149b57604051632717f8c960e21b815260040160405180910390fd5b6040805160808101825267ffffffffffffffff8816815233602082015263ffffffff85168183015260608101849052600c5491517ff1e14a2100000000000000000000000000000000000000000000000000000000815290915f9182916001600160a01b03169063f1e14a219061151a908b908b9088906004016130da565b602060405180830381865afa158015611535573d5f803e3d5ffd5b505050506040513d601f19601f820116820180604052508101906115599190613412565b600c546040517fa1a6d04100000000000000000000000000000000000000000000000000000000815263ffffffff89166004820152602481018890526bffffffffffffffffffffffff8086166044830152831660648201529192506001600160a01b03169063a1a6d04190608401602060405180830381865afa1580156115e2573d5f803e3d5ffd5b505050506040513d601f19601f820116820180604052508101906116069190613412565b9998505050505050505050565b6060600b80546116229061324c565b80601f016020809104026020016040519081016040528092919081815260200182805461164e9061324c565b8015610d9f5780601f1061167057610100808354040283529160200191610d9f565b820191905f5260205f20905b81548152906001019060200180831161167c57509395945050505050565b855185518560ff16601f8311156116f35760405162461bcd60e51b815260206004820152601060248201527f746f6f206d616e79207369676e657273000000000000000000000000000000006044820152606401610cc4565b5f81116117425760405162461bcd60e51b815260206004820152601260248201527f66206d75737420626520706f73697469766500000000000000000000000000006044820152606401610cc4565b8183146117b65760405162461bcd60e51b8152602060048201526024808201527f6f7261636c6520616464726573736573206f7574206f6620726567697374726160448201527f74696f6e000000000000000000000000000000000000000000000000000000006064820152608401610cc4565b6117c181600361343d565b831161180f5760405162461bcd60e51b815260206004820152601860248201527f6661756c74792d6f7261636c65206620746f6f206869676800000000000000006044820152606401610cc4565b611817611e8d565b6040805160c0810182528a8152602081018a905260ff8916918101919091526060810187905267ffffffffffffffff8616608082015260a081018590525b6006541561195f576006545f9061186e90600190613454565b90505f6006828154811061188457611884613013565b5f918252602082200154600780546001600160a01b03909216935090849081106118b0576118b0613013565b5f9182526020808320909101546001600160a01b03858116845260059092526040808420805461ffff199081169091559290911680845292208054909116905560068054919250908061190557611905613467565b5f8281526020902081015f1990810180546001600160a01b0319169055019055600780548061193657611936613467565b5f8281526020902081015f1990810180546001600160a01b031916905501905550611855915050565b5f5b815151811015611c8e575f60055f845f0151848151811061198457611984613013565b6020908102919091018101516001600160a01b031682528101919091526040015f2054610100900460ff1660028111156119c0576119c06133db565b14611a0d5760405162461bcd60e51b815260206004820152601760248201527f7265706561746564207369676e657220616464726573730000000000000000006044820152606401610cc4565b6040805180820190915260ff8216815260016020820152825180516005915f9185908110611a3d57611a3d613013565b6020908102919091018101516001600160a01b03168252818101929092526040015f208251815460ff90911660ff19821681178355928401519192839161ffff191617610100836002811115611a9557611a956133db565b02179055505f9150611aa49050565b60055f84602001518481518110611abd57611abd613013565b6020908102919091018101516001600160a01b031682528101919091526040015f2054610100900460ff166002811115611af957611af96133db565b14611b465760405162461bcd60e51b815260206004820152601c60248201527f7265706561746564207472616e736d69747465722061646472657373000000006044820152606401610cc4565b6040805180820190915260ff8216815260208101600281525060055f84602001518481518110611b7857611b78613013565b6020908102919091018101516001600160a01b03168252818101929092526040015f208251815460ff90911660ff19821681178355928401519192839161ffff191617610100836002811115611bd057611bd06133db565b021790555050825180516006925083908110611bee57611bee613013565b60209081029190910181015182546001810184555f9384529282902090920180546001600160a01b0319166001600160a01b039093169290921790915582015180516007919083908110611c4457611c44613013565b60209081029190910181015182546001810184555f938452919092200180546001600160a01b0319166001600160a01b03909216919091179055611c878161303b565b9050611961565b5060408101516003805460ff191660ff9092169190911790556004805467ffffffff0000000019811664010000000063ffffffff4381168202928317855590830481169360019390925f92611cea92869290821691161761347b565b92506101000a81548163ffffffff021916908363ffffffff160217905550611d47463060045f9054906101000a900463ffffffff1663ffffffff16855f015186602001518760400151886060015189608001518a60a001516124d8565b6002819055825180516003805460ff9092166101000261ff001990921691909117905560045460208501516040808701516060880151608089015160a08a015193517f1591690b8638f5fb2dbec82ac741805ac5da8b45dc5263f4875b0496fdce4e0598611dc9988b98919763ffffffff909216969095919491939192613498565b60405180910390a1611463565b611dde611e8d565b61061f81612564565b5f611df460085460ff1690565b611e0057506001919050565b611e0b6009836125fd565b92915050565b5f611e25836001600160a01b03841661261e565b9392505050565b60605f611e2583612708565b611e4132611de7565b611e77576040517f0809490800000000000000000000000000000000000000000000000000000000815260040160405180910390fd5b565b5f611e25836001600160a01b038416612761565b5f546201000090046001600160a01b03163314611e77576040517f2b5c74de00000000000000000000000000000000000000000000000000000000815260040160405180910390fd5b5f80306001600160a01b031663814118346040518163ffffffff1660e01b81526004015f60405180830381865afa158015611f13573d5f803e3d5ffd5b505050506040513d5f823e601f3d908101601f19168201604052611f3a91908101906131b7565b90505f5b8151811015611f9557836001600160a01b0316828281518110611f6357611f63613013565b60200260200101516001600160a01b031603611f83575060019392505050565b80611f8d8161303b565b915050611f3e565b505f9392505050565b5f54610100900460ff166120085760405162461bcd60e51b815260206004820152602b60248201527f496e697469616c697a61626c653a20636f6e7472616374206973206e6f74206960448201526a6e697469616c697a696e6760a81b6064820152608401610cc4565b612012335f6127ad565b60018054911515600160a01b027fffffffffffffffffffffff00ffffffffffffffffffffffffffffffffffffffff909216919091179055565b5f54610100900460ff166120b55760405162461bcd60e51b815260206004820152602b60248201527f496e697469616c697a61626c653a20636f6e7472616374206973206e6f74206960448201526a6e697469616c697a696e6760a81b6064820152608401610cc4565b6008805460ff1916911515919091179055565b60019392505050565b5f6120dd82602061343d565b6120e885602061343d565b6120f48861014461352d565b6120fe919061352d565b612108919061352d565b612112905f61352d565b90503681146121635760405162461bcd60e51b815260206004820152601860248201527f63616c6c64617461206c656e677468206d69736d6174636800000000000000006044820152606401610cc4565b50505050505050565b600c546001600160a01b031661219557604051632717f8c960e21b815260040160405180910390fd5b606080806121a5848601866135bc565b8251929550909350915015806121bd57508151835114155b806121ca57508051835114155b156121e85760405163017c6c6560e31b815260040160405180910390fd5b5f83515a6121f6908c613454565b6122009190613691565b90505f5b845181101561146357600c5485516001600160a01b0390911690630739e4f19087908490811061223657612236613013565b602002602001015186848151811061225057612250613013565b602002602001015186858151811061226a5761226a613013565b60200260200101518e8d8f895a6040518963ffffffff1660e01b815260040161229a9897969594939291906136a4565b6020604051808303815f875af19250505080156122d4575060408051601f3d908101601f191682019092526122d191810190613739565b60015b61235e573d808015612301576040519150601f19603f3d011682016040523d82523d5f602084013e612306565b606091505b5085828151811061231957612319613013565b60200260200101517fe0b838ffe6ee22a0d3acf19a85db6a41b34a1ab739e2d6c759a2e42d95bdccb28260405161235091906129d4565b60405180910390a2506124c2565b5f816002811115612371576123716133db565b036123c15785828151811061238857612388613013565b60200260200101517f9e9bc7616d42c2835d05ae617e508454e63b30b934be8aa932ebc125e0e58a6460405160405180910390a26124c0565b60018160028111156123d5576123d56133db565b03612460578582815181106123ec576123ec613013565b60200260200101517fb2931868c372fe17a25643458add467d60ec5c51125a99b7309f41f5bcd2da6c6040516124539060208082526011908201527f6572726f7220696e2063616c6c6261636b000000000000000000000000000000604082015260600190565b60405180910390a26124c0565b6002816002811115612474576124746133db565b036124c05785828151811061248b5761248b613013565b60200260200101517fa1c120e327c9ad8b075793878c88d59b8934b97ae37117faa3bb21616237f7be60405160405180910390a25b505b806124cc8161303b565b915050612204565b5050565b5f808a8a8a8a8a8a8a8a8a6040516020016124fb99989796959493929190613757565b60408051601f1981840301815291905280516020909101207dffffffffffffffffffffffffffffffffffffffffffffffffffffffffffff167e01000000000000000000000000000000000000000000000000000000000000179150509998505050505050505050565b336001600160a01b038216036125a6576040517f282010c300000000000000000000000000000000000000000000000000000000815260040160405180910390fd5b600180546001600160a01b0319166001600160a01b038381169182179092555f805460405192936201000090910416917fed8889f560326eb138920d842192f0eb3dd22b4f139c87a2c57538e05bae12789190a350565b6001600160a01b0381165f9081526001830160205260408120541515611e25565b5f81815260018301602052604081205480156126f8575f612640600183613454565b85549091505f9061265390600190613454565b90508181146126b2575f865f01828154811061267157612671613013565b905f5260205f200154905080875f01848154811061269157612691613013565b5f918252602080832090910192909255918252600188019052604090208390555b85548690806126c3576126c3613467565b600190038181905f5260205f20015f90559055856001015f8681526020019081526020015f205f905560019350505050611e0b565b5f915050611e0b565b5092915050565b6060815f0180548060200260200160405190810160405280929190818152602001828054801561275557602002820191905f5260205f20905b815481526020019060010190808311612741575b50505050509050919050565b5f8181526001830160205260408120546127a657508154600181810184555f848152602080822090930184905584548482528286019093526040902091909155611e0b565b505f611e0b565b5f54610100900460ff166128175760405162461bcd60e51b815260206004820152602b60248201527f496e697469616c697a61626c653a20636f6e7472616374206973206e6f74206960448201526a6e697469616c697a696e6760a81b6064820152608401610cc4565b6001600160a01b038216612857576040517fb6b515fa00000000000000000000000000000000000000000000000000000000815260040160405180910390fd5b5f80546001600160a01b03808516620100000275ffffffffffffffffffffffffffffffffffffffff000019909216919091179091558116156124d4576124d481612564565b5080546128a89061324c565b5f825580601f106128b7575050565b601f0160209004905f5260205f209081019061061f91906128f2565b604051806103e00160405280601f906020820280368337509192915050565b5b80821115612906575f81556001016128f3565b5090565b5f8083601f84011261291a575f80fd5b50813567ffffffffffffffff811115612931575f80fd5b6020830191508360208260051b850101111561294b575f80fd5b9250929050565b5f8060208385031215612963575f80fd5b823567ffffffffffffffff811115612979575f80fd5b6129858582860161290a565b90969095509350505050565b5f81518084525f5b818110156129b557602081850181015186830182015201612999565b505f602082860101526020601f19601f83011685010191505092915050565b602081525f611e256020830184612991565b5f8151808452602080850194508084015f5b83811015612a1d5781516001600160a01b0316875295820195908201906001016129f8565b509495945050505050565b602081525f611e2560208301846129e6565b6001600160a01b038116811461061f575f80fd5b5f60208284031215612a5e575f80fd5b8135611e2581612a3a565b803567ffffffffffffffff81168114612a80575f80fd5b919050565b5f8083601f840112612a95575f80fd5b50813567ffffffffffffffff811115612aac575f80fd5b60208301915083602082850101111561294b575f80fd5b803563ffffffff81168114612a80575f80fd5b5f805f8060608587031215612ae9575f80fd5b612af285612a69565b9350602085013567ffffffffffffffff811115612b0d575f80fd5b612b1987828801612a85565b9094509250612b2c905060408601612ac3565b905092959194509250565b604081525f612b4960408301856129e6565b6020838203818501528185518084528284019150828160051b8501018388015f5b83811015612b9857601f19878403018552612b86838351612991565b94860194925090850190600101612b6a565b50909998505050505050505050565b5f8060208385031215612bb8575f80fd5b823567ffffffffffffffff811115612bce575f80fd5b61298585828601612a85565b5f805f60408486031215612bec575f80fd5b8335612bf781612a3a565b9250602084013567ffffffffffffffff811115612c12575f80fd5b612c1e86828701612a85565b9497909650939450505050565b5f805f805f805f8060e0898b031215612c42575f80fd5b606089018a811115612c52575f80fd5b8998503567ffffffffffffffff80821115612c6b575f80fd5b612c778c838d01612a85565b909950975060808b0135915080821115612c8f575f80fd5b612c9b8c838d0161290a565b909750955060a08b0135915080821115612cb3575f80fd5b50612cc08b828c0161290a565b999c989b50969995989497949560c00135949350505050565b5f805f805f60808688031215612ced575f80fd5b612cf686612a69565b9450602086013567ffffffffffffffff811115612d11575f80fd5b612d1d88828901612a85565b9095509350612d30905060408701612ac3565b949793965091946060013592915050565b634e487b7160e01b5f52604160045260245ffd5b604051601f8201601f1916810167ffffffffffffffff81118282101715612d7e57612d7e612d41565b604052919050565b5f67ffffffffffffffff821115612d9f57612d9f612d41565b5060051b60200190565b5f82601f830112612db8575f80fd5b81356020612dcd612dc883612d86565b612d55565b82815260059290921b84018101918181019086841115612deb575f80fd5b8286015b84811015612e0f578035612e0281612a3a565b8352918301918301612def565b509695505050505050565b803560ff81168114612a80575f80fd5b5f82601f830112612e39575f80fd5b813567ffffffffffffffff811115612e5357612e53612d41565b612e66601f8201601f1916602001612d55565b818152846020838601011115612e7a575f80fd5b816020850160208301375f918101602001919091529392505050565b5f805f805f8060c08789031215612eab575f80fd5b863567ffffffffffffffff80821115612ec2575f80fd5b612ece8a838b01612da9565b97506020890135915080821115612ee3575f80fd5b612eef8a838b01612da9565b9650612efd60408a01612e1a565b95506060890135915080821115612f12575f80fd5b612f1e8a838b01612e2a565b9450612f2c60808a01612a69565b935060a0890135915080821115612f41575f80fd5b50612f4e89828a01612e2a565b9150509295509295509295565b5f805f83850360a0811215612f6e575f80fd5b843567ffffffffffffffff80821115612f85575f80fd5b612f9188838901612a85565b90965094508491506080601f1984011215612faa575f80fd5b60405192506080830191508282108183111715612fc957612fc9612d41565b50604052612fd960208601612a69565b81526040850135612fe981612a3a565b6020820152612ffa60608601612ac3565b6040820152608094909401356060850152509093909250565b634e487b7160e01b5f52603260045260245ffd5b634e487b7160e01b5f52601160045260245ffd5b5f6001820161304c5761304c613027565b5060010190565b604080825281018390525f8460608301825b8681101561309557823561307881612a3a565b6001600160a01b0316825260209283019290910190600101613065565b5080925050506001600160a01b0383166020830152949350505050565b81835281816020850137505f828201602090810191909152601f909101601f19169091010190565b60a081525f6130ed60a0830185876130b2565b905067ffffffffffffffff83511660208301526001600160a01b03602084015116604083015263ffffffff604084015116606083015260608301516080830152949350505050565b5f60208284031215613145575f80fd5b5051919050565b5f6020828403121561315c575f80fd5b8151611e2581612a3a565b5f6001600160a01b038089168352808816602084015267ffffffffffffffff8716604084015280861660608401525060a060808301526131ab60a0830184866130b2565b98975050505050505050565b5f60208083850312156131c8575f80fd5b825167ffffffffffffffff8111156131de575f80fd5b8301601f810185136131ee575f80fd5b80516131fc612dc882612d86565b81815260059190911b8201830190838101908783111561321a575f80fd5b928401925b8284101561324157835161323281612a3a565b8252928401929084019061321f565b979650505050505050565b600181811c9082168061326057607f821691505b60208210810361327e57634e487b7160e01b5f52602260045260245ffd5b50919050565b601f821115610b8d575f81815260208120601f850160051c810160208610156132aa5750805b601f850160051c820191505b818110156132c9578281556001016132b6565b505050505050565b67ffffffffffffffff8311156132e9576132e9612d41565b6132fd836132f7835461324c565b83613284565b5f601f84116001811461332e575f85156133175750838201355b5f19600387901b1c1916600186901b178355613386565b5f83815260209020601f19861690835b8281101561335e578685013582556020948501946001909201910161333e565b508682101561337a575f1960f88860031b161c19848701351681555b505060018560011b0183555b5050505050565b60ff8181168382160190811115611e0b57611e0b613027565b634e487b7160e01b5f52601260045260245ffd5b5f60ff8316806133cc576133cc6133a6565b8060ff84160491505092915050565b634e487b7160e01b5f52602160045260245ffd5b818382375f9101908152919050565b828152606082602083013760800192915050565b5f60208284031215613422575f80fd5b81516bffffffffffffffffffffffff81168114611e25575f80fd5b8082028115828204841417611e0b57611e0b613027565b81810381811115611e0b57611e0b613027565b634e487b7160e01b5f52603160045260245ffd5b63ffffffff81811683821601908082111561270157612701613027565b5f61012063ffffffff808d1684528b6020850152808b166040850152508060608401526134c78184018a6129e6565b905082810360808401526134db81896129e6565b905060ff871660a084015282810360c08401526134f88187612991565b905067ffffffffffffffff851660e084015282810361010084015261351d8185612991565b9c9b505050505050505050505050565b80820180821115611e0b57611e0b613027565b5f82601f83011261354f575f80fd5b8135602061355f612dc883612d86565b82815260059290921b8401810191818101908684111561357d575f80fd5b8286015b84811015612e0f57803567ffffffffffffffff8111156135a0575f8081fd5b6135ae8986838b0101612e2a565b845250918301918301613581565b5f805f606084860312156135ce575f80fd5b833567ffffffffffffffff808211156135e5575f80fd5b818601915086601f8301126135f8575f80fd5b81356020613608612dc883612d86565b82815260059290921b8401810191818101908a841115613626575f80fd5b948201945b838610156136445785358252948201949082019061362b565b97505087013592505080821115613659575f80fd5b61366587838801613540565b9350604086013591508082111561367a575f80fd5b5061368786828701613540565b9150509250925092565b5f8261369f5761369f6133a6565b500490565b5f6104c08a8352602081818501526136be8285018c612991565b915083820360408501526136d2828b612991565b92506001600160a01b039150818916606085015260808401885f5b601f81101561370c5781518516835291830191908301906001016136ed565b505050505061372161046083018660ff169052565b6104808201939093526104a001529695505050505050565b5f60208284031215613749575f80fd5b815160038110611e25575f80fd5b5f6101208b83526001600160a01b038b16602084015267ffffffffffffffff808b1660408501528160608501526137908285018b6129e6565b915083820360808501526137a4828a6129e6565b915060ff881660a085015283820360c08501526137c18288612991565b90861660e0850152838103610100850152905061351d818561299156fea2646970667358221220152459bcfa1a905bb0181c3ef5af2ad58fda250ad4cbba41812dc9e1d10b23ad64736f6c63430008140033",
  "linkReferences": {},
  "deployedLinkReferences": {}
}