{
  "_format": "hh-sol-artifact-1",
  "contractName": "Variables",
  "sourceName": "src/backend/contracts/_Variables.sol",
  "abi": [
    {
      "anonymous": false,
      "inputs": [
        {
          "indexed": true,
          "internalType": "address",
          "name": "previousOwner",
          "type": "address"
        },
        {
          "indexed": true,
          "internalType": "address",
          "name": "newOwner",
          "type": "address"
        }
      ],
      "name": "OwnershipTransferred",
      "type": "event"
    },
    {
      "anonymous": false,
      "inputs": [
        {
          "indexed": false,
          "internalType": "uint256",
          "name": "_threshold",
          "type": "uint256"
        }
      ],
      "name": "updatedBaseThreshold",
      "type": "event"
    },
    {
      "anonymous": false,
      "inputs": [
        {
          "indexed": false,
          "internalType": "uint256",
          "name": "value",
          "type": "uint256"
        }
      ],
      "name": "updatedLevelToGovern",
      "type": "event"
    },
    {
      "anonymous": false,
      "inputs": [
        {
          "indexed": false,
          "internalType": "uint256",
          "name": "_percentage",
          "type": "uint256"
        }
      ],
      "name": "updatedPerWithdrawal",
      "type": "event"
    },
    {
      "anonymous": false,
      "inputs": [
        {
          "indexed": false,
          "internalType": "uint256",
          "name": "_percentage",
          "type": "uint256"
        }
      ],
      "name": "updatedVariables",
      "type": "event"
    },
    {
      "inputs": [],
      "name": "owner",
      "outputs": [
        {
          "internalType": "address",
          "name": "",
          "type": "address"
        }
      ],
      "stateMutability": "view",
      "type": "function"
    },
    {
      "inputs": [],
      "name": "renounceOwnership",
      "outputs": [],
      "stateMutability": "nonpayable",
      "type": "function"
    },
    {
      "inputs": [],
      "name": "retriveBaseThreshold",
      "outputs": [
        {
          "internalType": "uint256",
          "name": "",
          "type": "uint256"
        }
      ],
      "stateMutability": "view",
      "type": "function"
    },
    {
      "inputs": [],
      "name": "retriveLevelToGovern",
      "outputs": [
        {
          "internalType": "uint256",
          "name": "",
          "type": "uint256"
        }
      ],
      "stateMutability": "view",
      "type": "function"
    },
    {
      "inputs": [],
      "name": "retrivePerWithdrawal",
      "outputs": [
        {
          "internalType": "uint256",
          "name": "",
          "type": "uint256"
        }
      ],
      "stateMutability": "view",
      "type": "function"
    },
    {
      "inputs": [
        {
          "internalType": "uint256",
          "name": "_threshold",
          "type": "uint256"
        }
      ],
      "name": "storeBaseThreshold",
      "outputs": [],
      "stateMutability": "nonpayable",
      "type": "function"
    },
    {
      "inputs": [
        {
          "internalType": "uint256",
          "name": "_level",
          "type": "uint256"
        }
      ],
      "name": "storeLevelToGovern",
      "outputs": [],
      "stateMutability": "nonpayable",
      "type": "function"
    },
    {
      "inputs": [
        {
          "internalType": "uint256",
          "name": "_percentage",
          "type": "uint256"
        }
      ],
      "name": "storePerWithdrawal",
      "outputs": [],
      "stateMutability": "nonpayable",
      "type": "function"
    },
    {
      "inputs": [
        {
          "internalType": "address",
          "name": "newOwner",
          "type": "address"
        }
      ],
      "name": "transferOwnership",
      "outputs": [],
      "stateMutability": "nonpayable",
      "type": "function"
    }
  ],
  "bytecode": "0x608060405234801561000f575f80fd5b506100193361001e565b61006d565b5f80546001600160a01b038381166001600160a01b0319831681178455604051919092169283917f8be0079c531659141344cd1fd0a4f28419497f9722a3daafe3b4186f6b6457e09190a35050565b6103da8061007a5f395ff3fe608060405234801561000f575f80fd5b506004361061009f575f3560e01c8063d30d5d9311610072578063e3345e2d11610058578063e3345e2d1461010c578063e7f892361461011f578063f2fde38b14610127575f80fd5b8063d30d5d93146100f1578063dfe1843e14610104575f80fd5b8063715018a6146100a35780638da5cb5b146100ad578063912ea4af146100cc578063b55d7c7b146100de575b5f80fd5b6100ab61013a565b005b5f546040516001600160a01b0390911681526020015b60405180910390f35b6003545b6040519081526020016100c3565b6100ab6100ec366004610360565b61014d565b6100ab6100ff366004610360565b610191565b6002546100d0565b6100ab61011a366004610360565b6101ce565b6001546100d0565b6100ab610135366004610377565b61020b565b6101426102a0565b61014b5f6102f9565b565b6101556102a0565b60018190556040518181527fe57df975ef66fbba89d02ad394c649799a5a923d88444db7f97381e37f9d7752906020015b60405180910390a150565b6101996102a0565b60028190556040518181527f690871b01d6f7cd1aa9da53521ee0d8486d6feb8e9cc98e063b2638aaac101c290602001610186565b6101d66102a0565b60038190556040518181527f2ae5585e653cd7c92a38a48e250ee99e8b11c7c02b8e553a3ff20eda84299a7790602001610186565b6102136102a0565b6001600160a01b0381166102945760405162461bcd60e51b815260206004820152602660248201527f4f776e61626c653a206e6577206f776e657220697320746865207a65726f206160448201527f646472657373000000000000000000000000000000000000000000000000000060648201526084015b60405180910390fd5b61029d816102f9565b50565b5f546001600160a01b0316331461014b5760405162461bcd60e51b815260206004820181905260248201527f4f776e61626c653a2063616c6c6572206973206e6f7420746865206f776e6572604482015260640161028b565b5f80546001600160a01b038381167fffffffffffffffffffffffff0000000000000000000000000000000000000000831681178455604051919092169283917f8be0079c531659141344cd1fd0a4f28419497f9722a3daafe3b4186f6b6457e09190a35050565b5f60208284031215610370575f80fd5b5035919050565b5f60208284031215610387575f80fd5b81356001600160a01b038116811461039d575f80fd5b939250505056fea2646970667358221220e537427252819cc451d84b68fdcb1c5ae10d4d1db456346dd61c31976ecf494764736f6c63430008140033",
  "linkReferences": {},
  "deployedLinkReferences": {}
}