{
  "_format": "hh-sol-artifact-1",
  "contractName": "LinkToken",
  "sourceName": "src/backend/test/mocks/LinkToken.sol",
  "abi": [
    {
      "inputs": [],
      "stateMutability": "nonpayable",
      "type": "constructor"
    },
    {
      "anonymous": false,
      "inputs": [
        {
          "indexed": true,
          "internalType": "address",
          "name": "owner",
          "type": "address"
        },
        {
          "indexed": true,
          "internalType": "address",
          "name": "spender",
          "type": "address"
        },
        {
          "indexed": false,
          "internalType": "uint256",
          "name": "amount",
          "type": "uint256"
        }
      ],
      "name": "Approval",
      "type": "event"
    },
    {
      "anonymous": false,
      "inputs": [
        {
          "indexed": true,
          "internalType": "address",
          "name": "from",
          "type": "address"
        },
        {
          "indexed": true,
          "internalType": "address",
          "name": "to",
          "type": "address"
        },
        {
          "indexed": false,
          "internalType": "uint256",
          "name": "amount",
          "type": "uint256"
        }
      ],
      "name": "Transfer",
      "type": "event"
    },
    {
      "anonymous": false,
      "inputs": [
        {
          "indexed": true,
          "internalType": "address",
          "name": "from",
          "type": "address"
        },
        {
          "indexed": true,
          "internalType": "address",
          "name": "to",
          "type": "address"
        },
        {
          "indexed": false,
          "internalType": "uint256",
          "name": "value",
          "type": "uint256"
        },
        {
          "indexed": false,
          "internalType": "bytes",
          "name": "data",
          "type": "bytes"
        }
      ],
      "name": "Transfer",
      "type": "event"
    },
    {
      "inputs": [],
      "name": "DOMAIN_SEPARATOR",
      "outputs": [
        {
          "internalType": "bytes32",
          "name": "",
          "type": "bytes32"
        }
      ],
      "stateMutability": "view",
      "type": "function"
    },
    {
      "inputs": [
        {
          "internalType": "address",
          "name": "",
          "type": "address"
        },
        {
          "internalType": "address",
          "name": "",
          "type": "address"
        }
      ],
      "name": "allowance",
      "outputs": [
        {
          "internalType": "uint256",
          "name": "",
          "type": "uint256"
        }
      ],
      "stateMutability": "view",
      "type": "function"
    },
    {
      "inputs": [
        {
          "internalType": "address",
          "name": "spender",
          "type": "address"
        },
        {
          "internalType": "uint256",
          "name": "amount",
          "type": "uint256"
        }
      ],
      "name": "approve",
      "outputs": [
        {
          "internalType": "bool",
          "name": "",
          "type": "bool"
        }
      ],
      "stateMutability": "nonpayable",
      "type": "function"
    },
    {
      "inputs": [
        {
          "internalType": "address",
          "name": "",
          "type": "address"
        }
      ],
      "name": "balanceOf",
      "outputs": [
        {
          "internalType": "uint256",
          "name": "",
          "type": "uint256"
        }
      ],
      "stateMutability": "view",
      "type": "function"
    },
    {
      "inputs": [],
      "name": "decimals",
      "outputs": [
        {
          "internalType": "uint8",
          "name": "",
          "type": "uint8"
        }
      ],
      "stateMutability": "view",
      "type": "function"
    },
    {
      "inputs": [],
      "name": "name",
      "outputs": [
        {
          "internalType": "string",
          "name": "",
          "type": "string"
        }
      ],
      "stateMutability": "view",
      "type": "function"
    },
    {
      "inputs": [
        {
          "internalType": "address",
          "name": "",
          "type": "address"
        }
      ],
      "name": "nonces",
      "outputs": [
        {
          "internalType": "uint256",
          "name": "",
          "type": "uint256"
        }
      ],
      "stateMutability": "view",
      "type": "function"
    },
    {
      "inputs": [
        {
          "internalType": "address",
          "name": "owner",
          "type": "address"
        },
        {
          "internalType": "address",
          "name": "spender",
          "type": "address"
        },
        {
          "internalType": "uint256",
          "name": "value",
          "type": "uint256"
        },
        {
          "internalType": "uint256",
          "name": "deadline",
          "type": "uint256"
        },
        {
          "internalType": "uint8",
          "name": "v",
          "type": "uint8"
        },
        {
          "internalType": "bytes32",
          "name": "r",
          "type": "bytes32"
        },
        {
          "internalType": "bytes32",
          "name": "s",
          "type": "bytes32"
        }
      ],
      "name": "permit",
      "outputs": [],
      "stateMutability": "nonpayable",
      "type": "function"
    },
    {
      "inputs": [],
      "name": "symbol",
      "outputs": [
        {
          "internalType": "string",
          "name": "",
          "type": "string"
        }
      ],
      "stateMutability": "view",
      "type": "function"
    },
    {
      "inputs": [],
      "name": "totalSupply",
      "outputs": [
        {
          "internalType": "uint256",
          "name": "",
          "type": "uint256"
        }
      ],
      "stateMutability": "view",
      "type": "function"
    },
    {
      "inputs": [
        {
          "internalType": "address",
          "name": "to",
          "type": "address"
        },
        {
          "internalType": "uint256",
          "name": "amount",
          "type": "uint256"
        }
      ],
      "name": "transfer",
      "outputs": [
        {
          "internalType": "bool",
          "name": "",
          "type": "bool"
        }
      ],
      "stateMutability": "nonpayable",
      "type": "function"
    },
    {
      "inputs": [
        {
          "internalType": "address",
          "name": "_to",
          "type": "address"
        },
        {
          "internalType": "uint256",
          "name": "_value",
          "type": "uint256"
        },
        {
          "internalType": "bytes",
          "name": "_data",
          "type": "bytes"
        }
      ],
      "name": "transferAndCall",
      "outputs": [
        {
          "internalType": "bool",
          "name": "success",
          "type": "bool"
        }
      ],
      "stateMutability": "nonpayable",
      "type": "function"
    },
    {
      "inputs": [
        {
          "internalType": "address",
          "name": "from",
          "type": "address"
        },
        {
          "internalType": "address",
          "name": "to",
          "type": "address"
        },
        {
          "internalType": "uint256",
          "name": "amount",
          "type": "uint256"
        }
      ],
      "name": "transferFrom",
      "outputs": [
        {
          "internalType": "bool",
          "name": "",
          "type": "bool"
        }
      ],
      "stateMutability": "nonpayable",
      "type": "function"
    }
  ],
  "bytecode": "0x60e060405234801562000010575f80fd5b50604051806040016040528060098152602001682634b735aa37b5b2b760b91b815250604051806040016040528060048152602001634c494e4b60e01b8152506012825f908162000062919062000250565b50600162000071838262000250565b5060ff81166080524660a05262000087620000ab565b60c05250620000a5915033905069d3c21bcecceda100000062000145565b620003b8565b5f7f8b73c3c69bb8fe3d512ecc4cf759cc79239f7b179b0ffacaa9a75d522b39400f5f604051620000dd919062000318565b6040805191829003822060208301939093528101919091527fc89efdaa54c0f20c7adf612882df0950f5a951637e0307cdcb4c672f298b8bc660608201524660808201523060a082015260c00160405160208183030381529060405280519060200120905090565b8060025f82825462000158919062000392565b90915550506001600160a01b0382165f818152600360209081526040808320805486019055518481527fddf252ad1be2c89b69c2b068fc378daa952ba7f163c4a11628f55a4df523b3ef910160405180910390a35050565b634e487b7160e01b5f52604160045260245ffd5b600181811c90821680620001d957607f821691505b602082108103620001f857634e487b7160e01b5f52602260045260245ffd5b50919050565b601f8211156200024b575f81815260208120601f850160051c81016020861015620002265750805b601f850160051c820191505b81811015620002475782815560010162000232565b5050505b505050565b81516001600160401b038111156200026c576200026c620001b0565b62000284816200027d8454620001c4565b84620001fe565b602080601f831160018114620002ba575f8415620002a25750858301515b5f19600386901b1c1916600185901b17855562000247565b5f85815260208120601f198616915b82811015620002ea57888601518255948401946001909101908401620002c9565b50858210156200030857878501515f19600388901b60f8161c191681555b5050505050600190811b01905550565b5f8083546200032781620001c4565b60018281168015620003425760018114620003585762000386565b60ff198416875282151583028701945062000386565b875f526020805f205f5b858110156200037d5781548a82015290840190820162000362565b50505082870194505b50929695505050505050565b80820180821115620003b257634e487b7160e01b5f52601160045260245ffd5b92915050565b60805160a05160c051610cce620003e35f395f61045101525f61041c01525f61014e0152610cce5ff3fe608060405234801561000f575f80fd5b50600436106100da575f3560e01c80634000aea01161008857806395d89b411161006357806395d89b41146101db578063a9059cbb146101e3578063d505accf146101f6578063dd62ed3e1461020b575f80fd5b80634000aea01461018a57806370a082311461019d5780637ecebe00146101bc575f80fd5b806323b872dd116100b857806323b872dd14610136578063313ce567146101495780633644e51514610182575f80fd5b806306fdde03146100de578063095ea7b3146100fc57806318160ddd1461011f575b5f80fd5b6100e6610235565b6040516100f39190610931565b60405180910390f35b61010f61010a366004610965565b6102c0565b60405190151581526020016100f3565b61012860025481565b6040519081526020016100f3565b61010f61014436600461098d565b61032c565b6101707f000000000000000000000000000000000000000000000000000000000000000081565b60405160ff90911681526020016100f3565b610128610419565b61010f6101983660046109da565b610473565b6101286101ab366004610a9e565b60036020525f908152604090205481565b6101286101ca366004610a9e565b60056020525f908152604090205481565b6100e66104e8565b61010f6101f1366004610965565b6104f5565b610209610204366004610ab7565b61056b565b005b610128610219366004610b24565b600460209081525f928352604080842090915290825290205481565b5f805461024190610b55565b80601f016020809104026020016040519081016040528092919081815260200182805461026d90610b55565b80156102b85780601f1061028f576101008083540402835291602001916102b8565b820191905f5260205f20905b81548152906001019060200180831161029b57829003601f168201915b505050505081565b335f8181526004602090815260408083206001600160a01b038716808552925280832085905551919290917f8c5be1e5ebec7d5bd14f71427d1e84f3dd0314c0f7b2291e5b200ac8c7c3b9259061031a9086815260200190565b60405180910390a35060015b92915050565b6001600160a01b0383165f9081526004602090815260408083203384529091528120545f198114610385576103618382610b8d565b6001600160a01b0386165f9081526004602090815260408083203384529091529020555b6001600160a01b0385165f90815260036020526040812080548592906103ac908490610b8d565b90915550506001600160a01b038085165f81815260036020526040908190208054870190555190918716907fddf252ad1be2c89b69c2b068fc378daa952ba7f163c4a11628f55a4df523b3ef906104069087815260200190565b60405180910390a3506001949350505050565b5f7f0000000000000000000000000000000000000000000000000000000000000000461461044e576104496107d8565b905090565b507f000000000000000000000000000000000000000000000000000000000000000090565b5f61047e84846104f5565b50836001600160a01b0316336001600160a01b03167fe19260aff97b920c7df27010903aeb9c8d2be5d310a2c67824cf3f15396e4c1685856040516104c4929190610bac565b60405180910390a3833b156104de576104de848484610870565b5060019392505050565b6001805461024190610b55565b335f90815260036020526040812080548391908390610515908490610b8d565b90915550506001600160a01b0383165f81815260036020526040908190208054850190555133907fddf252ad1be2c89b69c2b068fc378daa952ba7f163c4a11628f55a4df523b3ef9061031a9086815260200190565b428410156105c05760405162461bcd60e51b815260206004820152601760248201527f5045524d49545f444541444c494e455f4558504952454400000000000000000060448201526064015b60405180910390fd5b5f60016105cb610419565b6001600160a01b038a81165f8181526005602090815260409182902080546001810190915582517f6e71edae12b1b97f4d1f60370fef10105fa2faae0126114a169c64845d6126c98184015280840194909452938d166060840152608083018c905260a083019390935260c08083018b90528151808403909101815260e0830190915280519201919091207f19010000000000000000000000000000000000000000000000000000000000006101008301526101028201929092526101228101919091526101420160408051601f1981840301815282825280516020918201205f84529083018083525260ff871690820152606081018590526080810184905260a0016020604051602081039080840390855afa1580156106ee573d5f803e3d5ffd5b5050604051601f1901519150506001600160a01b038116158015906107245750876001600160a01b0316816001600160a01b0316145b6107705760405162461bcd60e51b815260206004820152600e60248201527f494e56414c49445f5349474e455200000000000000000000000000000000000060448201526064016105b7565b6001600160a01b039081165f9081526004602090815260408083208a8516808552908352928190208990555188815291928a16917f8c5be1e5ebec7d5bd14f71427d1e84f3dd0314c0f7b2291e5b200ac8c7c3b925910160405180910390a350505050505050565b5f7f8b73c3c69bb8fe3d512ecc4cf759cc79239f7b179b0ffacaa9a75d522b39400f5f6040516108089190610bcc565b6040805191829003822060208301939093528101919091527fc89efdaa54c0f20c7adf612882df0950f5a951637e0307cdcb4c672f298b8bc660608201524660808201523060a082015260c00160405160208183030381529060405280519060200120905090565b6040517fa4c0ed3600000000000000000000000000000000000000000000000000000000815283906001600160a01b0382169063a4c0ed36906108bb90339087908790600401610c68565b5f604051808303815f87803b1580156108d2575f80fd5b505af11580156108e4573d5f803e3d5ffd5b5050505050505050565b5f81518084525f5b81811015610912576020818501810151868301820152016108f6565b505f602082860101526020601f19601f83011685010191505092915050565b602081525f61094360208301846108ee565b9392505050565b80356001600160a01b0381168114610960575f80fd5b919050565b5f8060408385031215610976575f80fd5b61097f8361094a565b946020939093013593505050565b5f805f6060848603121561099f575f80fd5b6109a88461094a565b92506109b66020850161094a565b9150604084013590509250925092565b634e487b7160e01b5f52604160045260245ffd5b5f805f606084860312156109ec575f80fd5b6109f58461094a565b925060208401359150604084013567ffffffffffffffff80821115610a18575f80fd5b818601915086601f830112610a2b575f80fd5b813581811115610a3d57610a3d6109c6565b604051601f8201601f19908116603f01168101908382118183101715610a6557610a656109c6565b81604052828152896020848701011115610a7d575f80fd5b826020860160208301375f6020848301015280955050505050509250925092565b5f60208284031215610aae575f80fd5b6109438261094a565b5f805f805f805f60e0888a031215610acd575f80fd5b610ad68861094a565b9650610ae46020890161094a565b95506040880135945060608801359350608088013560ff81168114610b07575f80fd5b9699959850939692959460a0840135945060c09093013592915050565b5f8060408385031215610b35575f80fd5b610b3e8361094a565b9150610b4c6020840161094a565b90509250929050565b600181811c90821680610b6957607f821691505b602082108103610b8757634e487b7160e01b5f52602260045260245ffd5b50919050565b8181038181111561032657634e487b7160e01b5f52601160045260245ffd5b828152604060208201525f610bc460408301846108ee565b949350505050565b5f80835481600182811c915080831680610be757607f831692505b60208084108203610c0657634e487b7160e01b86526022600452602486fd5b818015610c1a5760018114610c2f57610c5a565b60ff1986168952841515850289019650610c5a565b5f8a8152602090205f5b86811015610c525781548b820152908501908301610c39565b505084890196505b509498975050505050505050565b6001600160a01b0384168152826020820152606060408201525f610c8f60608301846108ee565b9594505050505056fea2646970667358221220de5bd1ce36716dd14f6ee4bf3ecb05f8253d7e5e68c9477d984e2e9a7a1bc48264736f6c63430008140033",
  "linkReferences": {},
  "deployedLinkReferences": {}
}