{
  "_format": "hh-sol-artifact-1",
  "contractName": "ProxyAdmin",
  "sourceName": "lib/openzeppelin-contracts/contracts/proxy/transparent/ProxyAdmin.sol",
  "abi": [
    {
      "anonymous": false,
      "inputs": [
        {
          "indexed": true,
          "internalType": "address",
          "name": "previousOwner",
          "type": "address"
        },
        {
          "indexed": true,
          "internalType": "address",
          "name": "newOwner",
          "type": "address"
        }
      ],
      "name": "OwnershipTransferred",
      "type": "event"
    },
    {
      "inputs": [
        {
          "internalType": "contract ITransparentUpgradeableProxy",
          "name": "proxy",
          "type": "address"
        },
        {
          "internalType": "address",
          "name": "newAdmin",
          "type": "address"
        }
      ],
      "name": "changeProxyAdmin",
      "outputs": [],
      "stateMutability": "nonpayable",
      "type": "function"
    },
    {
      "inputs": [
        {
          "internalType": "contract ITransparentUpgradeableProxy",
          "name": "proxy",
          "type": "address"
        }
      ],
      "name": "getProxyAdmin",
      "outputs": [
        {
          "internalType": "address",
          "name": "",
          "type": "address"
        }
      ],
      "stateMutability": "view",
      "type": "function"
    },
    {
      "inputs": [
        {
          "internalType": "contract ITransparentUpgradeableProxy",
          "name": "proxy",
          "type": "address"
        }
      ],
      "name": "getProxyImplementation",
      "outputs": [
        {
          "internalType": "address",
          "name": "",
          "type": "address"
        }
      ],
      "stateMutability": "view",
      "type": "function"
    },
    {
      "inputs": [],
      "name": "owner",
      "outputs": [
        {
          "internalType": "address",
          "name": "",
          "type": "address"
        }
      ],
      "stateMutability": "view",
      "type": "function"
    },
    {
      "inputs": [],
      "name": "renounceOwnership",
      "outputs": [],
      "stateMutability": "nonpayable",
      "type": "function"
    },
    {
      "inputs": [
        {
          "internalType": "address",
          "name": "newOwner",
          "type": "address"
        }
      ],
      "name": "transferOwnership",
      "outputs": [],
      "stateMutability": "nonpayable",
      "type": "function"
    },
    {
      "inputs": [
        {
          "internalType": "contract ITransparentUpgradeableProxy",
          "name": "proxy",
          "type": "address"
        },
        {
          "internalType": "address",
          "name": "implementation",
          "type": "address"
        }
      ],
      "name": "upgrade",
      "outputs": [],
      "stateMutability": "nonpayable",
      "type": "function"
    },
    {
      "inputs": [
        {
          "internalType": "contract ITransparentUpgradeableProxy",
          "name": "proxy",
          "type": "address"
        },
        {
          "internalType": "address",
          "name": "implementation",
          "type": "address"
        },
        {
          "internalType": "bytes",
          "name": "data",
          "type": "bytes"
        }
      ],
      "name": "upgradeAndCall",
      "outputs": [],
      "stateMutability": "payable",
      "type": "function"
    }
  ],
  "bytecode": "0x608060405234801561000f575f80fd5b506100193361001e565b61006d565b5f80546001600160a01b038381166001600160a01b0319831681178455604051919092169283917f8be0079c531659141344cd1fd0a4f28419497f9722a3daafe3b4186f6b6457e09190a35050565b6107278061007a5f395ff3fe608060405260043610610079575f3560e01c80639623609d1161004c5780639623609d1461010957806399a88ec41461011c578063f2fde38b1461013b578063f3b7dead1461015a575f80fd5b8063204e1c7a1461007d578063715018a6146100b85780637eff275e146100ce5780638da5cb5b146100ed575b5f80fd5b348015610088575f80fd5b5061009c610097366004610525565b610179565b6040516001600160a01b03909116815260200160405180910390f35b3480156100c3575f80fd5b506100cc61021d565b005b3480156100d9575f80fd5b506100cc6100e8366004610547565b610230565b3480156100f8575f80fd5b505f546001600160a01b031661009c565b6100cc6101173660046105ab565b6102ac565b348015610127575f80fd5b506100cc610136366004610547565b610330565b348015610146575f80fd5b506100cc610155366004610525565b61037f565b348015610165575f80fd5b5061009c610174366004610525565b610414565b5f805f836001600160a01b03166040516101b6907f5c60da1b00000000000000000000000000000000000000000000000000000000815260040190565b5f60405180830381855afa9150503d805f81146101ee576040519150601f19603f3d011682016040523d82523d5f602084013e6101f3565b606091505b509150915081610201575f80fd5b80806020019051810190610215919061067a565b949350505050565b610225610451565b61022e5f6104aa565b565b610238610451565b6040517f8f2839700000000000000000000000000000000000000000000000000000000081526001600160a01b038281166004830152831690638f283970906024015b5f604051808303815f87803b158015610292575f80fd5b505af11580156102a4573d5f803e3d5ffd5b505050505050565b6102b4610451565b6040517f4f1ef2860000000000000000000000000000000000000000000000000000000081526001600160a01b03841690634f1ef2869034906102fd9086908690600401610695565b5f604051808303818588803b158015610314575f80fd5b505af1158015610326573d5f803e3d5ffd5b5050505050505050565b610338610451565b6040517f3659cfe60000000000000000000000000000000000000000000000000000000081526001600160a01b038281166004830152831690633659cfe69060240161027b565b610387610451565b6001600160a01b0381166104085760405162461bcd60e51b815260206004820152602660248201527f4f776e61626c653a206e6577206f776e657220697320746865207a65726f206160448201527f646472657373000000000000000000000000000000000000000000000000000060648201526084015b60405180910390fd5b610411816104aa565b50565b5f805f836001600160a01b03166040516101b6907ff851a44000000000000000000000000000000000000000000000000000000000815260040190565b5f546001600160a01b0316331461022e5760405162461bcd60e51b815260206004820181905260248201527f4f776e61626c653a2063616c6c6572206973206e6f7420746865206f776e657260448201526064016103ff565b5f80546001600160a01b038381167fffffffffffffffffffffffff0000000000000000000000000000000000000000831681178455604051919092169283917f8be0079c531659141344cd1fd0a4f28419497f9722a3daafe3b4186f6b6457e09190a35050565b6001600160a01b0381168114610411575f80fd5b5f60208284031215610535575f80fd5b813561054081610511565b9392505050565b5f8060408385031215610558575f80fd5b823561056381610511565b9150602083013561057381610511565b809150509250929050565b7f4e487b71000000000000000000000000000000000000000000000000000000005f52604160045260245ffd5b5f805f606084860312156105bd575f80fd5b83356105c881610511565b925060208401356105d881610511565b9150604084013567ffffffffffffffff808211156105f4575f80fd5b818601915086601f830112610607575f80fd5b8135818111156106195761061961057e565b604051601f8201601f19908116603f011681019083821181831017156106415761064161057e565b81604052828152896020848701011115610659575f80fd5b826020860160208301375f6020848301015280955050505050509250925092565b5f6020828403121561068a575f80fd5b815161054081610511565b6001600160a01b03831681525f602060408184015283518060408501525f5b818110156106d0578581018301518582016060015282016106b4565b505f606082860101526060601f19601f83011685010192505050939250505056fea2646970667358221220ba436a645f80b61571d2d5f516e2a087eb72952c3555c1dcf1c259238cbab58d64736f6c63430008140033",
  "linkReferences": {},
  "deployedLinkReferences": {}
}