{
  "_format": "hh-sol-artifact-1",
  "contractName": "GovernanceToken",
  "sourceName": "src/backend/contracts/_GovernanceToken.sol",
  "abi": [
    {
      "inputs": [],
      "stateMutability": "nonpayable",
      "type": "constructor"
    },
    {
      "inputs": [],
      "name": "InvalidShortString",
      "type": "error"
    },
    {
      "inputs": [
        {
          "internalType": "string",
          "name": "str",
          "type": "string"
        }
      ],
      "name": "StringTooLong",
      "type": "error"
    },
    {
      "anonymous": false,
      "inputs": [
        {
          "indexed": true,
          "internalType": "address",
          "name": "owner",
          "type": "address"
        },
        {
          "indexed": true,
          "internalType": "address",
          "name": "approved",
          "type": "address"
        },
        {
          "indexed": true,
          "internalType": "uint256",
          "name": "tokenId",
          "type": "uint256"
        }
      ],
      "name": "Approval",
      "type": "event"
    },
    {
      "anonymous": false,
      "inputs": [
        {
          "indexed": true,
          "internalType": "address",
          "name": "owner",
          "type": "address"
        },
        {
          "indexed": true,
          "internalType": "address",
          "name": "operator",
          "type": "address"
        },
        {
          "indexed": false,
          "internalType": "bool",
          "name": "approved",
          "type": "bool"
        }
      ],
      "name": "ApprovalForAll",
      "type": "event"
    },
    {
      "anonymous": false,
      "inputs": [
        {
          "indexed": false,
          "internalType": "uint256",
          "name": "_fromTokenId",
          "type": "uint256"
        },
        {
          "indexed": false,
          "internalType": "uint256",
          "name": "_toTokenId",
          "type": "uint256"
        }
      ],
      "name": "BatchMetadataUpdate",
      "type": "event"
    },
    {
      "anonymous": false,
      "inputs": [
        {
          "indexed": true,
          "internalType": "address",
          "name": "delegator",
          "type": "address"
        },
        {
          "indexed": true,
          "internalType": "address",
          "name": "fromDelegate",
          "type": "address"
        },
        {
          "indexed": true,
          "internalType": "address",
          "name": "toDelegate",
          "type": "address"
        }
      ],
      "name": "DelegateChanged",
      "type": "event"
    },
    {
      "anonymous": false,
      "inputs": [
        {
          "indexed": true,
          "internalType": "address",
          "name": "delegate",
          "type": "address"
        },
        {
          "indexed": false,
          "internalType": "uint256",
          "name": "previousBalance",
          "type": "uint256"
        },
        {
          "indexed": false,
          "internalType": "uint256",
          "name": "newBalance",
          "type": "uint256"
        }
      ],
      "name": "DelegateVotesChanged",
      "type": "event"
    },
    {
      "anonymous": false,
      "inputs": [],
      "name": "EIP712DomainChanged",
      "type": "event"
    },
    {
      "anonymous": false,
      "inputs": [
        {
          "indexed": false,
          "internalType": "uint256",
          "name": "_tokenId",
          "type": "uint256"
        }
      ],
      "name": "MetadataUpdate",
      "type": "event"
    },
    {
      "anonymous": false,
      "inputs": [
        {
          "indexed": true,
          "internalType": "address",
          "name": "previousOwner",
          "type": "address"
        },
        {
          "indexed": true,
          "internalType": "address",
          "name": "newOwner",
          "type": "address"
        }
      ],
      "name": "OwnershipTransferred",
      "type": "event"
    },
    {
      "anonymous": false,
      "inputs": [
        {
          "indexed": true,
          "internalType": "address",
          "name": "from",
          "type": "address"
        },
        {
          "indexed": true,
          "internalType": "address",
          "name": "to",
          "type": "address"
        },
        {
          "indexed": true,
          "internalType": "uint256",
          "name": "tokenId",
          "type": "uint256"
        }
      ],
      "name": "Transfer",
      "type": "event"
    },
    {
      "inputs": [],
      "name": "CLOCK_MODE",
      "outputs": [
        {
          "internalType": "string",
          "name": "",
          "type": "string"
        }
      ],
      "stateMutability": "view",
      "type": "function"
    },
    {
      "inputs": [],
      "name": "DOMAIN_SEPARATOR",
      "outputs": [
        {
          "internalType": "bytes32",
          "name": "",
          "type": "bytes32"
        }
      ],
      "stateMutability": "view",
      "type": "function"
    },
    {
      "inputs": [
        {
          "internalType": "address",
          "name": "to",
          "type": "address"
        },
        {
          "internalType": "uint256",
          "name": "tokenId",
          "type": "uint256"
        }
      ],
      "name": "approve",
      "outputs": [],
      "stateMutability": "nonpayable",
      "type": "function"
    },
    {
      "inputs": [
        {
          "internalType": "address",
          "name": "owner",
          "type": "address"
        }
      ],
      "name": "balanceOf",
      "outputs": [
        {
          "internalType": "uint256",
          "name": "",
          "type": "uint256"
        }
      ],
      "stateMutability": "view",
      "type": "function"
    },
    {
      "inputs": [],
      "name": "clock",
      "outputs": [
        {
          "internalType": "uint48",
          "name": "",
          "type": "uint48"
        }
      ],
      "stateMutability": "view",
      "type": "function"
    },
    {
      "inputs": [
        {
          "internalType": "address",
          "name": "delegatee",
          "type": "address"
        }
      ],
      "name": "delegate",
      "outputs": [],
      "stateMutability": "nonpayable",
      "type": "function"
    },
    {
      "inputs": [
        {
          "internalType": "address",
          "name": "delegatee",
          "type": "address"
        },
        {
          "internalType": "uint256",
          "name": "nonce",
          "type": "uint256"
        },
        {
          "internalType": "uint256",
          "name": "expiry",
          "type": "uint256"
        },
        {
          "internalType": "uint8",
          "name": "v",
          "type": "uint8"
        },
        {
          "internalType": "bytes32",
          "name": "r",
          "type": "bytes32"
        },
        {
          "internalType": "bytes32",
          "name": "s",
          "type": "bytes32"
        }
      ],
      "name": "delegateBySig",
      "outputs": [],
      "stateMutability": "nonpayable",
      "type": "function"
    },
    {
      "inputs": [
        {
          "internalType": "address",
          "name": "account",
          "type": "address"
        }
      ],
      "name": "delegates",
      "outputs": [
        {
          "internalType": "address",
          "name": "",
          "type": "address"
        }
      ],
      "stateMutability": "view",
      "type": "function"
    },
    {
      "inputs": [],
      "name": "eip712Domain",
      "outputs": [
        {
          "internalType": "bytes1",
          "name": "fields",
          "type": "bytes1"
        },
        {
          "internalType": "string",
          "name": "name",
          "type": "string"
        },
        {
          "internalType": "string",
          "name": "version",
          "type": "string"
        },
        {
          "internalType": "uint256",
          "name": "chainId",
          "type": "uint256"
        },
        {
          "internalType": "address",
          "name": "verifyingContract",
          "type": "address"
        },
        {
          "internalType": "bytes32",
          "name": "salt",
          "type": "bytes32"
        },
        {
          "internalType": "uint256[]",
          "name": "extensions",
          "type": "uint256[]"
        }
      ],
      "stateMutability": "view",
      "type": "function"
    },
    {
      "inputs": [
        {
          "internalType": "uint256",
          "name": "tokenId",
          "type": "uint256"
        }
      ],
      "name": "getApproved",
      "outputs": [
        {
          "internalType": "address",
          "name": "",
          "type": "address"
        }
      ],
      "stateMutability": "view",
      "type": "function"
    },
    {
      "inputs": [
        {
          "internalType": "uint256",
          "name": "timepoint",
          "type": "uint256"
        }
      ],
      "name": "getPastTotalSupply",
      "outputs": [
        {
          "internalType": "uint256",
          "name": "",
          "type": "uint256"
        }
      ],
      "stateMutability": "view",
      "type": "function"
    },
    {
      "inputs": [
        {
          "internalType": "address",
          "name": "account",
          "type": "address"
        },
        {
          "internalType": "uint256",
          "name": "timepoint",
          "type": "uint256"
        }
      ],
      "name": "getPastVotes",
      "outputs": [
        {
          "internalType": "uint256",
          "name": "",
          "type": "uint256"
        }
      ],
      "stateMutability": "view",
      "type": "function"
    },
    {
      "inputs": [
        {
          "internalType": "address",
          "name": "account",
          "type": "address"
        }
      ],
      "name": "getVotes",
      "outputs": [
        {
          "internalType": "uint256",
          "name": "",
          "type": "uint256"
        }
      ],
      "stateMutability": "view",
      "type": "function"
    },
    {
      "inputs": [
        {
          "internalType": "address",
          "name": "owner",
          "type": "address"
        },
        {
          "internalType": "address",
          "name": "operator",
          "type": "address"
        }
      ],
      "name": "isApprovedForAll",
      "outputs": [
        {
          "internalType": "bool",
          "name": "",
          "type": "bool"
        }
      ],
      "stateMutability": "view",
      "type": "function"
    },
    {
      "inputs": [],
      "name": "name",
      "outputs": [
        {
          "internalType": "string",
          "name": "",
          "type": "string"
        }
      ],
      "stateMutability": "view",
      "type": "function"
    },
    {
      "inputs": [
        {
          "internalType": "address",
          "name": "owner",
          "type": "address"
        }
      ],
      "name": "nonces",
      "outputs": [
        {
          "internalType": "uint256",
          "name": "",
          "type": "uint256"
        }
      ],
      "stateMutability": "view",
      "type": "function"
    },
    {
      "inputs": [],
      "name": "owner",
      "outputs": [
        {
          "internalType": "address",
          "name": "",
          "type": "address"
        }
      ],
      "stateMutability": "view",
      "type": "function"
    },
    {
      "inputs": [
        {
          "internalType": "uint256",
          "name": "tokenId",
          "type": "uint256"
        }
      ],
      "name": "ownerOf",
      "outputs": [
        {
          "internalType": "address",
          "name": "",
          "type": "address"
        }
      ],
      "stateMutability": "view",
      "type": "function"
    },
    {
      "inputs": [],
      "name": "renounceOwnership",
      "outputs": [],
      "stateMutability": "nonpayable",
      "type": "function"
    },
    {
      "inputs": [
        {
          "internalType": "address",
          "name": "to",
          "type": "address"
        },
        {
          "internalType": "string",
          "name": "uri",
          "type": "string"
        }
      ],
      "name": "safeMint",
      "outputs": [],
      "stateMutability": "nonpayable",
      "type": "function"
    },
    {
      "inputs": [
        {
          "internalType": "address",
          "name": "from",
          "type": "address"
        },
        {
          "internalType": "address",
          "name": "to",
          "type": "address"
        },
        {
          "internalType": "uint256",
          "name": "tokenId",
          "type": "uint256"
        }
      ],
      "name": "safeTransferFrom",
      "outputs": [],
      "stateMutability": "nonpayable",
      "type": "function"
    },
    {
      "inputs": [
        {
          "internalType": "address",
          "name": "from",
          "type": "address"
        },
        {
          "internalType": "address",
          "name": "to",
          "type": "address"
        },
        {
          "internalType": "uint256",
          "name": "tokenId",
          "type": "uint256"
        },
        {
          "internalType": "bytes",
          "name": "data",
          "type": "bytes"
        }
      ],
      "name": "safeTransferFrom",
      "outputs": [],
      "stateMutability": "nonpayable",
      "type": "function"
    },
    {
      "inputs": [
        {
          "internalType": "address",
          "name": "operator",
          "type": "address"
        },
        {
          "internalType": "bool",
          "name": "approved",
          "type": "bool"
        }
      ],
      "name": "setApprovalForAll",
      "outputs": [],
      "stateMutability": "nonpayable",
      "type": "function"
    },
    {
      "inputs": [
        {
          "internalType": "address",
          "name": "_userRegistry",
          "type": "address"
        }
      ],
      "name": "setUserRegistry",
      "outputs": [],
      "stateMutability": "nonpayable",
      "type": "function"
    },
    {
      "inputs": [
        {
          "internalType": "address",
          "name": "_variables",
          "type": "address"
        }
      ],
      "name": "setVariables",
      "outputs": [],
      "stateMutability": "nonpayable",
      "type": "function"
    },
    {
      "inputs": [
        {
          "internalType": "bytes4",
          "name": "interfaceId",
          "type": "bytes4"
        }
      ],
      "name": "supportsInterface",
      "outputs": [
        {
          "internalType": "bool",
          "name": "",
          "type": "bool"
        }
      ],
      "stateMutability": "view",
      "type": "function"
    },
    {
      "inputs": [],
      "name": "symbol",
      "outputs": [
        {
          "internalType": "string",
          "name": "",
          "type": "string"
        }
      ],
      "stateMutability": "view",
      "type": "function"
    },
    {
      "inputs": [
        {
          "internalType": "uint256",
          "name": "index",
          "type": "uint256"
        }
      ],
      "name": "tokenByIndex",
      "outputs": [
        {
          "internalType": "uint256",
          "name": "",
          "type": "uint256"
        }
      ],
      "stateMutability": "view",
      "type": "function"
    },
    {
      "inputs": [
        {
          "internalType": "address",
          "name": "owner",
          "type": "address"
        },
        {
          "internalType": "uint256",
          "name": "index",
          "type": "uint256"
        }
      ],
      "name": "tokenOfOwnerByIndex",
      "outputs": [
        {
          "internalType": "uint256",
          "name": "",
          "type": "uint256"
        }
      ],
      "stateMutability": "view",
      "type": "function"
    },
    {
      "inputs": [
        {
          "internalType": "uint256",
          "name": "tokenId",
          "type": "uint256"
        }
      ],
      "name": "tokenURI",
      "outputs": [
        {
          "internalType": "string",
          "name": "",
          "type": "string"
        }
      ],
      "stateMutability": "view",
      "type": "function"
    },
    {
      "inputs": [],
      "name": "totalSupply",
      "outputs": [
        {
          "internalType": "uint256",
          "name": "",
          "type": "uint256"
        }
      ],
      "stateMutability": "view",
      "type": "function"
    },
    {
      "inputs": [
        {
          "internalType": "address",
          "name": "from",
          "type": "address"
        },
        {
          "internalType": "address",
          "name": "to",
          "type": "address"
        },
        {
          "internalType": "uint256",
          "name": "tokenId",
          "type": "uint256"
        }
      ],
      "name": "transferFrom",
      "outputs": [],
      "stateMutability": "nonpayable",
      "type": "function"
    },
    {
      "inputs": [
        {
          "internalType": "address",
          "name": "newOwner",
          "type": "address"
        }
      ],
      "name": "transferOwnership",
      "outputs": [],
      "stateMutability": "nonpayable",
      "type": "function"
    }
  ],
  "bytecode": "0x61016060405234801562000011575f80fd5b50604080518082018252600b8082526a21b0b934b733a837bbb2b960a91b60208084018290528451808601865260018152603160f81b81830152855180870187529384528382019290925284518086019095526002855261063760f41b9085015291925f620000818382620002e4565b506001620000908282620002e4565b505050620000ad620000a76200016c60201b60201c565b62000170565b620000ba82600c620001c1565b61012052620000cb81600d620001c1565b61014052815160208084019190912060e052815190820120610100524660a0526200015860e05161010051604080517f8b73c3c69bb8fe3d512ecc4cf759cc79239f7b179b0ffacaa9a75d522b39400f60208201529081019290925260608201524660808201523060a08201525f9060c00160405160208183030381529060405280519060200120905090565b60805250503060c05260016012556200041d565b3390565b600b80546001600160a01b038381166001600160a01b0319831681179093556040519116919082907f8be0079c531659141344cd1fd0a4f28419497f9722a3daafe3b4186f6b6457e0905f90a35050565b5f602083511015620001e057620001d883620001f9565b9050620001f3565b81620001ed8482620002e4565b5060ff90505b92915050565b5f80829050601f815111156200022f578260405163305a27a960e01b8152600401620002269190620003ac565b60405180910390fd5b80516200023c82620003f9565b179392505050565b634e487b7160e01b5f52604160045260245ffd5b600181811c908216806200026d57607f821691505b6020821081036200028c57634e487b7160e01b5f52602260045260245ffd5b50919050565b601f821115620002df575f81815260208120601f850160051c81016020861015620002ba5750805b601f850160051c820191505b81811015620002db57828155600101620002c6565b5050505b505050565b81516001600160401b0381111562000300576200030062000244565b620003188162000311845462000258565b8462000292565b602080601f8311600181146200034e575f8415620003365750858301515b5f19600386901b1c1916600185901b178555620002db565b5f85815260208120601f198616915b828110156200037e578886015182559484019460019091019084016200035d565b50858210156200039c57878501515f19600388901b60f8161c191681555b5050505050600190811b01905550565b5f6020808352835180828501525f5b81811015620003d957858101830151858201604001528201620003bb565b505f604082860101526040601f19601f8301168501019250505092915050565b805160208083015191908110156200028c575f1960209190910360031b1b16919050565b60805160a05160c05160e0516101005161012051610140516138ce6200046f5f395f610b7a01525f610b4f01525f61169701525f61166f01525f6115ca01525f6115f401525f61161e01526138ce5ff3fe608060405234801561000f575f80fd5b5060043610610201575f3560e01c806370a08231116101235780639ab24eb0116100b8578063c3cda52011610088578063d204c45e1161006e578063d204c45e1461046d578063e985e9c514610480578063f2fde38b146104bb575f80fd5b8063c3cda52014610447578063c87b56dd1461045a575f80fd5b80639ab24eb0146103fb578063a22cb4651461040e578063b0d5451b14610421578063b88d4fde14610434575f80fd5b80638da5cb5b116100f35780638da5cb5b146103b05780638e539e8c146103c157806391ddadf4146103d457806395d89b41146103f3575f80fd5b806370a0823114610367578063715018a61461037a5780637ecebe001461038257806384b0196e14610395575f80fd5b80633644e515116101995780634f6ccce7116101695780634f6ccce714610303578063587cde1e146103165780635c19a95c146103415780636352211e14610354575f80fd5b80633644e515146102cd5780633a46b1a8146102d557806342842e0e146102e85780634bf5d7e9146102fb575f80fd5b806318160ddd116101d457806318160ddd1461028257806323b872dd146102945780632c9eb8c9146102a75780632f745c59146102ba575f80fd5b806301ffc9a71461020557806306fdde031461022d578063081812fc14610242578063095ea7b31461026d575b5f80fd5b610218610213366004613035565b6104ce565b60405190151581526020015b60405180910390f35b6102356104de565b604051610224919061309d565b6102556102503660046130af565b61056d565b6040516001600160a01b039091168152602001610224565b61028061027b3660046130e1565b610592565b005b6008545b604051908152602001610224565b6102806102a2366004613109565b6106c7565b6102806102b5366004613142565b61073e565b6102866102c83660046130e1565b610768565b61028661080e565b6102866102e33660046130e1565b61081c565b6102806102f6366004613109565b6108b4565b6102356108ce565b6102866103113660046130af565b610966565b610255610324366004613142565b6001600160a01b039081165f908152600e60205260409020541690565b61028061034f366004613142565b610a07565b6102556103623660046130af565b610a16565b610286610375366004613142565b610a7a565b610280610b12565b610286610390366004613142565b610b25565b61039d610b42565b604051610224979695949392919061315b565b600b546001600160a01b0316610255565b6102866103cf3660046130af565b610be5565b6103dc610c67565b60405165ffffffffffff9091168152602001610224565b610235610c71565b610286610409366004613142565b610c80565b61028061041c366004613218565b610ca0565b61028061042f366004613142565b610cab565b61028061044236600461331e565b610cd5565b610280610455366004613395565b610d53565b6102356104683660046130af565b610e88565b61028061047b3660046133f0565b610e93565b61021861048e36600461344e565b6001600160a01b039182165f90815260056020908152604080832093909416825291909152205460ff1690565b6102806104c9366004613142565b61113e565b5f6104d8826111ce565b92915050565b60605f80546104ec9061347f565b80601f01602080910402602001604051908101604052809291908181526020018280546105189061347f565b80156105635780601f1061053a57610100808354040283529160200191610563565b820191905f5260205f20905b81548152906001019060200180831161054657829003601f168201915b5050505050905090565b5f6105778261120b565b505f908152600460205260409020546001600160a01b031690565b5f61059c82610a16565b9050806001600160a01b0316836001600160a01b03160361062a5760405162461bcd60e51b815260206004820152602160248201527f4552433732313a20617070726f76616c20746f2063757272656e74206f776e6560448201527f720000000000000000000000000000000000000000000000000000000000000060648201526084015b60405180910390fd5b336001600160a01b03821614806106465750610646813361048e565b6106b85760405162461bcd60e51b815260206004820152603d60248201527f4552433732313a20617070726f76652063616c6c6572206973206e6f7420746f60448201527f6b656e206f776e6572206f7220617070726f76656420666f7220616c6c0000006064820152608401610621565b6106c2838361126e565b505050565b6106d133826112db565b6107335760405162461bcd60e51b815260206004820152602d60248201527f4552433732313a2063616c6c6572206973206e6f7420746f6b656e206f776e6560448201526c1c881bdc88185c1c1c9bdd9959609a1b6064820152608401610621565b6106c2838383611358565b610746611564565b601480546001600160a01b0319166001600160a01b0392909216919091179055565b5f61077283610a7a565b82106107e65760405162461bcd60e51b815260206004820152602b60248201527f455243373231456e756d657261626c653a206f776e657220696e646578206f7560448201527f74206f6620626f756e64730000000000000000000000000000000000000000006064820152608401610621565b506001600160a01b03919091165f908152600660209081526040808320938352929052205490565b5f6108176115be565b905090565b5f610825610c67565b65ffffffffffff16821061087b5760405162461bcd60e51b815260206004820152601460248201527f566f7465733a20667574757265206c6f6f6b75700000000000000000000000006044820152606401610621565b6108a4610887836116e7565b6001600160a01b0385165f908152600f6020526040902090611766565b6001600160e01b03169392505050565b6106c283838360405180602001604052805f815250610cd5565b6060436108d9610c67565b65ffffffffffff161461092e5760405162461bcd60e51b815260206004820152601860248201527f566f7465733a2062726f6b656e20636c6f636b206d6f646500000000000000006044820152606401610621565b5060408051808201909152601d81527f6d6f64653d626c6f636b6e756d6265722666726f6d3d64656661756c74000000602082015290565b5f61097060085490565b82106109e45760405162461bcd60e51b815260206004820152602c60248201527f455243373231456e756d657261626c653a20676c6f62616c20696e646578206f60448201527f7574206f6620626f756e647300000000000000000000000000000000000000006064820152608401610621565b600882815481106109f7576109f76134b1565b905f5260205f2001549050919050565b33610a128183611815565b5050565b5f818152600260205260408120546001600160a01b0316806104d85760405162461bcd60e51b815260206004820152601860248201527f4552433732313a20696e76616c696420746f6b656e20494400000000000000006044820152606401610621565b5f6001600160a01b038216610af75760405162461bcd60e51b815260206004820152602960248201527f4552433732313a2061646472657373207a65726f206973206e6f74206120766160448201527f6c6964206f776e657200000000000000000000000000000000000000000000006064820152608401610621565b506001600160a01b03165f9081526003602052604090205490565b610b1a611564565b610b235f611886565b565b6001600160a01b0381165f908152601160205260408120546104d8565b5f60608082808083610b757f0000000000000000000000000000000000000000000000000000000000000000600c6118d7565b610ba07f0000000000000000000000000000000000000000000000000000000000000000600d6118d7565b604080515f808252602082019092527f0f000000000000000000000000000000000000000000000000000000000000009b939a50919850469750309650945092509050565b5f610bee610c67565b65ffffffffffff168210610c445760405162461bcd60e51b815260206004820152601460248201527f566f7465733a20667574757265206c6f6f6b75700000000000000000000000006044820152606401610621565b610c58610c50836116e7565b601090611766565b6001600160e01b031692915050565b5f61081743611980565b6060600180546104ec9061347f565b6001600160a01b0381165f908152600f60205260408120610c58906119fd565b610a12338383611a36565b610cb3611564565b601380546001600160a01b0319166001600160a01b0392909216919091179055565b610cdf33836112db565b610d415760405162461bcd60e51b815260206004820152602d60248201527f4552433732313a2063616c6c6572206973206e6f7420746f6b656e206f776e6560448201526c1c881bdc88185c1c1c9bdd9959609a1b6064820152608401610621565b610d4d84848484611b03565b50505050565b83421115610da35760405162461bcd60e51b815260206004820152601860248201527f566f7465733a207369676e6174757265206578706972656400000000000000006044820152606401610621565b604080517fe48329057bfd03d55e49b547132e39cffd9c1820ad7b9d4c5307691425d15adf60208201526001600160a01b0388169181019190915260608101869052608081018590525f90610e1c90610e149060a00160405160208183030381529060405280519060200120611b81565b858585611bc8565b9050610e2781611bee565b8614610e755760405162461bcd60e51b815260206004820152601460248201527f566f7465733a20696e76616c6964206e6f6e63650000000000000000000000006044820152606401610621565b610e7f8188611815565b50505050505050565b60606104d882611c15565b60135460405163cc3d967b60e01b81526001600160a01b0380851660048301528492169063cc3d967b906024015f60405180830381865afa158015610eda573d5f803e3d5ffd5b505050506040513d5f823e601f3d908101601f19168201604052610f019190810190613512565b610160015115610f535760405162461bcd60e51b815260206004820181905260248201527f7e20596f752061726520616c7265616479206120746f6b656e20686f6c6465726044820152606401610621565b60145f9054906101000a90046001600160a01b03166001600160a01b031663e7f892366040518163ffffffff1660e01b8152600401602060405180830381865afa158015610fa3573d5f803e3d5ffd5b505050506040513d601f19601f82011682018060405250810190610fc79190613618565b60135460405163cc3d967b60e01b81526001600160a01b0384811660048301529091169063cc3d967b906024015f60405180830381865afa15801561100e573d5f803e3d5ffd5b505050506040513d5f823e601f3d908101601f191682016040526110359190810190613512565b6040015110156110875760405162461bcd60e51b815260206004820152601d60248201527f5265616368207468726573686f6c64206c6576656c20746f206d696e740000006044820152606401610621565b5f61109160125490565b90506110a1601280546001019055565b6110ab8482611d17565b6110b58184611d30565b6110be84610a07565b6013546040517fc7c82d1c0000000000000000000000000000000000000000000000000000000081526001600160a01b038681166004830152602482018490529091169063c7c82d1c906044015f604051808303815f87803b158015611122575f80fd5b505af1158015611134573d5f803e3d5ffd5b5050505050505050565b611146611564565b6001600160a01b0381166111c25760405162461bcd60e51b815260206004820152602660248201527f4f776e61626c653a206e6577206f776e657220697320746865207a65726f206160448201527f64647265737300000000000000000000000000000000000000000000000000006064820152608401610621565b6111cb81611886565b50565b5f6001600160e01b031982167f490649060000000000000000000000000000000000000000000000000000000014806104d857506104d882611e08565b5f818152600260205260409020546001600160a01b03166111cb5760405162461bcd60e51b815260206004820152601860248201527f4552433732313a20696e76616c696420746f6b656e20494400000000000000006044820152606401610621565b5f81815260046020526040902080546001600160a01b0319166001600160a01b03841690811790915581906112a282610a16565b6001600160a01b03167f8c5be1e5ebec7d5bd14f71427d1e84f3dd0314c0f7b2291e5b200ac8c7c3b92560405160405180910390a45050565b5f806112e683610a16565b9050806001600160a01b0316846001600160a01b0316148061132c57506001600160a01b038082165f9081526005602090815260408083209388168352929052205460ff165b806113505750836001600160a01b03166113458461056d565b6001600160a01b0316145b949350505050565b826001600160a01b031661136b82610a16565b6001600160a01b0316146113cf5760405162461bcd60e51b815260206004820152602560248201527f4552433732313a207472616e736665722066726f6d20696e636f72726563742060448201526437bbb732b960d91b6064820152608401610621565b6001600160a01b03821661144a5760405162461bcd60e51b8152602060048201526024808201527f4552433732313a207472616e7366657220746f20746865207a65726f2061646460448201527f72657373000000000000000000000000000000000000000000000000000000006064820152608401610621565b6114578383836001611e45565b826001600160a01b031661146a82610a16565b6001600160a01b0316146114ce5760405162461bcd60e51b815260206004820152602560248201527f4552433732313a207472616e736665722066726f6d20696e636f72726563742060448201526437bbb732b960d91b6064820152608401610621565b5f81815260046020908152604080832080546001600160a01b03199081169091556001600160a01b038781168086526003855283862080545f1901905590871680865283862080546001019055868652600290945282852080549092168417909155905184937fddf252ad1be2c89b69c2b068fc378daa952ba7f163c4a11628f55a4df523b3ef91a46106c28383836001611e51565b600b546001600160a01b03163314610b235760405162461bcd60e51b815260206004820181905260248201527f4f776e61626c653a2063616c6c6572206973206e6f7420746865206f776e65726044820152606401610621565b5f306001600160a01b037f00000000000000000000000000000000000000000000000000000000000000001614801561161657507f000000000000000000000000000000000000000000000000000000000000000046145b1561164057507f000000000000000000000000000000000000000000000000000000000000000090565b610817604080517f8b73c3c69bb8fe3d512ecc4cf759cc79239f7b179b0ffacaa9a75d522b39400f60208201527f0000000000000000000000000000000000000000000000000000000000000000918101919091527f000000000000000000000000000000000000000000000000000000000000000060608201524660808201523060a08201525f9060c00160405160208183030381529060405280519060200120905090565b5f63ffffffff8211156117625760405162461bcd60e51b815260206004820152602660248201527f53616665436173743a2076616c756520646f65736e27742066697420696e203360448201527f32206269747300000000000000000000000000000000000000000000000000006064820152608401610621565b5090565b81545f90818160058111156117c0575f61177f84611e5d565b6117899085613643565b5f8881526020902090915081015463ffffffff90811690871610156117b0578091506117be565b6117bb816001613656565b92505b505b5f6117cd87878585611f41565b90508015611808576117f1876117e4600184613643565b5f91825260209091200190565b5464010000000090046001600160e01b031661180a565b5f5b979650505050505050565b6001600160a01b038281165f818152600e602052604080822080548686166001600160a01b0319821681179092559151919094169392849290917f3134e8a2e6d97e929a7e54011ea5485d7d196dd5f0ba4d4ef95803e8e3fc257f9190a46106c2818361188186611f9c565b611fa6565b600b80546001600160a01b038381166001600160a01b0319831681179093556040519116919082907f8be0079c531659141344cd1fd0a4f28419497f9722a3daafe3b4186f6b6457e0905f90a35050565b606060ff83146118f1576118ea8361210f565b90506104d8565b8180546118fd9061347f565b80601f01602080910402602001604051908101604052809291908181526020018280546119299061347f565b80156119745780601f1061194b57610100808354040283529160200191611974565b820191905f5260205f20905b81548152906001019060200180831161195757829003601f168201915b505050505090506104d8565b5f65ffffffffffff8211156117625760405162461bcd60e51b815260206004820152602660248201527f53616665436173743a2076616c756520646f65736e27742066697420696e203460448201527f38206269747300000000000000000000000000000000000000000000000000006064820152608401610621565b80545f908015611a2d57611a16836117e4600184613643565b5464010000000090046001600160e01b0316611a2f565b5f5b9392505050565b816001600160a01b0316836001600160a01b031603611a975760405162461bcd60e51b815260206004820152601960248201527f4552433732313a20617070726f766520746f2063616c6c6572000000000000006044820152606401610621565b6001600160a01b038381165f81815260056020908152604080832094871680845294825291829020805460ff191686151590811790915591519182527f17307eab39ab6107e8899845ad3d59bd9653f200f220920489ca2b5937696c31910160405180910390a3505050565b611b0e848484611358565b611b1a8484848461214c565b610d4d5760405162461bcd60e51b815260206004820152603260248201527f4552433732313a207472616e7366657220746f206e6f6e20455243373231526560448201527131b2b4bb32b91034b6b83632b6b2b73a32b960711b6064820152608401610621565b5f6104d8611b8d6115be565b836040517f19010000000000000000000000000000000000000000000000000000000000008152600281019290925260228201526042902090565b5f805f611bd787878787612291565b91509150611be48161234e565b5095945050505050565b6001600160a01b0381165f9081526011602052604090208054600181018255905b50919050565b6060611c208261120b565b5f828152600a602052604081208054611c389061347f565b80601f0160208091040260200160405190810160405280929190818152602001828054611c649061347f565b8015611caf5780601f10611c8657610100808354040283529160200191611caf565b820191905f5260205f20905b815481529060010190602001808311611c9257829003601f168201915b505050505090505f611ccb60408051602081019091525f815290565b905080515f03611cdc575092915050565b815115611d0e578082604051602001611cf6929190613669565b60405160208183030381529060405292505050919050565b611350846124b2565b610a12828260405180602001604052805f815250612521565b5f828152600260205260409020546001600160a01b0316611db95760405162461bcd60e51b815260206004820152602e60248201527f45524337323155524953746f726167653a2055524920736574206f66206e6f6e60448201527f6578697374656e7420746f6b656e0000000000000000000000000000000000006064820152608401610621565b5f828152600a60205260409020611dd082826136e4565b506040518281527ff8e1a15aba9398e019f0b49df1a4fde98ee17ae345cb5f6b5e2c27f5033e8ce79060200160405180910390a15050565b5f6001600160e01b031982167f780e9d630000000000000000000000000000000000000000000000000000000014806104d857506104d88261259e565b610d4d84848484612638565b610d4d84848484612773565b5f815f03611e6c57505f919050565b5f6001611e7884612783565b901c6001901b90506001818481611e9157611e916137a0565b048201901c90506001818481611ea957611ea96137a0565b048201901c90506001818481611ec157611ec16137a0565b048201901c90506001818481611ed957611ed96137a0565b048201901c90506001818481611ef157611ef16137a0565b048201901c90506001818481611f0957611f096137a0565b048201901c90506001818481611f2157611f216137a0565b048201901c9050611a2f81828581611f3b57611f3b6137a0565b04612816565b5f5b81831015611f94575f611f56848461282b565b5f8781526020902090915063ffffffff86169082015463ffffffff161115611f8057809250611f8e565b611f8b816001613656565b93505b50611f43565b509392505050565b5f6104d882610a7a565b816001600160a01b0316836001600160a01b031614158015611fc757505f81115b156106c2576001600160a01b0383161561206e576001600160a01b0383165f908152600f6020526040812081906120099061284561200486612850565b6128ce565b6001600160e01b031691506001600160e01b03169150846001600160a01b03167fdec2bacdd2f05b59de34da9b523dff8be42e5e38e818c82fdb0bae774387a7248383604051612063929190918252602082015260400190565b60405180910390a250505b6001600160a01b038216156106c2576001600160a01b0382165f908152600f6020526040812081906120a69061291661200486612850565b6001600160e01b031691506001600160e01b03169150836001600160a01b03167fdec2bacdd2f05b59de34da9b523dff8be42e5e38e818c82fdb0bae774387a7248383604051612100929190918252602082015260400190565b60405180910390a25050505050565b60605f61211b83612921565b6040805160208082528183019092529192505f91906020820181803683375050509182525060208101929092525090565b5f6001600160a01b0384163b1561228957604051630a85bd0160e11b81526001600160a01b0385169063150b7a029061218f9033908990889088906004016137b4565b6020604051808303815f875af19250505080156121c9575060408051601f3d908101601f191682019092526121c6918101906137ef565b60015b61226f573d8080156121f6576040519150601f19603f3d011682016040523d82523d5f602084013e6121fb565b606091505b5080515f036122675760405162461bcd60e51b815260206004820152603260248201527f4552433732313a207472616e7366657220746f206e6f6e20455243373231526560448201527131b2b4bb32b91034b6b83632b6b2b73a32b960711b6064820152608401610621565b805181602001fd5b6001600160e01b031916630a85bd0160e11b149050611350565b506001611350565b5f807f7fffffffffffffffffffffffffffffff5d576e7357a4501ddfe92f46681b20a08311156122c657505f90506003612345565b604080515f8082526020820180845289905260ff881692820192909252606081018690526080810185905260019060a0016020604051602081039080840390855afa158015612317573d5f803e3d5ffd5b5050604051601f1901519150506001600160a01b03811661233f575f60019250925050612345565b91505f90505b94509492505050565b5f8160048111156123615761236161380a565b036123695750565b600181600481111561237d5761237d61380a565b036123ca5760405162461bcd60e51b815260206004820152601860248201527f45434453413a20696e76616c6964207369676e617475726500000000000000006044820152606401610621565b60028160048111156123de576123de61380a565b0361242b5760405162461bcd60e51b815260206004820152601f60248201527f45434453413a20696e76616c6964207369676e6174757265206c656e677468006044820152606401610621565b600381600481111561243f5761243f61380a565b036111cb5760405162461bcd60e51b815260206004820152602260248201527f45434453413a20696e76616c6964207369676e6174757265202773272076616c60448201527f75650000000000000000000000000000000000000000000000000000000000006064820152608401610621565b60606124bd8261120b565b5f6124d260408051602081019091525f815290565b90505f8151116124f05760405180602001604052805f815250611a2f565b806124fa84612961565b60405160200161250b929190613669565b6040516020818303038152906040529392505050565b61252b83836129fe565b6125375f84848461214c565b6106c25760405162461bcd60e51b815260206004820152603260248201527f4552433732313a207472616e7366657220746f206e6f6e20455243373231526560448201527131b2b4bb32b91034b6b83632b6b2b73a32b960711b6064820152608401610621565b5f6001600160e01b031982167f80ac58cd00000000000000000000000000000000000000000000000000000000148061260057506001600160e01b031982167f5b5e139f00000000000000000000000000000000000000000000000000000000145b806104d857507f01ffc9a7000000000000000000000000000000000000000000000000000000006001600160e01b03198316146104d8565b60018111156126af5760405162461bcd60e51b815260206004820152603560248201527f455243373231456e756d657261626c653a20636f6e736563757469766520747260448201527f616e7366657273206e6f7420737570706f7274656400000000000000000000006064820152608401610621565b816001600160a01b03851661270a5761270581600880545f838152600960205260408120829055600182018355919091527ff3f7a9fe364faab93b216da50a3214154f22a0a2b415b23a84c8169e8b636ee30155565b61272d565b836001600160a01b0316856001600160a01b03161461272d5761272d8582612b9c565b6001600160a01b0384166127495761274481612c35565b61276c565b846001600160a01b0316846001600160a01b03161461276c5761276c8482612cdc565b5050505050565b61277e848483612d1e565b610d4d565b5f80608083901c1561279757608092831c92015b604083901c156127a957604092831c92015b602083901c156127bb57602092831c92015b601083901c156127cd57601092831c92015b600883901c156127df57600892831c92015b600483901c156127f157600492831c92015b600283901c1561280357600292831c92015b600183901c156104d85760010192915050565b5f8183106128245781611a2f565b5090919050565b5f612839600284841861381e565b611a2f90848416613656565b5f611a2f828461383d565b5f6001600160e01b038211156117625760405162461bcd60e51b815260206004820152602760248201527f53616665436173743a2076616c756520646f65736e27742066697420696e203260448201527f32342062697473000000000000000000000000000000000000000000000000006064820152608401610621565b5f806129096128eb6128de610c67565b65ffffffffffff166116e7565b6129016128f7886119fd565b868863ffffffff16565b879190612d93565b915091505b935093915050565b5f611a2f8284613864565b5f60ff8216601f8111156104d8576040517fb3512b0c00000000000000000000000000000000000000000000000000000000815260040160405180910390fd5b60605f61296d83612da0565b60010190505f8167ffffffffffffffff81111561298c5761298c61324d565b6040519080825280601f01601f1916602001820160405280156129b6576020820181803683370190505b5090508181016020015b5f19017f3031323334353637383961626364656600000000000000000000000000000000600a86061a8153600a85049450846129c057509392505050565b6001600160a01b038216612a545760405162461bcd60e51b815260206004820181905260248201527f4552433732313a206d696e7420746f20746865207a65726f20616464726573736044820152606401610621565b5f818152600260205260409020546001600160a01b031615612ab85760405162461bcd60e51b815260206004820152601c60248201527f4552433732313a20746f6b656e20616c7265616479206d696e746564000000006044820152606401610621565b612ac55f83836001611e45565b5f818152600260205260409020546001600160a01b031615612b295760405162461bcd60e51b815260206004820152601c60248201527f4552433732313a20746f6b656e20616c7265616479206d696e746564000000006044820152606401610621565b6001600160a01b0382165f81815260036020908152604080832080546001019055848352600290915280822080546001600160a01b0319168417905551839291907fddf252ad1be2c89b69c2b068fc378daa952ba7f163c4a11628f55a4df523b3ef908290a4610a125f83836001611e51565b5f6001612ba884610a7a565b612bb29190613643565b5f83815260076020526040902054909150808214612c03576001600160a01b0384165f9081526006602090815260408083208584528252808320548484528184208190558352600790915290208190555b505f9182526007602090815260408084208490556001600160a01b039094168352600681528383209183525290812055565b6008545f90612c4690600190613643565b5f8381526009602052604081205460088054939450909284908110612c6d57612c6d6134b1565b905f5260205f20015490508060088381548110612c8c57612c8c6134b1565b5f918252602080832090910192909255828152600990915260408082208490558582528120556008805480612cc357612cc3613884565b600190038181905f5260205f20015f9055905550505050565b5f612ce683610a7a565b6001600160a01b039093165f908152600660209081526040808320868452825280832085905593825260079052919091209190915550565b6001600160a01b038316612d4057612d3d601061291661200484612850565b50505b6001600160a01b038216612d6257612d5f601061284561200484612850565b50505b6001600160a01b038381165f908152600e60205260408082205485841683529120546106c292918216911683611fa6565b5f80612909858585612e81565b5f807a184f03e93ff9f4daa797ed6e38ed64bf6a1f0100000000000000008310612de8577a184f03e93ff9f4daa797ed6e38ed64bf6a1f010000000000000000830492506040015b6d04ee2d6d415b85acef81000000008310612e14576d04ee2d6d415b85acef8100000000830492506020015b662386f26fc100008310612e3257662386f26fc10000830492506010015b6305f5e1008310612e4a576305f5e100830492506008015b6127108310612e5e57612710830492506004015b60648310612e70576064830492506002015b600a83106104d85760010192915050565b82545f9081908015612fc7575f612e9d876117e4600185613643565b60408051808201909152905463ffffffff8082168084526401000000009092046001600160e01b031660208401529192509087161015612f1f5760405162461bcd60e51b815260206004820152601b60248201527f436865636b706f696e743a2064656372656173696e67206b65797300000000006044820152606401610621565b805163ffffffff808816911603612f685784612f40886117e4600186613643565b80546001600160e01b03929092166401000000000263ffffffff909216919091179055612fb7565b6040805180820190915263ffffffff80881682526001600160e01b0380881660208085019182528b54600181018d555f8d81529190912094519151909216640100000000029216919091179101555b60200151925083915061290e9050565b50506040805180820190915263ffffffff80851682526001600160e01b0380851660208085019182528854600181018a555f8a81529182209551925190931664010000000002919093161792019190915590508161290e565b6001600160e01b0319811681146111cb575f80fd5b5f60208284031215613045575f80fd5b8135611a2f81613020565b5f5b8381101561306a578181015183820152602001613052565b50505f910152565b5f8151808452613089816020860160208601613050565b601f01601f19169290920160200192915050565b602081525f611a2f6020830184613072565b5f602082840312156130bf575f80fd5b5035919050565b80356001600160a01b03811681146130dc575f80fd5b919050565b5f80604083850312156130f2575f80fd5b6130fb836130c6565b946020939093013593505050565b5f805f6060848603121561311b575f80fd5b613124846130c6565b9250613132602085016130c6565b9150604084013590509250925092565b5f60208284031215613152575f80fd5b611a2f826130c6565b7fff00000000000000000000000000000000000000000000000000000000000000881681525f602060e08184015261319660e084018a613072565b83810360408501526131a8818a613072565b606085018990526001600160a01b038816608086015260a0850187905284810360c086015285518082528387019250908301905f5b818110156131f9578351835292840192918401916001016131dd565b50909c9b505050505050505050505050565b80151581146111cb575f80fd5b5f8060408385031215613229575f80fd5b613232836130c6565b915060208301356132428161320b565b809150509250929050565b634e487b7160e01b5f52604160045260245ffd5b604051610180810167ffffffffffffffff811182821017156132855761328561324d565b60405290565b604051601f8201601f1916810167ffffffffffffffff811182821017156132b4576132b461324d565b604052919050565b5f67ffffffffffffffff8211156132d5576132d561324d565b50601f01601f191660200190565b5f6132f56132f0846132bc565b61328b565b9050828152838383011115613308575f80fd5b828260208301375f602084830101529392505050565b5f805f8060808587031215613331575f80fd5b61333a856130c6565b9350613348602086016130c6565b925060408501359150606085013567ffffffffffffffff81111561336a575f80fd5b8501601f8101871361337a575f80fd5b613389878235602084016132e3565b91505092959194509250565b5f805f805f8060c087890312156133aa575f80fd5b6133b3876130c6565b95506020870135945060408701359350606087013560ff811681146133d6575f80fd5b9598949750929560808101359460a0909101359350915050565b5f8060408385031215613401575f80fd5b61340a836130c6565b9150602083013567ffffffffffffffff811115613425575f80fd5b8301601f81018513613435575f80fd5b613444858235602084016132e3565b9150509250929050565b5f806040838503121561345f575f80fd5b613468836130c6565b9150613476602084016130c6565b90509250929050565b600181811c9082168061349357607f821691505b602082108103611c0f57634e487b7160e01b5f52602260045260245ffd5b634e487b7160e01b5f52603260045260245ffd5b5f82601f8301126134d4575f80fd5b81516134e26132f0826132bc565b8181528460208386010111156134f6575f80fd5b611350826020830160208701613050565b80516130dc8161320b565b5f60208284031215613522575f80fd5b815167ffffffffffffffff80821115613539575f80fd5b90830190610180828603121561354d575f80fd5b613555613261565b825182811115613563575f80fd5b61356f878286016134c5565b825250602083015182811115613583575f80fd5b61358f878286016134c5565b602083015250604083015160408201526135ab60608401613507565b60608201526080838101519082015260a0808401519082015260c0808401519082015260e080840151908201526101008084015190820152610120808401519082015261014080840151908201526101609150613609828401613507565b91810191909152949350505050565b5f60208284031215613628575f80fd5b5051919050565b634e487b7160e01b5f52601160045260245ffd5b818103818111156104d8576104d861362f565b808201808211156104d8576104d861362f565b5f835161367a818460208801613050565b83519083019061368e818360208801613050565b01949350505050565b601f8211156106c2575f81815260208120601f850160051c810160208610156136bd5750805b601f850160051c820191505b818110156136dc578281556001016136c9565b505050505050565b815167ffffffffffffffff8111156136fe576136fe61324d565b6137128161370c845461347f565b84613697565b602080601f831160018114613745575f841561372e5750858301515b5f19600386901b1c1916600185901b1785556136dc565b5f85815260208120601f198616915b8281101561377357888601518255948401946001909101908401613754565b508582101561379057878501515f19600388901b60f8161c191681555b5050505050600190811b01905550565b634e487b7160e01b5f52601260045260245ffd5b5f6001600160a01b038087168352808616602084015250836040830152608060608301526137e56080830184613072565b9695505050505050565b5f602082840312156137ff575f80fd5b8151611a2f81613020565b634e487b7160e01b5f52602160045260245ffd5b5f8261383857634e487b7160e01b5f52601260045260245ffd5b500490565b6001600160e01b0382811682821603908082111561385d5761385d61362f565b5092915050565b6001600160e01b0381811683821601908082111561385d5761385d61362f565b634e487b7160e01b5f52603160045260245ffdfea26469706673582212204c2b7998457b65690254a858d9f2eb8f3a4cad176499bcccf1e1e5dc3b158e4264736f6c63430008140033",
  "linkReferences": {},
  "deployedLinkReferences": {}
}