{
  "_format": "hh-sol-artifact-1",
  "contractName": "MockOracle",
  "sourceName": "src/backend/test/mocks/MockOracle.sol",
  "abi": [
    {
      "inputs": [
        {
          "internalType": "address",
          "name": "_link",
          "type": "address"
        }
      ],
      "stateMutability": "nonpayable",
      "type": "constructor"
    },
    {
      "anonymous": false,
      "inputs": [
        {
          "indexed": true,
          "internalType": "bytes32",
          "name": "requestId",
          "type": "bytes32"
        }
      ],
      "name": "CancelOracleRequest",
      "type": "event"
    },
    {
      "anonymous": false,
      "inputs": [
        {
          "indexed": true,
          "internalType": "bytes32",
          "name": "specId",
          "type": "bytes32"
        },
        {
          "indexed": false,
          "internalType": "address",
          "name": "requester",
          "type": "address"
        },
        {
          "indexed": false,
          "internalType": "bytes32",
          "name": "requestId",
          "type": "bytes32"
        },
        {
          "indexed": false,
          "internalType": "uint256",
          "name": "payment",
          "type": "uint256"
        },
        {
          "indexed": false,
          "internalType": "address",
          "name": "callbackAddr",
          "type": "address"
        },
        {
          "indexed": false,
          "internalType": "bytes4",
          "name": "callbackFunctionId",
          "type": "bytes4"
        },
        {
          "indexed": false,
          "internalType": "uint256",
          "name": "cancelExpiration",
          "type": "uint256"
        },
        {
          "indexed": false,
          "internalType": "uint256",
          "name": "dataVersion",
          "type": "uint256"
        },
        {
          "indexed": false,
          "internalType": "bytes",
          "name": "data",
          "type": "bytes"
        }
      ],
      "name": "OracleRequest",
      "type": "event"
    },
    {
      "inputs": [],
      "name": "EXPIRY_TIME",
      "outputs": [
        {
          "internalType": "uint256",
          "name": "",
          "type": "uint256"
        }
      ],
      "stateMutability": "view",
      "type": "function"
    },
    {
      "inputs": [
        {
          "internalType": "bytes32",
          "name": "_requestId",
          "type": "bytes32"
        },
        {
          "internalType": "uint256",
          "name": "_payment",
          "type": "uint256"
        },
        {
          "internalType": "bytes4",
          "name": "",
          "type": "bytes4"
        },
        {
          "internalType": "uint256",
          "name": "_expiration",
          "type": "uint256"
        }
      ],
      "name": "cancelOracleRequest",
      "outputs": [],
      "stateMutability": "nonpayable",
      "type": "function"
    },
    {
      "inputs": [
        {
          "internalType": "bytes32",
          "name": "_requestId",
          "type": "bytes32"
        },
        {
          "internalType": "bytes32",
          "name": "_data",
          "type": "bytes32"
        }
      ],
      "name": "fulfillOracleRequest",
      "outputs": [
        {
          "internalType": "bool",
          "name": "",
          "type": "bool"
        }
      ],
      "stateMutability": "nonpayable",
      "type": "function"
    },
    {
      "inputs": [],
      "name": "getChainlinkToken",
      "outputs": [
        {
          "internalType": "address",
          "name": "",
          "type": "address"
        }
      ],
      "stateMutability": "view",
      "type": "function"
    },
    {
      "inputs": [
        {
          "internalType": "address",
          "name": "_sender",
          "type": "address"
        },
        {
          "internalType": "uint256",
          "name": "_amount",
          "type": "uint256"
        },
        {
          "internalType": "bytes",
          "name": "_data",
          "type": "bytes"
        }
      ],
      "name": "onTokenTransfer",
      "outputs": [],
      "stateMutability": "nonpayable",
      "type": "function"
    },
    {
      "inputs": [
        {
          "internalType": "address",
          "name": "_sender",
          "type": "address"
        },
        {
          "internalType": "uint256",
          "name": "_payment",
          "type": "uint256"
        },
        {
          "internalType": "bytes32",
          "name": "_specId",
          "type": "bytes32"
        },
        {
          "internalType": "address",
          "name": "_callbackAddress",
          "type": "address"
        },
        {
          "internalType": "bytes4",
          "name": "_callbackFunctionId",
          "type": "bytes4"
        },
        {
          "internalType": "uint256",
          "name": "_nonce",
          "type": "uint256"
        },
        {
          "internalType": "uint256",
          "name": "_dataVersion",
          "type": "uint256"
        },
        {
          "internalType": "bytes",
          "name": "_data",
          "type": "bytes"
        }
      ],
      "name": "oracleRequest",
      "outputs": [],
      "stateMutability": "nonpayable",
      "type": "function"
    }
  ],
  "bytecode": "0x608060405234801561000f575f80fd5b50604051610d18380380610d1883398101604081905261002e91610052565b5f80546001600160a01b0319166001600160a01b039290921691909117905561007f565b5f60208284031215610062575f80fd5b81516001600160a01b0381168114610078575f80fd5b9392505050565b610c8c8061008c5f395ff3fe608060405234801561000f575f80fd5b506004361061006f575f3560e01c80634b6022821161004d5780634b602282146100ca5780636ee4d553146100e1578063a4c0ed36146100f4575f80fd5b8063165d35e1146100735780631f8f238c1461009257806340429946146100b5575b5f80fd5b5f546040516001600160a01b0390911681526020015b60405180910390f35b6100a56100a036600461090d565b610107565b6040519015158152602001610089565b6100c86100c336600461095f565b610307565b005b6100d361012c81565b604051908152602001610089565b6100c86100ef366004610a20565b610567565b6100c8610102366004610a6e565b610710565b5f8281526001602052604081205483906001600160a01b03166101715760405162461bcd60e51b815260206004820152601b60248201527f4d757374206861766520612076616c696420726571756573744964000000000060448201526064015b60405180910390fd5b5f848152600160208181526040808420815180830190925280546001600160a01b03811683526001600160e01b031974010000000000000000000000000000000000000000820460e01b168385015294899052929091527fffffffffffffffff000000000000000000000000000000000000000000000000909216905562061a805a10156102415760405162461bcd60e51b815260206004820181905260248201527f4d7573742070726f7669646520636f6e73756d657220656e6f756768206761736044820152606401610168565b8051602082015160405160248101889052604481018790525f926001600160a01b0316919060640160408051601f198184030181529181526020820180517bffffffffffffffffffffffffffffffffffffffffffffffffffffffff166001600160e01b03199094169390931790925290516102bc9190610b32565b5f604051808303815f865af19150503d805f81146102f5576040519150601f19603f3d011682016040523d82523d5f602084013e6102fa565b606091505b5090979650505050505050565b5f546001600160a01b031633146103605760405162461bcd60e51b815260206004820152601360248201527f4d75737420757365204c494e4b20746f6b656e000000000000000000000000006044820152606401610168565b5f5486906001600160a01b03908116908216036103bf5760405162461bcd60e51b815260206004820152601760248201527f43616e6e6f742063616c6c6261636b20746f204c494e4b0000000000000000006044820152606401610168565b6040516bffffffffffffffffffffffff1960608c901b166020820152603481018690525f9060540160408051601f1981840301815291815281516020928301205f81815260019093529120549091506001600160a01b0316156104645760405162461bcd60e51b815260206004820152601460248201527f4d75737420757365206120756e697175652049440000000000000000000000006044820152606401610168565b5f61047161012c42610b72565b905060405180604001604052808a6001600160a01b03168152602001897bffffffffffffffffffffffffffffffffffffffffffffffffffffffff191681525060015f8481526020019081526020015f205f820151815f015f6101000a8154816001600160a01b0302191690836001600160a01b031602179055506020820151815f0160146101000a81548163ffffffff021916908360e01c0217905550905050897fd8d7ecc4800d25fa53ce0372f13a416d98907a7ef3d8d3bdd79cf4fe75529c658d848e8d8d878d8d8d60405161055199989796959493929190610b8b565b60405180910390a2505050505050505050505050565b5f848152600160205260409020546001600160a01b03166105ca5760405162461bcd60e51b815260206004820152601460248201527f4d75737420757365206120756e697175652049440000000000000000000000006044820152606401610168565b4281111561061a5760405162461bcd60e51b815260206004820152601660248201527f52657175657374206973206e6f742065787069726564000000000000000000006044820152606401610168565b5f8481526001602052604080822080547fffffffffffffffff0000000000000000000000000000000000000000000000001690555185917fa7842b9ec549398102c0d91b1b9919b2f20558aefdadf57528a95c6cd3292e9391a25f546040517fa9059cbb000000000000000000000000000000000000000000000000000000008152336004820152602481018590526001600160a01b039091169063a9059cbb906044016020604051808303815f875af11580156106da573d5f803e3d5ffd5b505050506040513d601f19601f820116820180604052508101906106fe9190610c05565b61070a5761070a610c2b565b50505050565b5f546001600160a01b031633146107695760405162461bcd60e51b815260206004820152601360248201527f4d75737420757365204c494e4b20746f6b656e000000000000000000000000006044820152606401610168565b8061077660026020610c3f565b610781906004610b72565b815110156107d15760405162461bcd60e51b815260206004820152601660248201527f496e76616c69642072657175657374206c656e677468000000000000000000006044820152606401610168565b602082015182906001600160e01b031981167f4042994600000000000000000000000000000000000000000000000000000000146108515760405162461bcd60e51b815260206004820152601e60248201527f4d757374207573652077686974656c69737465642066756e6374696f6e7300006044820152606401610168565b8560248501528460448501525f306001600160a01b0316856040516108769190610b32565b5f60405180830381855af49150503d805f81146108ae576040519150601f19603f3d011682016040523d82523d5f602084013e6108b3565b606091505b50509050806109045760405162461bcd60e51b815260206004820152601860248201527f556e61626c6520746f20637265617465207265717565737400000000000000006044820152606401610168565b50505050505050565b5f806040838503121561091e575f80fd5b50508035926020909101359150565b80356001600160a01b0381168114610943575f80fd5b919050565b80356001600160e01b031981168114610943575f80fd5b5f805f805f805f805f6101008a8c031215610978575f80fd5b6109818a61092d565b985060208a0135975060408a0135965061099d60608b0161092d565b95506109ab60808b01610948565b945060a08a0135935060c08a0135925060e08a013567ffffffffffffffff808211156109d5575f80fd5b818c0191508c601f8301126109e8575f80fd5b8135818111156109f6575f80fd5b8d6020828501011115610a07575f80fd5b6020830194508093505050509295985092959850929598565b5f805f8060808587031215610a33575f80fd5b8435935060208501359250610a4a60408601610948565b9396929550929360600135925050565b634e487b7160e01b5f52604160045260245ffd5b5f805f60608486031215610a80575f80fd5b610a898461092d565b925060208401359150604084013567ffffffffffffffff80821115610aac575f80fd5b818601915086601f830112610abf575f80fd5b813581811115610ad157610ad1610a5a565b604051601f8201601f19908116603f01168101908382118183101715610af957610af9610a5a565b81604052828152896020848701011115610b11575f80fd5b826020860160208301375f6020848301015280955050505050509250925092565b5f82515f5b81811015610b515760208186018101518583015201610b37565b505f920191825250919050565b634e487b7160e01b5f52601160045260245ffd5b80820180821115610b8557610b85610b5e565b92915050565b5f6101006001600160a01b03808d1684528b60208501528a6040850152808a166060850152506001600160e01b0319881660808401528660a08401528560c08401528060e08401528381840152506101208385828501375f838501820152601f909301601f19169091019091019998505050505050505050565b5f60208284031215610c15575f80fd5b81518015158114610c24575f80fd5b9392505050565b634e487b7160e01b5f52600160045260245ffd5b8082028115828204841417610b8557610b85610b5e56fea2646970667358221220655db9adddff9aabc7ea409e4429896080ab257f8bddca38bc20c808792711c964736f6c63430008140033",
  "linkReferences": {},
  "deployedLinkReferences": {}
}