{
  "_format": "hh-sol-artifact-1",
  "contractName": "GovernorContract",
  "sourceName": "src/backend/contracts/_GovernorContract.sol",
  "abi": [
    {
      "inputs": [
        {
          "internalType": "contract IVotes",
          "name": "_token",
          "type": "address"
        },
        {
          "internalType": "contract TimelockController",
          "name": "_timelock",
          "type": "address"
        },
        {
          "internalType": "uint256",
          "name": "_quorumPercentage",
          "type": "uint256"
        },
        {
          "internalType": "uint256",
          "name": "_votingPeriod",
          "type": "uint256"
        },
        {
          "internalType": "uint256",
          "name": "_votingDelay",
          "type": "uint256"
        }
      ],
      "stateMutability": "nonpayable",
      "type": "constructor"
    },
    {
      "inputs": [],
      "name": "Empty",
      "type": "error"
    },
    {
      "inputs": [],
      "name": "InvalidShortString",
      "type": "error"
    },
    {
      "inputs": [
        {
          "internalType": "string",
          "name": "str",
          "type": "string"
        }
      ],
      "name": "StringTooLong",
      "type": "error"
    },
    {
      "anonymous": false,
      "inputs": [],
      "name": "EIP712DomainChanged",
      "type": "event"
    },
    {
      "anonymous": false,
      "inputs": [
        {
          "indexed": false,
          "internalType": "uint256",
          "name": "proposalId",
          "type": "uint256"
        }
      ],
      "name": "ProposalCanceled",
      "type": "event"
    },
    {
      "anonymous": false,
      "inputs": [
        {
          "indexed": false,
          "internalType": "uint256",
          "name": "proposalId",
          "type": "uint256"
        },
        {
          "indexed": false,
          "internalType": "address",
          "name": "proposer",
          "type": "address"
        },
        {
          "indexed": false,
          "internalType": "address[]",
          "name": "targets",
          "type": "address[]"
        },
        {
          "indexed": false,
          "internalType": "uint256[]",
          "name": "values",
          "type": "uint256[]"
        },
        {
          "indexed": false,
          "internalType": "string[]",
          "name": "signatures",
          "type": "string[]"
        },
        {
          "indexed": false,
          "internalType": "bytes[]",
          "name": "calldatas",
          "type": "bytes[]"
        },
        {
          "indexed": false,
          "internalType": "uint256",
          "name": "voteStart",
          "type": "uint256"
        },
        {
          "indexed": false,
          "internalType": "uint256",
          "name": "voteEnd",
          "type": "uint256"
        },
        {
          "indexed": false,
          "internalType": "string",
          "name": "description",
          "type": "string"
        }
      ],
      "name": "ProposalCreated",
      "type": "event"
    },
    {
      "anonymous": false,
      "inputs": [
        {
          "indexed": false,
          "internalType": "uint256",
          "name": "proposalId",
          "type": "uint256"
        }
      ],
      "name": "ProposalExecuted",
      "type": "event"
    },
    {
      "anonymous": false,
      "inputs": [
        {
          "indexed": false,
          "internalType": "uint256",
          "name": "proposalId",
          "type": "uint256"
        },
        {
          "indexed": false,
          "internalType": "uint256",
          "name": "eta",
          "type": "uint256"
        }
      ],
      "name": "ProposalQueued",
      "type": "event"
    },
    {
      "anonymous": false,
      "inputs": [
        {
          "indexed": false,
          "internalType": "uint256",
          "name": "oldProposalThreshold",
          "type": "uint256"
        },
        {
          "indexed": false,
          "internalType": "uint256",
          "name": "newProposalThreshold",
          "type": "uint256"
        }
      ],
      "name": "ProposalThresholdSet",
      "type": "event"
    },
    {
      "anonymous": false,
      "inputs": [
        {
          "indexed": false,
          "internalType": "uint256",
          "name": "oldQuorumNumerator",
          "type": "uint256"
        },
        {
          "indexed": false,
          "internalType": "uint256",
          "name": "newQuorumNumerator",
          "type": "uint256"
        }
      ],
      "name": "QuorumNumeratorUpdated",
      "type": "event"
    },
    {
      "anonymous": false,
      "inputs": [
        {
          "indexed": false,
          "internalType": "address",
          "name": "oldTimelock",
          "type": "address"
        },
        {
          "indexed": false,
          "internalType": "address",
          "name": "newTimelock",
          "type": "address"
        }
      ],
      "name": "TimelockChange",
      "type": "event"
    },
    {
      "anonymous": false,
      "inputs": [
        {
          "indexed": true,
          "internalType": "address",
          "name": "voter",
          "type": "address"
        },
        {
          "indexed": false,
          "internalType": "uint256",
          "name": "proposalId",
          "type": "uint256"
        },
        {
          "indexed": false,
          "internalType": "uint8",
          "name": "support",
          "type": "uint8"
        },
        {
          "indexed": false,
          "internalType": "uint256",
          "name": "weight",
          "type": "uint256"
        },
        {
          "indexed": false,
          "internalType": "string",
          "name": "reason",
          "type": "string"
        }
      ],
      "name": "VoteCast",
      "type": "event"
    },
    {
      "anonymous": false,
      "inputs": [
        {
          "indexed": true,
          "internalType": "address",
          "name": "voter",
          "type": "address"
        },
        {
          "indexed": false,
          "internalType": "uint256",
          "name": "proposalId",
          "type": "uint256"
        },
        {
          "indexed": false,
          "internalType": "uint8",
          "name": "support",
          "type": "uint8"
        },
        {
          "indexed": false,
          "internalType": "uint256",
          "name": "weight",
          "type": "uint256"
        },
        {
          "indexed": false,
          "internalType": "string",
          "name": "reason",
          "type": "string"
        },
        {
          "indexed": false,
          "internalType": "bytes",
          "name": "params",
          "type": "bytes"
        }
      ],
      "name": "VoteCastWithParams",
      "type": "event"
    },
    {
      "anonymous": false,
      "inputs": [
        {
          "indexed": false,
          "internalType": "uint256",
          "name": "oldVotingDelay",
          "type": "uint256"
        },
        {
          "indexed": false,
          "internalType": "uint256",
          "name": "newVotingDelay",
          "type": "uint256"
        }
      ],
      "name": "VotingDelaySet",
      "type": "event"
    },
    {
      "anonymous": false,
      "inputs": [
        {
          "indexed": false,
          "internalType": "uint256",
          "name": "oldVotingPeriod",
          "type": "uint256"
        },
        {
          "indexed": false,
          "internalType": "uint256",
          "name": "newVotingPeriod",
          "type": "uint256"
        }
      ],
      "name": "VotingPeriodSet",
      "type": "event"
    },
    {
      "inputs": [],
      "name": "BALLOT_TYPEHASH",
      "outputs": [
        {
          "internalType": "bytes32",
          "name": "",
          "type": "bytes32"
        }
      ],
      "stateMutability": "view",
      "type": "function"
    },
    {
      "inputs": [],
      "name": "CLOCK_MODE",
      "outputs": [
        {
          "internalType": "string",
          "name": "",
          "type": "string"
        }
      ],
      "stateMutability": "view",
      "type": "function"
    },
    {
      "inputs": [],
      "name": "COUNTING_MODE",
      "outputs": [
        {
          "internalType": "string",
          "name": "",
          "type": "string"
        }
      ],
      "stateMutability": "pure",
      "type": "function"
    },
    {
      "inputs": [],
      "name": "EXTENDED_BALLOT_TYPEHASH",
      "outputs": [
        {
          "internalType": "bytes32",
          "name": "",
          "type": "bytes32"
        }
      ],
      "stateMutability": "view",
      "type": "function"
    },
    {
      "inputs": [
        {
          "internalType": "address[]",
          "name": "targets",
          "type": "address[]"
        },
        {
          "internalType": "uint256[]",
          "name": "values",
          "type": "uint256[]"
        },
        {
          "internalType": "bytes[]",
          "name": "calldatas",
          "type": "bytes[]"
        },
        {
          "internalType": "bytes32",
          "name": "descriptionHash",
          "type": "bytes32"
        }
      ],
      "name": "cancel",
      "outputs": [
        {
          "internalType": "uint256",
          "name": "",
          "type": "uint256"
        }
      ],
      "stateMutability": "nonpayable",
      "type": "function"
    },
    {
      "inputs": [
        {
          "internalType": "uint256",
          "name": "proposalId",
          "type": "uint256"
        },
        {
          "internalType": "uint8",
          "name": "support",
          "type": "uint8"
        }
      ],
      "name": "castVote",
      "outputs": [
        {
          "internalType": "uint256",
          "name": "",
          "type": "uint256"
        }
      ],
      "stateMutability": "nonpayable",
      "type": "function"
    },
    {
      "inputs": [
        {
          "internalType": "uint256",
          "name": "proposalId",
          "type": "uint256"
        },
        {
          "internalType": "uint8",
          "name": "support",
          "type": "uint8"
        },
        {
          "internalType": "uint8",
          "name": "v",
          "type": "uint8"
        },
        {
          "internalType": "bytes32",
          "name": "r",
          "type": "bytes32"
        },
        {
          "internalType": "bytes32",
          "name": "s",
          "type": "bytes32"
        }
      ],
      "name": "castVoteBySig",
      "outputs": [
        {
          "internalType": "uint256",
          "name": "",
          "type": "uint256"
        }
      ],
      "stateMutability": "nonpayable",
      "type": "function"
    },
    {
      "inputs": [
        {
          "internalType": "uint256",
          "name": "proposalId",
          "type": "uint256"
        },
        {
          "internalType": "uint8",
          "name": "support",
          "type": "uint8"
        },
        {
          "internalType": "string",
          "name": "reason",
          "type": "string"
        }
      ],
      "name": "castVoteWithReason",
      "outputs": [
        {
          "internalType": "uint256",
          "name": "",
          "type": "uint256"
        }
      ],
      "stateMutability": "nonpayable",
      "type": "function"
    },
    {
      "inputs": [
        {
          "internalType": "uint256",
          "name": "proposalId",
          "type": "uint256"
        },
        {
          "internalType": "uint8",
          "name": "support",
          "type": "uint8"
        },
        {
          "internalType": "string",
          "name": "reason",
          "type": "string"
        },
        {
          "internalType": "bytes",
          "name": "params",
          "type": "bytes"
        }
      ],
      "name": "castVoteWithReasonAndParams",
      "outputs": [
        {
          "internalType": "uint256",
          "name": "",
          "type": "uint256"
        }
      ],
      "stateMutability": "nonpayable",
      "type": "function"
    },
    {
      "inputs": [
        {
          "internalType": "uint256",
          "name": "proposalId",
          "type": "uint256"
        },
        {
          "internalType": "uint8",
          "name": "support",
          "type": "uint8"
        },
        {
          "internalType": "string",
          "name": "reason",
          "type": "string"
        },
        {
          "internalType": "bytes",
          "name": "params",
          "type": "bytes"
        },
        {
          "internalType": "uint8",
          "name": "v",
          "type": "uint8"
        },
        {
          "internalType": "bytes32",
          "name": "r",
          "type": "bytes32"
        },
        {
          "internalType": "bytes32",
          "name": "s",
          "type": "bytes32"
        }
      ],
      "name": "castVoteWithReasonAndParamsBySig",
      "outputs": [
        {
          "internalType": "uint256",
          "name": "",
          "type": "uint256"
        }
      ],
      "stateMutability": "nonpayable",
      "type": "function"
    },
    {
      "inputs": [],
      "name": "clock",
      "outputs": [
        {
          "internalType": "uint48",
          "name": "",
          "type": "uint48"
        }
      ],
      "stateMutability": "view",
      "type": "function"
    },
    {
      "inputs": [],
      "name": "eip712Domain",
      "outputs": [
        {
          "internalType": "bytes1",
          "name": "fields",
          "type": "bytes1"
        },
        {
          "internalType": "string",
          "name": "name",
          "type": "string"
        },
        {
          "internalType": "string",
          "name": "version",
          "type": "string"
        },
        {
          "internalType": "uint256",
          "name": "chainId",
          "type": "uint256"
        },
        {
          "internalType": "address",
          "name": "verifyingContract",
          "type": "address"
        },
        {
          "internalType": "bytes32",
          "name": "salt",
          "type": "bytes32"
        },
        {
          "internalType": "uint256[]",
          "name": "extensions",
          "type": "uint256[]"
        }
      ],
      "stateMutability": "view",
      "type": "function"
    },
    {
      "inputs": [
        {
          "internalType": "address[]",
          "name": "targets",
          "type": "address[]"
        },
        {
          "internalType": "uint256[]",
          "name": "values",
          "type": "uint256[]"
        },
        {
          "internalType": "bytes[]",
          "name": "calldatas",
          "type": "bytes[]"
        },
        {
          "internalType": "bytes32",
          "name": "descriptionHash",
          "type": "bytes32"
        }
      ],
      "name": "execute",
      "outputs": [
        {
          "internalType": "uint256",
          "name": "",
          "type": "uint256"
        }
      ],
      "stateMutability": "payable",
      "type": "function"
    },
    {
      "inputs": [
        {
          "internalType": "uint256",
          "name": "proposalId",
          "type": "uint256"
        }
      ],
      "name": "getProposalDetails",
      "outputs": [
        {
          "internalType": "address[]",
          "name": "",
          "type": "address[]"
        },
        {
          "internalType": "uint256[]",
          "name": "",
          "type": "uint256[]"
        },
        {
          "internalType": "bytes[]",
          "name": "",
          "type": "bytes[]"
        },
        {
          "internalType": "string",
          "name": "",
          "type": "string"
        }
      ],
      "stateMutability": "view",
      "type": "function"
    },
    {
      "inputs": [],
      "name": "getProposalIds",
      "outputs": [
        {
          "internalType": "uint256[]",
          "name": "",
          "type": "uint256[]"
        }
      ],
      "stateMutability": "view",
      "type": "function"
    },
    {
      "inputs": [
        {
          "internalType": "address",
          "name": "account",
          "type": "address"
        },
        {
          "internalType": "uint256",
          "name": "timepoint",
          "type": "uint256"
        }
      ],
      "name": "getVotes",
      "outputs": [
        {
          "internalType": "uint256",
          "name": "",
          "type": "uint256"
        }
      ],
      "stateMutability": "view",
      "type": "function"
    },
    {
      "inputs": [
        {
          "internalType": "address",
          "name": "account",
          "type": "address"
        },
        {
          "internalType": "uint256",
          "name": "timepoint",
          "type": "uint256"
        },
        {
          "internalType": "bytes",
          "name": "params",
          "type": "bytes"
        }
      ],
      "name": "getVotesWithParams",
      "outputs": [
        {
          "internalType": "uint256",
          "name": "",
          "type": "uint256"
        }
      ],
      "stateMutability": "view",
      "type": "function"
    },
    {
      "inputs": [
        {
          "internalType": "uint256",
          "name": "proposalId",
          "type": "uint256"
        },
        {
          "internalType": "address",
          "name": "account",
          "type": "address"
        }
      ],
      "name": "hasVoted",
      "outputs": [
        {
          "internalType": "bool",
          "name": "",
          "type": "bool"
        }
      ],
      "stateMutability": "view",
      "type": "function"
    },
    {
      "inputs": [
        {
          "internalType": "address[]",
          "name": "targets",
          "type": "address[]"
        },
        {
          "internalType": "uint256[]",
          "name": "values",
          "type": "uint256[]"
        },
        {
          "internalType": "bytes[]",
          "name": "calldatas",
          "type": "bytes[]"
        },
        {
          "internalType": "bytes32",
          "name": "descriptionHash",
          "type": "bytes32"
        }
      ],
      "name": "hashProposal",
      "outputs": [
        {
          "internalType": "uint256",
          "name": "",
          "type": "uint256"
        }
      ],
      "stateMutability": "pure",
      "type": "function"
    },
    {
      "inputs": [],
      "name": "name",
      "outputs": [
        {
          "internalType": "string",
          "name": "",
          "type": "string"
        }
      ],
      "stateMutability": "view",
      "type": "function"
    },
    {
      "inputs": [
        {
          "internalType": "address",
          "name": "",
          "type": "address"
        },
        {
          "internalType": "address",
          "name": "",
          "type": "address"
        },
        {
          "internalType": "uint256[]",
          "name": "",
          "type": "uint256[]"
        },
        {
          "internalType": "uint256[]",
          "name": "",
          "type": "uint256[]"
        },
        {
          "internalType": "bytes",
          "name": "",
          "type": "bytes"
        }
      ],
      "name": "onERC1155BatchReceived",
      "outputs": [
        {
          "internalType": "bytes4",
          "name": "",
          "type": "bytes4"
        }
      ],
      "stateMutability": "nonpayable",
      "type": "function"
    },
    {
      "inputs": [
        {
          "internalType": "address",
          "name": "",
          "type": "address"
        },
        {
          "internalType": "address",
          "name": "",
          "type": "address"
        },
        {
          "internalType": "uint256",
          "name": "",
          "type": "uint256"
        },
        {
          "internalType": "uint256",
          "name": "",
          "type": "uint256"
        },
        {
          "internalType": "bytes",
          "name": "",
          "type": "bytes"
        }
      ],
      "name": "onERC1155Received",
      "outputs": [
        {
          "internalType": "bytes4",
          "name": "",
          "type": "bytes4"
        }
      ],
      "stateMutability": "nonpayable",
      "type": "function"
    },
    {
      "inputs": [
        {
          "internalType": "address",
          "name": "",
          "type": "address"
        },
        {
          "internalType": "address",
          "name": "",
          "type": "address"
        },
        {
          "internalType": "uint256",
          "name": "",
          "type": "uint256"
        },
        {
          "internalType": "bytes",
          "name": "",
          "type": "bytes"
        }
      ],
      "name": "onERC721Received",
      "outputs": [
        {
          "internalType": "bytes4",
          "name": "",
          "type": "bytes4"
        }
      ],
      "stateMutability": "nonpayable",
      "type": "function"
    },
    {
      "inputs": [
        {
          "internalType": "uint256",
          "name": "proposalId",
          "type": "uint256"
        }
      ],
      "name": "proposalDeadline",
      "outputs": [
        {
          "internalType": "uint256",
          "name": "",
          "type": "uint256"
        }
      ],
      "stateMutability": "view",
      "type": "function"
    },
    {
      "inputs": [
        {
          "internalType": "uint256",
          "name": "proposalId",
          "type": "uint256"
        }
      ],
      "name": "proposalEta",
      "outputs": [
        {
          "internalType": "uint256",
          "name": "",
          "type": "uint256"
        }
      ],
      "stateMutability": "view",
      "type": "function"
    },
    {
      "inputs": [
        {
          "internalType": "uint256",
          "name": "proposalId",
          "type": "uint256"
        }
      ],
      "name": "proposalProposer",
      "outputs": [
        {
          "internalType": "address",
          "name": "",
          "type": "address"
        }
      ],
      "stateMutability": "view",
      "type": "function"
    },
    {
      "inputs": [
        {
          "internalType": "uint256",
          "name": "proposalId",
          "type": "uint256"
        }
      ],
      "name": "proposalSnapshot",
      "outputs": [
        {
          "internalType": "uint256",
          "name": "",
          "type": "uint256"
        }
      ],
      "stateMutability": "view",
      "type": "function"
    },
    {
      "inputs": [],
      "name": "proposalThreshold",
      "outputs": [
        {
          "internalType": "uint256",
          "name": "",
          "type": "uint256"
        }
      ],
      "stateMutability": "view",
      "type": "function"
    },
    {
      "inputs": [
        {
          "internalType": "uint256",
          "name": "proposalId",
          "type": "uint256"
        }
      ],
      "name": "proposalVotes",
      "outputs": [
        {
          "internalType": "uint256",
          "name": "againstVotes",
          "type": "uint256"
        },
        {
          "internalType": "uint256",
          "name": "forVotes",
          "type": "uint256"
        },
        {
          "internalType": "uint256",
          "name": "abstainVotes",
          "type": "uint256"
        }
      ],
      "stateMutability": "view",
      "type": "function"
    },
    {
      "inputs": [
        {
          "internalType": "address[]",
          "name": "targets",
          "type": "address[]"
        },
        {
          "internalType": "uint256[]",
          "name": "values",
          "type": "uint256[]"
        },
        {
          "internalType": "bytes[]",
          "name": "calldatas",
          "type": "bytes[]"
        },
        {
          "internalType": "string",
          "name": "description",
          "type": "string"
        }
      ],
      "name": "propose",
      "outputs": [
        {
          "internalType": "uint256",
          "name": "",
          "type": "uint256"
        }
      ],
      "stateMutability": "nonpayable",
      "type": "function"
    },
    {
      "inputs": [
        {
          "internalType": "address[]",
          "name": "targets",
          "type": "address[]"
        },
        {
          "internalType": "uint256[]",
          "name": "values",
          "type": "uint256[]"
        },
        {
          "internalType": "bytes[]",
          "name": "calldatas",
          "type": "bytes[]"
        },
        {
          "internalType": "bytes32",
          "name": "descriptionHash",
          "type": "bytes32"
        }
      ],
      "name": "queue",
      "outputs": [
        {
          "internalType": "uint256",
          "name": "",
          "type": "uint256"
        }
      ],
      "stateMutability": "nonpayable",
      "type": "function"
    },
    {
      "inputs": [
        {
          "internalType": "uint256",
          "name": "blockNumber",
          "type": "uint256"
        }
      ],
      "name": "quorum",
      "outputs": [
        {
          "internalType": "uint256",
          "name": "",
          "type": "uint256"
        }
      ],
      "stateMutability": "view",
      "type": "function"
    },
    {
      "inputs": [],
      "name": "quorumDenominator",
      "outputs": [
        {
          "internalType": "uint256",
          "name": "",
          "type": "uint256"
        }
      ],
      "stateMutability": "view",
      "type": "function"
    },
    {
      "inputs": [
        {
          "internalType": "uint256",
          "name": "timepoint",
          "type": "uint256"
        }
      ],
      "name": "quorumNumerator",
      "outputs": [
        {
          "internalType": "uint256",
          "name": "",
          "type": "uint256"
        }
      ],
      "stateMutability": "view",
      "type": "function"
    },
    {
      "inputs": [],
      "name": "quorumNumerator",
      "outputs": [
        {
          "internalType": "uint256",
          "name": "",
          "type": "uint256"
        }
      ],
      "stateMutability": "view",
      "type": "function"
    },
    {
      "inputs": [
        {
          "internalType": "address",
          "name": "target",
          "type": "address"
        },
        {
          "internalType": "uint256",
          "name": "value",
          "type": "uint256"
        },
        {
          "internalType": "bytes",
          "name": "data",
          "type": "bytes"
        }
      ],
      "name": "relay",
      "outputs": [],
      "stateMutability": "payable",
      "type": "function"
    },
    {
      "inputs": [
        {
          "internalType": "uint256",
          "name": "newProposalThreshold",
          "type": "uint256"
        }
      ],
      "name": "setProposalThreshold",
      "outputs": [],
      "stateMutability": "nonpayable",
      "type": "function"
    },
    {
      "inputs": [
        {
          "internalType": "uint256",
          "name": "newVotingDelay",
          "type": "uint256"
        }
      ],
      "name": "setVotingDelay",
      "outputs": [],
      "stateMutability": "nonpayable",
      "type": "function"
    },
    {
      "inputs": [
        {
          "internalType": "uint256",
          "name": "newVotingPeriod",
          "type": "uint256"
        }
      ],
      "name": "setVotingPeriod",
      "outputs": [],
      "stateMutability": "nonpayable",
      "type": "function"
    },
    {
      "inputs": [
        {
          "internalType": "uint256",
          "name": "proposalId",
          "type": "uint256"
        }
      ],
      "name": "state",
      "outputs": [
        {
          "internalType": "enum IGovernor.ProposalState",
          "name": "",
          "type": "uint8"
        }
      ],
      "stateMutability": "view",
      "type": "function"
    },
    {
      "inputs": [
        {
          "internalType": "bytes4",
          "name": "interfaceId",
          "type": "bytes4"
        }
      ],
      "name": "supportsInterface",
      "outputs": [
        {
          "internalType": "bool",
          "name": "",
          "type": "bool"
        }
      ],
      "stateMutability": "view",
      "type": "function"
    },
    {
      "inputs": [],
      "name": "timelock",
      "outputs": [
        {
          "internalType": "address",
          "name": "",
          "type": "address"
        }
      ],
      "stateMutability": "view",
      "type": "function"
    },
    {
      "inputs": [],
      "name": "token",
      "outputs": [
        {
          "internalType": "contract IERC5805",
          "name": "",
          "type": "address"
        }
      ],
      "stateMutability": "view",
      "type": "function"
    },
    {
      "inputs": [
        {
          "internalType": "uint256",
          "name": "newQuorumNumerator",
          "type": "uint256"
        }
      ],
      "name": "updateQuorumNumerator",
      "outputs": [],
      "stateMutability": "nonpayable",
      "type": "function"
    },
    {
      "inputs": [
        {
          "internalType": "contract TimelockController",
          "name": "newTimelock",
          "type": "address"
        }
      ],
      "name": "updateTimelock",
      "outputs": [],
      "stateMutability": "nonpayable",
      "type": "function"
    },
    {
      "inputs": [],
      "name": "version",
      "outputs": [
        {
          "internalType": "string",
          "name": "",
          "type": "string"
        }
      ],
      "stateMutability": "view",
      "type": "function"
    },
    {
      "inputs": [],
      "name": "votingDelay",
      "outputs": [
        {
          "internalType": "uint256",
          "name": "",
          "type": "uint256"
        }
      ],
      "stateMutability": "view",
      "type": "function"
    },
    {
      "inputs": [],
      "name": "votingPeriod",
      "outputs": [
        {
          "internalType": "uint256",
          "name": "",
          "type": "uint256"
        }
      ],
      "stateMutability": "view",
      "type": "function"
    },
    {
      "stateMutability": "payable",
      "type": "receive"
    }
  ],
  "bytecode": "0x61018060405234801562000011575f80fd5b5060405162005ca338038062005ca3833981016040819052620000349162000939565b83838683855f6040518060400160405280601081526020016f11dbdd995c9b9bdc90dbdb9d1c9858dd60821b81525080620000746200018c60201b60201c565b62000080825f620001a7565b6101205262000091816001620001a7565b61014052815160208084019190912060e052815190820120610100524660a0526200011e60e05161010051604080517f8b73c3c69bb8fe3d512ecc4cf759cc79239f7b179b0ffacaa9a75d522b39400f60208201529081019290925260608201524660808201523060a08201525f9060c00160405160208183030381529060405280519060200120905090565b60805250503060c052600262000135828262000a2d565b5062000143905083620001df565b6200014e8262000220565b6200015981620002c6565b5050506001600160a01b031661016052620001748162000307565b50620001808162000483565b50505050505062000bad565b6040805180820190915260018152603160f81b602082015290565b5f602083511015620001c657620001be83620004ec565b9050620001d9565b81620001d3848262000a2d565b5060ff90505b92915050565b60065460408051918252602082018390527fc565b045403dc03c2eea82b81a0465edad9e2e7fc4d97e11421c209da93d7a93910160405180910390a1600655565b5f8111620002855760405162461bcd60e51b815260206004820152602760248201527f476f7665726e6f7253657474696e67733a20766f74696e6720706572696f6420604482015266746f6f206c6f7760c81b60648201526084015b60405180910390fd5b60075460408051918252602082018390527f7e3f7f0708a84de9203036abaa450dccc85ad5ff52f78c170f3edb55cf5e8828910160405180910390a1600755565b60085460408051918252602082018390527fccb45da8d5717e6c4544694297c4ba5cf151d455c9bb0ed4fc7a38411bc05461910160405180910390a1600855565b60648111156200038c5760405162461bcd60e51b815260206004820152604360248201527f476f7665726e6f72566f74657351756f72756d4672616374696f6e3a2071756f60448201527f72756d4e756d657261746f72206f7665722071756f72756d44656e6f6d696e616064820152623a37b960e91b608482015260a4016200027c565b5f620003976200052e565b90508015801590620003a95750600b54155b156200040f57604080518082019091525f8152600b9060208101620003ce846200055c565b6001600160e01b0390811690915282546001810184555f938452602093849020835194909301519091166401000000000263ffffffff909316929092179101555b620004446200042f62000421620005ca565b65ffffffffffff1662000640565b6200043a846200055c565b600b9190620006a6565b505060408051828152602081018490527f0553476bf02ef2726e8ce5ced78d63e26e602e4a2257b1f559418e24b4633997910160405180910390a15050565b600c54604080516001600160a01b03928316815291831660208301527f08f74ea46ef7894f65eabfb5e6e695de773a000b47c529ab559178069b226401910160405180910390a1600c80546001600160a01b0319166001600160a01b0392909216919091179055565b5f80829050601f8151111562000519578260405163305a27a960e01b81526004016200027c919062000af5565b8051620005268262000b42565b179392505050565b600b545f9015620005535762000545600b620006c2565b6001600160e01b0316905090565b600a545b905090565b5f6001600160e01b03821115620005c65760405162461bcd60e51b815260206004820152602760248201527f53616665436173743a2076616c756520646f65736e27742066697420696e20326044820152663234206269747360c81b60648201526084016200027c565b5090565b5f610160516001600160a01b03166391ddadf46040518163ffffffff1660e01b8152600401602060405180830381865afa9250505080156200062b575060408051601f3d908101601f19168201909252620006289181019062000b66565b60015b6200063b5762000557436200070d565b919050565b5f63ffffffff821115620005c65760405162461bcd60e51b815260206004820152602660248201527f53616665436173743a2076616c756520646f65736e27742066697420696e203360448201526532206269747360d01b60648201526084016200027c565b5f80620006b585858562000775565b915091505b935093915050565b80545f9080156200070457620006ec83620006df60018462000b8d565b5f91825260209091200190565b5464010000000090046001600160e01b031662000706565b5f5b9392505050565b5f65ffffffffffff821115620005c65760405162461bcd60e51b815260206004820152602660248201527f53616665436173743a2076616c756520646f65736e27742066697420696e203460448201526538206269747360d01b60648201526084016200027c565b82545f9081908015620008c7575f6200079587620006df60018562000b8d565b60408051808201909152905463ffffffff8082168084526401000000009092046001600160e01b031660208401529192509087161015620008195760405162461bcd60e51b815260206004820152601b60248201527f436865636b706f696e743a2064656372656173696e67206b657973000000000060448201526064016200027c565b805163ffffffff8088169116036200086757846200083e88620006df60018662000b8d565b80546001600160e01b03929092166401000000000263ffffffff909216919091179055620008b6565b6040805180820190915263ffffffff80881682526001600160e01b0380881660208085019182528b54600181018d555f8d81529190912094519151909216640100000000029216919091179101555b602001519250839150620006ba9050565b50506040805180820190915263ffffffff80851682526001600160e01b0380851660208085019182528854600181018a555f8a815291822095519251909316640100000000029190931617920191909155905081620006ba565b6001600160a01b038116811462000936575f80fd5b50565b5f805f805f60a086880312156200094e575f80fd5b85516200095b8162000921565b60208701519095506200096e8162000921565b6040870151606088015160809098015196999198509695945092505050565b634e487b7160e01b5f52604160045260245ffd5b600181811c90821680620009b657607f821691505b602082108103620009d557634e487b7160e01b5f52602260045260245ffd5b50919050565b601f82111562000a28575f81815260208120601f850160051c8101602086101562000a035750805b601f850160051c820191505b8181101562000a245782815560010162000a0f565b5050505b505050565b81516001600160401b0381111562000a495762000a496200098d565b62000a618162000a5a8454620009a1565b84620009db565b602080601f83116001811462000a97575f841562000a7f5750858301515b5f19600386901b1c1916600185901b17855562000a24565b5f85815260208120601f198616915b8281101562000ac75788860151825594840194600190910190840162000aa6565b508582101562000ae557878501515f19600388901b60f8161c191681555b5050505050600190811b01905550565b5f6020808352835180828501525f5b8181101562000b225785810183015185820160400152820162000b04565b505f604082860101526040601f19601f8301168501019250505092915050565b80516020808301519190811015620009d5575f1960209190910360031b1b16919050565b5f6020828403121562000b77575f80fd5b815165ffffffffffff8116811462000706575f80fd5b81810381811115620001d957634e487b7160e01b5f52601160045260245ffd5b60805160a05160c05160e0516101005161012051610140516101605161507e62000c255f395f8181610af201528181611571015281816119cb01528181612ce60152612f4201525f61195d01525f61193301525f6131d101525f6131a901525f61310401525f61312e01525f613158015261507e5ff3fe608060405260043610610306575f3560e01c806370b0f66011610191578063c01f9e37116100dc578063ea0217cf11610087578063f23a6e6111610062578063f23a6e6114610a7e578063f8ce560a14610ac2578063fc0c546a14610ae1575f80fd5b8063ea0217cf14610a21578063eb9019d414610a40578063ece40cc114610a5f575f80fd5b8063d33219b4116100b7578063d33219b41461098c578063dd4e2ba5146109a9578063deaaa7cc146109ee575f80fd5b8063c01f9e3714610922578063c28bc2fa1461095a578063c59057e41461096d575f80fd5b80639a802a6d1161013c578063ab58fb8e11610117578063ab58fb8e146108ab578063b58131b0146108ca578063bc197c81146108de575f80fd5b80639a802a6d14610859578063a7713a7014610878578063a890c9101461088c575f80fd5b806384b0196e1161016c57806384b0196e146107f457806391ddadf41461081b57806397c3d33414610846575f80fd5b806370b0f660146107975780637b3c71d3146107b65780637d5e81e2146107d5575f80fd5b80633b4d01a7116102515780634bf5d7e9116101fc57806356781388116101d7578063567813881461073a5780635f398a141461075957806360c4247f14610778575f80fd5b80634bf5d7e91461068e578063544ffc9c146106a257806354fd4d50146106f5575f80fd5b806340ba1b1e1161022c57806340ba1b1e146106065780634385963214610627578063452115d61461066f575f80fd5b80633b4d01a71461058c5780633bccf4fd146105bb5780633e4f49e6146105da575f80fd5b8063150b7a02116102b15780632d63f6931161028c5780632d63f693146105105780632fe3e261146105455780633932abb114610578575f80fd5b8063150b7a0214610482578063160cbed7146104de5780632656227d146104fd575f80fd5b806306f3f9e6116102e157806306f3f9e6146103ea57806306fdde0314610409578063143489d01461042a575f80fd5b806301ffc9a71461037557806302a251a3146103a957806303420181146103cb575f80fd5b366103715730610314610b14565b6001600160a01b03161461036f5760405162461bcd60e51b815260206004820152601f60248201527f476f7665726e6f723a206d7573742073656e6420746f206578656375746f720060448201526064015b60405180910390fd5b005b5f80fd5b348015610380575f80fd5b5061039461038f3660046140ab565b610b2c565b60405190151581526020015b60405180910390f35b3480156103b4575f80fd5b506103bd610b3c565b6040519081526020016103a0565b3480156103d6575f80fd5b506103bd6103e53660046141ec565b610b46565b3480156103f5575f80fd5b5061036f61040436600461428c565b610c3c565b348015610414575f80fd5b5061041d610cf5565b6040516103a091906142f0565b348015610435575f80fd5b5061046a61044436600461428c565b5f908152600360205260409020546801000000000000000090046001600160a01b031690565b6040516001600160a01b0390911681526020016103a0565b34801561048d575f80fd5b506104c561049c366004614316565b7f150b7a0200000000000000000000000000000000000000000000000000000000949350505050565b6040516001600160e01b031990911681526020016103a0565b3480156104e9575f80fd5b506103bd6104f83660046144e1565b610d85565b6103bd61050b3660046144e1565b610ffe565b34801561051b575f80fd5b506103bd61052a36600461428c565b5f9081526003602052604090205467ffffffffffffffff1690565b348015610550575f80fd5b506103bd7fb3b3f3b703cd84ce352197dcff232b1b5d3cfb2025ce47cf04742d0651f1af8881565b348015610583575f80fd5b506103bd611127565b348015610597575f80fd5b506105ab6105a636600461428c565b611131565b6040516103a0949392919061462e565b3480156105c6575f80fd5b506103bd6105d536600461467a565b61136c565b3480156105e5575f80fd5b506105f96105f436600461428c565b6113e0565b6040516103a091906146d8565b348015610611575f80fd5b5061061a6113ea565b6040516103a091906146fe565b348015610632575f80fd5b50610394610641366004614710565b5f8281526009602090815260408083206001600160a01b038516845260030190915290205460ff1692915050565b34801561067a575f80fd5b506103bd6106893660046144e1565b61143f565b348015610699575f80fd5b5061041d61156d565b3480156106ad575f80fd5b506106da6106bc36600461428c565b5f908152600960205260409020805460018201546002909201549092565b604080519384526020840192909252908201526060016103a0565b348015610700575f80fd5b5060408051808201909152600181527f3100000000000000000000000000000000000000000000000000000000000000602082015261041d565b348015610745575f80fd5b506103bd61075436600461473e565b61162d565b348015610764575f80fd5b506103bd610773366004614768565b611654565b348015610783575f80fd5b506103bd61079236600461428c565b61169c565b3480156107a2575f80fd5b5061036f6107b136600461428c565b61174b565b3480156107c1575f80fd5b506103bd6107d03660046147e6565b611801565b3480156107e0575f80fd5b506103bd6107ef36600461483c565b611847565b3480156107ff575f80fd5b50610808611926565b6040516103a097969594939291906148e9565b348015610826575f80fd5b5061082f6119c8565b60405165ffffffffffff90911681526020016103a0565b348015610851575f80fd5b5060646103bd565b348015610864575f80fd5b506103bd610873366004614964565b611a50565b348015610883575f80fd5b506103bd611a66565b348015610897575f80fd5b5061036f6108a63660046149b9565b611a8f565b3480156108b6575f80fd5b506103bd6108c536600461428c565b611b45565b3480156108d5575f80fd5b506103bd611bf4565b3480156108e9575f80fd5b506104c56108f83660046149d4565b7fbc197c810000000000000000000000000000000000000000000000000000000095945050505050565b34801561092d575f80fd5b506103bd61093c36600461428c565b5f9081526003602052604090206001015467ffffffffffffffff1690565b61036f610968366004614a61565b611bfe565b348015610978575f80fd5b506103bd6109873660046144e1565b611d38565b348015610997575f80fd5b50600c546001600160a01b031661046a565b3480156109b4575f80fd5b506040805180820190915260208082527f737570706f72743d627261766f2671756f72756d3d666f722c6162737461696e9082015261041d565b3480156109f9575f80fd5b506103bd7f150214d74d59b7d1e90c73fc22ef3d991dd0a76b046543d4d80ab92d2a50328f81565b348015610a2c575f80fd5b5061036f610a3b36600461428c565b611d71565b348015610a4b575f80fd5b506103bd610a5a366004614aa1565b611e27565b348015610a6a575f80fd5b5061036f610a7936600461428c565b611e46565b348015610a89575f80fd5b506104c5610a98366004614acb565b7ff23a6e610000000000000000000000000000000000000000000000000000000095945050505050565b348015610acd575f80fd5b506103bd610adc36600461428c565b611efc565b348015610aec575f80fd5b5061046a7f000000000000000000000000000000000000000000000000000000000000000081565b5f610b27600c546001600160a01b031690565b905090565b5f610b3682611f06565b92915050565b5f610b2760075490565b5f80610be9610be17fb3b3f3b703cd84ce352197dcff232b1b5d3cfb2025ce47cf04742d0651f1af888c8c8c8c604051610b81929190614b2f565b60405180910390208b80519060200120604051602001610bc6959493929190948552602085019390935260ff9190911660408401526060830152608082015260a00190565b60405160208183030381529060405280519060200120611f43565b868686611f8a565b9050610c2e8a828b8b8b8080601f0160208091040260200160405190810160405280939291908181526020018383808284375f920191909152508d9250611fa6915050565b9a9950505050505050505050565b610c44610b14565b6001600160a01b0316336001600160a01b031614610ca45760405162461bcd60e51b815260206004820152601860248201527f476f7665726e6f723a206f6e6c79476f7665726e616e636500000000000000006044820152606401610366565b30610cad610b14565b6001600160a01b031614610ce9575f8036604051610ccc929190614b2f565b604051809103902090505b80610ce26004612113565b03610cd757505b610cf2816121c1565b50565b606060028054610d0490614b3e565b80601f0160208091040260200160405190810160405280929190818152602001828054610d3090614b3e565b8015610d7b5780601f10610d5257610100808354040283529160200191610d7b565b820191905f5260205f20905b815481529060010190602001808311610d5e57829003601f168201915b5050505050905090565b5f80610d9386868686611d38565b90506004610da0826113e0565b6007811115610db157610db16146c4565b14610e085760405162461bcd60e51b815260206004820152602160248201527f476f7665726e6f723a2070726f706f73616c206e6f74207375636365737366756044820152601b60fa1b6064820152608401610366565b600c54604080517ff27a0c9200000000000000000000000000000000000000000000000000000000815290515f926001600160a01b03169163f27a0c929160048083019260209291908290030181865afa158015610e68573d5f803e3d5ffd5b505050506040513d601f19601f82011682018060405250810190610e8c9190614b76565b600c546040517fb1c5f4270000000000000000000000000000000000000000000000000000000081529192506001600160a01b03169063b1c5f42790610ede908a908a908a905f908b90600401614b8d565b602060405180830381865afa158015610ef9573d5f803e3d5ffd5b505050506040513d601f19601f82011682018060405250810190610f1d9190614b76565b5f838152600d602052604080822092909255600c5491517f8f2a0bb00000000000000000000000000000000000000000000000000000000081526001600160a01b0390921691638f2a0bb091610f80918b918b918b91908b908990600401614bda565b5f604051808303815f87803b158015610f97575f80fd5b505af1158015610fa9573d5f803e3d5ffd5b505050507f9a2e42fd6722813d69113e7d0079d3d940171428df7373df9c7f7617cfda2892828242610fdb9190614c45565b604080519283526020830191909152015b60405180910390a15095945050505050565b5f8061100c86868686611d38565b90505f611018826113e0565b9050600481600781111561102e5761102e6146c4565b148061104b57506005816007811115611049576110496146c4565b145b6110a15760405162461bcd60e51b815260206004820152602160248201527f476f7665726e6f723a2070726f706f73616c206e6f74207375636365737366756044820152601b60fa1b6064820152608401610366565b5f8281526003602052604090819020600201805460ff19166001179055517f712ae1383f79ac853f8d882153778e0260ef8f03b504e2866e0593e04d2b291f906110ee9084815260200190565b60405180910390a16111038288888888612347565b61111082888888886123e8565b61111d82888888886123f5565b5095945050505050565b5f610b2760065490565b6060806060805f600f5f8781526020019081526020015f209050805f01816001018260020183600301838054806020026020016040519081016040528092919081815260200182805480156111ad57602002820191905f5260205f20905b81546001600160a01b0316815260019091019060200180831161118f575b50505050509350828054806020026020016040519081016040528092919081815260200182805480156111fd57602002820191905f5260205f20905b8154815260200190600101908083116111e9575b5050505050925081805480602002602001604051908101604052809291908181526020015f905b828210156112cc578382905f5260205f2001805461124190614b3e565b80601f016020809104026020016040519081016040528092919081815260200182805461126d90614b3e565b80156112b85780601f1061128f576101008083540402835291602001916112b8565b820191905f5260205f20905b81548152906001019060200180831161129b57829003601f168201915b505050505081526020019060010190611224565b5050505091508080546112de90614b3e565b80601f016020809104026020016040519081016040528092919081815260200182805461130a90614b3e565b80156113555780601f1061132c57610100808354040283529160200191611355565b820191905f5260205f20905b81548152906001019060200180831161133857829003601f168201915b505050505090509450945094509450509193509193565b604080517f150214d74d59b7d1e90c73fc22ef3d991dd0a76b046543d4d80ab92d2a50328f602082015290810186905260ff851660608201525f9081906113b990610be190608001610bc6565b90506113d587828860405180602001604052805f81525061242d565b979650505050505050565b5f610b3682612457565b6060600e805480602002602001604051908101604052809291908181526020018280548015610d7b57602002820191905f5260205f20905b815481526020019060010190808311611422575050505050905090565b5f8061144d86868686611d38565b90505f611459826113e0565b600781111561146a5761146a6146c4565b146114b75760405162461bcd60e51b815260206004820152601c60248201527f476f7665726e6f723a20746f6f206c61746520746f2063616e63656c000000006044820152606401610366565b5f818152600360205260409020546801000000000000000090046001600160a01b0316336001600160a01b0316146115575760405162461bcd60e51b815260206004820152602260248201527f476f7665726e6f723a206f6e6c792070726f706f7365722063616e2063616e6360448201527f656c0000000000000000000000000000000000000000000000000000000000006064820152608401610366565b611563868686866125cd565b9695505050505050565b60607f00000000000000000000000000000000000000000000000000000000000000006001600160a01b0316634bf5d7e96040518163ffffffff1660e01b81526004015f60405180830381865afa9250505080156115ec57506040513d5f823e601f3d908101601f191682016040526115e99190810190614c58565b60015b611628575060408051808201909152601d81527f6d6f64653d626c6f636b6e756d6265722666726f6d3d64656661756c74000000602082015290565b919050565b5f8033905061164c84828560405180602001604052805f81525061242d565b949350505050565b5f803390506113d587828888888080601f0160208091040260200160405190810160405280939291908181526020018383808284375f920191909152508a9250611fa6915050565b600b545f908082036116b2575050600a54919050565b5f600b6116c0600184614cc1565b815481106116d0576116d0614cd4565b5f9182526020918290206040805180820190915291015463ffffffff81168083526401000000009091046001600160e01b0316928201929092529150841061172657602001516001600160e01b03169392505050565b61173a611732856125da565b600b90612659565b6001600160e01b0316949350505050565b611753610b14565b6001600160a01b0316336001600160a01b0316146117b35760405162461bcd60e51b815260206004820152601860248201527f476f7665726e6f723a206f6e6c79476f7665726e616e636500000000000000006044820152606401610366565b306117bc610b14565b6001600160a01b0316146117f8575f80366040516117db929190614b2f565b604051809103902090505b806117f16004612113565b036117e657505b610cf281612707565b5f8033905061156386828787878080601f0160208091040260200160405190810160405280939291908181526020018383808284375f9201919091525061242d92505050565b5f8061185586868686612748565b604080516080810182528881526020808201899052818301889052606082018790525f848152600f825292909220815180519495509193909261189c928492910190613f4f565b5060208281015180516118b59260018501920190613fbb565b50604082015180516118d1916002840191602090910190613ff4565b50606082015160038201906118e69082614d32565b5050600e80546001810182555f919091527fbb7b4a454dc3493923482f07822329ed19e8244eff582cc204f8554c3620c3fd018290555095945050505050565b5f606080828080836119587f000000000000000000000000000000000000000000000000000000000000000083612b7f565b6119837f00000000000000000000000000000000000000000000000000000000000000006001612b7f565b604080515f808252602082019092527f0f000000000000000000000000000000000000000000000000000000000000009b939a50919850469750309650945092509050565b5f7f00000000000000000000000000000000000000000000000000000000000000006001600160a01b03166391ddadf46040518163ffffffff1660e01b8152600401602060405180830381865afa925050508015611a43575060408051601f3d908101601f19168201909252611a4091810190614dee565b60015b61162857610b2743612c28565b5f611a5c848484612ca5565b90505b9392505050565b600b545f9015611a8857611a7a600b612d51565b6001600160e01b0316905090565b50600a5490565b611a97610b14565b6001600160a01b0316336001600160a01b031614611af75760405162461bcd60e51b815260206004820152601860248201527f476f7665726e6f723a206f6e6c79476f7665726e616e636500000000000000006044820152606401610366565b30611b00610b14565b6001600160a01b031614611b3c575f8036604051611b1f929190614b2f565b604051809103902090505b80611b356004612113565b03611b2a57505b610cf281612d81565b600c545f828152600d60205260408082205490517fd45c44350000000000000000000000000000000000000000000000000000000081526004810191909152909182916001600160a01b039091169063d45c443590602401602060405180830381865afa158015611bb8573d5f803e3d5ffd5b505050506040513d601f19601f82011682018060405250810190611bdc9190614b76565b905080600114611bec5780611a5f565b5f9392505050565b5f610b2760085490565b611c06610b14565b6001600160a01b0316336001600160a01b031614611c665760405162461bcd60e51b815260206004820152601860248201527f476f7665726e6f723a206f6e6c79476f7665726e616e636500000000000000006044820152606401610366565b30611c6f610b14565b6001600160a01b031614611cab575f8036604051611c8e929190614b2f565b604051809103902090505b80611ca46004612113565b03611c9957505b5f80856001600160a01b0316858585604051611cc8929190614b2f565b5f6040518083038185875af1925050503d805f8114611d02576040519150601f19603f3d011682016040523d82523d5f602084013e611d07565b606091505b5091509150611d2f828260405180606001604052806028815260200161502160289139612df7565b50505050505050565b5f84848484604051602001611d509493929190614e13565b60408051601f19818403018152919052805160209091012095945050505050565b611d79610b14565b6001600160a01b0316336001600160a01b031614611dd95760405162461bcd60e51b815260206004820152601860248201527f476f7665726e6f723a206f6e6c79476f7665726e616e636500000000000000006044820152606401610366565b30611de2610b14565b6001600160a01b031614611e1e575f8036604051611e01929190614b2f565b604051809103902090505b80611e176004612113565b03611e0c57505b610cf281612e10565b5f611a5f8383611e4160408051602081019091525f815290565b612ca5565b611e4e610b14565b6001600160a01b0316336001600160a01b031614611eae5760405162461bcd60e51b815260206004820152601860248201527f476f7665726e6f723a206f6e6c79476f7665726e616e636500000000000000006044820152606401610366565b30611eb7610b14565b6001600160a01b031614611ef3575f8036604051611ed6929190614b2f565b604051809103902090505b80611eec6004612113565b03611ee157505b610cf281612ec6565b5f610b3682612f07565b5f6001600160e01b031982167f6e665ced000000000000000000000000000000000000000000000000000000001480610b365750610b3682612fc7565b5f610b36611f4f6130f8565b836040517f19010000000000000000000000000000000000000000000000000000000000008152600281019290925260228201526042902090565b5f805f611f9987878787613221565b9150915061111d816132de565b5f8581526003602052604081206001611fbe886113e0565b6007811115611fcf57611fcf6146c4565b146120425760405162461bcd60e51b815260206004820152602360248201527f476f7665726e6f723a20766f7465206e6f742063757272656e746c792061637460448201527f69766500000000000000000000000000000000000000000000000000000000006064820152608401610366565b80545f9061205c90889067ffffffffffffffff1686612ca5565b905061206b8888888488613442565b83515f036120bf57866001600160a01b03167fb8e138887d0aa13bab447e82de9d5c1777041ecd21ca36ba824ff1e6c07ddda4898884896040516120b29493929190614e5d565b60405180910390a26113d5565b866001600160a01b03167fe2babfbac5889a709b63bb7f598b324e08bc5a4fb9ec647fb3cbc9ec07eb87128988848989604051612100959493929190614e84565b60405180910390a2979650505050505050565b5f61212d8254600f81810b600160801b909204900b131590565b15612164576040517f3db2a12a00000000000000000000000000000000000000000000000000000000815260040160405180910390fd5b508054600f0b5f818152600180840160205260408220805492905583547fffffffffffffffffffffffffffffffff000000000000000000000000000000001692016fffffffffffffffffffffffffffffffff169190911790915590565b606481111561225e5760405162461bcd60e51b815260206004820152604360248201527f476f7665726e6f72566f74657351756f72756d4672616374696f6e3a2071756f60448201527f72756d4e756d657261746f72206f7665722071756f72756d44656e6f6d696e6160648201527f746f720000000000000000000000000000000000000000000000000000000000608482015260a401610366565b5f612267611a66565b905080158015906122785750600b54155b156122db57604080518082019091525f8152600b906020810161229a846135d3565b6001600160e01b0390811690915282546001810184555f938452602093849020835194909301519091166401000000000263ffffffff909316929092179101555b6123086122f66122e96119c8565b65ffffffffffff166125da565b6122ff846135d3565b600b9190613651565b505060408051828152602081018490527f0553476bf02ef2726e8ce5ced78d63e26e602e4a2257b1f559418e24b4633997910160405180910390a15050565b30612350610b14565b6001600160a01b0316146123e1575f5b84518110156123df57306001600160a01b031685828151811061238557612385614cd4565b60200260200101516001600160a01b0316036123cf576123cf8382815181106123b0576123b0614cd4565b602002602001015180519060200120600461366b90919063ffffffff16565b6123d881614ec9565b9050612360565b505b5050505050565b6123e185858585856136af565b306123fe610b14565b6001600160a01b0316146123e157600454600f81810b600160801b909204900b13156123e1575f6004556123e1565b5f61244e8585858561244960408051602081019091525f815290565b611fa6565b95945050505050565b5f8061246283613737565b90506004816007811115612478576124786146c4565b146124835792915050565b5f838152600d60205260409020548061249d575092915050565b600c546040517f2ab0f529000000000000000000000000000000000000000000000000000000008152600481018390526001600160a01b0390911690632ab0f52990602401602060405180830381865afa1580156124fd573d5f803e3d5ffd5b505050506040513d601f19601f820116820180604052508101906125219190614ee1565b15612530575060079392505050565b600c546040517f584b153e000000000000000000000000000000000000000000000000000000008152600481018390526001600160a01b039091169063584b153e90602401602060405180830381865afa158015612590573d5f803e3d5ffd5b505050506040513d601f19601f820116820180604052508101906125b49190614ee1565b156125c3575060059392505050565b5060029392505050565b5f61244e85858585613873565b5f63ffffffff8211156126555760405162461bcd60e51b815260206004820152602660248201527f53616665436173743a2076616c756520646f65736e27742066697420696e203360448201527f32206269747300000000000000000000000000000000000000000000000000006064820152608401610366565b5090565b81545f90818160058111156126b3575f61267284613935565b61267c9085614cc1565b5f8881526020902090915081015463ffffffff90811690871610156126a3578091506126b1565b6126ae816001614c45565b92505b505b5f6126c087878585613a19565b905080156126fb576126e4876126d7600184614cc1565b5f91825260209091200190565b5464010000000090046001600160e01b03166113d5565b5f979650505050505050565b60065460408051918252602082018390527fc565b045403dc03c2eea82b81a0465edad9e2e7fc4d97e11421c209da93d7a93910160405180910390a1600655565b5f33816127536119c8565b65ffffffffffff169050612765611bf4565b61277483610a5a600185614cc1565b10156127e85760405162461bcd60e51b815260206004820152603160248201527f476f7665726e6f723a2070726f706f73657220766f7465732062656c6f77207060448201527f726f706f73616c207468726573686f6c640000000000000000000000000000006064820152608401610366565b5f6127fc8888888880519060200120611d38565b905086518851146128595760405162461bcd60e51b815260206004820152602160248201527f476f7665726e6f723a20696e76616c69642070726f706f73616c206c656e67746044820152600d60fb1b6064820152608401610366565b85518851146128b45760405162461bcd60e51b815260206004820152602160248201527f476f7665726e6f723a20696e76616c69642070726f706f73616c206c656e67746044820152600d60fb1b6064820152608401610366565b5f8851116129045760405162461bcd60e51b815260206004820152601860248201527f476f7665726e6f723a20656d7074792070726f706f73616c00000000000000006044820152606401610366565b5f8181526003602052604090205467ffffffffffffffff161561298f5760405162461bcd60e51b815260206004820152602160248201527f476f7665726e6f723a2070726f706f73616c20616c726561647920657869737460448201527f73000000000000000000000000000000000000000000000000000000000000006064820152608401610366565b5f612998611127565b6129a29084614c45565b90505f6129ad610b3c565b6129b79083614c45565b90506040518060e001604052806129cd84613a74565b67ffffffffffffffff1681526001600160a01b03871660208201525f60408201526060016129fa83613a74565b67ffffffffffffffff90811682525f60208084018290526040808501839052606094850183905288835260038252918290208551815492870151878501519186166001600160e01b031990941693909317680100000000000000006001600160a01b039094168402176001600160e01b03167c010000000000000000000000000000000000000000000000000000000060e09290921c91909102178155938501516080860151908416921c0217600183015560a08301516002909201805460c09094015161ffff1990941692151561ff00191692909217610100931515939093029290921790558a517f7d84a6263ae0d98d3329bd7b46bb4e8d6f98cd35a7adb45c274c8b7fd5ebd5e091859188918e918e91811115612b1c57612b1c614127565b604051908082528060200260200182016040528015612b4f57816020015b6060815260200190600190039081612b3a5790505b508d88888f604051612b6999989796959493929190614f00565b60405180910390a1509098975050505050505050565b606060ff8314612b9957612b9283613af3565b9050610b36565b818054612ba590614b3e565b80601f0160208091040260200160405190810160405280929190818152602001828054612bd190614b3e565b8015612c1c5780601f10612bf357610100808354040283529160200191612c1c565b820191905f5260205f20905b815481529060010190602001808311612bff57829003601f168201915b50505050509050610b36565b5f65ffffffffffff8211156126555760405162461bcd60e51b815260206004820152602660248201527f53616665436173743a2076616c756520646f65736e27742066697420696e203460448201527f38206269747300000000000000000000000000000000000000000000000000006064820152608401610366565b6040517f3a46b1a80000000000000000000000000000000000000000000000000000000081526001600160a01b038481166004830152602482018490525f917f000000000000000000000000000000000000000000000000000000000000000090911690633a46b1a890604401602060405180830381865afa158015612d2d573d5f803e3d5ffd5b505050506040513d601f19601f82011682018060405250810190611a5c9190614b76565b80545f908015611bec57612d6a836126d7600184614cc1565b5464010000000090046001600160e01b0316611a5f565b600c54604080516001600160a01b03928316815291831660208301527f08f74ea46ef7894f65eabfb5e6e695de773a000b47c529ab559178069b226401910160405180910390a1600c805473ffffffffffffffffffffffffffffffffffffffff19166001600160a01b0392909216919091179055565b60608315612e06575081611a5f565b611a5f8383613b30565b5f8111612e855760405162461bcd60e51b815260206004820152602760248201527f476f7665726e6f7253657474696e67733a20766f74696e6720706572696f642060448201527f746f6f206c6f77000000000000000000000000000000000000000000000000006064820152608401610366565b60075460408051918252602082018390527f7e3f7f0708a84de9203036abaa450dccc85ad5ff52f78c170f3edb55cf5e8828910160405180910390a1600755565b60085460408051918252602082018390527fccb45da8d5717e6c4544694297c4ba5cf151d455c9bb0ed4fc7a38411bc05461910160405180910390a1600855565b5f6064612f138361169c565b6040517f8e539e8c000000000000000000000000000000000000000000000000000000008152600481018590527f00000000000000000000000000000000000000000000000000000000000000006001600160a01b031690638e539e8c90602401602060405180830381865afa158015612f8f573d5f803e3d5ffd5b505050506040513d601f19601f82011682018060405250810190612fb39190614b76565b612fbd9190614fd6565b610b369190615001565b5f7f51159c06000000000000000000000000000000000000000000000000000000007fc6fba1f8000000000000000000000000000000000000000000000000000000007fbf26d897000000000000000000000000000000000000000000000000000000007f79dd796f000000000000000000000000000000000000000000000000000000006001600160e01b0319861682148061307057506001600160e01b0319868116908216145b8061308757506001600160e01b0319868116908516145b806130bb57506001600160e01b031986167f4e2312e000000000000000000000000000000000000000000000000000000000145b8061156357507f01ffc9a7000000000000000000000000000000000000000000000000000000006001600160e01b03198716149695505050505050565b5f306001600160a01b037f00000000000000000000000000000000000000000000000000000000000000001614801561315057507f000000000000000000000000000000000000000000000000000000000000000046145b1561317a57507f000000000000000000000000000000000000000000000000000000000000000090565b610b27604080517f8b73c3c69bb8fe3d512ecc4cf759cc79239f7b179b0ffacaa9a75d522b39400f60208201527f0000000000000000000000000000000000000000000000000000000000000000918101919091527f000000000000000000000000000000000000000000000000000000000000000060608201524660808201523060a08201525f9060c00160405160208183030381529060405280519060200120905090565b5f807f7fffffffffffffffffffffffffffffff5d576e7357a4501ddfe92f46681b20a083111561325657505f905060036132d5565b604080515f8082526020820180845289905260ff881692820192909252606081018690526080810185905260019060a0016020604051602081039080840390855afa1580156132a7573d5f803e3d5ffd5b5050604051601f1901519150506001600160a01b0381166132cf575f600192509250506132d5565b91505f90505b94509492505050565b5f8160048111156132f1576132f16146c4565b036132f95750565b600181600481111561330d5761330d6146c4565b0361335a5760405162461bcd60e51b815260206004820152601860248201527f45434453413a20696e76616c6964207369676e617475726500000000000000006044820152606401610366565b600281600481111561336e5761336e6146c4565b036133bb5760405162461bcd60e51b815260206004820152601f60248201527f45434453413a20696e76616c6964207369676e6174757265206c656e677468006044820152606401610366565b60038160048111156133cf576133cf6146c4565b03610cf25760405162461bcd60e51b815260206004820152602260248201527f45434453413a20696e76616c6964207369676e6174757265202773272076616c60448201527f75650000000000000000000000000000000000000000000000000000000000006064820152608401610366565b5f8581526009602090815260408083206001600160a01b0388168452600381019092529091205460ff16156134df5760405162461bcd60e51b815260206004820152602760248201527f476f7665726e6f72566f74696e6753696d706c653a20766f746520616c72656160448201527f64792063617374000000000000000000000000000000000000000000000000006064820152608401610366565b6001600160a01b0385165f9081526003820160205260409020805460ff1916600117905560ff84166135285782815f015f82825461351d9190614c45565b909155506123df9050565b5f1960ff8516016135465782816001015f82825461351d9190614c45565b60011960ff8516016135655782816002015f82825461351d9190614c45565b60405162461bcd60e51b815260206004820152603560248201527f476f7665726e6f72566f74696e6753696d706c653a20696e76616c696420766160448201527f6c756520666f7220656e756d20566f74655479706500000000000000000000006064820152608401610366565b5f6001600160e01b038211156126555760405162461bcd60e51b815260206004820152602760248201527f53616665436173743a2076616c756520646f65736e27742066697420696e203260448201527f32342062697473000000000000000000000000000000000000000000000000006064820152608401610366565b5f8061365e858585613b5a565b915091505b935093915050565b8154600160801b90819004600f0b5f818152600180860160205260409091209390935583546fffffffffffffffffffffffffffffffff908116939091011602179055565b600c546040517fe38335e50000000000000000000000000000000000000000000000000000000081526001600160a01b039091169063e38335e5903490613702908890889088905f908990600401614b8d565b5f604051808303818588803b158015613719575f80fd5b505af115801561372b573d5f803e3d5ffd5b50505050505050505050565b5f818152600360205260408120600281015460ff161561375a5750600792915050565b6002810154610100900460ff16156137755750600292915050565b5f8381526003602052604081205467ffffffffffffffff16908190036137dd5760405162461bcd60e51b815260206004820152601d60248201527f476f7665726e6f723a20756e6b6e6f776e2070726f706f73616c2069640000006044820152606401610366565b5f6137e66119c8565b65ffffffffffff16905080821061380157505f949350505050565b5f8581526003602052604090206001015467ffffffffffffffff1681811061382f5750600195945050505050565b61383886613cf9565b801561385657505f8681526009602052604090208054600190910154115b156138675750600495945050505050565b50600395945050505050565b5f8061388186868686613d44565b5f818152600d60205260409020549091501561244e57600c545f828152600d6020526040908190205490517fc4d252f50000000000000000000000000000000000000000000000000000000081526001600160a01b039092169163c4d252f5916138f19160040190815260200190565b5f604051808303815f87803b158015613908575f80fd5b505af115801561391a573d5f803e3d5ffd5b5050505f828152600d60205260408120555095945050505050565b5f815f0361394457505f919050565b5f600161395084613e4d565b901c6001901b9050600181848161396957613969614fed565b048201901c9050600181848161398157613981614fed565b048201901c9050600181848161399957613999614fed565b048201901c905060018184816139b1576139b1614fed565b048201901c905060018184816139c9576139c9614fed565b048201901c905060018184816139e1576139e1614fed565b048201901c905060018184816139f9576139f9614fed565b048201901c9050611a5f81828581613a1357613a13614fed565b04613ee0565b5f5b81831015613a6c575f613a2e8484613ef5565b5f8781526020902090915063ffffffff86169082015463ffffffff161115613a5857809250613a66565b613a63816001614c45565b93505b50613a1b565b509392505050565b5f67ffffffffffffffff8211156126555760405162461bcd60e51b815260206004820152602660248201527f53616665436173743a2076616c756520646f65736e27742066697420696e203660448201527f34206269747300000000000000000000000000000000000000000000000000006064820152608401610366565b60605f613aff83613f0f565b6040805160208082528183019092529192505f91906020820181803683375050509182525060208101929092525090565b815115613b405781518083602001fd5b8060405162461bcd60e51b815260040161036691906142f0565b82545f9081908015613ca0575f613b76876126d7600185614cc1565b60408051808201909152905463ffffffff8082168084526401000000009092046001600160e01b031660208401529192509087161015613bf85760405162461bcd60e51b815260206004820152601b60248201527f436865636b706f696e743a2064656372656173696e67206b65797300000000006044820152606401610366565b805163ffffffff808816911603613c415784613c19886126d7600186614cc1565b80546001600160e01b03929092166401000000000263ffffffff909216919091179055613c90565b6040805180820190915263ffffffff80881682526001600160e01b0380881660208085019182528b54600181018d555f8d81529190912094519151909216640100000000029216919091179101555b6020015192508391506136639050565b50506040805180820190915263ffffffff80851682526001600160e01b0380851660208085019182528854600181018a555f8a815291822095519251909316640100000000029190931617920191909155905081613663565b5f81815260096020526040812060028101546001820154613d1a9190614c45565b5f84815260036020526040902054613d3b9067ffffffffffffffff16611efc565b11159392505050565b5f80613d5286868686611d38565b90505f613d5e826113e0565b90506002816007811115613d7457613d746146c4565b14158015613d9457506006816007811115613d9157613d916146c4565b14155b8015613db257506007816007811115613daf57613daf6146c4565b14155b613dfe5760405162461bcd60e51b815260206004820152601d60248201527f476f7665726e6f723a2070726f706f73616c206e6f74206163746976650000006044820152606401610366565b5f8281526003602052604090819020600201805461ff001916610100179055517f789cf55be980739dad1d0699b93b58e806b51c9d96619bfa8fe0a28abaa7b30c90610fec9084815260200190565b5f80608083901c15613e6157608092831c92015b604083901c15613e7357604092831c92015b602083901c15613e8557602092831c92015b601083901c15613e9757601092831c92015b600883901c15613ea957600892831c92015b600483901c15613ebb57600492831c92015b600283901c15613ecd57600292831c92015b600183901c15610b365760010192915050565b5f818310613eee5781611a5f565b5090919050565b5f613f036002848418615001565b611a5f90848416614c45565b5f60ff8216601f811115610b36576040517fb3512b0c00000000000000000000000000000000000000000000000000000000815260040160405180910390fd5b828054828255905f5260205f20908101928215613faf579160200282015b82811115613faf578251825473ffffffffffffffffffffffffffffffffffffffff19166001600160a01b03909116178255602090920191600190910190613f6d565b50612655929150614044565b828054828255905f5260205f20908101928215613faf579160200282015b82811115613faf578251825591602001919060010190613fd9565b828054828255905f5260205f20908101928215614038579160200282015b8281111561403857825182906140289082614d32565b5091602001919060010190614012565b50612655929150614058565b5b80821115612655575f8155600101614045565b80821115612655575f61406b8282614074565b50600101614058565b50805461408090614b3e565b5f825580601f1061408f575050565b601f0160209004905f5260205f2090810190610cf29190614044565b5f602082840312156140bb575f80fd5b81356001600160e01b031981168114611a5f575f80fd5b803560ff81168114611628575f80fd5b5f8083601f8401126140f2575f80fd5b50813567ffffffffffffffff811115614109575f80fd5b602083019150836020828501011115614120575f80fd5b9250929050565b634e487b7160e01b5f52604160045260245ffd5b604051601f8201601f1916810167ffffffffffffffff8111828210171561416457614164614127565b604052919050565b5f67ffffffffffffffff82111561418557614185614127565b50601f01601f191660200190565b5f6141a56141a08461416c565b61413b565b90508281528383830111156141b8575f80fd5b828260208301375f602084830101529392505050565b5f82601f8301126141dd575f80fd5b611a5f83833560208501614193565b5f805f805f805f8060e0898b031215614203575f80fd5b8835975061421360208a016140d2565b9650604089013567ffffffffffffffff8082111561422f575f80fd5b61423b8c838d016140e2565b909850965060608b0135915080821115614253575f80fd5b506142608b828c016141ce565b94505061426f60808a016140d2565b925060a0890135915060c089013590509295985092959890939650565b5f6020828403121561429c575f80fd5b5035919050565b5f5b838110156142bd5781810151838201526020016142a5565b50505f910152565b5f81518084526142dc8160208601602086016142a3565b601f01601f19169290920160200192915050565b602081525f611a5f60208301846142c5565b6001600160a01b0381168114610cf2575f80fd5b5f805f8060808587031215614329575f80fd5b843561433481614302565b9350602085013561434481614302565b925060408501359150606085013567ffffffffffffffff811115614366575f80fd5b614372878288016141ce565b91505092959194509250565b5f67ffffffffffffffff82111561439757614397614127565b5060051b60200190565b5f82601f8301126143b0575f80fd5b813560206143c06141a08361437e565b82815260059290921b840181019181810190868411156143de575f80fd5b8286015b848110156144025780356143f581614302565b83529183019183016143e2565b509695505050505050565b5f82601f83011261441c575f80fd5b8135602061442c6141a08361437e565b82815260059290921b8401810191818101908684111561444a575f80fd5b8286015b84811015614402578035835291830191830161444e565b5f82601f830112614474575f80fd5b813560206144846141a08361437e565b82815260059290921b840181019181810190868411156144a2575f80fd5b8286015b8481101561440257803567ffffffffffffffff8111156144c5575f8081fd5b6144d38986838b01016141ce565b8452509183019183016144a6565b5f805f80608085870312156144f4575f80fd5b843567ffffffffffffffff8082111561450b575f80fd5b614517888389016143a1565b9550602087013591508082111561452c575f80fd5b6145388883890161440d565b9450604087013591508082111561454d575f80fd5b5061455a87828801614465565b949793965093946060013593505050565b5f8151808452602080850194508084015f5b838110156145a25781516001600160a01b03168752958201959082019060010161457d565b509495945050505050565b5f8151808452602080850194508084015f5b838110156145a2578151875295820195908201906001016145bf565b5f81518084526020808501808196508360051b810191508286015f5b8581101561462157828403895261460f8483516142c5565b988501989350908401906001016145f7565b5091979650505050505050565b608081525f614640608083018761456b565b828103602084015261465281876145ad565b9050828103604084015261466681866145db565b905082810360608401526113d581856142c5565b5f805f805f60a0868803121561468e575f80fd5b8535945061469e602087016140d2565b93506146ac604087016140d2565b94979396509394606081013594506080013592915050565b634e487b7160e01b5f52602160045260245ffd5b60208101600883106146f857634e487b7160e01b5f52602160045260245ffd5b91905290565b602081525f611a5f60208301846145ad565b5f8060408385031215614721575f80fd5b82359150602083013561473381614302565b809150509250929050565b5f806040838503121561474f575f80fd5b8235915061475f602084016140d2565b90509250929050565b5f805f805f6080868803121561477c575f80fd5b8535945061478c602087016140d2565b9350604086013567ffffffffffffffff808211156147a8575f80fd5b6147b489838a016140e2565b909550935060608801359150808211156147cc575f80fd5b506147d9888289016141ce565b9150509295509295909350565b5f805f80606085870312156147f9575f80fd5b84359350614809602086016140d2565b9250604085013567ffffffffffffffff811115614824575f80fd5b614830878288016140e2565b95989497509550505050565b5f805f806080858703121561484f575f80fd5b843567ffffffffffffffff80821115614866575f80fd5b614872888389016143a1565b95506020870135915080821115614887575f80fd5b6148938883890161440d565b945060408701359150808211156148a8575f80fd5b6148b488838901614465565b935060608701359150808211156148c9575f80fd5b508501601f810187136148da575f80fd5b61437287823560208401614193565b7fff000000000000000000000000000000000000000000000000000000000000008816815260e060208201525f61492360e08301896142c5565b828103604084015261493581896142c5565b90508660608401526001600160a01b03861660808401528460a084015282810360c0840152610c2e81856145ad565b5f805f60608486031215614976575f80fd5b833561498181614302565b925060208401359150604084013567ffffffffffffffff8111156149a3575f80fd5b6149af868287016141ce565b9150509250925092565b5f602082840312156149c9575f80fd5b8135611a5f81614302565b5f805f805f60a086880312156149e8575f80fd5b85356149f381614302565b94506020860135614a0381614302565b9350604086013567ffffffffffffffff80821115614a1f575f80fd5b614a2b89838a0161440d565b94506060880135915080821115614a40575f80fd5b614a4c89838a0161440d565b935060808801359150808211156147cc575f80fd5b5f805f8060608587031215614a74575f80fd5b8435614a7f81614302565b935060208501359250604085013567ffffffffffffffff811115614824575f80fd5b5f8060408385031215614ab2575f80fd5b8235614abd81614302565b946020939093013593505050565b5f805f805f60a08688031215614adf575f80fd5b8535614aea81614302565b94506020860135614afa81614302565b93506040860135925060608601359150608086013567ffffffffffffffff811115614b23575f80fd5b6147d9888289016141ce565b818382375f9101908152919050565b600181811c90821680614b5257607f821691505b602082108103614b7057634e487b7160e01b5f52602260045260245ffd5b50919050565b5f60208284031215614b86575f80fd5b5051919050565b60a081525f614b9f60a083018861456b565b8281036020840152614bb181886145ad565b90508281036040840152614bc581876145db565b60608401959095525050608001529392505050565b60c081525f614bec60c083018961456b565b8281036020840152614bfe81896145ad565b90508281036040840152614c1281886145db565b60608401969096525050608081019290925260a0909101529392505050565b634e487b7160e01b5f52601160045260245ffd5b80820180821115610b3657610b36614c31565b5f60208284031215614c68575f80fd5b815167ffffffffffffffff811115614c7e575f80fd5b8201601f81018413614c8e575f80fd5b8051614c9c6141a08261416c565b818152856020838501011115614cb0575f80fd5b61244e8260208301602086016142a3565b81810381811115610b3657610b36614c31565b634e487b7160e01b5f52603260045260245ffd5b601f821115614d2d575f81815260208120601f850160051c81016020861015614d0e5750805b601f850160051c820191505b818110156123df57828155600101614d1a565b505050565b815167ffffffffffffffff811115614d4c57614d4c614127565b614d6081614d5a8454614b3e565b84614ce8565b602080601f831160018114614d93575f8415614d7c5750858301515b5f19600386901b1c1916600185901b1785556123df565b5f85815260208120601f198616915b82811015614dc157888601518255948401946001909101908401614da2565b5085821015614dde57878501515f19600388901b60f8161c191681555b5050505050600190811b01905550565b5f60208284031215614dfe575f80fd5b815165ffffffffffff81168114611a5f575f80fd5b608081525f614e25608083018761456b565b8281036020840152614e3781876145ad565b90508281036040840152614e4b81866145db565b91505082606083015295945050505050565b84815260ff84166020820152826040820152608060608201525f61156360808301846142c5565b85815260ff8516602082015283604082015260a060608201525f614eab60a08301856142c5565b8281036080840152614ebd81856142c5565b98975050505050505050565b5f60018201614eda57614eda614c31565b5060010190565b5f60208284031215614ef1575f80fd5b81518015158114611a5f575f80fd5b5f6101208b835260206001600160a01b038c1681850152816040850152614f298285018c61456b565b91508382036060850152614f3d828b6145ad565b915083820360808501528189518084528284019150828160051b850101838c015f5b83811015614f8d57601f19878403018552614f7b8383516142c5565b94860194925090850190600101614f5f565b505086810360a0880152614fa1818c6145db565b9450505050508560c08401528460e0840152828103610100840152614fc681856142c5565b9c9b505050505050505050505050565b8082028115828204841417610b3657610b36614c31565b634e487b7160e01b5f52601260045260245ffd5b5f8261501b57634e487b7160e01b5f52601260045260245ffd5b50049056fe476f7665726e6f723a2072656c617920726576657274656420776974686f7574206d657373616765a26469706673582212203136ba90eca9c61b32cdf652d3435eb8b3ec03b3d6e1a197d931db62f6aa8b9864736f6c63430008140033",
  "linkReferences": {},
  "deployedLinkReferences": {}
}