{
  "_format": "hh-sol-artifact-1",
  "contractName": "PriceConversion",
  "sourceName": "src/backend/contracts/PriceConversion.sol",
  "abi": [
    {
      "inputs": [
        {
          "internalType": "address",
          "name": "_pricefeed",
          "type": "address"
        }
      ],
      "stateMutability": "nonpayable",
      "type": "constructor"
    },
    {
      "inputs": [
        {
          "internalType": "uint256",
          "name": "_amountInUsd",
          "type": "uint256"
        }
      ],
      "name": "UsdtoEth",
      "outputs": [
        {
          "internalType": "uint256",
          "name": "",
          "type": "uint256"
        }
      ],
      "stateMutability": "view",
      "type": "function"
    },
    {
      "inputs": [],
      "name": "getLatestPrice",
      "outputs": [
        {
          "internalType": "uint256",
          "name": "",
          "type": "uint256"
        },
        {
          "internalType": "uint8",
          "name": "",
          "type": "uint8"
        }
      ],
      "stateMutability": "view",
      "type": "function"
    }
  ],
  "bytecode": "0x608060405234801561000f575f80fd5b5060405161055d38038061055d83398101604081905261002e91610052565b5f80546001600160a01b0319166001600160a01b039290921691909117905561007f565b5f60208284031215610062575f80fd5b81516001600160a01b0381168114610078575f80fd5b9392505050565b6104d18061008c5f395ff3fe608060405234801561000f575f80fd5b5060043610610034575f3560e01c80636842e9fb146100385780638e15f4731461005e575b5f80fd5b61004b610046366004610298565b61007d565b6040519081526020015b60405180910390f35b6100666100ce565b6040805192835260ff909116602083015201610055565b5f805f6100886100ce565b90925090506100c66402540be4006100c0846100ba6100a88660026102c3565b6100b390600a6103c6565b8990610206565b9061021a565b90610206565b949350505050565b5f805f805f9054906101000a900473ffffffffffffffffffffffffffffffffffffffff1673ffffffffffffffffffffffffffffffffffffffff1663feaf968c6040518163ffffffff1660e01b815260040160a060405180830381865afa15801561013a573d5f803e3d5ffd5b505050506040513d601f19601f8201168201806040525081019061015e91906103f2565b5050509150505f805f9054906101000a900473ffffffffffffffffffffffffffffffffffffffff1673ffffffffffffffffffffffffffffffffffffffff1663313ce5676040518163ffffffff1660e01b8152600401602060405180830381865afa1580156101ce573d5f803e3d5ffd5b505050506040513d601f19601f820116820180604052508101906101f2919061043e565b90506101fd82610225565b94909350915050565b5f6102118284610465565b90505b92915050565b5f610211828461047c565b5f80821215610294576040517f08c379a000000000000000000000000000000000000000000000000000000000815260206004820181905260248201527f53616665436173743a2076616c7565206d75737420626520706f736974697665604482015260640160405180910390fd5b5090565b5f602082840312156102a8575f80fd5b5035919050565b634e487b7160e01b5f52601160045260245ffd5b60ff81811683821602908116908181146102df576102df6102af565b5092915050565b600181815b8085111561032057815f1904821115610306576103066102af565b8085161561031357918102915b93841c93908002906102eb565b509250929050565b5f8261033657506001610214565b8161034257505f610214565b816001811461035857600281146103625761037e565b6001915050610214565b60ff841115610373576103736102af565b50506001821b610214565b5060208310610133831016604e8410600b84101617156103a1575081810a610214565b6103ab83836102e6565b805f19048211156103be576103be6102af565b029392505050565b5f61021160ff841683610328565b805169ffffffffffffffffffff811681146103ed575f80fd5b919050565b5f805f805f60a08688031215610406575f80fd5b61040f866103d4565b9450602086015193506040860151925060608601519150610432608087016103d4565b90509295509295909350565b5f6020828403121561044e575f80fd5b815160ff8116811461045e575f80fd5b9392505050565b8082028115828204841417610214576102146102af565b5f8261049657634e487b7160e01b5f52601260045260245ffd5b50049056fea26469706673582212206b92e6964befe73df2ffe6ca7b8f5500873e790b0c8fb0db2d8b59b3e4d892f764736f6c63430008140033",
  "linkReferences": {},
  "deployedLinkReferences": {}
}