{
  "_format": "hh-sol-artifact-1",
  "contractName": "AutomatedFunctionsConsumer",
  "sourceName": "src/backend/contracts/AutomatedFunctionsConsumer.sol",
  "abi": [
    {
      "inputs": [
        {
          "internalType": "address",
          "name": "oracle",
          "type": "address"
        },
        {
          "internalType": "uint64",
          "name": "_subscriptionId",
          "type": "uint64"
        },
        {
          "internalType": "uint32",
          "name": "_fulfillGasLimit",
          "type": "uint32"
        },
        {
          "internalType": "uint256",
          "name": "_updateInterval",
          "type": "uint256"
        }
      ],
      "stateMutability": "nonpayable",
      "type": "constructor"
    },
    {
      "inputs": [],
      "name": "EmptyArgs",
      "type": "error"
    },
    {
      "inputs": [],
      "name": "EmptySecrets",
      "type": "error"
    },
    {
      "inputs": [],
      "name": "EmptySource",
      "type": "error"
    },
    {
      "inputs": [],
      "name": "NoInlineSecrets",
      "type": "error"
    },
    {
      "inputs": [],
      "name": "RequestIsAlreadyPending",
      "type": "error"
    },
    {
      "inputs": [],
      "name": "RequestIsNotPending",
      "type": "error"
    },
    {
      "inputs": [],
      "name": "SenderIsNotRegistry",
      "type": "error"
    },
    {
      "anonymous": false,
      "inputs": [
        {
          "indexed": true,
          "internalType": "bytes32",
          "name": "requestId",
          "type": "bytes32"
        },
        {
          "indexed": false,
          "internalType": "bytes",
          "name": "result",
          "type": "bytes"
        },
        {
          "indexed": false,
          "internalType": "bytes",
          "name": "err",
          "type": "bytes"
        }
      ],
      "name": "OCRResponse",
      "type": "event"
    },
    {
      "anonymous": false,
      "inputs": [
        {
          "indexed": true,
          "internalType": "address",
          "name": "from",
          "type": "address"
        },
        {
          "indexed": true,
          "internalType": "address",
          "name": "to",
          "type": "address"
        }
      ],
      "name": "OwnershipTransferRequested",
      "type": "event"
    },
    {
      "anonymous": false,
      "inputs": [
        {
          "indexed": true,
          "internalType": "address",
          "name": "from",
          "type": "address"
        },
        {
          "indexed": true,
          "internalType": "address",
          "name": "to",
          "type": "address"
        }
      ],
      "name": "OwnershipTransferred",
      "type": "event"
    },
    {
      "anonymous": false,
      "inputs": [
        {
          "indexed": true,
          "internalType": "bytes32",
          "name": "id",
          "type": "bytes32"
        }
      ],
      "name": "RequestFulfilled",
      "type": "event"
    },
    {
      "anonymous": false,
      "inputs": [
        {
          "indexed": true,
          "internalType": "bytes32",
          "name": "id",
          "type": "bytes32"
        }
      ],
      "name": "RequestSent",
      "type": "event"
    },
    {
      "inputs": [],
      "name": "acceptOwnership",
      "outputs": [],
      "stateMutability": "nonpayable",
      "type": "function"
    },
    {
      "inputs": [
        {
          "internalType": "bytes",
          "name": "",
          "type": "bytes"
        }
      ],
      "name": "checkUpkeep",
      "outputs": [
        {
          "internalType": "bool",
          "name": "upkeepNeeded",
          "type": "bool"
        },
        {
          "internalType": "bytes",
          "name": "",
          "type": "bytes"
        }
      ],
      "stateMutability": "view",
      "type": "function"
    },
    {
      "inputs": [
        {
          "components": [
            {
              "internalType": "enum Functions.Location",
              "name": "codeLocation",
              "type": "uint8"
            },
            {
              "internalType": "enum Functions.Location",
              "name": "secretsLocation",
              "type": "uint8"
            },
            {
              "internalType": "enum Functions.CodeLanguage",
              "name": "language",
              "type": "uint8"
            },
            {
              "internalType": "string",
              "name": "source",
              "type": "string"
            },
            {
              "internalType": "bytes",
              "name": "secrets",
              "type": "bytes"
            },
            {
              "internalType": "string[]",
              "name": "args",
              "type": "string[]"
            }
          ],
          "internalType": "struct Functions.Request",
          "name": "req",
          "type": "tuple"
        },
        {
          "internalType": "uint64",
          "name": "subscriptionId",
          "type": "uint64"
        },
        {
          "internalType": "uint32",
          "name": "gasLimit",
          "type": "uint32"
        },
        {
          "internalType": "uint256",
          "name": "gasPrice",
          "type": "uint256"
        }
      ],
      "name": "estimateCost",
      "outputs": [
        {
          "internalType": "uint96",
          "name": "",
          "type": "uint96"
        }
      ],
      "stateMutability": "view",
      "type": "function"
    },
    {
      "inputs": [],
      "name": "fulfillGasLimit",
      "outputs": [
        {
          "internalType": "uint32",
          "name": "",
          "type": "uint32"
        }
      ],
      "stateMutability": "view",
      "type": "function"
    },
    {
      "inputs": [
        {
          "internalType": "string",
          "name": "source",
          "type": "string"
        },
        {
          "internalType": "bytes",
          "name": "secrets",
          "type": "bytes"
        },
        {
          "internalType": "string[]",
          "name": "args",
          "type": "string[]"
        }
      ],
      "name": "generateRequest",
      "outputs": [
        {
          "internalType": "bytes",
          "name": "",
          "type": "bytes"
        }
      ],
      "stateMutability": "pure",
      "type": "function"
    },
    {
      "inputs": [],
      "name": "getDONPublicKey",
      "outputs": [
        {
          "internalType": "bytes",
          "name": "",
          "type": "bytes"
        }
      ],
      "stateMutability": "view",
      "type": "function"
    },
    {
      "inputs": [
        {
          "internalType": "bytes32",
          "name": "requestId",
          "type": "bytes32"
        },
        {
          "internalType": "bytes",
          "name": "response",
          "type": "bytes"
        },
        {
          "internalType": "bytes",
          "name": "err",
          "type": "bytes"
        }
      ],
      "name": "handleOracleFulfillment",
      "outputs": [],
      "stateMutability": "nonpayable",
      "type": "function"
    },
    {
      "inputs": [],
      "name": "lastUpkeepTimeStamp",
      "outputs": [
        {
          "internalType": "uint256",
          "name": "",
          "type": "uint256"
        }
      ],
      "stateMutability": "view",
      "type": "function"
    },
    {
      "inputs": [],
      "name": "latestError",
      "outputs": [
        {
          "internalType": "bytes",
          "name": "",
          "type": "bytes"
        }
      ],
      "stateMutability": "view",
      "type": "function"
    },
    {
      "inputs": [],
      "name": "latestRequestId",
      "outputs": [
        {
          "internalType": "bytes32",
          "name": "",
          "type": "bytes32"
        }
      ],
      "stateMutability": "view",
      "type": "function"
    },
    {
      "inputs": [],
      "name": "latestResponse",
      "outputs": [
        {
          "internalType": "bytes",
          "name": "",
          "type": "bytes"
        }
      ],
      "stateMutability": "view",
      "type": "function"
    },
    {
      "inputs": [],
      "name": "owner",
      "outputs": [
        {
          "internalType": "address",
          "name": "",
          "type": "address"
        }
      ],
      "stateMutability": "view",
      "type": "function"
    },
    {
      "inputs": [
        {
          "internalType": "bytes",
          "name": "",
          "type": "bytes"
        }
      ],
      "name": "performUpkeep",
      "outputs": [],
      "stateMutability": "nonpayable",
      "type": "function"
    },
    {
      "inputs": [],
      "name": "requestCBOR",
      "outputs": [
        {
          "internalType": "bytes",
          "name": "",
          "type": "bytes"
        }
      ],
      "stateMutability": "view",
      "type": "function"
    },
    {
      "inputs": [],
      "name": "responseCounter",
      "outputs": [
        {
          "internalType": "uint256",
          "name": "",
          "type": "uint256"
        }
      ],
      "stateMutability": "view",
      "type": "function"
    },
    {
      "inputs": [
        {
          "internalType": "uint64",
          "name": "_subscriptionId",
          "type": "uint64"
        },
        {
          "internalType": "uint32",
          "name": "_fulfillGasLimit",
          "type": "uint32"
        },
        {
          "internalType": "uint256",
          "name": "_updateInterval",
          "type": "uint256"
        },
        {
          "internalType": "bytes",
          "name": "newRequestCBOR",
          "type": "bytes"
        }
      ],
      "name": "setRequest",
      "outputs": [],
      "stateMutability": "nonpayable",
      "type": "function"
    },
    {
      "inputs": [],
      "name": "subscriptionId",
      "outputs": [
        {
          "internalType": "uint64",
          "name": "",
          "type": "uint64"
        }
      ],
      "stateMutability": "view",
      "type": "function"
    },
    {
      "inputs": [
        {
          "internalType": "address",
          "name": "to",
          "type": "address"
        }
      ],
      "name": "transferOwnership",
      "outputs": [],
      "stateMutability": "nonpayable",
      "type": "function"
    },
    {
      "inputs": [],
      "name": "updateInterval",
      "outputs": [
        {
          "internalType": "uint256",
          "name": "",
          "type": "uint256"
        }
      ],
      "stateMutability": "view",
      "type": "function"
    },
    {
      "inputs": [
        {
          "internalType": "address",
          "name": "oracle",
          "type": "address"
        }
      ],
      "name": "updateOracleAddress",
      "outputs": [],
      "stateMutability": "nonpayable",
      "type": "function"
    },
    {
      "inputs": [],
      "name": "upkeepCounter",
      "outputs": [
        {
          "internalType": "uint256",
          "name": "",
          "type": "uint256"
        }
      ],
      "stateMutability": "view",
      "type": "function"
    }
  ],
  "bytecode": "0x608060405234801562000010575f80fd5b5060405162002165380380620021658339810160408190526200003391620001d1565b5f80546001600160a01b0319166001600160a01b038616178155339081906001600160a01b038216620000ad5760405162461bcd60e51b815260206004820152601860248201527f43616e6e6f7420736574206f776e657220746f207a65726f000000000000000060448201526064015b60405180910390fd5b600280546001600160a01b0319166001600160a01b0384811691909117909155811615620000e057620000e08162000126565b5050506009556008805463ffffffff90921668010000000000000000026001600160601b03199092166001600160401b03909316929092171790555042600a5562000243565b336001600160a01b03821603620001805760405162461bcd60e51b815260206004820152601760248201527f43616e6e6f74207472616e7366657220746f2073656c660000000000000000006044820152606401620000a4565b600380546001600160a01b0319166001600160a01b03838116918217909255600254604051919216907fed8889f560326eb138920d842192f0eb3dd22b4f139c87a2c57538e05bae1278905f90a350565b5f805f8060808587031215620001e5575f80fd5b84516001600160a01b0381168114620001fc575f80fd5b60208601519094506001600160401b038116811462000219575f80fd5b604086015190935063ffffffff8116811462000233575f80fd5b6060959095015193969295505050565b611f1480620002515f395ff3fe608060405234801561000f575f80fd5b506004361061016e575f3560e01c80638da5cb5b116100d2578063eb197c7711610088578063fd2c80ae11610063578063fd2c80ae14610301578063fe0830121461030a578063fffeb84e1461031d575f80fd5b8063eb197c77146102c8578063f2fde38b146102db578063f7023bb6146102ee575f80fd5b8063bef3a2f0116100b8578063bef3a2f014610288578063d328a91e14610290578063d4b3917514610298575f80fd5b80638da5cb5b14610264578063a3d3c0d21461027f575f80fd5b8063381fc4b511610127578063688ecfd11161010d578063688ecfd1146102265780636e04ff0d1461023b57806379ba50971461025c575f80fd5b8063381fc4b51461020a5780634585e33b14610213575f80fd5b80630ca76175116101575780630ca76175146101bb5780631aa46f59146101d057806324b93e3e146101d9575f80fd5b8063089ea02e1461017257806309c1ba2e1461018e575b5f80fd5b61017b600a5481565b6040519081526020015b60405180910390f35b6008546101a29067ffffffffffffffff1681565b60405167ffffffffffffffff9091168152602001610185565b6101ce6101c936600461148e565b610325565b005b61017b60055481565b6008546101f59068010000000000000000900463ffffffff1681565b60405163ffffffff9091168152602001610185565b61017b600c5481565b6101ce61022136600461153b565b6103c9565b61022e6105c7565b60405161018591906115c7565b61024e6102493660046115d9565b610653565b60405161018592919061160b565b6101ce61066f565b6002546040516001600160a01b039091168152602001610185565b61017b600b5481565b61022e610723565b61022e610730565b6102ab6102a6366004611710565b6107bb565b6040516bffffffffffffffffffffffff9091168152602001610185565b6101ce6102d636600461181a565b610841565b6101ce6102e9366004611898565b610899565b6101ce6102fc366004611898565b6108ad565b61017b60095481565b61022e6103183660046118b3565b6108d2565b61022e6109c6565b5f8381526001602052604090205483906001600160a01b03163314610376576040517fa0c5ec6300000000000000000000000000000000000000000000000000000000815260040160405180910390fd5b5f8181526001602052604080822080546001600160a01b03191690555182917f85e1543bf2f84fe80c6badbce3648c8539ad1df4d2b3d822938ca0538be727e691a26103c38484846109d3565b50505050565b5f6103e160405180602001604052805f815250610653565b509050806104365760405162461bcd60e51b815260206004820152601560248201527f54696d6520696e74657276616c206e6f74206d6574000000000000000000000060448201526064015b60405180910390fd5b42600a55600b54610448906001611986565b600b555f80546008546040517f28242b040000000000000000000000000000000000000000000000000000000081526001600160a01b03909216916328242b04916104b79167ffffffffffffffff8216916004916801000000000000000090910463ffffffff169082016119d1565b6020604051808303815f875af11580156104d3573d5f803e3d5ffd5b505050506040513d601f19601f820116820180604052508101906104f79190611a73565b90505f8054906101000a90046001600160a01b03166001600160a01b0316635ab1bd536040518163ffffffff1660e01b8152600401602060405180830381865afa158015610547573d5f803e3d5ffd5b505050506040513d601f19601f8201168201806040525081019061056b9190611a8a565b5f8281526001602052604080822080546001600160a01b0319166001600160a01b039490941693909317909255905182917f1131472297a800fee664d1d89cfa8f7676ff07189ecc53f80bbb5f4969099db891a2600555505050565b600480546105d490611999565b80601f016020809104026020016040519081016040528092919081815260200182805461060090611999565b801561064b5780601f106106225761010080835404028352916020019161064b565b820191905f5260205f20905b81548152906001019060200180831161062e57829003601f168201915b505050505081565b5f6060600954600a54426106679190611aa5565b119150915091565b6003546001600160a01b031633146106c95760405162461bcd60e51b815260206004820152601660248201527f4d7573742062652070726f706f736564206f776e657200000000000000000000604482015260640161042d565b600280546001600160a01b0319808216339081179093556003805490911690556040516001600160a01b03909116919082907f8be0079c531659141344cd1fd0a4f28419497f9722a3daafe3b4186f6b6457e0905f90a350565b600680546105d490611999565b5f8054604080517fd328a91e00000000000000000000000000000000000000000000000000000000815290516060936001600160a01b039093169263d328a91e92600480820193918290030181865afa15801561078f573d5f803e3d5ffd5b505050506040513d5f823e601f3d908101601f191682016040526107b69190810190611ab8565b905090565b5f80546001600160a01b031663d227d245856107d688610a3f565b86866040518563ffffffff1660e01b81526004016107f79493929190611b2a565b602060405180830381865afa158015610812573d5f803e3d5ffd5b505050506040513d601f19601f820116820180604052508101906108369190611b65565b90505b949350505050565b610849610d06565b60098390556008805463ffffffff861668010000000000000000026bffffffffffffffffffffffff1990911667ffffffffffffffff8816171790556004610891828483611bd5565b505050505050565b6108a1610d06565b6108aa81610d62565b50565b6108b5610d06565b5f80546001600160a01b0319166001600160a01b03831617905550565b606061090b6040805160c08101909152805f81526020015f81526020015f81526020016060815260200160608152602001606081525090565b6109505f808a8a8080601f0160208091040260200160405190810160405280939291908181526020018383808284375f9201919091525087959493925050610e0b9050565b84156109975761099786868080601f0160208091040260200160405190810160405280939291908181526020018383808284375f920191909152508593925050610ea19050565b82156109b1576109b16109aa8486611c91565b8290610eea565b6109ba81610a3f565b98975050505050505050565b600780546105d490611999565b60066109df8382611c9d565b5060076109ec8282611c9d565b50600c546109fb906001611986565b600c5560405183907f7bab0ec163b5c132c72b8146ac4d6e067e82ed58f8b131150aa71c925891156290610a329085908590611d59565b60405180910390a2505050565b6060610a49611374565b8051610a5790610100610f2c565b50610a97816040518060400160405280600c81526020017f636f64654c6f636174696f6e0000000000000000000000000000000000000000815250610fa3565b610ab581845f01516001811115610ab057610ab0611d7d565b610fc1565b610af4816040518060400160405280600881526020017f6c616e6775616765000000000000000000000000000000000000000000000000815250610fa3565b610b0d8184604001515f811115610ab057610ab0611d7d565b610b4c816040518060400160405280600681526020017f736f757263650000000000000000000000000000000000000000000000000000815250610fa3565b610b5a818460600151610fa3565b60a08301515115610bff57610ba4816040518060400160405280600481526020017f6172677300000000000000000000000000000000000000000000000000000000815250610fa3565b610bad81610ffe565b5f5b8360a0015151811015610bf557610be3828560a001518381518110610bd657610bd6611d91565b6020026020010151610fa3565b80610bed81611da5565b915050610baf565b50610bff81611022565b60808301515115610cfe575f83602001516001811115610c2157610c21611d7d565b03610c58576040517fa80d31f700000000000000000000000000000000000000000000000000000000815260040160405180910390fd5b610c97816040518060400160405280600f81526020017f736563726574734c6f636174696f6e0000000000000000000000000000000000815250610fa3565b610cb18184602001516001811115610ab057610ab0611d7d565b610cf0816040518060400160405280600781526020017f7365637265747300000000000000000000000000000000000000000000000000815250610fa3565b610cfe818460800151611040565b515192915050565b6002546001600160a01b03163314610d605760405162461bcd60e51b815260206004820152601660248201527f4f6e6c792063616c6c61626c65206279206f776e657200000000000000000000604482015260640161042d565b565b336001600160a01b03821603610dba5760405162461bcd60e51b815260206004820152601760248201527f43616e6e6f74207472616e7366657220746f2073656c66000000000000000000604482015260640161042d565b600380546001600160a01b0319166001600160a01b03838116918217909255600254604051919216907fed8889f560326eb138920d842192f0eb3dd22b4f139c87a2c57538e05bae1278905f90a350565b80515f03610e45576040517f22ce3edd00000000000000000000000000000000000000000000000000000000815260040160405180910390fd5b83836001811115610e5857610e58611d7d565b90816001811115610e6b57610e6b611d7d565b90525060408401828015610e8157610e81611d7d565b90818015610e9157610e91611d7d565b9052506060909301929092525050565b80515f03610edb576040517fe889636f00000000000000000000000000000000000000000000000000000000815260040160405180910390fd5b60016020830152608090910152565b80515f03610f24576040517ffe936cb700000000000000000000000000000000000000000000000000000000815260040160405180910390fd5b60a090910152565b60408051808201909152606081525f6020820152610f4b602083611dbd565b15610f7357610f5b602083611dbd565b610f66906020611aa5565b610f709083611986565b91505b60208084018390526040518085525f8152908184010181811015610f95575f80fd5b604052508290505b92915050565b610fb08260038351611049565b8151610fbc908261116a565b505050565b8151610fce9060c2611191565b50610ffa8282604051602001610fe691815260200190565b604051602081830303815290604052611040565b5050565b6110098160046111f8565b60018160200181815161101c9190611986565b90525050565b61102d8160076111f8565b60018160200181815161101c9190611aa5565b610fb082600283515b60178167ffffffffffffffff16116110705782516103c39060e0600585901b168317611191565b60ff8167ffffffffffffffff16116110b2578251611099906018611fe0600586901b1617611191565b5082516103c39067ffffffffffffffff8316600161120f565b61ffff8167ffffffffffffffff16116110f55782516110dc906019611fe0600586901b1617611191565b5082516103c39067ffffffffffffffff8316600261120f565b63ffffffff8167ffffffffffffffff161161113a57825161112190601a611fe0600586901b1617611191565b5082516103c39067ffffffffffffffff8316600461120f565b825161115190601b611fe0600586901b1617611191565b5082516103c39067ffffffffffffffff8316600861120f565b60408051808201909152606081525f602082015261118a83838451611291565b9392505050565b60408051808201909152606081525f60208201528251515f6111b4826001611986565b9050846020015182106111d5576111d5856111d0836002611ddc565b61135d565b84516020838201018581535080518211156111ee578181525b5093949350505050565b8151610fbc90601f611fe0600585901b1617611191565b60408051808201909152606081525f60208201528351515f6112318285611986565b9050856020015181111561124e5761124e866111d0836002611ddc565b5f600161125d86610100611ed3565b6112679190611aa5565b90508651828101878319825116178152508051831115611285578281525b50959695505050505050565b60408051808201909152606081525f602082015282518211156112b2575f80fd5b8351515f6112c08483611986565b905085602001518111156112dd576112dd866111d0836002611ddc565b85518051838201602001915f91808511156112f6578482525b505050602086015b602086106113365780518252611315602083611986565b9150611322602082611986565b905061132f602087611aa5565b95506112fe565b5181515f1960208890036101000a0190811690199190911617905250849150509392505050565b81516113698383610f2c565b506103c3838261116a565b604051806040016040528061139b6040518060400160405280606081526020015f81525090565b81526020015f81525090565b634e487b7160e01b5f52604160045260245ffd5b60405160c0810167ffffffffffffffff811182821017156113de576113de6113a7565b60405290565b604051601f8201601f1916810167ffffffffffffffff8111828210171561140d5761140d6113a7565b604052919050565b5f67ffffffffffffffff82111561142e5761142e6113a7565b50601f01601f191660200190565b5f82601f83011261144b575f80fd5b813561145e61145982611415565b6113e4565b818152846020838601011115611472575f80fd5b816020850160208301375f918101602001919091529392505050565b5f805f606084860312156114a0575f80fd5b83359250602084013567ffffffffffffffff808211156114be575f80fd5b6114ca8783880161143c565b935060408601359150808211156114df575f80fd5b506114ec8682870161143c565b9150509250925092565b5f8083601f840112611506575f80fd5b50813567ffffffffffffffff81111561151d575f80fd5b602083019150836020828501011115611534575f80fd5b9250929050565b5f806020838503121561154c575f80fd5b823567ffffffffffffffff811115611562575f80fd5b61156e858286016114f6565b90969095509350505050565b5f5b8381101561159457818101518382015260200161157c565b50505f910152565b5f81518084526115b381602086016020860161157a565b601f01601f19169290920160200192915050565b602081525f61118a602083018461159c565b5f602082840312156115e9575f80fd5b813567ffffffffffffffff8111156115ff575f80fd5b6108398482850161143c565b8215158152604060208201525f610839604083018461159c565b803560028110611633575f80fd5b919050565b803560018110611633575f80fd5b5f67ffffffffffffffff80841115611660576116606113a7565b8360051b60206116718183016113e4565b86815293509084019080840187831115611689575f80fd5b855b838110156116bc578035858111156116a2575f8081fd5b6116ae8a828a0161143c565b83525090820190820161168b565b50505050509392505050565b5f82601f8301126116d7575f80fd5b61118a83833560208501611646565b803567ffffffffffffffff81168114611633575f80fd5b803563ffffffff81168114611633575f80fd5b5f805f8060808587031215611723575f80fd5b843567ffffffffffffffff8082111561173a575f80fd5b9086019060c0828903121561174d575f80fd5b6117556113bb565b61175e83611625565b815261176c60208401611625565b602082015261177d60408401611638565b6040820152606083013582811115611793575f80fd5b61179f8a82860161143c565b6060830152506080830135828111156117b6575f80fd5b6117c28a82860161143c565b60808301525060a0830135828111156117d9575f80fd5b6117e58a8286016116c8565b60a08301525095506117fc915050602086016116e6565b925061180a604086016116fd565b9396929550929360600135925050565b5f805f805f6080868803121561182e575f80fd5b611837866116e6565b9450611845602087016116fd565b935060408601359250606086013567ffffffffffffffff811115611867575f80fd5b611873888289016114f6565b969995985093965092949392505050565b6001600160a01b03811681146108aa575f80fd5b5f602082840312156118a8575f80fd5b813561118a81611884565b5f805f805f80606087890312156118c8575f80fd5b863567ffffffffffffffff808211156118df575f80fd5b6118eb8a838b016114f6565b90985096506020890135915080821115611903575f80fd5b61190f8a838b016114f6565b90965094506040890135915080821115611927575f80fd5b818901915089601f83011261193a575f80fd5b813581811115611948575f80fd5b8a60208260051b850101111561195c575f80fd5b6020830194508093505050509295509295509295565b634e487b7160e01b5f52601160045260245ffd5b80820180821115610f9d57610f9d611972565b600181811c908216806119ad57607f821691505b6020821081036119cb57634e487b7160e01b5f52602260045260245ffd5b50919050565b67ffffffffffffffff841681525f60206060818401525f85546119f381611999565b806060870152608060018084165f8114611a145760018114611a2e57611a59565b60ff1985168984015283151560051b890183019550611a59565b8a5f52865f205f5b85811015611a515781548b8201860152908301908801611a36565b8a0184019650505b5050505063ffffffff861660408601525091506108399050565b5f60208284031215611a83575f80fd5b5051919050565b5f60208284031215611a9a575f80fd5b815161118a81611884565b81810381811115610f9d57610f9d611972565b5f60208284031215611ac8575f80fd5b815167ffffffffffffffff811115611ade575f80fd5b8201601f81018413611aee575f80fd5b8051611afc61145982611415565b818152856020838501011115611b10575f80fd5b611b2182602083016020860161157a565b95945050505050565b67ffffffffffffffff85168152608060208201525f611b4c608083018661159c565b63ffffffff949094166040830152506060015292915050565b5f60208284031215611b75575f80fd5b81516bffffffffffffffffffffffff8116811461118a575f80fd5b601f821115610fbc575f81815260208120601f850160051c81016020861015611bb65750805b601f850160051c820191505b8181101561089157828155600101611bc2565b67ffffffffffffffff831115611bed57611bed6113a7565b611c0183611bfb8354611999565b83611b90565b5f601f841160018114611c32575f8515611c1b5750838201355b5f19600387901b1c1916600186901b178355611c8a565b5f83815260209020601f19861690835b82811015611c625786850135825560209485019460019092019101611c42565b5086821015611c7e575f1960f88860031b161c19848701351681555b505060018560011b0183555b5050505050565b5f61118a368484611646565b815167ffffffffffffffff811115611cb757611cb76113a7565b611ccb81611cc58454611999565b84611b90565b602080601f831160018114611cfe575f8415611ce75750858301515b5f19600386901b1c1916600185901b178555610891565b5f85815260208120601f198616915b82811015611d2c57888601518255948401946001909101908401611d0d565b5085821015611d4957878501515f19600388901b60f8161c191681555b5050505050600190811b01905550565b604081525f611d6b604083018561159c565b8281036020840152611b21818561159c565b634e487b7160e01b5f52602160045260245ffd5b634e487b7160e01b5f52603260045260245ffd5b5f60018201611db657611db6611972565b5060010190565b5f82611dd757634e487b7160e01b5f52601260045260245ffd5b500690565b8082028115828204841417610f9d57610f9d611972565b600181815b80851115611e2d57815f1904821115611e1357611e13611972565b80851615611e2057918102915b93841c9390800290611df8565b509250929050565b5f82611e4357506001610f9d565b81611e4f57505f610f9d565b8160018114611e655760028114611e6f57611e8b565b6001915050610f9d565b60ff841115611e8057611e80611972565b50506001821b610f9d565b5060208310610133831016604e8410600b8410161715611eae575081810a610f9d565b611eb88383611df3565b805f1904821115611ecb57611ecb611972565b029392505050565b5f61118a8383611e3556fea2646970667358221220c01fd0a41a17bed8313e3e57f29e1ac29ce3c3fc68b5199d1d7cb61e9c40e11f64736f6c63430008140033",
  "linkReferences": {},
  "deployedLinkReferences": {}
}