{
  "_format": "hh-sol-artifact-1",
  "contractName": "Handler",
  "sourceName": "src/backend/contracts/Handler.sol",
  "abi": [
    {
      "inputs": [],
      "stateMutability": "nonpayable",
      "type": "constructor"
    },
    {
      "anonymous": false,
      "inputs": [
        {
          "indexed": true,
          "internalType": "address",
          "name": "sender",
          "type": "address"
        },
        {
          "indexed": false,
          "internalType": "uint256",
          "name": "amount",
          "type": "uint256"
        }
      ],
      "name": "AddedFunds",
      "type": "event"
    },
    {
      "anonymous": false,
      "inputs": [
        {
          "indexed": true,
          "internalType": "address",
          "name": "previousOwner",
          "type": "address"
        },
        {
          "indexed": true,
          "internalType": "address",
          "name": "newOwner",
          "type": "address"
        }
      ],
      "name": "OwnershipTransferred",
      "type": "event"
    },
    {
      "inputs": [
        {
          "internalType": "uint256",
          "name": "level",
          "type": "uint256"
        }
      ],
      "name": "calculateWithdrawalThreshold",
      "outputs": [
        {
          "internalType": "uint256",
          "name": "",
          "type": "uint256"
        }
      ],
      "stateMutability": "view",
      "type": "function"
    },
    {
      "inputs": [],
      "name": "owner",
      "outputs": [
        {
          "internalType": "address",
          "name": "",
          "type": "address"
        }
      ],
      "stateMutability": "view",
      "type": "function"
    },
    {
      "inputs": [
        {
          "internalType": "address",
          "name": "creator",
          "type": "address"
        },
        {
          "internalType": "address",
          "name": "appreciator",
          "type": "address"
        }
      ],
      "name": "receiveAmount",
      "outputs": [
        {
          "internalType": "bool",
          "name": "",
          "type": "bool"
        }
      ],
      "stateMutability": "payable",
      "type": "function"
    },
    {
      "inputs": [],
      "name": "renounceOwnership",
      "outputs": [],
      "stateMutability": "nonpayable",
      "type": "function"
    },
    {
      "inputs": [
        {
          "internalType": "address",
          "name": "_priceConversionAddr",
          "type": "address"
        }
      ],
      "name": "setPriceConversion",
      "outputs": [],
      "stateMutability": "nonpayable",
      "type": "function"
    },
    {
      "inputs": [
        {
          "internalType": "address",
          "name": "_userRegistryAddr",
          "type": "address"
        }
      ],
      "name": "setUserRegistry",
      "outputs": [],
      "stateMutability": "nonpayable",
      "type": "function"
    },
    {
      "inputs": [
        {
          "internalType": "address",
          "name": "_variables",
          "type": "address"
        }
      ],
      "name": "setVariables",
      "outputs": [],
      "stateMutability": "nonpayable",
      "type": "function"
    },
    {
      "inputs": [
        {
          "internalType": "address",
          "name": "newOwner",
          "type": "address"
        }
      ],
      "name": "transferOwnership",
      "outputs": [],
      "stateMutability": "nonpayable",
      "type": "function"
    },
    {
      "inputs": [
        {
          "internalType": "address",
          "name": "creator",
          "type": "address"
        }
      ],
      "name": "withdraw",
      "outputs": [
        {
          "internalType": "bool",
          "name": "",
          "type": "bool"
        }
      ],
      "stateMutability": "payable",
      "type": "function"
    },
    {
      "stateMutability": "payable",
      "type": "receive"
    }
  ],
  "bytecode": "0x608060405234801561000f575f80fd5b506100193361001e565b61006d565b5f80546001600160a01b038381166001600160a01b0319831681178455604051919092169283917f8be0079c531659141344cd1fd0a4f28419497f9722a3daafe3b4186f6b6457e09190a35050565b610fd28061007a5f395ff3fe608060405260043610610096575f3560e01c8063775bac5a11610066578063b0d5451b1161004c578063b0d5451b14610199578063b6e6619a146101b8578063f2fde38b146101d7575f80fd5b8063775bac5a146101465780638da5cb5b14610173575f80fd5b80632594c0f5146100d65780632c9eb8c9146100fe57806351cff8d91461011f578063715018a614610132575f80fd5b366100d25760405134815233907fb2c1ef1af6f22387bff22e29c3ccbfb9bb09a36d60cd676e7a2ad40cf87659259060200160405180910390a2005b5f80fd5b6100e96100e4366004610b8d565b6101f6565b60405190151581526020015b60405180910390f35b348015610109575f80fd5b5061011d610118366004610bbe565b610512565b005b6100e961012d366004610bbe565b610549565b34801561013d575f80fd5b5061011d610871565b348015610151575f80fd5b50610165610160366004610bde565b610884565b6040519081526020016100f5565b34801561017e575f80fd5b505f546040516001600160a01b0390911681526020016100f5565b3480156101a4575f80fd5b5061011d6101b3366004610bbe565b6109bf565b3480156101c3575f80fd5b5061011d6101d2366004610bbe565b6109f6565b3480156101e2575f80fd5b5061011d6101f1366004610bbe565b610a2d565b60015460405163cc3d967b60e01b81526001600160a01b0384811660048301525f92839291169063cc3d967b906024015f60405180830381865afa158015610240573d5f803e3d5ffd5b505050506040513d5f823e601f3d908101601f191682016040526102679190810190610cf3565b6040015190505f8161027a816002610eed565b6102849190610ef8565b600254604051636842e9fb60e01b8152600481018390529192505f916001600160a01b0390911690636842e9fb906024016020604051808303815f875af11580156102d1573d5f803e3d5ffd5b505050506040513d601f19601f820116820180604052508101906102f59190610f0b565b90508034111561034c5760405162461bcd60e51b815260206004820152601f60248201527f6d617820617070726563696174696f6e20616d6f756e7420657863656564730060448201526064015b60405180910390fd5b6001546040517f93956b370000000000000000000000000000000000000000000000000000000081526001600160a01b0388811660048301523460248301525f9216906393956b37906044016020604051808303815f875af11580156103b4573d5f803e3d5ffd5b505050506040513d601f19601f820116820180604052508101906103d89190610f22565b9050806104275760405162461bcd60e51b815260206004820152601860248201527f4661696c656420746f207570646174652063726561746f7200000000000000006044820152606401610343565b6001546040517f09ae32a50000000000000000000000000000000000000000000000000000000081526001600160a01b0388811660048301523460248301525f9216906309ae32a5906044016020604051808303815f875af115801561048f573d5f803e3d5ffd5b505050506040513d601f19601f820116820180604052508101906104b39190610f22565b9050806105025760405162461bcd60e51b815260206004820152601860248201527f4661696c656420746f207570646174652063726561746f7200000000000000006044820152606401610343565b6001955050505050505b92915050565b61051a610abd565b6003805473ffffffffffffffffffffffffffffffffffffffff19166001600160a01b0392909216919091179055565b60015460405163cc3d967b60e01b81526001600160a01b0383811660048301525f92839291169063cc3d967b906024015f60405180830381865afa158015610593573d5f803e3d5ffd5b505050506040513d5f823e601f3d908101601f191682016040526105ba9190810190610cf3565b60408101516080820151919250905f6105d283610884565b600254604051636842e9fb60e01b8152600481018390529192505f916001600160a01b0390911690636842e9fb906024016020604051808303815f875af115801561061f573d5f803e3d5ffd5b505050506040513d601f19601f820116820180604052508101906106439190610f0b565b9050828111156106955760405162461bcd60e51b815260206004820152601c60248201527f5769746864726177616c207468726573686f6c64206e6f74206d6574000000006044820152606401610343565b600354604080517f912ea4af00000000000000000000000000000000000000000000000000000000815290515f926001600160a01b03169163912ea4af9160048083019260209291908290030181865afa1580156106f5573d5f803e3d5ffd5b505050506040513d601f19601f820116820180604052508101906107199190610f0b565b90505f60646107288385610f3b565b6107329190610f52565b6001546040517fb5c5f6720000000000000000000000000000000000000000000000000000000081526001600160a01b038c81166004830152602482018490526044820187905292935091169063b5c5f672906064015f604051808303815f87803b15801561079f575f80fd5b505af11580156107b1573d5f803e3d5ffd5b505050505f81846107c29190610ef8565b90505f8a6001600160a01b0316826040515f6040518083038185875af1925050503d805f811461080d576040519150601f19603f3d011682016040523d82523d5f602084013e610812565b606091505b50509050806108635760405162461bcd60e51b815260206004820152601160248201527f5769746864726177616c206661696c65640000000000000000000000000000006044820152606401610343565b9a9950505050505050505050565b610879610abd565b6108825f610b16565b565b5f8060035f9054906101000a90046001600160a01b03166001600160a01b031663dfe1843e6040518163ffffffff1660e01b8152600401602060405180830381865afa1580156108d6573d5f803e3d5ffd5b505050506040513d601f19601f820116820180604052508101906108fa9190610f0b565b90505f60035f9054906101000a90046001600160a01b03166001600160a01b031663912ea4af6040518163ffffffff1660e01b8152600401602060405180830381865afa15801561094d573d5f803e3d5ffd5b505050506040513d601f19601f820116820180604052508101906109719190610f0b565b905060025b8481116109b6575f606461098a8486610f3b565b6109949190610f52565b90506109a08185610f71565b93505080806109ae90610f84565b915050610976565b50909392505050565b6109c7610abd565b6001805473ffffffffffffffffffffffffffffffffffffffff19166001600160a01b0392909216919091179055565b6109fe610abd565b6002805473ffffffffffffffffffffffffffffffffffffffff19166001600160a01b0392909216919091179055565b610a35610abd565b6001600160a01b038116610ab15760405162461bcd60e51b815260206004820152602660248201527f4f776e61626c653a206e6577206f776e657220697320746865207a65726f206160448201527f64647265737300000000000000000000000000000000000000000000000000006064820152608401610343565b610aba81610b16565b50565b5f546001600160a01b031633146108825760405162461bcd60e51b815260206004820181905260248201527f4f776e61626c653a2063616c6c6572206973206e6f7420746865206f776e65726044820152606401610343565b5f80546001600160a01b0383811673ffffffffffffffffffffffffffffffffffffffff19831681178455604051919092169283917f8be0079c531659141344cd1fd0a4f28419497f9722a3daafe3b4186f6b6457e09190a35050565b80356001600160a01b0381168114610b88575f80fd5b919050565b5f8060408385031215610b9e575f80fd5b610ba783610b72565b9150610bb560208401610b72565b90509250929050565b5f60208284031215610bce575f80fd5b610bd782610b72565b9392505050565b5f60208284031215610bee575f80fd5b5035919050565b634e487b7160e01b5f52604160045260245ffd5b604051610180810167ffffffffffffffff81118282101715610c2d57610c2d610bf5565b60405290565b604051601f8201601f1916810167ffffffffffffffff81118282101715610c5c57610c5c610bf5565b604052919050565b5f82601f830112610c73575f80fd5b815167ffffffffffffffff811115610c8d57610c8d610bf5565b6020610ca1601f8301601f19168201610c33565b8281528582848701011115610cb4575f80fd5b5f5b83811015610cd1578581018301518282018401528201610cb6565b505f928101909101919091529392505050565b80518015158114610b88575f80fd5b5f60208284031215610d03575f80fd5b815167ffffffffffffffff80821115610d1a575f80fd5b908301906101808286031215610d2e575f80fd5b610d36610c09565b825182811115610d44575f80fd5b610d5087828601610c64565b825250602083015182811115610d64575f80fd5b610d7087828601610c64565b60208301525060408301516040820152610d8c60608401610ce4565b60608201526080838101519082015260a0808401519082015260c0808401519082015260e080840151908201526101008084015190820152610120808401519082015261014080840151908201526101609150610dea828401610ce4565b91810191909152949350505050565b634e487b7160e01b5f52601160045260245ffd5b600181815b80851115610e4757815f1904821115610e2d57610e2d610df9565b80851615610e3a57918102915b93841c9390800290610e12565b509250929050565b5f82610e5d5750600161050c565b81610e6957505f61050c565b8160018114610e7f5760028114610e8957610ea5565b600191505061050c565b60ff841115610e9a57610e9a610df9565b50506001821b61050c565b5060208310610133831016604e8410600b8410161715610ec8575081810a61050c565b610ed28383610e0d565b805f1904821115610ee557610ee5610df9565b029392505050565b5f610bd78383610e4f565b8181038181111561050c5761050c610df9565b5f60208284031215610f1b575f80fd5b5051919050565b5f60208284031215610f32575f80fd5b610bd782610ce4565b808202811582820484141761050c5761050c610df9565b5f82610f6c57634e487b7160e01b5f52601260045260245ffd5b500490565b8082018082111561050c5761050c610df9565b5f60018201610f9557610f95610df9565b506001019056fea2646970667358221220fdcd948e8172ddb4cb4e568e80e014ad8c06bd4db4b97c46bb40cbaa6a75857e64736f6c63430008140033",
  "linkReferences": {},
  "deployedLinkReferences": {}
}