{
  "_format": "hh-sol-artifact-1",
  "contractName": "FunctionsBillingRegistry",
  "sourceName": "src/backend/contracts/dev/functions/FunctionsBillingRegistry.sol",
  "abi": [
    {
      "inputs": [
        {
          "internalType": "uint256",
          "name": "internalBalance",
          "type": "uint256"
        },
        {
          "internalType": "uint256",
          "name": "externalBalance",
          "type": "uint256"
        }
      ],
      "name": "BalanceInvariantViolated",
      "type": "error"
    },
    {
      "inputs": [],
      "name": "CannotSelfTransfer",
      "type": "error"
    },
    {
      "inputs": [],
      "name": "EmptySendersList",
      "type": "error"
    },
    {
      "inputs": [
        {
          "internalType": "uint32",
          "name": "have",
          "type": "uint32"
        },
        {
          "internalType": "uint32",
          "name": "want",
          "type": "uint32"
        }
      ],
      "name": "GasLimitTooBig",
      "type": "error"
    },
    {
      "inputs": [],
      "name": "InsufficientBalance",
      "type": "error"
    },
    {
      "inputs": [],
      "name": "InvalidCalldata",
      "type": "error"
    },
    {
      "inputs": [
        {
          "internalType": "uint64",
          "name": "subscriptionId",
          "type": "uint64"
        },
        {
          "internalType": "address",
          "name": "consumer",
          "type": "address"
        }
      ],
      "name": "InvalidConsumer",
      "type": "error"
    },
    {
      "inputs": [
        {
          "internalType": "int256",
          "name": "linkWei",
          "type": "int256"
        }
      ],
      "name": "InvalidLinkWeiPrice",
      "type": "error"
    },
    {
      "inputs": [],
      "name": "InvalidSubscription",
      "type": "error"
    },
    {
      "inputs": [
        {
          "internalType": "address",
          "name": "proposedOwner",
          "type": "address"
        }
      ],
      "name": "MustBeRequestedOwner",
      "type": "error"
    },
    {
      "inputs": [
        {
          "internalType": "address",
          "name": "owner",
          "type": "address"
        }
      ],
      "name": "MustBeSubOwner",
      "type": "error"
    },
    {
      "inputs": [],
      "name": "NotAllowedToSetSenders",
      "type": "error"
    },
    {
      "inputs": [],
      "name": "NotProposedOwner",
      "type": "error"
    },
    {
      "inputs": [],
      "name": "OnlyCallableByOwner",
      "type": "error"
    },
    {
      "inputs": [],
      "name": "OnlyCallableFromLink",
      "type": "error"
    },
    {
      "inputs": [],
      "name": "OwnerMustBeSet",
      "type": "error"
    },
    {
      "inputs": [],
      "name": "PaymentTooLarge",
      "type": "error"
    },
    {
      "inputs": [],
      "name": "PendingRequestExists",
      "type": "error"
    },
    {
      "inputs": [],
      "name": "Reentrant",
      "type": "error"
    },
    {
      "inputs": [],
      "name": "TooManyConsumers",
      "type": "error"
    },
    {
      "inputs": [],
      "name": "UnauthorizedSender",
      "type": "error"
    },
    {
      "anonymous": false,
      "inputs": [
        {
          "indexed": false,
          "internalType": "address[]",
          "name": "senders",
          "type": "address[]"
        },
        {
          "indexed": false,
          "internalType": "address",
          "name": "changedBy",
          "type": "address"
        }
      ],
      "name": "AuthorizedSendersChanged",
      "type": "event"
    },
    {
      "anonymous": false,
      "inputs": [
        {
          "indexed": true,
          "internalType": "bytes32",
          "name": "requestId",
          "type": "bytes32"
        },
        {
          "indexed": false,
          "internalType": "uint64",
          "name": "subscriptionId",
          "type": "uint64"
        },
        {
          "indexed": false,
          "internalType": "uint96",
          "name": "signerPayment",
          "type": "uint96"
        },
        {
          "indexed": false,
          "internalType": "uint96",
          "name": "transmitterPayment",
          "type": "uint96"
        },
        {
          "indexed": false,
          "internalType": "uint96",
          "name": "totalCost",
          "type": "uint96"
        },
        {
          "indexed": false,
          "internalType": "bool",
          "name": "success",
          "type": "bool"
        }
      ],
      "name": "BillingEnd",
      "type": "event"
    },
    {
      "anonymous": false,
      "inputs": [
        {
          "indexed": true,
          "internalType": "bytes32",
          "name": "requestId",
          "type": "bytes32"
        },
        {
          "components": [
            {
              "internalType": "uint64",
              "name": "subscriptionId",
              "type": "uint64"
            },
            {
              "internalType": "address",
              "name": "client",
              "type": "address"
            },
            {
              "internalType": "uint32",
              "name": "gasLimit",
              "type": "uint32"
            },
            {
              "internalType": "uint256",
              "name": "gasPrice",
              "type": "uint256"
            },
            {
              "internalType": "address",
              "name": "don",
              "type": "address"
            },
            {
              "internalType": "uint96",
              "name": "donFee",
              "type": "uint96"
            },
            {
              "internalType": "uint96",
              "name": "registryFee",
              "type": "uint96"
            },
            {
              "internalType": "uint96",
              "name": "estimatedCost",
              "type": "uint96"
            },
            {
              "internalType": "uint256",
              "name": "timestamp",
              "type": "uint256"
            }
          ],
          "indexed": false,
          "internalType": "struct FunctionsBillingRegistry.Commitment",
          "name": "commitment",
          "type": "tuple"
        }
      ],
      "name": "BillingStart",
      "type": "event"
    },
    {
      "anonymous": false,
      "inputs": [
        {
          "indexed": false,
          "internalType": "uint32",
          "name": "maxGasLimit",
          "type": "uint32"
        },
        {
          "indexed": false,
          "internalType": "uint32",
          "name": "stalenessSeconds",
          "type": "uint32"
        },
        {
          "indexed": false,
          "internalType": "uint256",
          "name": "gasAfterPaymentCalculation",
          "type": "uint256"
        },
        {
          "indexed": false,
          "internalType": "int256",
          "name": "fallbackWeiPerUnitLink",
          "type": "int256"
        },
        {
          "indexed": false,
          "internalType": "uint32",
          "name": "gasOverhead",
          "type": "uint32"
        }
      ],
      "name": "ConfigSet",
      "type": "event"
    },
    {
      "anonymous": false,
      "inputs": [
        {
          "indexed": false,
          "internalType": "address",
          "name": "to",
          "type": "address"
        },
        {
          "indexed": false,
          "internalType": "uint256",
          "name": "amount",
          "type": "uint256"
        }
      ],
      "name": "FundsRecovered",
      "type": "event"
    },
    {
      "anonymous": false,
      "inputs": [
        {
          "indexed": false,
          "internalType": "uint8",
          "name": "version",
          "type": "uint8"
        }
      ],
      "name": "Initialized",
      "type": "event"
    },
    {
      "anonymous": false,
      "inputs": [
        {
          "indexed": true,
          "internalType": "address",
          "name": "from",
          "type": "address"
        },
        {
          "indexed": true,
          "internalType": "address",
          "name": "to",
          "type": "address"
        }
      ],
      "name": "OwnershipTransferRequested",
      "type": "event"
    },
    {
      "anonymous": false,
      "inputs": [
        {
          "indexed": true,
          "internalType": "address",
          "name": "from",
          "type": "address"
        },
        {
          "indexed": true,
          "internalType": "address",
          "name": "to",
          "type": "address"
        }
      ],
      "name": "OwnershipTransferred",
      "type": "event"
    },
    {
      "anonymous": false,
      "inputs": [
        {
          "indexed": false,
          "internalType": "address",
          "name": "account",
          "type": "address"
        }
      ],
      "name": "Paused",
      "type": "event"
    },
    {
      "anonymous": false,
      "inputs": [
        {
          "indexed": true,
          "internalType": "bytes32",
          "name": "requestId",
          "type": "bytes32"
        }
      ],
      "name": "RequestTimedOut",
      "type": "event"
    },
    {
      "anonymous": false,
      "inputs": [
        {
          "indexed": true,
          "internalType": "uint64",
          "name": "subscriptionId",
          "type": "uint64"
        },
        {
          "indexed": false,
          "internalType": "address",
          "name": "to",
          "type": "address"
        },
        {
          "indexed": false,
          "internalType": "uint256",
          "name": "amount",
          "type": "uint256"
        }
      ],
      "name": "SubscriptionCanceled",
      "type": "event"
    },
    {
      "anonymous": false,
      "inputs": [
        {
          "indexed": true,
          "internalType": "uint64",
          "name": "subscriptionId",
          "type": "uint64"
        },
        {
          "indexed": false,
          "internalType": "address",
          "name": "consumer",
          "type": "address"
        }
      ],
      "name": "SubscriptionConsumerAdded",
      "type": "event"
    },
    {
      "anonymous": false,
      "inputs": [
        {
          "indexed": true,
          "internalType": "uint64",
          "name": "subscriptionId",
          "type": "uint64"
        },
        {
          "indexed": false,
          "internalType": "address",
          "name": "consumer",
          "type": "address"
        }
      ],
      "name": "SubscriptionConsumerRemoved",
      "type": "event"
    },
    {
      "anonymous": false,
      "inputs": [
        {
          "indexed": true,
          "internalType": "uint64",
          "name": "subscriptionId",
          "type": "uint64"
        },
        {
          "indexed": false,
          "internalType": "address",
          "name": "owner",
          "type": "address"
        }
      ],
      "name": "SubscriptionCreated",
      "type": "event"
    },
    {
      "anonymous": false,
      "inputs": [
        {
          "indexed": true,
          "internalType": "uint64",
          "name": "subscriptionId",
          "type": "uint64"
        },
        {
          "indexed": false,
          "internalType": "uint256",
          "name": "oldBalance",
          "type": "uint256"
        },
        {
          "indexed": false,
          "internalType": "uint256",
          "name": "newBalance",
          "type": "uint256"
        }
      ],
      "name": "SubscriptionFunded",
      "type": "event"
    },
    {
      "anonymous": false,
      "inputs": [
        {
          "indexed": true,
          "internalType": "uint64",
          "name": "subscriptionId",
          "type": "uint64"
        },
        {
          "indexed": false,
          "internalType": "address",
          "name": "from",
          "type": "address"
        },
        {
          "indexed": false,
          "internalType": "address",
          "name": "to",
          "type": "address"
        }
      ],
      "name": "SubscriptionOwnerTransferRequested",
      "type": "event"
    },
    {
      "anonymous": false,
      "inputs": [
        {
          "indexed": true,
          "internalType": "uint64",
          "name": "subscriptionId",
          "type": "uint64"
        },
        {
          "indexed": false,
          "internalType": "address",
          "name": "from",
          "type": "address"
        },
        {
          "indexed": false,
          "internalType": "address",
          "name": "to",
          "type": "address"
        }
      ],
      "name": "SubscriptionOwnerTransferred",
      "type": "event"
    },
    {
      "anonymous": false,
      "inputs": [
        {
          "indexed": false,
          "internalType": "address",
          "name": "account",
          "type": "address"
        }
      ],
      "name": "Unpaused",
      "type": "event"
    },
    {
      "inputs": [],
      "name": "MAX_CONSUMERS",
      "outputs": [
        {
          "internalType": "uint16",
          "name": "",
          "type": "uint16"
        }
      ],
      "stateMutability": "view",
      "type": "function"
    },
    {
      "inputs": [],
      "name": "acceptOwnership",
      "outputs": [],
      "stateMutability": "nonpayable",
      "type": "function"
    },
    {
      "inputs": [
        {
          "internalType": "uint64",
          "name": "subscriptionId",
          "type": "uint64"
        }
      ],
      "name": "acceptSubscriptionOwnerTransfer",
      "outputs": [],
      "stateMutability": "nonpayable",
      "type": "function"
    },
    {
      "inputs": [
        {
          "internalType": "uint64",
          "name": "subscriptionId",
          "type": "uint64"
        },
        {
          "internalType": "address",
          "name": "consumer",
          "type": "address"
        }
      ],
      "name": "addConsumer",
      "outputs": [],
      "stateMutability": "nonpayable",
      "type": "function"
    },
    {
      "inputs": [
        {
          "internalType": "uint64",
          "name": "subscriptionId",
          "type": "uint64"
        },
        {
          "internalType": "address",
          "name": "to",
          "type": "address"
        }
      ],
      "name": "cancelSubscription",
      "outputs": [],
      "stateMutability": "nonpayable",
      "type": "function"
    },
    {
      "inputs": [],
      "name": "createSubscription",
      "outputs": [
        {
          "internalType": "uint64",
          "name": "",
          "type": "uint64"
        }
      ],
      "stateMutability": "nonpayable",
      "type": "function"
    },
    {
      "inputs": [
        {
          "internalType": "uint32",
          "name": "gasLimit",
          "type": "uint32"
        },
        {
          "internalType": "uint256",
          "name": "gasPrice",
          "type": "uint256"
        },
        {
          "internalType": "uint96",
          "name": "donFee",
          "type": "uint96"
        },
        {
          "internalType": "uint96",
          "name": "registryFee",
          "type": "uint96"
        }
      ],
      "name": "estimateCost",
      "outputs": [
        {
          "internalType": "uint96",
          "name": "",
          "type": "uint96"
        }
      ],
      "stateMutability": "view",
      "type": "function"
    },
    {
      "inputs": [
        {
          "internalType": "bytes32",
          "name": "requestId",
          "type": "bytes32"
        },
        {
          "internalType": "bytes",
          "name": "response",
          "type": "bytes"
        },
        {
          "internalType": "bytes",
          "name": "err",
          "type": "bytes"
        },
        {
          "internalType": "address",
          "name": "transmitter",
          "type": "address"
        },
        {
          "internalType": "address[31]",
          "name": "signers",
          "type": "address[31]"
        },
        {
          "internalType": "uint8",
          "name": "signerCount",
          "type": "uint8"
        },
        {
          "internalType": "uint256",
          "name": "reportValidationGas",
          "type": "uint256"
        },
        {
          "internalType": "uint256",
          "name": "initialGas",
          "type": "uint256"
        }
      ],
      "name": "fulfillAndBill",
      "outputs": [
        {
          "internalType": "enum FunctionsBillingRegistryInterface.FulfillResult",
          "name": "",
          "type": "uint8"
        }
      ],
      "stateMutability": "nonpayable",
      "type": "function"
    },
    {
      "inputs": [],
      "name": "getAuthorizedSenders",
      "outputs": [
        {
          "internalType": "address[]",
          "name": "",
          "type": "address[]"
        }
      ],
      "stateMutability": "view",
      "type": "function"
    },
    {
      "inputs": [],
      "name": "getConfig",
      "outputs": [
        {
          "internalType": "uint32",
          "name": "maxGasLimit",
          "type": "uint32"
        },
        {
          "internalType": "uint32",
          "name": "stalenessSeconds",
          "type": "uint32"
        },
        {
          "internalType": "uint256",
          "name": "gasAfterPaymentCalculation",
          "type": "uint256"
        },
        {
          "internalType": "int256",
          "name": "fallbackWeiPerUnitLink",
          "type": "int256"
        },
        {
          "internalType": "uint32",
          "name": "gasOverhead",
          "type": "uint32"
        },
        {
          "internalType": "address",
          "name": "linkAddress",
          "type": "address"
        },
        {
          "internalType": "address",
          "name": "linkPriceFeed",
          "type": "address"
        }
      ],
      "stateMutability": "view",
      "type": "function"
    },
    {
      "inputs": [],
      "name": "getCurrentsubscriptionId",
      "outputs": [
        {
          "internalType": "uint64",
          "name": "",
          "type": "uint64"
        }
      ],
      "stateMutability": "view",
      "type": "function"
    },
    {
      "inputs": [],
      "name": "getRequestConfig",
      "outputs": [
        {
          "internalType": "uint32",
          "name": "",
          "type": "uint32"
        },
        {
          "internalType": "address[]",
          "name": "",
          "type": "address[]"
        }
      ],
      "stateMutability": "view",
      "type": "function"
    },
    {
      "inputs": [
        {
          "internalType": "bytes",
          "name": "",
          "type": "bytes"
        },
        {
          "components": [
            {
              "internalType": "uint64",
              "name": "subscriptionId",
              "type": "uint64"
            },
            {
              "internalType": "address",
              "name": "client",
              "type": "address"
            },
            {
              "internalType": "uint32",
              "name": "gasLimit",
              "type": "uint32"
            },
            {
              "internalType": "uint256",
              "name": "gasPrice",
              "type": "uint256"
            }
          ],
          "internalType": "struct FunctionsBillingRegistryInterface.RequestBilling",
          "name": "",
          "type": "tuple"
        }
      ],
      "name": "getRequiredFee",
      "outputs": [
        {
          "internalType": "uint96",
          "name": "",
          "type": "uint96"
        }
      ],
      "stateMutability": "pure",
      "type": "function"
    },
    {
      "inputs": [
        {
          "internalType": "uint64",
          "name": "subscriptionId",
          "type": "uint64"
        }
      ],
      "name": "getSubscription",
      "outputs": [
        {
          "internalType": "uint96",
          "name": "balance",
          "type": "uint96"
        },
        {
          "internalType": "address",
          "name": "owner",
          "type": "address"
        },
        {
          "internalType": "address[]",
          "name": "consumers",
          "type": "address[]"
        }
      ],
      "stateMutability": "view",
      "type": "function"
    },
    {
      "inputs": [
        {
          "internalType": "uint64",
          "name": "subscriptionId",
          "type": "uint64"
        }
      ],
      "name": "getSubscriptionOwner",
      "outputs": [
        {
          "internalType": "address",
          "name": "owner",
          "type": "address"
        }
      ],
      "stateMutability": "view",
      "type": "function"
    },
    {
      "inputs": [],
      "name": "getTotalBalance",
      "outputs": [
        {
          "internalType": "uint256",
          "name": "",
          "type": "uint256"
        }
      ],
      "stateMutability": "view",
      "type": "function"
    },
    {
      "inputs": [
        {
          "internalType": "address",
          "name": "link",
          "type": "address"
        },
        {
          "internalType": "address",
          "name": "linkEthFeed",
          "type": "address"
        },
        {
          "internalType": "address",
          "name": "oracle",
          "type": "address"
        }
      ],
      "name": "initialize",
      "outputs": [],
      "stateMutability": "nonpayable",
      "type": "function"
    },
    {
      "inputs": [
        {
          "internalType": "address",
          "name": "sender",
          "type": "address"
        }
      ],
      "name": "isAuthorizedSender",
      "outputs": [
        {
          "internalType": "bool",
          "name": "",
          "type": "bool"
        }
      ],
      "stateMutability": "view",
      "type": "function"
    },
    {
      "inputs": [
        {
          "internalType": "address",
          "name": "",
          "type": "address"
        },
        {
          "internalType": "uint256",
          "name": "amount",
          "type": "uint256"
        },
        {
          "internalType": "bytes",
          "name": "data",
          "type": "bytes"
        }
      ],
      "name": "onTokenTransfer",
      "outputs": [],
      "stateMutability": "nonpayable",
      "type": "function"
    },
    {
      "inputs": [
        {
          "internalType": "address",
          "name": "recipient",
          "type": "address"
        },
        {
          "internalType": "uint96",
          "name": "amount",
          "type": "uint96"
        }
      ],
      "name": "oracleWithdraw",
      "outputs": [],
      "stateMutability": "nonpayable",
      "type": "function"
    },
    {
      "inputs": [],
      "name": "owner",
      "outputs": [
        {
          "internalType": "address",
          "name": "",
          "type": "address"
        }
      ],
      "stateMutability": "view",
      "type": "function"
    },
    {
      "inputs": [
        {
          "internalType": "uint64",
          "name": "subscriptionId",
          "type": "uint64"
        }
      ],
      "name": "ownerCancelSubscription",
      "outputs": [],
      "stateMutability": "nonpayable",
      "type": "function"
    },
    {
      "inputs": [],
      "name": "pause",
      "outputs": [],
      "stateMutability": "nonpayable",
      "type": "function"
    },
    {
      "inputs": [],
      "name": "paused",
      "outputs": [
        {
          "internalType": "bool",
          "name": "",
          "type": "bool"
        }
      ],
      "stateMutability": "view",
      "type": "function"
    },
    {
      "inputs": [
        {
          "internalType": "uint64",
          "name": "subscriptionId",
          "type": "uint64"
        }
      ],
      "name": "pendingRequestExists",
      "outputs": [
        {
          "internalType": "bool",
          "name": "",
          "type": "bool"
        }
      ],
      "stateMutability": "view",
      "type": "function"
    },
    {
      "inputs": [
        {
          "internalType": "address",
          "name": "to",
          "type": "address"
        }
      ],
      "name": "recoverFunds",
      "outputs": [],
      "stateMutability": "nonpayable",
      "type": "function"
    },
    {
      "inputs": [
        {
          "internalType": "uint64",
          "name": "subscriptionId",
          "type": "uint64"
        },
        {
          "internalType": "address",
          "name": "consumer",
          "type": "address"
        }
      ],
      "name": "removeConsumer",
      "outputs": [],
      "stateMutability": "nonpayable",
      "type": "function"
    },
    {
      "inputs": [
        {
          "internalType": "uint64",
          "name": "subscriptionId",
          "type": "uint64"
        },
        {
          "internalType": "address",
          "name": "newOwner",
          "type": "address"
        }
      ],
      "name": "requestSubscriptionOwnerTransfer",
      "outputs": [],
      "stateMutability": "nonpayable",
      "type": "function"
    },
    {
      "inputs": [
        {
          "internalType": "address[]",
          "name": "senders",
          "type": "address[]"
        }
      ],
      "name": "setAuthorizedSenders",
      "outputs": [],
      "stateMutability": "nonpayable",
      "type": "function"
    },
    {
      "inputs": [
        {
          "internalType": "uint32",
          "name": "maxGasLimit",
          "type": "uint32"
        },
        {
          "internalType": "uint32",
          "name": "stalenessSeconds",
          "type": "uint32"
        },
        {
          "internalType": "uint256",
          "name": "gasAfterPaymentCalculation",
          "type": "uint256"
        },
        {
          "internalType": "int256",
          "name": "fallbackWeiPerUnitLink",
          "type": "int256"
        },
        {
          "internalType": "uint32",
          "name": "gasOverhead",
          "type": "uint32"
        },
        {
          "internalType": "uint32",
          "name": "requestTimeoutSeconds",
          "type": "uint32"
        }
      ],
      "name": "setConfig",
      "outputs": [],
      "stateMutability": "nonpayable",
      "type": "function"
    },
    {
      "inputs": [
        {
          "internalType": "bytes",
          "name": "data",
          "type": "bytes"
        },
        {
          "components": [
            {
              "internalType": "uint64",
              "name": "subscriptionId",
              "type": "uint64"
            },
            {
              "internalType": "address",
              "name": "client",
              "type": "address"
            },
            {
              "internalType": "uint32",
              "name": "gasLimit",
              "type": "uint32"
            },
            {
              "internalType": "uint256",
              "name": "gasPrice",
              "type": "uint256"
            }
          ],
          "internalType": "struct FunctionsBillingRegistryInterface.RequestBilling",
          "name": "billing",
          "type": "tuple"
        }
      ],
      "name": "startBilling",
      "outputs": [
        {
          "internalType": "bytes32",
          "name": "",
          "type": "bytes32"
        }
      ],
      "stateMutability": "nonpayable",
      "type": "function"
    },
    {
      "inputs": [
        {
          "internalType": "bytes32[]",
          "name": "requestIdsToTimeout",
          "type": "bytes32[]"
        }
      ],
      "name": "timeoutRequests",
      "outputs": [],
      "stateMutability": "nonpayable",
      "type": "function"
    },
    {
      "inputs": [
        {
          "internalType": "address",
          "name": "to",
          "type": "address"
        }
      ],
      "name": "transferOwnership",
      "outputs": [],
      "stateMutability": "nonpayable",
      "type": "function"
    },
    {
      "inputs": [],
      "name": "unpause",
      "outputs": [],
      "stateMutability": "nonpayable",
      "type": "function"
    }
  ],
  "bytecode": "0x608060405234801561000f575f80fd5b506145af8061001d5f395ff3fe608060405234801561000f575f80fd5b506004361061021a575f3560e01c80638da5cb5b11610123578063c0c53b8b116100b8578063e82ad7d411610088578063f1e14a211161006e578063f1e14a2114610521578063f2fde38b1461053f578063fa00763a14610552575f80fd5b8063e82ad7d4146104fb578063ee56997b1461050e575f80fd5b8063c0c53b8b1461045a578063c3f909d41461046d578063d7ae1d30146104d5578063e72f6e30146104e8575f80fd5b8063a47c7696116100f3578063a47c7696146103ff578063a4c0ed3614610421578063a9d03c0514610434578063b2a489ff14610447575f80fd5b80638da5cb5b1461038f5780639f87fad7146103b9578063a1a6d041146103cc578063a21a23e4146103f7575f80fd5b80633f4ba83a116101b3578063665871ec1161018357806379ba50971161016957806379ba50971461036c57806382359740146103745780638456cb5914610387575f80fd5b8063665871ec146103465780637341c10c14610359575f80fd5b80633f4ba83a146102f95780635c975abb1461030157806364d51a2a1461031857806366316d8d14610333575f80fd5b806312b58349116101ee57806312b58349146102855780632408afaa146102ac57806327923e41146102c157806333652e3e146102d4575f80fd5b80620122911461021e57806302bcc5b61461023d57806304c357cb146102525780630739e4f114610265575b5f80fd5b610226610565565b604051610234929190613b61565b60405180910390f35b61025061024b366004613ba2565b610583565b005b610250610260366004613bd1565b6105d8565b610278610273366004613c6a565b610729565b6040516102349190613d7e565b606f546801000000000000000090046001600160601b03165b604051908152602001610234565b6102b4610c67565b6040516102349190613da4565b6102506102cf366004613dc9565b610cc7565b606f546001600160401b03165b6040516001600160401b039091168152602001610234565b610250610dd2565b60345460ff165b6040519015158152602001610234565b610320606481565b60405161ffff9091168152602001610234565b610250610341366004613e3f565b610de4565b610250610354366004613eb4565b610f9e565b610250610367366004613bd1565b6111cb565b610250611396565b610250610382366004613ba2565b61144d565b6102506116cc565b5f546201000090046001600160a01b03165b6040516001600160a01b039091168152602001610234565b6102506103c7366004613bd1565b6116dc565b6103df6103da366004613ef2565b611a02565b6040516001600160601b039091168152602001610234565b6102e1611aea565b61041261040d366004613ba2565b611d9a565b60405161023493929190613f40565b61025061042f366004613f79565b611e80565b61029e610442366004613fce565b612069565b6103a1610455366004613ba2565b6126df565b610250610468366004614027565b612741565b607354607454607254607554606954606a546040805163ffffffff80891682526501000000000090980488166020820152908101959095526060850193909352931660808301526001600160a01b0392831660a08301529190911660c082015260e001610234565b6102506104e3366004613bd1565b6128a5565b6102506104f6366004614067565b612998565b610308610509366004613ba2565b612b4b565b61025061051c366004613eb4565b612d36565b6103df61052f3660046140f6565b6702c68af0bb1400009392505050565b61025061054d366004614067565b612e9c565b610308610560366004614067565b612eb0565b6073545f9060609063ffffffff1661057b610c67565b915091509091565b61058b612ec2565b6001600160401b0381165f908152606d60205260409020546001600160a01b0316806105ca57604051630fb532db60e11b815260040160405180910390fd5b6105d48282612f0b565b5050565b6001600160401b0382165f908152606d602052604090205482906001600160a01b03168061061957604051630fb532db60e11b815260040160405180910390fd5b336001600160a01b0382161461065257604051636c51fda960e11b81526001600160a01b03821660048201526024015b60405180910390fd5b607354640100000000900460ff161561067e5760405163769dd35360e11b815260040160405180910390fd5b61068661320b565b6001600160401b0384165f908152606d60205260409020600101546001600160a01b03848116911614610723576001600160401b0384165f818152606d602090815260409182902060010180546001600160a01b0319166001600160a01b0388169081179091558251338152918201527f69436ea6df009049404f564eff6622cd00522b0bd6a89efd9e52a355c4a879be91015b60405180910390a25b50505050565b5f61073261325e565b607354640100000000900460ff161561075e5760405163769dd35360e11b815260040160405180910390fd5b61076661320b565b5f8b81526071602090815260409182902082516101208101845281546001600160401b03811682526801000000000000000081046001600160a01b0390811694830194909452600160e01b900463ffffffff169381019390935260018101546060840152600281015491821660808401819052600160a01b9092046001600160601b0390811660a0850152600382015480821660c0860152600160601b90041660e084015260040154610100830152610823576002915050610c59565b5f8c81526071602052604080822082815560018101839055600281018390556003810180546001600160c01b0319169055600401829055517f0ca761750000000000000000000000000000000000000000000000000000000090610893908f908f908f908f908f90602401614165565b60408051601f19818403018152918152602080830180517bffffffffffffffffffffffffffffffffffffffffffffffffffffffff167fffffffff00000000000000000000000000000000000000000000000000000000909516949094179093526073805464ff000000001916640100000000179055840151918401519092505f916109279163ffffffff9091169084613284565b6073805464ff000000001916905560745460a085015160c08601519293505f9261095892899290918c908c3a6132ca565b60408082015186516001600160401b03165f908152606e60205291909120549192506001600160601b03908116911610156109a657604051631e9acf1760e31b815260040160405180910390fd5b60408082015185516001600160401b03165f908152606e6020529182208054919290916109dd9084906001600160601b03166141b1565b92506101000a8154816001600160601b0302191690836001600160601b031602179055505f5b8860ff16811015610aa057815160705f8c84601f8110610a2557610a256141d1565b60200201516001600160a01b03166001600160a01b031681526020019081526020015f205f8282829054906101000a90046001600160601b0316610a6991906141e5565b92506101000a8154816001600160601b0302191690836001600160601b031602179055508080610a9890614205565b915050610a03565b508360c0015160705f610ac15f546001600160a01b03620100009091041690565b6001600160a01b0316815260208101919091526040015f9081208054909190610af49084906001600160601b03166141e5565b82546101009290920a6001600160601b038181021990931691831602179091556020838101516001600160a01b038e165f908152607090925260408220805491945092610b43918591166141e5565b82546101009290920a6001600160601b0381810219909316918316021790915560e086015186516001600160401b03165f908152606e60205260409020805491935091600c91610b9c918591600160601b9004166141b1565b92506101000a8154816001600160601b0302191690836001600160601b031602179055508e7fc8dc973332de19a5f71b6026983110e9c2e04b0c98b87eb771ccb78607fd114f855f0151835f01518460200151856040015187604051610c3c9594939291906001600160401b039590951685526001600160601b039384166020860152918316604085015290911660608301521515608082015260a00190565b60405180910390a281610c50576001610c52565b5f5b9450505050505b9a9950505050505050505050565b60606068805480602002602001604051908101604052809291908181526020018280548015610cbd57602002820191905f5260205f20905b81546001600160a01b03168152600190910190602001808311610c9f575b5050505050905090565b610ccf612ec2565b5f8313610cf2576040516321ea67b360e11b815260048101849052602401610649565b6040805160c08101825263ffffffff8881168083525f60208085019190915289831684860181905260608086018b9052888516608080880182905295891660a09788018190526073805468ffffffffffffffffff1916871765010000000000860217905560748d90556075805467ffffffffffffffff1916831764010000000090920291909117905560728b9055875194855292840191909152948201899052938101879052908101929092527f24d3d934adfef9b9029d6ffa463c07d0139ed47d26ee23506f85ece2879d2bd4910160405180910390a1505050505050565b610dda612ec2565b610de2613408565b565b607354640100000000900460ff1615610e105760405163769dd35360e11b815260040160405180910390fd5b610e1861320b565b806001600160601b03165f03610e425750335f908152607060205260409020546001600160601b03165b335f908152607060205260409020546001600160601b0380831691161015610e7d57604051631e9acf1760e31b815260040160405180910390fd5b335f9081526070602052604081208054839290610ea49084906001600160601b03166141b1565b92506101000a8154816001600160601b0302191690836001600160601b0316021790555080606f60088282829054906101000a90046001600160601b0316610eec91906141b1565b82546101009290920a6001600160601b0381810219909316918316021790915560695460405163a9059cbb60e01b81526001600160a01b03868116600483015292851660248201529116915063a9059cbb906044016020604051808303815f875af1158015610f5d573d5f803e3d5ffd5b505050506040513d601f19601f82011682018060405250810190610f81919061421d565b6105d457604051631e9acf1760e31b815260040160405180910390fd5b610fa661320b565b5f5b818110156111c6575f838383818110610fc357610fc36141d1565b602090810292909201355f81815260718452604080822081516101208101835281546001600160401b0381168083526801000000000000000082046001600160a01b03908116848b0152600160e01b90920463ffffffff16838601526001840154606084015260028401548083166080850152600160a01b90046001600160601b0390811660a0850152600385015480821660c0860152600160601b90041660e0840152600490930154610100830152918452606d90965291205491945016331490506110c95780516001600160401b03165f908152606d602052604090819020549051636c51fda960e11b81526001600160a01b039091166004820152602401610649565b60755461010082015142916110ed9164010000000090910463ffffffff169061423c565b11156111b15760e081015181516001600160401b03165f908152606e602052604090208054600c90611130908490600160601b90046001600160601b03166141b1565b82546001600160601b039182166101009390930a9283029190920219909116179055505f8281526071602052604080822082815560018101839055600281018390556003810180546001600160c01b03191690556004018290555183917ff1ca1e9147be737b04a2b018a79405f687a97de8dd8a2559bbe62357343af41491a25b505080806111be90614205565b915050610fa8565b505050565b6001600160401b0382165f908152606d602052604090205482906001600160a01b03168061120c57604051630fb532db60e11b815260040160405180910390fd5b336001600160a01b0382161461124057604051636c51fda960e11b81526001600160a01b0382166004820152602401610649565b607354640100000000900460ff161561126c5760405163769dd35360e11b815260040160405180910390fd5b61127461320b565b6001600160401b0384165f908152606d6020526040902060020154606319016112c9576040517f05a48e0f00000000000000000000000000000000000000000000000000000000815260040160405180910390fd5b6001600160a01b0383165f908152606c602090815260408083206001600160401b0380891685529252822054169003610723576001600160a01b0383165f818152606c602090815260408083206001600160401b038916808552908352818420805467ffffffffffffffff19166001908117909155606d84528285206002018054918201815585529383902090930180546001600160a01b031916851790555192835290917f43dc749a04ac8fb825cbd514f7c0e13f13bc6f2ee66043b76629d51776cff8e0910161071a565b6001546001600160a01b031633146113da576040517f0f22ca5f00000000000000000000000000000000000000000000000000000000815260040160405180910390fd5b5f8054336201000081810275ffffffffffffffffffffffffffffffffffffffff0000198416178455600180546001600160a01b03191690556040516001600160a01b03919093041692909183917f8be0079c531659141344cd1fd0a4f28419497f9722a3daafe3b4186f6b6457e091a350565b607354640100000000900460ff16156114795760405163769dd35360e11b815260040160405180910390fd5b61148161320b565b606b5f9054906101000a90046001600160a01b03166001600160a01b0316634b4fa0c16040518163ffffffff1660e01b8152600401602060405180830381865afa1580156114d1573d5f803e3d5ffd5b505050506040513d601f19601f820116820180604052508101906114f5919061421d565b80156115685750606b54604051637d003b1d60e11b81523360048201526001600160a01b039091169063fa00763a90602401602060405180830381865afa158015611542573d5f803e3d5ffd5b505050506040513d601f19601f82011682018060405250810190611566919061421d565b155b1561158657604051630101292160e31b815260040160405180910390fd5b6001600160401b0381165f908152606d60205260409020546001600160a01b03166115c457604051630fb532db60e11b815260040160405180910390fd5b6001600160401b0381165f908152606d60205260409020600101546001600160a01b03163314611648576001600160401b0381165f908152606d6020526040908190206001015490517fd084e9750000000000000000000000000000000000000000000000000000000081526001600160a01b039091166004820152602401610649565b6001600160401b0381165f818152606d60209081526040918290208054336001600160a01b0319808316821784556001909301805490931690925583516001600160a01b03909116808252928101919091529092917f6f1dc65165ffffedfd8e507b4a0f1fcfdada045ed11f6c26ba27cedfe87802f0910160405180910390a25050565b6116d4612ec2565b610de261345a565b6001600160401b0382165f908152606d602052604090205482906001600160a01b03168061171d57604051630fb532db60e11b815260040160405180910390fd5b336001600160a01b0382161461175157604051636c51fda960e11b81526001600160a01b0382166004820152602401610649565b607354640100000000900460ff161561177d5760405163769dd35360e11b815260040160405180910390fd5b61178561320b565b6001600160a01b0383165f908152606c602090815260408083206001600160401b03808916855292528220541690036117eb57604051637800cff360e11b81526001600160401b03851660048201526001600160a01b0384166024820152604401610649565b6001600160401b0384165f908152606d602090815260408083206002018054825181850281018501909352808352919290919083018282801561185557602002820191905f5260205f20905b81546001600160a01b03168152600190910190602001808311611837575b505050505090505f6001825161186b919061424f565b90505f5b825181101561198a57856001600160a01b0316838281518110611894576118946141d1565b60200260200101516001600160a01b031603611978575f8383815181106118bd576118bd6141d1565b6020026020010151905080606d5f8a6001600160401b03166001600160401b031681526020019081526020015f2060020183815481106118ff576118ff6141d1565b5f91825260208083209190910180546001600160a01b0319166001600160a01b0394909416939093179092556001600160401b038a168152606d9091526040902060020180548061195257611952614262565b5f8281526020902081015f1990810180546001600160a01b03191690550190555061198a565b8061198281614205565b91505061186f565b506001600160a01b0385165f818152606c602090815260408083206001600160401b038b1680855290835292819020805467ffffffffffffffff191690555192835290917f182bff9831466789164ca77075fffd84916d35a8180ba73c27e45634549b445b91015b60405180910390a2505050505050565b5f80611a0c613497565b90505f8113611a31576040516321ea67b360e11b815260048101829052602401610649565b6074546075545f9163ffffffff808a1692611a4d92911661423c565b611a57919061423c565b90505f8282611a6e89670de0b6b3a7640000614276565b611a789190614276565b611a8291906142a1565b90505f611a9b6001600160601b0380881690891661423c565b9050611ab3816b033b2e3c9fd0803ce800000061424f565b821115611ad35760405163e80fa38160e01b815260040160405180910390fd5b611add818361423c565b9998505050505050505050565b6073545f90640100000000900460ff1615611b185760405163769dd35360e11b815260040160405180910390fd5b611b2061320b565b606b5f9054906101000a90046001600160a01b03166001600160a01b0316634b4fa0c16040518163ffffffff1660e01b8152600401602060405180830381865afa158015611b70573d5f803e3d5ffd5b505050506040513d601f19601f82011682018060405250810190611b94919061421d565b8015611c075750606b54604051637d003b1d60e11b81523360048201526001600160a01b039091169063fa00763a90602401602060405180830381865afa158015611be1573d5f803e3d5ffd5b505050506040513d601f19601f82011682018060405250810190611c05919061421d565b155b15611c2557604051630101292160e31b815260040160405180910390fd5b606f80546001600160401b0316905f611c3d836142b4565b82546101009290920a6001600160401b03818102199093169183160217909155606f541690505f80604051908082528060200260200182016040528015611c8e578160200160208202803683370190505b506040805180820182525f80825260208083018281526001600160401b038816808452606e83528584209451855492516001600160601b03908116600160601b026001600160c01b0319909416911617919091179093558351606081018552338152808201838152818601878152948452606d835294909220825181546001600160a01b039182166001600160a01b0319918216178355955160018301805491909216961695909517909455915180519495509093611d539260028501920190613a44565b50506040513381526001600160401b03841691507f464722b4166576d3dcbba877b999bc35cf911f4eaf434b7eba68fa113951d0bf9060200160405180910390a250905090565b6001600160401b0381165f908152606d602052604081205481906060906001600160a01b0316611ddd57604051630fb532db60e11b815260040160405180910390fd5b6001600160401b0384165f908152606e6020908152604080832054606d8352928190208054600290910180548351818602810186019094528084526001600160601b03909516946001600160a01b03909216939092918391830182828015611e6c57602002820191905f5260205f20905b81546001600160a01b03168152600190910190602001808311611e4e575b505050505090509250925092509193909250565b607354640100000000900460ff1615611eac5760405163769dd35360e11b815260040160405180910390fd5b611eb461320b565b6069546001600160a01b03163314611ef8576040517f44b0e3c300000000000000000000000000000000000000000000000000000000815260040160405180910390fd5b60208114611f32576040517f8129bbcd00000000000000000000000000000000000000000000000000000000815260040160405180910390fd5b5f611f3f82840184613ba2565b6001600160401b0381165f908152606d60205260409020549091506001600160a01b0316611f8057604051630fb532db60e11b815260040160405180910390fd5b6001600160401b0381165f908152606e6020526040812080546001600160601b031691869190611fb083856141e5565b92506101000a8154816001600160601b0302191690836001600160601b0316021790555084606f60088282829054906101000a90046001600160601b0316611ff891906141e5565b92506101000a8154816001600160601b0302191690836001600160601b03160217905550816001600160401b03167fd39ec07f4e209f627a4c427971473820dc129761ba28de8906bd56f57101d4f8828784612054919061423c565b604080519283526020830191909152016119f2565b5f61207261325e565b607354640100000000900460ff161561209e5760405163769dd35360e11b815260040160405180910390fd5b6120a661320b565b5f606d816120b76020860186613ba2565b6001600160401b0316815260208101919091526040015f20546001600160a01b0316036120f757604051630fb532db60e11b815260040160405180910390fd5b5f606c8161210b6040860160208701614067565b6001600160a01b031681526020808201929092526040015f9081209161213390860186613ba2565b6001600160401b03908116825260208201929092526040015f9081205490911691508190036121ac576121696020840184613ba2565b6121796040850160208601614067565b604051637800cff360e11b81526001600160401b0390921660048301526001600160a01b03166024820152604401610649565b60735463ffffffff166121c560608501604086016142d9565b63ffffffff161115612226576121e160608401604085016142d9565b6073546040517ff5d7e01e00000000000000000000000000000000000000000000000000000000815263ffffffff928316600482015291166024820152604401610649565b6040517ff1e14a210000000000000000000000000000000000000000000000000000000081525f90339063f1e14a2190612268908990899089906004016142f2565b602060405180830381865afa158015612283573d5f803e3d5ffd5b505050506040513d601f19601f820116820180604052508101906122a79190614361565b90505f6122be878761052f3689900389018961437c565b90505f6122e06122d460608801604089016142d9565b87606001358585611a02565b90505f606e816122f360208a018a613ba2565b6001600160401b031681526020808201929092526040015f90812054600160601b90046001600160601b031691606e9190612330908b018b613ba2565b6001600160401b0316815260208101919091526040015f205461235c91906001600160601b03166141b1565b9050816001600160601b0316816001600160601b0316101561239157604051631e9acf1760e31b815260040160405180910390fd5b5f61239d866001614396565b90505f612416336123b460408c0160208d01614067565b6123c160208d018d613ba2565b85604080516001600160a01b0395861660208083019190915294909516858201526001600160401b03928316606086015291166080808501919091528151808503909101815260a09093019052815191012090565b6040805161012081019091529091505f908061243560208d018d613ba2565b6001600160401b031681526020018b60200160208101906124569190614067565b6001600160a01b0316815260200161247460608d0160408e016142d9565b63ffffffff90811682526060808e0135602080850191909152336040808601919091526001600160601b03808e16848701528c81166080808801919091528c821660a0808901919091524260c0988901525f8b8152607186528481208a5181548c890151978d0151909a16600160e01b027bffffffffffffffffffffffffffffffffffffffffffffffffffffffff6001600160a01b0398891668010000000000000000027fffffffff00000000000000000000000000000000000000000000000000000000909c166001600160401b03909316929092179a909a171698909817885595890151600188015590880151908801518216600160a01b0292169190911760028501559385015160038401805460e08801518716600160601b026001600160c01b03199091169290961691909117949094179093556101008401516004909201919091559192508691606e916125cf908e018e613ba2565b6001600160401b0316815260208101919091526040015f208054600c90612607908490600160601b90046001600160601b03166141e5565b92506101000a8154816001600160601b0302191690836001600160601b03160217905550817f99f7f4e65b4b9fbabd4e357c47ed3099b36e57ecd3a43e84662f34c207d0ebe48260405161265b91906143b6565b60405180910390a282606c5f61267760408e0160208f01614067565b6001600160a01b031681526020808201929092526040015f9081209161269f908e018e613ba2565b6001600160401b03908116825260208201929092526040015f20805467ffffffffffffffff191692909116919091179055509a9950505050505050505050565b6001600160401b0381165f908152606d60205260408120546001600160a01b031661271d57604051630fb532db60e11b815260040160405180910390fd5b506001600160401b03165f908152606d60205260409020546001600160a01b031690565b5f54610100900460ff161580801561275f57505f54600160ff909116105b806127785750303b15801561277857505f5460ff166001145b6127ea5760405162461bcd60e51b815260206004820152602e60248201527f496e697469616c697a61626c653a20636f6e747261637420697320616c72656160448201527f647920696e697469616c697a65640000000000000000000000000000000000006064820152608401610649565b5f805460ff19166001179055801561280b575f805461ff0019166101001790555b61281361356b565b61281d335f6135dd565b606980546001600160a01b038087166001600160a01b031992831617909255606a8054868416908316179055606b8054928516929091169190911790558015610723575f805461ff0019169055604051600181527f7f26b83ff96e1f2b6a682f133852f6798a09c465da95921460cefb3847402498906020015b60405180910390a150505050565b6001600160401b0382165f908152606d602052604090205482906001600160a01b0316806128e657604051630fb532db60e11b815260040160405180910390fd5b336001600160a01b0382161461291a57604051636c51fda960e11b81526001600160a01b0382166004820152602401610649565b607354640100000000900460ff16156129465760405163769dd35360e11b815260040160405180910390fd5b61294e61320b565b61295784612b4b565b1561298e576040517fb42f66e800000000000000000000000000000000000000000000000000000000815260040160405180910390fd5b6107238484612f0b565b6129a0612ec2565b6069546040517f70a082310000000000000000000000000000000000000000000000000000000081523060048201525f916001600160a01b0316906370a0823190602401602060405180830381865afa1580156129ff573d5f803e3d5ffd5b505050506040513d601f19601f82011682018060405250810190612a23919061447b565b606f549091506801000000000000000090046001600160601b031681811115612a82576040517fa99da3020000000000000000000000000000000000000000000000000000000081526004810182905260248101839052604401610649565b818110156111c6575f612a95828461424f565b60695460405163a9059cbb60e01b81526001600160a01b0387811660048301526024820184905292935091169063a9059cbb906044016020604051808303815f875af1158015612ae7573d5f803e3d5ffd5b505050506040513d601f19601f82011682018060405250810190612b0b919061421d565b50604080516001600160a01b0386168152602081018390527f59bfc682b673f8cbf945f1e454df9334834abf7dfe7f92237ca29ecb9b4366009101612897565b6001600160401b0381165f908152606d6020908152604080832060020180548251818502810185019093528083528493830182828015612bb257602002820191905f5260205f20905b81546001600160a01b03168152600190910190602001808311612b94575b505050505090505f612bc2610c67565b90505f5b8251811015612d2c575f5b8251811015612d19575f612cd7848381518110612bf057612bf06141d1565b6020026020010151868581518110612c0a57612c0a6141d1565b602002602001015189606c5f8a8981518110612c2857612c286141d1565b60200260200101516001600160a01b03166001600160a01b031681526020019081526020015f205f8c6001600160401b03166001600160401b031681526020019081526020015f205f9054906101000a90046001600160401b0316604080516001600160a01b0395861660208083019190915294909516858201526001600160401b03928316606086015291166080808501919091528151808503909101815260a09093019052815191012090565b5f818152607160205260409020600201549091506001600160a01b031615612d06575060019695505050505050565b5080612d1181614205565b915050612bd1565b5080612d2481614205565b915050612bc6565b505f949350505050565b612d3e6136cc565b612d74576040517fad77f06100000000000000000000000000000000000000000000000000000000815260040160405180910390fd5b5f819003612dae576040517f75158c3b00000000000000000000000000000000000000000000000000000000815260040160405180910390fd5b5f5b606854811015612dff57612dec60688281548110612dd057612dd06141d1565b5f918252602090912001546066906001600160a01b03166136db565b5080612df781614205565b915050612db0565b505f5b81811015612e4f57612e3c838383818110612e1f57612e1f6141d1565b9050602002016020810190612e349190614067565b6066906136f6565b5080612e4781614205565b915050612e02565b50612e5c60688383613aa3565b507ff263cfb3e4298332e776194610cf9fdc09ccb3ada8b9aa39764d882e11fbf0a0828233604051612e9093929190614492565b60405180910390a15050565b612ea4612ec2565b612ead8161370a565b50565b5f612ebc6066836137a3565b92915050565b5f546201000090046001600160a01b03163314610de2576040517f2b5c74de00000000000000000000000000000000000000000000000000000000815260040160405180910390fd5b607354640100000000900460ff1615612f375760405163769dd35360e11b815260040160405180910390fd5b6001600160401b0382165f908152606d60209081526040808320815160608101835281546001600160a01b03908116825260018301541681850152600282018054845181870281018701865281815292959394860193830182828015612fc457602002820191905f5260205f20905b81546001600160a01b03168152600190910190602001808311612fa6575b505050919092525050506001600160401b0384165f908152606e60205260408120549192506001600160601b03909116905b82604001515181101561307557606c5f8460400151838151811061301c5761301c6141d1565b6020908102919091018101516001600160a01b031682528181019290925260409081015f9081206001600160401b03891682529092529020805467ffffffffffffffff191690558061306d81614205565b915050612ff6565b506001600160401b0384165f908152606d6020526040812080546001600160a01b031990811682556001820180549091169055906130b66002830182613af4565b50506001600160401b0384165f908152606e6020526040902080546001600160c01b0319169055606f80548291906008906131079084906801000000000000000090046001600160601b03166141b1565b82546101009290920a6001600160601b0381810219909316918316021790915560695460405163a9059cbb60e01b81526001600160a01b03878116600483015292851660248201529116915063a9059cbb906044016020604051808303815f875af1158015613178573d5f803e3d5ffd5b505050506040513d601f19601f8201168201806040525081019061319c919061421d565b6131b957604051631e9acf1760e31b815260040160405180910390fd5b604080516001600160a01b03851681526001600160601b03831660208201526001600160401b038616917fe8ed5b475a5b5987aa9165e8731bb78043f39eee32ec5a1169a89e27fcd49815910161071a565b60345460ff1615610de25760405162461bcd60e51b815260206004820152601060248201527f5061757361626c653a20706175736564000000000000000000000000000000006044820152606401610649565b61326733612eb0565b610de257604051630101292160e31b815260040160405180910390fd5b5f5a611388811015613294575f80fd5b6113888103905084604082048203116132ab575f80fd5b50823b6132b6575f80fd5b5f808351602085015f8789f1949350505050565b604080516060810182525f80825260208201819052918101829052906132ee613497565b90505f8113613313576040516321ea67b360e11b815260048101829052602401610649565b5f815a8b6133218c8961423c565b61332b919061423c565b613335919061424f565b61334786670de0b6b3a7640000614276565b6133519190614276565b61335b91906142a1565b90505f6133746001600160601b03808916908b1661423c565b905061338c816b033b2e3c9fd0803ce800000061424f565b8211156133ac5760405163e80fa38160e01b815260040160405180910390fd5b5f6133ba60ff8a168b6144ef565b9050825f6133d06133cb858461423c565b6137c4565b604080516060810182526001600160601b03958616815293851660208501529316928201929092529c9b505050505050505050505050565b613410613846565b6034805460ff191690557f5db9ee0a495bf2e6ff9c91a7834c1ba4fdd244a5e8aa4e537bd38aeae4b073aa335b6040516001600160a01b03909116815260200160405180910390a1565b61346261320b565b6034805460ff191660011790557f62e78cea01bee320cd4e420270b5ea74000d11b0c9f74754ebdbfc544b05a25861343d3390565b607354606a54604080517ffeaf968c00000000000000000000000000000000000000000000000000000000815290515f9365010000000000900463ffffffff169283151592859283926001600160a01b03169163feaf968c9160048083019260a09291908290030181865afa158015613512573d5f803e3d5ffd5b505050506040513d601f19601f82011682018060405250810190613536919061452d565b50935050925050828015613558575061354f814261424f565b8463ffffffff16105b156135635760725491505b509392505050565b5f54610100900460ff166135d55760405162461bcd60e51b815260206004820152602b60248201527f496e697469616c697a61626c653a20636f6e7472616374206973206e6f74206960448201526a6e697469616c697a696e6760a81b6064820152608401610649565b610de2613898565b5f54610100900460ff166136475760405162461bcd60e51b815260206004820152602b60248201527f496e697469616c697a61626c653a20636f6e7472616374206973206e6f74206960448201526a6e697469616c697a696e6760a81b6064820152608401610649565b6001600160a01b038216613687576040517fb6b515fa00000000000000000000000000000000000000000000000000000000815260040160405180910390fd5b5f80546001600160a01b03808516620100000275ffffffffffffffffffffffffffffffffffffffff000019909216919091179091558116156105d4576105d48161370a565b5f6136d5612ec2565b50600190565b5f6136ef836001600160a01b03841661390e565b9392505050565b5f6136ef836001600160a01b0384166139f8565b336001600160a01b0382160361374c576040517f282010c300000000000000000000000000000000000000000000000000000000815260040160405180910390fd5b600180546001600160a01b0319166001600160a01b038381169182179092555f805460405192936201000090910416917fed8889f560326eb138920d842192f0eb3dd22b4f139c87a2c57538e05bae12789190a350565b6001600160a01b0381165f90815260018301602052604081205415156136ef565b5f6001600160601b038211156138425760405162461bcd60e51b815260206004820152602660248201527f53616665436173743a2076616c756520646f65736e27742066697420696e203960448201527f36206269747300000000000000000000000000000000000000000000000000006064820152608401610649565b5090565b60345460ff16610de25760405162461bcd60e51b815260206004820152601460248201527f5061757361626c653a206e6f74207061757365640000000000000000000000006044820152606401610649565b5f54610100900460ff166139025760405162461bcd60e51b815260206004820152602b60248201527f496e697469616c697a61626c653a20636f6e7472616374206973206e6f74206960448201526a6e697469616c697a696e6760a81b6064820152608401610649565b6034805460ff19169055565b5f81815260018301602052604081205480156139e8575f61393060018361424f565b85549091505f906139439060019061424f565b90508181146139a2575f865f018281548110613961576139616141d1565b905f5260205f200154905080875f018481548110613981576139816141d1565b5f918252602080832090910192909255918252600188019052604090208390555b85548690806139b3576139b3614262565b600190038181905f5260205f20015f90559055856001015f8681526020019081526020015f205f905560019350505050612ebc565b5f915050612ebc565b5092915050565b5f818152600183016020526040812054613a3d57508154600181810184555f848152602080822090930184905584548482528286019093526040902091909155612ebc565b505f612ebc565b828054828255905f5260205f20908101928215613a97579160200282015b82811115613a9757825182546001600160a01b0319166001600160a01b03909116178255602090920191600190910190613a62565b50613842929150613b0b565b828054828255905f5260205f20908101928215613a97579160200282015b82811115613a975781546001600160a01b0319166001600160a01b03843516178255602090920191600190910190613ac1565b5080545f8255905f5260205f2090810190612ead91905b5b80821115613842575f8155600101613b0c565b5f8151808452602080850194508084015f5b83811015613b565781516001600160a01b031687529582019590820190600101613b31565b509495945050505050565b63ffffffff83168152604060208201525f613b7f6040830184613b1f565b949350505050565b80356001600160401b0381168114613b9d575f80fd5b919050565b5f60208284031215613bb2575f80fd5b6136ef82613b87565b80356001600160a01b0381168114613b9d575f80fd5b5f8060408385031215613be2575f80fd5b613beb83613b87565b9150613bf960208401613bbb565b90509250929050565b5f8083601f840112613c12575f80fd5b5081356001600160401b03811115613c28575f80fd5b602083019150836020828501011115613c3f575f80fd5b9250929050565b634e487b7160e01b5f52604160045260245ffd5b803560ff81168114613b9d575f80fd5b5f805f805f805f805f806104c08b8d031215613c84575f80fd5b8a35995060208b01356001600160401b0380821115613ca1575f80fd5b613cad8e838f01613c02565b909b50995060408d0135915080821115613cc5575f80fd5b613cd18e838f01613c02565b9099509750879150613ce560608e01613bbb565b96508d609f8e0112613cf5575f80fd5b60405191506103e082018281108282111715613d1357613d13613c46565b60405250806104608d018e811115613d29575f80fd5b60808e015b81811015613d4d57613d3f81613bbb565b835260209283019201613d2e565b50829650613d5a81613c5a565b95505050506104808b013591506104a08b013590509295989b9194979a5092959850565b6020810160038310613d9e57634e487b7160e01b5f52602160045260245ffd5b91905290565b602081525f6136ef6020830184613b1f565b803563ffffffff81168114613b9d575f80fd5b5f805f805f8060c08789031215613dde575f80fd5b613de787613db6565b9550613df560208801613db6565b94506040870135935060608701359250613e1160808801613db6565b9150613e1f60a08801613db6565b90509295509295509295565b6001600160601b0381168114612ead575f80fd5b5f8060408385031215613e50575f80fd5b613e5983613bbb565b91506020830135613e6981613e2b565b809150509250929050565b5f8083601f840112613e84575f80fd5b5081356001600160401b03811115613e9a575f80fd5b6020830191508360208260051b8501011115613c3f575f80fd5b5f8060208385031215613ec5575f80fd5b82356001600160401b03811115613eda575f80fd5b613ee685828601613e74565b90969095509350505050565b5f805f8060808587031215613f05575f80fd5b613f0e85613db6565b9350602085013592506040850135613f2581613e2b565b91506060850135613f3581613e2b565b939692955090935050565b6001600160601b03841681526001600160a01b0383166020820152606060408201525f613f706060830184613b1f565b95945050505050565b5f805f8060608587031215613f8c575f80fd5b613f9585613bbb565b93506020850135925060408501356001600160401b03811115613fb6575f80fd5b613fc287828801613c02565b95989497509550505050565b5f805f83850360a0811215613fe1575f80fd5b84356001600160401b03811115613ff6575f80fd5b61400287828801613c02565b9095509350506080601f1982011215614019575f80fd5b506020840190509250925092565b5f805f60608486031215614039575f80fd5b61404284613bbb565b925061405060208501613bbb565b915061405e60408501613bbb565b90509250925092565b5f60208284031215614077575f80fd5b6136ef82613bbb565b5f60808284031215614090575f80fd5b604051608081018181106001600160401b03821117156140b2576140b2613c46565b6040529050806140c183613b87565b81526140cf60208401613bbb565b60208201526140e060408401613db6565b6040820152606083013560608201525092915050565b5f805f60a08486031215614108575f80fd5b83356001600160401b0381111561411d575f80fd5b61412986828701613c02565b909450925061405e90508560208601614080565b81835281816020850137505f828201602090810191909152601f909101601f19169091010190565b858152606060208201525f61417e60608301868861413d565b828103604084015261419181858761413d565b98975050505050505050565b634e487b7160e01b5f52601160045260245ffd5b6001600160601b038281168282160390808211156139f1576139f161419d565b634e487b7160e01b5f52603260045260245ffd5b6001600160601b038181168382160190808211156139f1576139f161419d565b5f600182016142165761421661419d565b5060010190565b5f6020828403121561422d575f80fd5b815180151581146136ef575f80fd5b80820180821115612ebc57612ebc61419d565b81810381811115612ebc57612ebc61419d565b634e487b7160e01b5f52603160045260245ffd5b8082028115828204841417612ebc57612ebc61419d565b634e487b7160e01b5f52601260045260245ffd5b5f826142af576142af61428d565b500490565b5f6001600160401b038083168181036142cf576142cf61419d565b6001019392505050565b5f602082840312156142e9575f80fd5b6136ef82613db6565b60a081525f61430560a08301858761413d565b90506001600160401b0361431884613b87565b1660208301526001600160a01b0361433260208501613bbb565b16604083015263ffffffff61434960408501613db6565b16606083015260608301356080830152949350505050565b5f60208284031215614371575f80fd5b81516136ef81613e2b565b5f6080828403121561438c575f80fd5b6136ef8383614080565b6001600160401b038181168382160190808211156139f1576139f161419d565b5f610120820190506001600160401b0383511682526001600160a01b03602084015116602083015260408301516143f5604084018263ffffffff169052565b5060608301516060830152608083015161441a60808401826001600160a01b03169052565b5060a083015161443560a08401826001600160601b03169052565b5060c083015161445060c08401826001600160601b03169052565b5060e083015161446b60e08401826001600160601b03169052565b5061010092830151919092015290565b5f6020828403121561448b575f80fd5b5051919050565b604080825281018390525f8460608301825b868110156144d2576001600160a01b036144bd84613bbb565b168252602092830192909101906001016144a4565b5080925050506001600160a01b0383166020830152949350505050565b5f6001600160601b03808416806145085761450861428d565b92169190910492915050565b805169ffffffffffffffffffff81168114613b9d575f80fd5b5f805f805f60a08688031215614541575f80fd5b61454a86614514565b945060208601519350604086015192506060860151915061456d60808701614514565b9050929550929590935056fea2646970667358221220d5c4bd6734202e659b5c3e4284d69479338a8561a056b52cfd932383116a0d9d64736f6c63430008140033",
  "linkReferences": {},
  "deployedLinkReferences": {}
}