{
  "_format": "hh-sol-artifact-1",
  "contractName": "PostRegistry",
  "sourceName": "src/backend/contracts/PostRegistry.sol",
  "abi": [
    {
      "inputs": [],
      "stateMutability": "nonpayable",
      "type": "constructor"
    },
    {
      "anonymous": false,
      "inputs": [
        {
          "indexed": true,
          "internalType": "uint256",
          "name": "postId",
          "type": "uint256"
        },
        {
          "indexed": true,
          "internalType": "address",
          "name": "creator",
          "type": "address"
        },
        {
          "indexed": false,
          "internalType": "string",
          "name": "content",
          "type": "string"
        }
      ],
      "name": "PostCreated",
      "type": "event"
    },
    {
      "inputs": [
        {
          "internalType": "uint256",
          "name": "postId",
          "type": "uint256"
        }
      ],
      "name": "appreciate",
      "outputs": [
        {
          "internalType": "bool",
          "name": "",
          "type": "bool"
        }
      ],
      "stateMutability": "payable",
      "type": "function"
    },
    {
      "inputs": [
        {
          "internalType": "string",
          "name": "content",
          "type": "string"
        }
      ],
      "name": "createPost",
      "outputs": [
        {
          "internalType": "uint256",
          "name": "",
          "type": "uint256"
        }
      ],
      "stateMutability": "nonpayable",
      "type": "function"
    },
    {
      "inputs": [
        {
          "internalType": "uint256",
          "name": "postId",
          "type": "uint256"
        }
      ],
      "name": "getPost",
      "outputs": [
        {
          "components": [
            {
              "internalType": "uint256",
              "name": "id",
              "type": "uint256"
            },
            {
              "internalType": "address",
              "name": "creator",
              "type": "address"
            },
            {
              "internalType": "string",
              "name": "content",
              "type": "string"
            },
            {
              "internalType": "uint256",
              "name": "timestamp",
              "type": "uint256"
            },
            {
              "internalType": "uint256",
              "name": "appreciationsCnt",
              "type": "uint256"
            }
          ],
          "internalType": "struct PostRegistry.Post",
          "name": "",
          "type": "tuple"
        }
      ],
      "stateMutability": "view",
      "type": "function"
    },
    {
      "inputs": [],
      "name": "handler",
      "outputs": [
        {
          "internalType": "contract IHandler",
          "name": "",
          "type": "address"
        }
      ],
      "stateMutability": "view",
      "type": "function"
    },
    {
      "inputs": [],
      "name": "postCount",
      "outputs": [
        {
          "internalType": "uint256",
          "name": "",
          "type": "uint256"
        }
      ],
      "stateMutability": "view",
      "type": "function"
    },
    {
      "inputs": [
        {
          "internalType": "uint256",
          "name": "",
          "type": "uint256"
        }
      ],
      "name": "posts",
      "outputs": [
        {
          "internalType": "uint256",
          "name": "id",
          "type": "uint256"
        },
        {
          "internalType": "address",
          "name": "creator",
          "type": "address"
        },
        {
          "internalType": "string",
          "name": "content",
          "type": "string"
        },
        {
          "internalType": "uint256",
          "name": "timestamp",
          "type": "uint256"
        },
        {
          "internalType": "uint256",
          "name": "appreciationsCnt",
          "type": "uint256"
        }
      ],
      "stateMutability": "view",
      "type": "function"
    },
    {
      "inputs": [
        {
          "internalType": "address",
          "name": "_handlerAddr",
          "type": "address"
        }
      ],
      "name": "setHandler",
      "outputs": [],
      "stateMutability": "nonpayable",
      "type": "function"
    },
    {
      "inputs": [
        {
          "internalType": "address",
          "name": "_userRegistryAddr",
          "type": "address"
        }
      ],
      "name": "setUserRegistry",
      "outputs": [],
      "stateMutability": "nonpayable",
      "type": "function"
    },
    {
      "inputs": [],
      "name": "userRegistry",
      "outputs": [
        {
          "internalType": "contract IUserRegistry",
          "name": "",
          "type": "address"
        }
      ],
      "stateMutability": "view",
      "type": "function"
    }
  ],
  "bytecode": "0x608060405234801561000f575f80fd5b505f80546001600160a01b03191633179055610f3b8061002e5f395ff3fe608060405260043610610093575f3560e01c80635c7460d611610066578063bac426d01161004c578063bac426d01461019a578063c7303c61146101b9578063c80916d4146101d8575f80fd5b80635c7460d614610142578063b0d5451b14610179575f80fd5b80630b1e7f831461009757806317906c2e146100d057806335e476af146100f357806340731c2414610116575b5f80fd5b3480156100a2575f80fd5b506100b66100b13660046109e3565b6101f7565b6040516100c7959493929190610a47565b60405180910390f35b3480156100db575f80fd5b506100e560015481565b6040519081526020016100c7565b6101066101013660046109e3565b6102b6565b60405190151581526020016100c7565b348015610121575f80fd5b506101356101303660046109e3565b6105fc565b6040516100c79190610a82565b34801561014d575f80fd5b50600354610161906001600160a01b031681565b6040516001600160a01b0390911681526020016100c7565b348015610184575f80fd5b50610198610193366004610ada565b610713565b005b3480156101a5575f80fd5b506101986101b4366004610ada565b61079b565b3480156101c4575f80fd5b506100e56101d3366004610b9d565b610823565b3480156101e3575f80fd5b50600454610161906001600160a01b031681565b600260208190525f918252604090912080546001820154928201805491936001600160a01b0316929161022990610c17565b80601f016020809104026020016040519081016040528092919081815260200182805461025590610c17565b80156102a05780601f10610277576101008083540402835291602001916102a0565b820191905f5260205f20905b81548152906001019060200180831161028357829003601f168201915b5050505050908060030154908060040154905085565b60035460405163cc3d967b60e01b81523360048201525f9182916001600160a01b039091169063cc3d967b906024015f60405180830381865afa1580156102ff573d5f803e3d5ffd5b505050506040513d5f823e601f3d908101601f191682016040526103269190810190610cad565b905080606001516103a45760405162461bcd60e51b815260206004820152602260248201527f417070726563696174653a20726567697374657220746f20617070726563696160448201527f746500000000000000000000000000000000000000000000000000000000000060648201526084015b60405180910390fd5b5f838152600260205260409020600101546001600160a01b0316330361040c5760405162461bcd60e51b815260206004820152601a60248201527f53656c6620617070726563696174696f6e206465746563746564000000000000604482015260640161039b565b5f838152600260205260409020600101546001600160a01b0316806104735760405162461bcd60e51b815260206004820152601b60248201527f417070726563696174653a20496e76616c696420706f73745f69640000000000604482015260640161039b565b8160a001513411156104ed5760405162461bcd60e51b815260206004820152602160248201527f696e73756666696369656e7420636f6e747269627574696f6e2062616c616e6360448201527f6500000000000000000000000000000000000000000000000000000000000000606482015260840161039b565b5f84815260026020526040812060040180549161050983610dac565b9091555050600480546040517f2594c0f50000000000000000000000000000000000000000000000000000000081526001600160a01b03848116938201939093523360248201525f9290911690632594c0f590349060440160206040518083038185885af115801561057d573d5f803e3d5ffd5b50505050506040513d601f19601f820116820180604052508101906105a29190610dd0565b9050806105f15760405162461bcd60e51b815260206004820152601960248201527f506f73743a20617070726563696174696f6e206661696c656400000000000000604482015260640161039b565b506001949350505050565b6106336040518060a001604052805f81526020015f6001600160a01b03168152602001606081526020015f81526020015f81525090565b5f82815260026020818152604092839020835160a0810185528154815260018201546001600160a01b0316928101929092529182018054919384019161067890610c17565b80601f01602080910402602001604051908101604052809291908181526020018280546106a490610c17565b80156106ef5780601f106106c6576101008083540402835291602001916106ef565b820191905f5260205f20905b8154815290600101906020018083116106d257829003601f168201915b50505050508152602001600382015481526020016004820154815250509050919050565b5f546001600160a01b0316331461076c5760405162461bcd60e51b815260206004820152601560248201527f4f6e6c79206f776e65722063616e206163636573730000000000000000000000604482015260640161039b565b6003805473ffffffffffffffffffffffffffffffffffffffff19166001600160a01b0392909216919091179055565b5f546001600160a01b031633146107f45760405162461bcd60e51b815260206004820152601560248201527f4f6e6c79206f776e65722063616e206163636573730000000000000000000000604482015260640161039b565b6004805473ffffffffffffffffffffffffffffffffffffffff19166001600160a01b0392909216919091179055565b60035460405163cc3d967b60e01b81523360048201525f9182916001600160a01b039091169063cc3d967b906024015f60405180830381865afa15801561086c573d5f803e3d5ffd5b505050506040513d5f823e601f3d908101601f191682016040526108939190810190610cad565b905080606001516108e65760405162461bcd60e51b815260206004820152601660248201527f506f73743a20726567697374657220746f20706f737400000000000000000000604482015260640161039b565b60018054905f6108f583610dac565b90915550506040805160a081018252600180548083523360208085019182528486018981524260608701525f6080870181905293845260029182905295909220845181559051928101805473ffffffffffffffffffffffffffffffffffffffff19166001600160a01b03909416939093179092559251919290919082019061097d9082610e37565b506060820151816003015560808201518160040155905050336001600160a01b03166001547f8e40a51278abe2f4b410c0a96ff0bdd024b22666ca334062bf72afd596984bd6856040516109d19190610ef3565b60405180910390a35050600154919050565b5f602082840312156109f3575f80fd5b5035919050565b5f5b83811015610a145781810151838201526020016109fc565b50505f910152565b5f8151808452610a338160208601602086016109fa565b601f01601f19169290920160200192915050565b8581526001600160a01b038516602082015260a060408201525f610a6e60a0830186610a1c565b606083019490945250608001529392505050565b60208152815160208201526001600160a01b0360208301511660408201525f604083015160a06060840152610aba60c0840182610a1c565b905060608401516080840152608084015160a08401528091505092915050565b5f60208284031215610aea575f80fd5b81356001600160a01b0381168114610b00575f80fd5b9392505050565b634e487b7160e01b5f52604160045260245ffd5b604051610160810167ffffffffffffffff81118282101715610b3f57610b3f610b07565b60405290565b604051601f8201601f1916810167ffffffffffffffff81118282101715610b6e57610b6e610b07565b604052919050565b5f67ffffffffffffffff821115610b8f57610b8f610b07565b50601f01601f191660200190565b5f60208284031215610bad575f80fd5b813567ffffffffffffffff811115610bc3575f80fd5b8201601f81018413610bd3575f80fd5b8035610be6610be182610b76565b610b45565b818152856020838501011115610bfa575f80fd5b816020840160208301375f91810160200191909152949350505050565b600181811c90821680610c2b57607f821691505b602082108103610c4957634e487b7160e01b5f52602260045260245ffd5b50919050565b5f82601f830112610c5e575f80fd5b8151610c6c610be182610b76565b818152846020838601011115610c80575f80fd5b610c918260208301602087016109fa565b949350505050565b80518015158114610ca8575f80fd5b919050565b5f60208284031215610cbd575f80fd5b815167ffffffffffffffff80821115610cd4575f80fd5b908301906101608286031215610ce8575f80fd5b610cf0610b1b565b825182811115610cfe575f80fd5b610d0a87828601610c4f565b825250602083015182811115610d1e575f80fd5b610d2a87828601610c4f565b60208301525060408301516040820152610d4660608401610c99565b60608201526080830151608082015260a083015160a082015260c083015160c082015260e083015160e082015261010091508183015182820152610120915081830151828201526101409150610d9d828401610c99565b91810191909152949350505050565b5f60018201610dc957634e487b7160e01b5f52601160045260245ffd5b5060010190565b5f60208284031215610de0575f80fd5b610b0082610c99565b601f821115610e32575f81815260208120601f850160051c81016020861015610e0f5750805b601f850160051c820191505b81811015610e2e57828155600101610e1b565b5050505b505050565b815167ffffffffffffffff811115610e5157610e51610b07565b610e6581610e5f8454610c17565b84610de9565b602080601f831160018114610e98575f8415610e815750858301515b5f19600386901b1c1916600185901b178555610e2e565b5f85815260208120601f198616915b82811015610ec657888601518255948401946001909101908401610ea7565b5085821015610ee357878501515f19600388901b60f8161c191681555b5050505050600190811b01905550565b602081525f610b006020830184610a1c56fea2646970667358221220be94d6e0653346ac204c8c2f23e1f86824816ee2bd1635a3fd0041dd9f08eede64736f6c63430008140033",
  "linkReferences": {},
  "deployedLinkReferences": {}
}