{
  "_format": "hh-sol-artifact-1",
  "contractName": "UserRegistry",
  "sourceName": "src/backend/contracts/UserRegistry.sol",
  "abi": [
    {
      "inputs": [],
      "stateMutability": "nonpayable",
      "type": "constructor"
    },
    {
      "anonymous": false,
      "inputs": [
        {
          "indexed": true,
          "internalType": "address",
          "name": "id",
          "type": "address"
        }
      ],
      "name": "UserRegistered",
      "type": "event"
    },
    {
      "inputs": [
        {
          "internalType": "address",
          "name": "userAddr",
          "type": "address"
        }
      ],
      "name": "addContributionBal",
      "outputs": [
        {
          "internalType": "bool",
          "name": "",
          "type": "bool"
        }
      ],
      "stateMutability": "payable",
      "type": "function"
    },
    {
      "inputs": [
        {
          "internalType": "address",
          "name": "user",
          "type": "address"
        }
      ],
      "name": "getUserDetails",
      "outputs": [
        {
          "components": [
            {
              "internalType": "string",
              "name": "name",
              "type": "string"
            },
            {
              "internalType": "string",
              "name": "profileCID",
              "type": "string"
            },
            {
              "internalType": "uint256",
              "name": "level",
              "type": "uint256"
            },
            {
              "internalType": "bool",
              "name": "registered",
              "type": "bool"
            },
            {
              "internalType": "uint256",
              "name": "appreciationBalance",
              "type": "uint256"
            },
            {
              "internalType": "uint256",
              "name": "contributionBalance",
              "type": "uint256"
            },
            {
              "internalType": "uint256",
              "name": "appreciationsTaken",
              "type": "uint256"
            },
            {
              "internalType": "uint256",
              "name": "appreciationsGiven",
              "type": "uint256"
            },
            {
              "internalType": "uint256",
              "name": "takenAmt",
              "type": "uint256"
            },
            {
              "internalType": "uint256",
              "name": "givenAmt",
              "type": "uint256"
            },
            {
              "internalType": "uint256",
              "name": "tokenId",
              "type": "uint256"
            },
            {
              "internalType": "bool",
              "name": "tokenHolder",
              "type": "bool"
            }
          ],
          "internalType": "struct UserRegistry.User",
          "name": "",
          "type": "tuple"
        }
      ],
      "stateMutability": "view",
      "type": "function"
    },
    {
      "inputs": [
        {
          "internalType": "address",
          "name": "_user",
          "type": "address"
        }
      ],
      "name": "isRegistered",
      "outputs": [
        {
          "internalType": "bool",
          "name": "",
          "type": "bool"
        }
      ],
      "stateMutability": "view",
      "type": "function"
    },
    {
      "inputs": [
        {
          "internalType": "string",
          "name": "name",
          "type": "string"
        },
        {
          "internalType": "string",
          "name": "profileCID",
          "type": "string"
        }
      ],
      "name": "registerUser",
      "outputs": [],
      "stateMutability": "nonpayable",
      "type": "function"
    },
    {
      "inputs": [
        {
          "internalType": "address",
          "name": "_tokenAddr",
          "type": "address"
        }
      ],
      "name": "setGovernanceToken",
      "outputs": [],
      "stateMutability": "nonpayable",
      "type": "function"
    },
    {
      "inputs": [
        {
          "internalType": "address",
          "name": "_handler",
          "type": "address"
        }
      ],
      "name": "setHandler",
      "outputs": [],
      "stateMutability": "nonpayable",
      "type": "function"
    },
    {
      "inputs": [
        {
          "internalType": "address",
          "name": "_user",
          "type": "address"
        },
        {
          "internalType": "uint256",
          "name": "_tokenId",
          "type": "uint256"
        }
      ],
      "name": "setTokenId",
      "outputs": [],
      "stateMutability": "nonpayable",
      "type": "function"
    },
    {
      "inputs": [
        {
          "internalType": "address",
          "name": "appreciator",
          "type": "address"
        },
        {
          "internalType": "uint256",
          "name": "amt",
          "type": "uint256"
        }
      ],
      "name": "updateAppreciator",
      "outputs": [
        {
          "internalType": "bool",
          "name": "",
          "type": "bool"
        }
      ],
      "stateMutability": "nonpayable",
      "type": "function"
    },
    {
      "inputs": [
        {
          "internalType": "address",
          "name": "creator",
          "type": "address"
        },
        {
          "internalType": "uint256",
          "name": "amt",
          "type": "uint256"
        }
      ],
      "name": "updateCreator",
      "outputs": [
        {
          "internalType": "bool",
          "name": "",
          "type": "bool"
        }
      ],
      "stateMutability": "nonpayable",
      "type": "function"
    },
    {
      "inputs": [
        {
          "internalType": "address",
          "name": "",
          "type": "address"
        }
      ],
      "name": "users",
      "outputs": [
        {
          "internalType": "string",
          "name": "name",
          "type": "string"
        },
        {
          "internalType": "string",
          "name": "profileCID",
          "type": "string"
        },
        {
          "internalType": "uint256",
          "name": "level",
          "type": "uint256"
        },
        {
          "internalType": "bool",
          "name": "registered",
          "type": "bool"
        },
        {
          "internalType": "uint256",
          "name": "appreciationBalance",
          "type": "uint256"
        },
        {
          "internalType": "uint256",
          "name": "contributionBalance",
          "type": "uint256"
        },
        {
          "internalType": "uint256",
          "name": "appreciationsTaken",
          "type": "uint256"
        },
        {
          "internalType": "uint256",
          "name": "appreciationsGiven",
          "type": "uint256"
        },
        {
          "internalType": "uint256",
          "name": "takenAmt",
          "type": "uint256"
        },
        {
          "internalType": "uint256",
          "name": "givenAmt",
          "type": "uint256"
        },
        {
          "internalType": "uint256",
          "name": "tokenId",
          "type": "uint256"
        },
        {
          "internalType": "bool",
          "name": "tokenHolder",
          "type": "bool"
        }
      ],
      "stateMutability": "view",
      "type": "function"
    },
    {
      "inputs": [
        {
          "internalType": "address",
          "name": "creator",
          "type": "address"
        },
        {
          "internalType": "uint256",
          "name": "fee",
          "type": "uint256"
        },
        {
          "internalType": "uint256",
          "name": "withdrawalThresholdInEth",
          "type": "uint256"
        }
      ],
      "name": "withdraw",
      "outputs": [],
      "stateMutability": "nonpayable",
      "type": "function"
    }
  ],
  "bytecode": "0x608060405234801561000f575f80fd5b505f80546001600160a01b031916331790556112b78061002e5f395ff3fe6080604052600436106100b8575f3560e01c8063bac426d011610071578063c7c82d1c1161004c578063c7c82d1c146101f3578063cc3d967b14610212578063f85701701461023e575f80fd5b8063bac426d014610186578063c3c5a547146101a5578063c74c40ff146101e0575f80fd5b806393956b37116100a157806393956b3714610111578063a87430ba14610130578063b5c5f67214610167575f80fd5b806309ae32a5146100bc5780631d2e4afd146100f0575b5f80fd5b3480156100c7575f80fd5b506100db6100d6366004610d60565b61025d565b60405190151581526020015b60405180910390f35b3480156100fb575f80fd5b5061010f61010a366004610e27565b610396565b005b34801561011c575f80fd5b506100db61012b366004610d60565b61053c565b34801561013b575f80fd5b5061014f61014a366004610e87565b6105f3565b6040516100e79c9b9a99989796959493929190610eec565b348015610172575f80fd5b5061010f610181366004610f65565b610762565b348015610191575f80fd5b5061010f6101a0366004610e87565b61082a565b3480156101b0575f80fd5b506100db6101bf366004610e87565b6001600160a01b03165f908152600360208190526040909120015460ff1690565b6100db6101ee366004610e87565b6108bb565b3480156101fe575f80fd5b5061010f61020d366004610d60565b61095a565b34801561021d575f80fd5b5061023161022c366004610e87565b610ab9565b6040516100e79190610f97565b348015610249575f80fd5b5061010f610258366004610e87565b610cd3565b60408051808201909152600c81526b43616e27742075706461746560a01b60208201526001545f919081906001600160a01b031633146102b95760405162461bcd60e51b81526004016102b09190611069565b60405180910390fd5b506001600160a01b0384165f9081526003602052604090206005810154841061034a5760405162461bcd60e51b815260206004820152602160248201527f696e73756666696369656e7420636f6e747269627574696f6e2062616c616e6360448201527f650000000000000000000000000000000000000000000000000000000000000060648201526084016102b0565b600781018054905f61035b8361108f565b919050555083816009015461037091906110a7565b600982015560058101546103859085906110c0565b600590910155600191505092915050565b335f908152600360208190526040909120015460ff16156103f95760405162461bcd60e51b815260206004820152601760248201527f5573657220616c7265616479207265676973746572656400000000000000000060448201526064016102b0565b60408051610180810182528381526020808201849052600182840181905260608301525f6080830181905260a0830181905260c0830181905260e083018190526101008301819052610120830181905261014083018190526101608301819052338152600390915291909120815181906104739082611159565b50602082015160018201906104889082611159565b506040828101516002830155606083015160038301805491151560ff199283161790556080840151600484015560a0840151600584015560c0840151600684015560e0840151600784015561010084015160088401556101208401516009840155610140840151600a84015561016090930151600b909201805492151592909316919091179091555133907f54db7a5cb4735e1aac1f53db512d3390390bb6637bd30ad4bf9fc98667d9b9b9905f90a25050565b60408051808201909152600c81526b43616e27742075706461746560a01b60208201526001545f919081906001600160a01b0316331461058f5760405162461bcd60e51b81526004016102b09190611069565b506001600160a01b0384165f90815260036020526040902060048101546105b79085906110a7565b6004820155600681018054905f6105cd8361108f565b91905055508381600801546105e291906110a7565b600890910155600191505092915050565b60036020525f908152604090208054819061060d906110d3565b80601f0160208091040260200160405190810160405280929190818152602001828054610639906110d3565b80156106845780601f1061065b57610100808354040283529160200191610684565b820191905f5260205f20905b81548152906001019060200180831161066757829003601f168201915b505050505090806001018054610699906110d3565b80601f01602080910402602001604051908101604052809291908181526020018280546106c5906110d3565b80156107105780601f106106e757610100808354040283529160200191610710565b820191905f5260205f20905b8154815290600101906020018083116106f357829003601f168201915b50505060028401546003850154600486015460058701546006880154600789015460088a015460098b0154600a8c0154600b909c01549a9b979a60ff9788169a5095985093969295919490939291168c565b60408051808201909152600e81527f43616e2774207769746864726177000000000000000000000000000000000000602082015260015481906001600160a01b031633146107c35760405162461bcd60e51b81526004016102b09190611069565b506001600160a01b0384165f90815260036020526040812060028101805491926107ec8361108f565b919050555082816004015f82825461080491906110c0565b9250508190555083816005015f82825461081e91906110a7565b90915550505050505050565b60408051808201909152601d81527f4f6e6c79206f776e65722063616e207570646174652068616e646c657200000060208201525f5481906001600160a01b0316331461088a5760405162461bcd60e51b81526004016102b09190611069565b50506001805473ffffffffffffffffffffffffffffffffffffffff19166001600160a01b0392909216919091179055565b6001600160a01b0381165f9081526003602081905260408220015460ff166109255760405162461bcd60e51b815260206004820152601360248201527f55736572206e6f7420726567697374657265640000000000000000000000000060448201526064016102b0565b6001600160a01b0382165f908152600360205260409020600581015461094c9034906110a7565b600590910155506001919050565b60405180606001604052806028815260200161125a6028913960025481906001600160a01b031633146109a05760405162461bcd60e51b81526004016102b09190611069565b506002546040517f6352211e000000000000000000000000000000000000000000000000000000008152600481018490526001600160a01b03909116908190636352211e90602401602060405180830381865afa158015610a03573d5f803e3d5ffd5b505050506040513d601f19601f82011682018060405250810190610a279190611215565b6001600160a01b0316846001600160a01b031614610a875760405162461bcd60e51b815260206004820152601e60248201527f546f6b656e206f776e65722063616e207570646174652064657461696c73000060448201526064016102b0565b50506001600160a01b039091165f908152600360205260409020600a810191909155600b01805460ff19166001179055565b610b1760405180610180016040528060608152602001606081526020015f81526020015f151581526020015f81526020015f81526020015f81526020015f81526020015f81526020015f81526020015f81526020015f151581525090565b6001600160a01b0382165f908152600360205260409081902081516101808101909252805482908290610b49906110d3565b80601f0160208091040260200160405190810160405280929190818152602001828054610b75906110d3565b8015610bc05780601f10610b9757610100808354040283529160200191610bc0565b820191905f5260205f20905b815481529060010190602001808311610ba357829003601f168201915b50505050508152602001600182018054610bd9906110d3565b80601f0160208091040260200160405190810160405280929190818152602001828054610c05906110d3565b8015610c505780601f10610c2757610100808354040283529160200191610c50565b820191905f5260205f20905b815481529060010190602001808311610c3357829003601f168201915b505050918352505060028201546020820152600382015460ff908116151560408301526004830154606083015260058301546080830152600683015460a0830152600783015460c0830152600883015460e08301526009830154610100830152600a830154610120830152600b9092015490911615156101409091015292915050565b604051806060016040528060298152602001611231602991395f5481906001600160a01b03163314610d185760405162461bcd60e51b81526004016102b09190611069565b50506002805473ffffffffffffffffffffffffffffffffffffffff19166001600160a01b0392909216919091179055565b6001600160a01b0381168114610d5d575f80fd5b50565b5f8060408385031215610d71575f80fd5b8235610d7c81610d49565b946020939093013593505050565b634e487b7160e01b5f52604160045260245ffd5b5f82601f830112610dad575f80fd5b813567ffffffffffffffff80821115610dc857610dc8610d8a565b604051601f8301601f19908116603f01168101908282118183101715610df057610df0610d8a565b81604052838152866020858801011115610e08575f80fd5b836020870160208301375f602085830101528094505050505092915050565b5f8060408385031215610e38575f80fd5b823567ffffffffffffffff80821115610e4f575f80fd5b610e5b86838701610d9e565b93506020850135915080821115610e70575f80fd5b50610e7d85828601610d9e565b9150509250929050565b5f60208284031215610e97575f80fd5b8135610ea281610d49565b9392505050565b5f81518084525f5b81811015610ecd57602081850181015186830182015201610eb1565b505f602082860101526020601f19601f83011685010191505092915050565b61018081525f610f0061018083018f610ea9565b8281036020840152610f12818f610ea9565b604084019d909d52505098151560608a0152608089019790975260a088019590955260c087019390935260e086019190915261010085015261012084015261014083015215156101609091015292915050565b5f805f60608486031215610f77575f80fd5b8335610f8281610d49565b95602085013595506040909401359392505050565b602081525f8251610180806020850152610fb56101a0850183610ea9565b91506020850151601f19858403016040860152610fd28382610ea9565b925050604085015160608501526060850151610ff2608086018215159052565b50608085015160a085015260a085015160c085015260c085015160e085015260e085015161010081818701528087015191505061012081818701528087015191505061014081818701528087015191505061016081818701528087015191505061105f8286018215159052565b5090949350505050565b602081525f610ea26020830184610ea9565b634e487b7160e01b5f52601160045260245ffd5b5f600182016110a0576110a061107b565b5060010190565b808201808211156110ba576110ba61107b565b92915050565b818103818111156110ba576110ba61107b565b600181811c908216806110e757607f821691505b60208210810361110557634e487b7160e01b5f52602260045260245ffd5b50919050565b601f821115611154575f81815260208120601f850160051c810160208610156111315750805b601f850160051c820191505b818110156111505782815560010161113d565b5050505b505050565b815167ffffffffffffffff81111561117357611173610d8a565b6111878161118184546110d3565b8461110b565b602080601f8311600181146111ba575f84156111a35750858301515b5f19600386901b1c1916600185901b178555611150565b5f85815260208120601f198616915b828110156111e8578886015182559484019460019091019084016111c9565b508582101561120557878501515f19600388901b60f8161c191681555b5050505050600190811b01905550565b5f60208284031215611225575f80fd5b8151610ea281610d4956fe4f6e6c79206f776e65722063616e2075706461746520676f7665726e616e6365546f6b656e416464724f6e6c7920676f7665726e616e636520746f6b656e2063616e2075706461746520746f6b656e4964a2646970667358221220c52efe5b1c6ce4b4f023c1e14d4950f2f5b1d3e2d50fa540ff6b11467f315ddd64736f6c63430008140033",
  "linkReferences": {},
  "deployedLinkReferences": {}
}